:040000000C949300C9
:100004000C9400000C9400000C9400000C9400006C
:100014000C9400000C9400000C9400000C9400005C
:100024000C9455020C9400000C9400000C940000F5
:100034000C9400000C9400000C9459020C940000E1
:100044000C9400000C940E020C9400000C9400001C
:100054000C9400000C9400000C9400000C9400001C
:100064000C9400000C9400000C9400000C9400000C
:100074000C9400000C9429020C9400000C940000D1
:100084000C9400000C94000000000000000000002C
:10009400000000000000000000000000000000005C
:1000A400000000000000000000000000000000004C
:1000B400000000000000000000000000000000003C
:1000C400000000000000000000000000000000002C
:1000D400000000000000000000000000000000001C
:1000E400000000000000000000000000000000000C
:1000F400000000000000000000003C25642C256482
:100104003E002D4E414E000001002D4E414E00494F
:100114004E46000006000400F800010078050C01BA
:100124000000F894EE27ECBBF1E0F5BFE5BFE093E7
:100134006C00F8E1F1BDE1BD8DE0A2E0BB27ED93D9
:100144008A95E9F780E090E1A0E0B1E0ED930197B2
:10015400E9F7E8E1F1E085919591009761F0A591C7
:10016400B59105901590BF01F00105900D9201978E
:10017400E1F7FB01F0CF8BBFEFEFEDBFE0E1EEBFA6
:10018400C0E0D5E00C945F02E0E0E0939B00E8E976
:10019400E0939A00E6E0E0939D00E0919D00EF7B00
:1001A400E0939D00E881F9810E94D606E0939800CF
:1001B400E881E093990014C0E0E0EBB9E8E9EAB91A
:1001C400E6E0E0939500E0919500EF7BE0939500E5
:1001D400E881F9810E94D606E0939000E881E9B9AC
:1001E40022960895EDE0E5BDE8E2E3BD04C0EFE04A
:1001F400E3BFE0E9E1BFE2E8E7BF08955D9BFECF1E
:10020400E881ECB9219608950E9415072FEF3FEF7E
:10021400EE81FF813197EE83FF833196F9F0A88553
:10022400B985ED91A887B987F0E02E273F2700E034
:1002340010E00830E0E01E0784F4F901E170F0708A
:10024400AF0136952795042E052A21F0E1E0F0EA66
:100254002E273F270F5F1F4FECCFDACFF9010E9403
:100264001C072A96089528970E94170720E030E07B
:10027400E889EC83E6E0ED83EE85FF850E94D606EF
:10028400EE83EE85EF83EC85FD850E94D606E88734
:10029400EC85E987E0E0EA87EB87FE013496FA9380
:1002A400EA93E6E0F0E0FA93EA93AEDF8F01F80117
:1002B400EA871B8720E030E02830E0E03E0754F472
:1002C400DE011496A20FB31FEC91EA9397DF2F5F20
:1002D4003F4FF2CF0E941E07619608952897E0E0F1
:1002E400E883E983EA83EB83EC83ED83EE83EF8396
:1002F4000E94B604772342F00E94BB040E943D058D
:10030400AC85BD850E94F2060E94B6047F936F936C
:10031400FF93EF930E94BB040E94C004AF91BF916E
:100324008F919F910E94E305EC83FD836E837F830D
:100334000E94B6047F936F93FF93EF930E94BB04D4
:100344000E94C004AF91BF918F919F910E940807B2
:100354000E94DC050E94FC06EC81FD816E817F8198
:100364000E94CF04AA85BB85ED93FC930E94F706F7
:100374000E94CF04A885B985ED93FC93AA85BB851B
:100384000E94E806EC32A1E0FA0734F4DF01E4ED60
:10039400FEEFEA17FB070CF014C0A885B9850E948C
:1003A400E806EC32A1E0FA0754F4A885B9850E9466
:1003B400E806DF01E4EDFEEFEA17FB070CF001C0ED
:1003C40001C00AC0AA85BB85E0E0F0E0ED93FC9390
:1003D400A885B985ED93FC9360960895E1E0EA93CE
:1003E400E9E7F0E0FA93EA93ED81FE810E94DE04EE
:1003F400E2E0EA93E9E7F0E0FA93EA93EB81FC8127
:100404000E94CA060E94DE04E1E00E94E804E2E0E1
:100414000E94E80424960895AA93BA93EA93EFB746
:10042400EA93E4B5E93118F4E0E0E51519F0E0E009
:10043400E41519F40E94F00404C044240E94F0045A
:100444005524E991EFBFE991B991A9911895EA93DF
:10045400FA93EFB7EA931A9310E010919C001C33BF
:1004640019F4E0E0E91509F007C0C39B02C0C39882
:1004740001C0C39A66240EC01E3319F4E0E0E915E6
:1004840009F006C0E62D0E94FA04E1E09E2E05C0A4
:10049400992019F4E62D0E94FA041991E991EFBF0D
:1004A400F991E9911895EA93EFB7539403C0EA934D
:1004B400EFB77394EFBFE9911895EF97E5978CE642
:1004C400A0E0B0E0ECE8F0E00E94230700E010E0D8
:1004D40020E030E040E050E0E7E0F0E0FA93EA9317
:1004E40053DEE7E0F0E0FA93EA9366DE7BDE7FDE3C
:1004F4007894B99ABA9ABB9AE8E8F3E1FA93EA9342
:100504000E943105C198C29A992011F40C940503F4
:100514007724E0E0E2BFC19AC29B02C0C29801C046
:10052400C29AE0919A00EF7EE0939A00E4E6F5E047
:10053400FA93EA93EEEFF0E0FA93EA93EDB7FEB79D
:1005440031970E9401071F930F93EDB7FEB73197C0
:100554000E9401073F932F9388E00E9469042C9620
:100564002F913F910F911F91F8010E940005DE0128
:10057400A459BF4FED93FD936D937C93F9010E94B1
:100584000005DE01A059BF4FED93FD936D937C935D
:10059400FE01E459FF4FFA93EA93FE01EE58FF4F30
:1005A400FA93EA93EDB7FEB73197FA93EA935F9320
:1005B4004F93FE01E059FF4FFA93EA938FDE4F9178
:1005C4005F91FE01E859FF4F41935083FE01E659C4
:1005D400FF4F0190F081E02DDE01AA59BF4FED934A
:1005E400FC935A934A93FE01E459FF4F0190F08122
:1005F400E02DFA93EA93F2DE9924E0919A00E06107
:10060400E0939A00C19880CFFFCF1A93A981BA8151
:10061400E0E0EC93AB81BC81EC911E2FE03019F04B
:10062400E0E0EC9319C0A981BA8111960E94E80612
:10063400309789F0E981FA81A181B281EC911E2F72
:10064400E03041F0A981BA811196ED91FD91319686
:10065400FE93EE9301C010E0E12F188125960895D2
:1006640025970E941507E0E0F0E0E887F9874E2F10
:10067400E989FA893196E98BFA8B3197E4913E2F17
:10068400E03011F40C9463040E940D05C1F0EDB741
:10069400FEB7FA93EA934F930E9412054F913E2FAF
:1006A400E03019F00E940D0509F407C00E941A05F4
:1006B4001CF4EFEFFFEF07C1EACF432F01C135323E
:1006C40011F00C944A0450E0E989FA893591E98BD8
:1006D400FA8B303310F03A3308F007C0AAE05A9F7F
:1006E400502DE32FE0535E0FEFCF303009F4E9C013
:1006F400EDB7FEB7FA93EA934F930E9412054F9118
:100704002E2FEA930E949E04E03039F00E941A05CD
:100714001CF4EFEFFFEFD7C0EBCF203009F4C8C0D3
:10072400422F503009F45FEFE32FE33699F40E942F
:100734001F05EDB7FEB7FA93EA934F930E94120593
:100744004F91D801EC930E941A051CF4EFEFFFEFD0
:10075400BAC098C0E33741F50E941F05E52F5150F8
:10076400E030F1F0EDB7FEB7FA93EA934F930E94AD
:1007740012054F913E2FE03019F00E940D0539F01B
:100784000E941A051CF4EFEFFFEF9DC009C01F93F0
:100794000F930F5F1F4FE32FAF91BF91EC93DECF09
:1007A400D801E0E0EC936EC0E1E0EA87E32FE436A1
:1007B40011F0E93619F4E0E0EA8702C0E53711F4F4
:1007C4002AE008C0E83711F420E104C0E53209F456
:1007D4005FC077C0E0E0EE83EF83E52F5150E03057
:1007E40011F40C943704EDB7FEB7FA93EA934F93E0
:1007F4000E9412054F913E2FE13238F40E941A05EF
:100804001CF4EFEFFFEF5FC017C0EA85E03039F466
:100814003D3219F4EFEFEA87E0CFE1E0EA872031D7
:1008240031F43A930E94A804E03031F007C03A93BF
:100834000E949604E03011F4432F17C0313610F0B3
:10084400375505C0313410F0375301C03053E22F0F
:10085400AE81BF81F0E00E94E006DF01E32FF0E00B
:10086400EA0FFB1FEE83FF83B8CF0E941F05EA85C2
:10087400AE81BF81F0E0E7FDFFEF0E94E006D80102
:10088400ED93FC93E885F9853196E887F98718C0DC
:10089400EDB7FEB7FA93EA934F930E9412054F9176
:1008A400E31771F00E941A051CF4EFEFFFEF0BC081
:1008B400E885F985309719F4EFEFFFEF04C001C024
:1008C400D7CEE885F9850E941C0763960895FF92A8
:1008D400F82E23971A930A930E942A05309719F445
:1008E400EFEFFFEF1CC0DE0111960E94C6068D01DA
:1008F4000E942A05EB83FC83DE0115960E94C6063E
:100904000E94E806FA93EA931A930A93E7E0F3E065
:10091400FA93EA93FE013896FA93EA93A1DE1981D9
:1009240008812596FF900895E1E0F991F03310F0E5
:10093400FA3308F0EE270895E1E0F991F03229F056
:10094400F93010F0FE3008F0EE270895E1E0F99157
:10095400F05340F0FA3038F0FF75F750FA3010F0E9
:10096400F03108F0EE270895AE85BF850E94EC06AD
:100974000895AC85BD850E94EC060895A1EEBAE702
:1009840084E99EE30E943306DF01CB01E0E0F0E05E
:1009940060E870E40E9481060895AAEBB9EC88E14E
:1009A40093E40E943306A0E0B0E088EC91E40E9456
:1009B40033060E9472050895FA93EA930E94350162
:1009C400E1E0F0E0FA93EA930C943105EA93E8E766
:1009D400F0E0FA93EA93E1E0F0E0EECFA42DB0E08A
:1009E400A050BB4FECB1EC934394E0E0E4BD089518
:1009F400F0E0EC59FA4F1083639408950E94DB06EB
:100A04000E94A905DF01CB01E0E0F0E06AE774E4AD
:100A14000E94810608953A930E949E04E03008954E
:100A2400ED85FE85FA93EA93E989FA890995089593
:100A3400AB85BC85AC91A0300895EF85F8893497D7
:100A4400EF87F88BAF85B88914960D911C910895A2
:100A5400DE0117960E94C6060E94E8060895E991F1
:100A6400F991309639F086E69EE00197F1F7A89562
:100A74003197C9F7089530976040704009F0705875
:100A84000895552342F4503811F4E0FF04C0319620
:100A9400691F791F6BF050E8572711F45F93CFC09B
:100AA4005F3F31F0660F000C57956795752F0895D9
:100AB4005F9300200AF0CFC0C8C050E8192E152259
:100AC400880F991F9527550F879550E8072E052203
:100AD400660F771F7527550F67950895689401C0B1
:100AE400E8945F93F2DF703818F07F3F08F4A7C0F2
:100AF40056E1571BAAF4519558300EF4593030F092
:100B0400EFEFFFEF6FEF7FE777F91AC077275523F1
:100B1400B9F0EE0FFF1F661F771F5A95D1F710C06B
:100B24007727583028F0EF2FF62F672F5850F9CF3A
:100B3400552331F076956795F795E7955A95D1F752
:100B440000200AF429D15F910895689401C0E894C3
:100B5400309760407040B1F0002426F0772312F4FF
:100B640000941AD1172E7EE1112032F07A95EE0FFF
:100B7400FF1F661F111CF9CFEF2FF62F612D5F9316
:100B84008ADF5F9108954F93AF01FD01DA01AB0154
:100B9400BC01CA01402D012C142E4F910895EA0F77
:100BA400FB1F681F0895E095F0956095EF5FFF4F78
:100BB4006F4F08955F9381DF903871F150E81526E7
:100BC40004C05F937ADF903839F1703821F1572FE0
:100BD400591B2BF112F4D7DFFACF583118F0AA279A
:100BE400BB278827583028F0AB2FB82F88275850B8
:100BF400F9CF552329F08695B795A7955A95D9F736
:100C0400502D512572F0CBDF38F46795F795E795B1
:100C1400739513F420C0B7DF3EDF5F910895D8F7D2
:100C2400FBCFEA1BFB0B680B51F010F40094BBDF05
:100C3400662392F3EE0FFF1F661F7A95CBF7EE271C
:100C4400FF27662777275F910895EFEFFFEF6FE7A0
:100C54007FEF5F910895EFEFFFEF6FE77FE75F911D
:100C640008955F932ADF703851F3903841F30124DB
:100C74000894791F23F41CF300203AF3ECCF0F926D
:100C84001F932F933F934F93112722279927689FF0
:100C9400A0018F9F302D410D591F6B9F300D411DB9
:100CA400591F8E9F27D0BF9F25D06A9F23D0BE9FF8
:100CB4001DD0AF9F1BD0AE9F110D291F391F491F97
:100CC400591FE32FF42F652F522F4F913F912F91EE
:100CD4001F910F9066232AF0550FEE1FFF1F661F0A
:100CE40002C073954BF2CDDE5F910895100D211D66
:100CF400391F02C0200D311D491F591F08955F93EC
:100D0400DCDE703821F411200AF49FCFA4CF903890
:100D140009F495CF01240894970B1BF4D4F3002015
:100D2400F3CF792F1F932F933F934F9311241127C0
:100D3400222733274427552790E2AE17BF0786079B
:100D4400410730F0AE1BBF0B860B410B089401C06A
:100D54008894551F221F331F111CAA1FBB1F881FF5
:100D6400441F9A9551F7F901612D4F913F912F91AD
:100D74001F91662332F0550FEE1FFF1F661F7A95F1
:100D840043F27FDE5F9108950024AF0DB01D0895F6
:100D9400F195E195F0400895F09560957095E19591
:100DA400FF4F6F4F7F4F0895EF2FFF27E7FDFFEFB2
:100DB40008956F2F660F660B762F0895FA9FF02D16
:100DC400EB9FF00DEA9FE02DF10D0895ED91FC915C
:100DD40011970895ED91FD916D917C91139708956C
:100DE400ED93FD936D937C930895E881F9816A8175
:100DF4007B810895E883F9836A837B83089560E0A7
:100E040070E07A936A93FA93EA930895182E862FE2
:100E1400612D192E972F712D1B2EBF2FF12D1A2EF8
:100E2400AE2FE12D08955A934A933A932A931A9335
:100E34000A9308955D814C813B812A81198108813F
:100E44000895AC0FBD1F05900D928A95E1F70895A2
:00000001FF
