:040000000C94C90192
:100004000C9400000C9400000C9400000C9400006C
:100014000C9404070C9412070C9420070C943507D5
:100024000C94FD040C9400000C9400000C9400004B
:100034000C941A050C9400000C9400000C9409050F
:100044000C9400000C9444050C9400000C940000E3
:100054000C9400000C9400000C9400000C9400001C
:100064000C9400000C9400000C9400000C9400000C
:100074000C9400000C9465050C9400000C94000092
:100084000C9400000C94000000000000000000002C
:10009400000000000000000000000000000000005C
:1000A400000000000000000000000000000000004C
:1000B400000000000000000000000000000000003C
:1000C400000000000000000000000000000000002C
:1002C4000000000000003C25642C25643E00252E1F
:1002D40033662C20252E33662C20252E33662C20C5
:1002E40025640A0000000000000000000000000077
:1002F40000000000000000000000000000000000FA
:1003040000000000000000000000000000000000E9
:1003140000000000000000000000000000000000D9
:1003240000000000000000000000000000000000C9
:1003340000000000000000000000000000000000B9
:1003440000000000000000000000000000000000A9
:100354000000000000000000000000000000000099
:100364000000000000000000000000000000000089
:10037400000000002D4E414E000001002D4E414E64
:1003840000494E46000001008A057E030000F894EF
:10039400EE27ECBBF1E0F5BFE5BFE0936C00F8E1BC
:1003A400F1BDE1BD8DE0A2E0BB27ED938A95E9F7AD
:1003B40080E090E1A0E0B1E0ED930197E9F7EAE88D
:1003C400F3E085919591009761F0A591B591059021
:1003D4001590BF01F00105900D920197E1F7FB0123
:1003E400F0CF8BBFEFEFEDBFE0E1EEBFC0E0D5E0B3
:1003F4000C94FC01EF972797D2508EE392E0A0E093
:10040400B0E0ECE8F0E00E94C31300E010E020E06C
:1004140030E040E050E0E7E0F0E0FA93EA930E9435
:100424009C05E7E0F0E0FA93EA930E94B40512D346
:1004340017D31AD30E94FB067894B99ABA9ABB9A36
:10044400E8E8F3E10E94EF0D0E94F30DE0918105CD
:10045400E03011F40C946E03E0919A00EF7EE09387
:100464009A00ECE6F5E0FA93EA93EAECF2E0FA9308
:10047400EA93FE01E95DFD4F662777270E949413F6
:10048400FE01E45DFD4F662777270E94941388E000
:100494000E940B0C2C96FE01ED5DFD4FE081E030D7
:1004A40011F00C94BA020E94FA0DDE01A25DBD4F58
:1004B400ED93FD936D937C930E94050E0E94AF1300
:1004C40034F50E940E0EDF01CB01EDECFCEC6CE484
:1004D4007DE30E94160E0E941B0E0E94230E0E94B2
:1004E400901228F40E94280E0E943C0E02C00E9422
:1004F400280EDE01AA5CBD4FED93FD936D937C93B2
:100504000E944A0EEAE9F9E969E17EE327C00E9404
:100514000E0EADECBCEC8CE49DE30E94AD110E9488
:100524001B0E0E9407110E941B0E0E94230E0E94A4
:10053400901228F40E94280E0E943C0E02C00E94D1
:10054400280EDE01AA5CBD4FED93FD936D937C9361
:100554000E944A0EEAE9F9E969E17EEBDE01A25C58
:10056400BD4FED93FD936D937C930E94600E6DC01F
:10057400DE01AD5DBD4FAC91A13011F00C942703A9
:100584000E94FA0DDE01AA5DBD4FED93FD936D93BC
:100594007C93DE01AA5DBD4F0D901D908D919C91C1
:1005A400D0010E94AF1304F50E94690E0E94A611A7
:1005B4000E94760E0E94860E0E94901228F40E94D9
:1005C4008B0E0E949F0E02C00E948B0EDE01AA5C5D
:1005D400BD4FED93FD936D937C930E944A0E0E9450
:1005E400AD0E0E94B60E2AC00E94690E0E94AD1183
:1005F4000E94760E0E940711DE01A65DBD4FED93A9
:10060400FD936D937C930E94860E0E94901228F4B1
:100614000E948B0E0E949F0E02C00E948B0EDE0170
:10062400AA5CBD4FED93FD936D937C930E944A0E9B
:100634000E94AD0EE0E0F0E060E070ECDE01AE5B45
:10064400BD4FED93FD936D937C93E0E0DE01AD5ED1
:10065400BD4FED93ED93ED93EC93FE01E25CFD4F02
:10066400FA93EA93FE01EC5BFD4FFA93EA93EDB73C
:10067400FEB73197FA93EA935F934F93FE01EE5BD3
:10068400FD4FFA93EA930E9461064F915F915A934A
:100694004A93FE01E25CFD4F0190F081E02DFA9354
:1006A400EA930E94DD06E0E0DE01A55EBD4FED9316
:1006B400ED93ED93EC930E94BB0EE0E0ECBDE1E022
:1006C400DE01AE5EBD4FEC93E0E0E0938105E09186
:1006D4009A00E061E0939A00E0910005F091010531
:1006E4006091020570910305AFEFB0E080E090E007
:1006F4000E940013DF01CB01ECB5F0E00E94D012A0
:100704000E94B4120E947311AEEDB8E38EE89DE32B
:100714000E94FD11DE01A55EBD4FED93FD936D9327
:100724007C93DE01A65CBD4F0D90BC91A02D0E9470
:10073400D5120E949B130E94901298F4E0E0F0E01E
:10074400FA93EA93FA93EA930E94DD060E94BB0EA1
:100754000E94AD0E0E94600EE0E0DE01AE5EBD4F71
:10076400EC93A0916A05B0916B05EFEF0E94FA1229
:10077400DF01E2B7F0E0EA0FFB1F662777270E944C
:100784007311AEEAB2EA81E998E30E94FD11DE0139
:10079400A15EBD4FED93FD936D937C930E94F30D89
:1007A400E0918205F091830560918405709185053F
:1007B4000E94C50EDE01A850BE4FED93FD936D93CC
:1007C4007C93E0918605F09187056091880570918E
:1007D40089050E94C50EDE01AC50BE4FED93FD931A
:1007E4006D937C93FE01E15EFD4F01901190619148
:1007F4007081F0010E94D60E0E94AD11DE01A95E47
:10080400BD4FED93FD936D937C930E94D60EEAE069
:10081400F7ED63E27CE30E94901209F010F40C946B
:10082400FB040E94DF0EDE01AD5EBD4F0D901D90F6
:100834008D919C91D0010E94AD11DE01AD5EBD4F42
:10084400ED93FD936D937C93E0E0E0938205E09358
:100854008305E0938405E0938505E0938605E093A2
:100864008705E0938805E09389050E94E80E7F934D
:100874006F93FF93EF930E94DF0EA0E0B0E080E05F
:1008840090E40E94FD11AF91BF918F919F910E94BE
:100894004B12DE01A050BE4FED93FD936D937C93FC
:1008A4000E94FB0E7F936F93FF93EF930E94DF0EE2
:1008B4000E940E0FAF91BF918F919F910E944B1296
:1008C400DE01A450BE4FED93FD936D937C930E9483
:1008D400FB0EDF01CB01EDECFCEC6CE87EE30E9447
:1008E4004B120E94150F0E94AD11DE01AA5FBD4F8D
:1008F400ED93FD936D937C930E94E80E0E941E0F6E
:100904007F936F93FF93EF930E94240F0E94060D31
:10091400AF91BF918F919F910E94FD11DE01A25F63
:10092400BD4F0D901D908D919C91D0010E94AD11F1
:10093400DE01A25FBD4FED93FD936D937C930E9406
:10094400E80E0E941E0F7F936F93FF93EF930E9414
:10095400240F0E947F0CAF91BF918F919F910E94B1
:10096400FD11DE01A65FBD4F0D901D908D919C91F0
:10097400D0010E94AD11DE01A65FBD4FED93FD9342
:100984006D937C930E94150FE6EFF8E265E672E43E
:100994000E942F0FDE01AC5FBD4FED93FC93FE016F
:1009A400FA93EA93E2EDF2E0FA93EA930E94DF0EFF
:1009B4000E94340F0E94340F0E949413FE01EC5ED7
:1009C400FD4F0190F081E02D0E94D0120E949413FB
:1009D40080E10E94750A6496FE01FA93EA930E94EC
:1009E400D205E0E0DE01A95EBD4FED93ED93ED93FA
:1009F400EC932CCDFFCFEA93EFB7EA93E091040593
:100A0400EF5FE0930405E991EFBFE9911895AA938C
:100A1400BA93EA93FA93EFB7EA93AAE6B5E00E9491
:100A24003F0FE991EFBFF991E991B991A991189517
:100A34000E94450FA0E0B5E00E944E0FE0E0EDBD3E
:100A4400ECBDE991EFBFF991E991B991A99179913F
:100A540069911895EDE0E5BDE8E2E3BDE2E810C078
:100A6400E7E0E3BFE1E80CC0EDE1EEBDEFEFF0E05D
:100A7400F9BDE8BDE0EBF4E0F7BDE6BDE7B7E8603B
:100A8400E7BF0895AA93BA93EA93EFB7EA93E4B55C
:100A9400E93120F4A0910405A03021F0A09169056A
:100AA400A03019F40E94570F08C0E0E0E0936905F4
:100AB4000E94570FE0E0E0930405E991EFBFE9914C
:100AC400B991A9911895AA93EA93FA93EFB7EA9387
:100AD4001A9310E010919C001C3321F4A09181051D
:100AE400A03009F009C0C39B02C0C39801C0C39AD7
:100AF400E0E0E093800513C01E3321F4A09181054A
:100B0400A03009F008C0E09180050E94660FE1E082
:100B1400E093810508C0E0918105E03021F4E09183
:100B240080050E94660F1991E991EFBFF991E9914F
:100B3400A9911895E0E0E0939B00E8E9E0939A001E
:100B4400E6E0E0939D00E0919D00EF7BE0939D0043
:100B5400E881F9810E94C512E0939800E881E0934E
:100B6400990014C0E0E0EBB9E8E9EAB9E6E0E09303
:100B74009500E0919500EF7BE0939500E881F98181
:100B84000E94C512E0939000E881E9B92296089585
:100B9400E0919B00E072E1F3E881E0939C0023C0C4
:100BA4001A930A9310E000E010E00E94700FE03006
:100BB40031F00E94700FEA93EBDF1F5FF6CF00E085
:100BC400011750F4AA81BB811196AA83BB831197A4
:100BD400E0E0EC930F5FF4CF1981088108C15D9BBD
:100BE400FECFE881ECB9219608950E94B5132FEF4A
:100BF4003FEFEE81FF813197EE83FF833196F9F069
:100C0400A885B985ED91A887B987F0E02E273F27FD
:100C140000E010E00830E0E01E0784F4F901E17020
:100C2400F070AF0136952795042E052A21F0E1E0F6
:100C3400F0EA2E273F270F5F1F4FECCFDACFF901E1
:100C44000E94BC132A96089528970E94B71320E0A7
:100C540030E0E889EC83E6E0ED83EE85FF850E94D1
:100C6400C512EE83EE85EF83EC85FD850E94C512E7
:100C7400E887EC85E987E0E0EA87EB87FE013496B4
:100C8400FA93EA93E6E0F0E0FA93EA93AEDF8F0199
:100C9400F801EA871B8720E030E02830E0E03E07D7
:100CA40054F4DE011496A20FB31FEC91EA9397DF7C
:100CB4002F5F3F4FF2CF0E94BE136196089528978D
:100CC4000E94770FE0E0EA83EB83EC83ED83EE830D
:100CD400EF830E947B0F772342F00E94800F0E94D3
:100CE4000711AC85BD850E947B130E947B0F7F9307
:100CF4006F93FF93EF930E94800F0E940E0F0E9448
:100D04001E0FAF91BF918F919F910E94AD110E94D0
:100D1400850F0E947B0F7F936F93FF93EF930E9445
:100D2400800F0E940E0F0E941E0FAF91BF918F91F2
:100D34009F910E94160E0E948F130E948A0F0E9498
:100D44008F0FAA85BB85ED93FC930E948A130E94A2
:100D54008F0FA885B985ED93FC93AA85BB850E9466
:100D64006C13EC32A1E0FA0734F4DF01E4EDFEEF9A
:100D7400EA17FB070CF014C0A885B9850E946C1310
:100D8400EC32A1E0FA0754F4A885B9850E946C13EB
:100D9400DF01E4EDFEEFEA17FB070CF001C001C030
:100DA40008C0AA85BB850E94940FA885B9850E94B6
:100DB400940F0C945708E1E0EA93E9E7F0E0FA9322
:100DC400EA93ED81FE810E94990FE2E0EA93E9E75C
:100DD400F0E0FA93EA93EB81FC810E94B9120E943D
:100DE400990FE1E00E94A00FE2E00E94A00F249678
:100DF4000895E5E5EABFE0EFE9BF14981598169861
:100E0400179808950E94A80F41F0A2E8B5E00E9447
:100E14004E0F31976040704002C00E94B10F37C03E
:100E24000E94A80F19F00E94B10F07C0A2E8B5E014
:100E34000E944E0F31976040704029C00E94450FB8
:100E4400A0E00E99A1E0E0E00F99E1E0EA1719F0C3
:100E54000E94BF0F07C0A6E8B5E00E944E0F31976D
:100E64006040704014C00E94450FA0E00F99A1E0BB
:100E7400E0E00E99E1E0EA1741F0A6E8B5E00E944F
:100E84004E0F31976040704002C00E94BF0FE9913D
:100E9400EFBFF991E991B991A99179916991189567
:100EA4001A930A93AA81BB8112960E946C133097FD
:100EB40029F1AA81BB8114960E946C138F0130978B
:100EC40061F00230E0E01E07C0F0F80131978F01B5
:100ED400AA81BB811496ED93FC93AA81BB811296DF
:100EE4000E943F0F3197AC81A083AA81BB810E94ED
:100EF4006C13FF2312F00E943F0F06C0AA81BB812E
:100F0400EFEFFFEFED93FC931981088146C324971B
:100F14000E94770FE0E8EA83EFE3EB830E94B713C4
:100F2400EE85FF85EF3FAFEFFA0749F4E885F985D1
:100F3400FA93EA93E8E7F3E00E94CD0FB4C0EF3FE1
:100F4400AFE7FA0749F4E885F985FA93EA93E9E704
:100F5400F3E00E94CD0FA7C0AB85A73010F0E6E008
:100F6400EB871B85E12F1150E03019F00E94D10F5F
:100F7400F9CFEC85FD856E857F850E94AB1321F446
:100F840030E00E94D10F2EC03B850E94D90F09F09A
:100F940010F40C94D8070E94D10F0E94D90F28F0A6
:100FA4000E94E40F0E94E90FF8CF0DC00E94D90FF0
:100FB40040F40E94E40F0E94F50F0E94FC0F315090
:100FC400F5CF0E94D10FEC85FD856E857F850E944B
:100FD40001100E94FC0F0E94D90F20F00E94E40F20
:100FE4000E94E90F10E0EB85E11788F10E948A0F57
:100FF4000E9408100E9401100E940F100E94850F89
:10100400EC81FD816E817F810E94E40F0E944B126E
:101014000E943A110E2F0E9413100E941A10FF27EB
:10102400662777270E9473110E948A0F0E94FD1180
:101034000E94E40F0E94160E0E94FC0FE12F1F5F16
:10104400E03089F60E941310EEE2EC93CCCF0E94BC
:101054001F103197AA85A08330302CF43195A885D0
:10106400B985EDE203C0A885B985EBE2EC930E9453
:101074001F100E941F103197BF01A32FEAE00E94A6
:101084001313E05DDB01EC930E941F103197BF0145
:10109400A32FEAE00E943D13E05DDB01EC93A885F9
:1010A400B985E0E0EC930E94BE1360960895EF9733
:1010B40061970E94B51310E0FE01E85AFF4F0190BA
:1010C400F081E02DE887F987FE01EA5AFF4F01908D
:1010D400F081E02DEE83FF83AE81BF810E94940FE7
:1010E400DE01A45ABF4F0E943F0F3197E4912E2F87
:1010F400E03011F40C946C0AE12FE03039F425321D
:1011040011F411E002C00E942510E3C1E130C1F4E2
:10111400253219F40E942510DBC112E0E0E0ED8BCA
:1011240000E02D3211F401E0D4C12B3219F4EBE2CA
:10113400ED8BCFC1203219F4E0E2ED8BCAC102C0BD
:10114400E23039F450E013E0203311F40068C1C1F7
:1011540002C0E33091F4203310F02A3308F007C0C2
:10116400AAE05A9F502DE22FE0535E0FB2C140E037
:101174002E3211F414E0ADC10FC0E43099F42033E1
:1011840010F02A3308F008C00062AAE04A9F402DFC
:10119400E22FE0534E0F9DC12C3619F4026015E086
:1011A40098C104C0E53011F00C946B0AE22FE336C9
:1011B40059F40E942E100E9435100E942E10A48112
:1011C400AA930E943C1084C1E53411F0E53609F479
:1011D40004C0E63611F00C943909FE017696EE87C8
:1011E400FF870E9444100E9470130E944B100E94BB
:1011F4005010AD85AA2322F0AD89AB3249F017C057
:101204000E9452100E9407110E944B10EDE2ED8BD8
:1012140007FF05C0ED89EA930E943C1008C0EE85E3
:10122400FF853196EE87FF873197AD89A08305FF4F
:1012340046E0263661F40E9452100E9494134A93A9
:10124400EB89FC89FA93EA930E94530D0BC00E9428
:1012540052100E9494134A932A93EC89FD89FA93BD
:10126400EA9355DEFE0176960E9457101EC0E337BE
:1012740039F40E9450100E945F100E9457100EC053
:10128400E037C1F40E9450100E945F10EE87FF8780
:10129400FA93EA930E94480D1E2F08600F7740309E
:1012A40011F0411708F001C0142F40E0E0E0EC8B8E
:1012B40030E06EC0E43611F0E93611F4046002C087
:1012C400E537A1F4EAE0EC8B01FF08C0E0E0FAECBA
:1012D4006AE97BE30E9464101AE023C0E0E1F7E2CC
:1012E40060E070E00E94641015E01BC0E83511F462
:1012F400086004C0E83711F00C946A0AE0E1EC8B52
:1013040001FF08C0E0E0F0E060E070E10E946410DA
:1013140018E007C0E0E0F0E160E070E00E946410D3
:1013240014E0403011F00F7701C041E001FF08C024
:101334000E9450100E94441014960E9470130FC013
:1013440002FF07C00E9450100E945F100E94D0123A
:1013540006C00E9450100E945F1066277727EA8714
:10136400FB876C877D8702FF12C0AD85AA2342F4F8
:101374000E9452100E94BD120E944B10EDE2ED8BB0
:10138400ED89E03019F01F5F4F5F01C00B7F342FF0
:1013940000FD14C0151710F4351708F00FC007FF2F
:1013A40008C002FF04C00B7F2D89115001C020E347
:1013B40001C020E20E9425105150ECCF141790F484
:1013C400006102FF06C00E94691009F051501150DB
:1013D4004150E0E3EA930E943C10503009F0515030
:1013E4004150ECCF312FEC89E030B9F43030A1F02A
:1013F40003FF06C0EE85FF852591EE87FF8705C0B4
:10140400AE85BF852D91AE87BF870E9425105030D1
:1014140009F051503150EACF51C00E947D100E9412
:1014240018132E2F2A3030F003FF02C0295C01C0AC
:10143400295A01C0205D04FD21C0213360F4A8892C
:10144400B9898A899B89A130E0E0BE07E0E08E0774
:10145400E0E09E0709F40BC0431740F4531710F063
:1014640000FF01C010C020E207FF08C020E30061B4
:1014740002FF04C00E94691009F051500E94251017
:10148400503009F0515031500E947D100E94491390
:101494000E944B10EC89A889B9898A899B89FF2706
:1014A400662777270E9418130E946410E889F98937
:1014B4006A897B890E94AB1309F0AFCF00FF08C093
:1014C400503031F05150E0E2EA930E943C10F8CFE2
:1014D40010E006CEAE81BF810E946C130E94BC1343
:1014E400EF966F960895FF92F82E26970E94B713F1
:1014F4000E948610309719F4EFEFFFEF23C0DE014E
:1015040016960E94B0128D010E948610EE83FF830E
:10151400E0E0E887E987DE011A960E948D10FA93CD
:10152400EA931A930A93E2E5F7E0FA93EA93FE0149
:101534003A96FA93EA93BBDD9F01AE81BF81E0E066
:10154400EC93F9010E94BE132A96FF9008951A9312
:10155400A981BA81E0E0EC93AB81BC81EC911E2FB0
:10156400E03019F0E0E0EC9316C0A981BA8111963D
:101574000E946C13309771F0E981FA81A181B281E4
:10158400EC911E2FE03029F0A981BA8111960E94B6
:101594003F0F01C010E0E12F188125960895289788
:1015A4000E94B513E0E0F0E0EA87FB87ED87EC8961
:1015B400FD893196EC8BFD8B3197E4913E2FE03021
:1015C40011F40C94050C0E94921091F00E94971053
:1015D4003E2FE03019F00E94921009F407C00E94D7
:1015E400A3101CF4EFEFFFEF10C1F0CF3D870AC149
:1015F400353211F00C94F20B50E0EC89FD893591F1
:10160400EC8BFD8B303310F03A3308F007C0AAE0BE
:101614005A9F502DE32FE0535E0FEFCF303009F483
:10162400F2C00E9497102E2FEA930E941B0DE03007
:1016340039F00E94A3101CF4EFEFFFEFE6C0F1CFE6
:10164400203009F4D7C02D87503009F45FEF40E013
:10165400E32FE33669F40E94A8100E949710D80182
:10166400EC930E94A3101CF4EFEFFFEFCEC0B2C0C6
:10167400E33711F50E94A810E52F5150E030C1F076
:101684000E9497103E2FE03019F00E94921039F01A
:101694000E94A3101CF4EFEFFFEFB7C009C01F9323
:1016A4000F930F5F1F4FE32FAF91BF91EC93E4CFE4
:1016B400D801E0E0EC938EC0EC3631F441E0EC89E3
:1016C400FD893591EC8BFD8BE1E0EC87E32FE4366B
:1016D40011F0E93619F4E0E0EC8702C0E53711F4C3
:1016E4002AE008C0E83711F420E104C0E53209F427
:1016F40077C089C0E0E0EE83EF83E887E987E52FD0
:101704005150E03011F40C94CC0B0E9497103E2FF2
:10171400E13238F40E94A3101CF4EFEFFFEF75C020
:1017240017C0EC85E03039F43D3219F4EFEFEC8763
:10173400E6CFE1E0EC87203131F43A930E94250DA5
:10174400E03031F007C03A930E94130DE03011F4F9
:101754003D8720C0313610F0375505C0313410F0C4
:10176400375301C03053E22FAE81BF8188859985FC
:10177400FF27662777270E94DA12DF01CB01E32FC8
:10178400FF27662777270E94B412EE83FF836887BA
:101794007987B5CFEC85AE81BF81888599850E9414
:1017A400CA120E94DA12EE83FF8368877987403079
:1017B40051F00E94A810EE81FF8168857985D801D7
:1017C4000E947B1307C00E94A810EE81FF81D801FC
:1017D400ED93FC93EA85FB853196EA87FB8712C07B
:1017E4000E949710E31771F00E94A3101CF4EFEF0E
:1017F400FFEF0BC0EA85FB85309719F4EFEFFFEF9D
:1018040004C001C0D4CEEA85FB850E94BC13669651
:101814000895FF92F82E23971A930A93DE011796E0
:101824000E948D10309719F4EFEFFFEF1CC0DE011A
:1018340011960E94B0128D01DE0117960E948D1040
:10184400EB83FC83DE0115960E948D10FA93EA93D4
:101854001A930A93E9EAFAE0FA93EA93FE013896B6
:10186400FA93EA939CDE198108812596FF900895E6
:101874007B816A81F981E88177FB770F67FD71606D
:10188400972F9E5781F078F0983190F4AA27BB27C0
:10189400882708948795B795A7959A95D1F7EA2351
:1018A400FB23682305C0E8947727EE27FF276627E4
:1018B4006F77769508F4606877F9A991B991899161
:1018C4009991EA17FB076807790797FB08950E9427
:1018D400B3100E9494130E943A0C0E948F1319F4BF
:1018E4000E94B3109CC0E6F70E94B310A0E0B0E0E1
:1018F40080E89FE30E94A61192C024971A9310E0F7
:101904000E94B610E3E8F9EF62E27EE30E94FD1163
:101914000E94BB100E94C0100E940F100E94B610BB
:101924000E94160E0E94BB100E94C5100E949012C5
:1019340009F010F40C94A90C0E94C010A0E0B0E0CF
:1019440080E09FE30E94A6110E94BB1011E00E9458
:10195400B610E0E0F0E060E87EE30E94901209F047
:1019640010F40C94BB0C0E94C5100E94A6110E9496
:10197400BB10103031F00E94C0100E9407110E9469
:10198400BB100E94C0100E94B6100E94FD11E98392
:10199400FA836B837C83A1EBB4EC86E292E40E942D
:1019A400FD11DF01CB01EDE1F5EE6DE272E40E9481
:1019B400160E0E94CB10ACE4B3E584E091E40E94DF
:1019C400AD110E94B6100E94FD117F936F93FF9397
:1019D400EF93E981FA816B817C81A1E1BDEE8EED0B
:1019E4009FE30E94AD110E94CB10AEE5BBE788EAED
:1019F4009FE30E94AD11AF91BF918F919F910E947F
:101A04004B121881299608950E948A13EBEDFFE08A
:101A140069EC7FE30E94A6110E9494136EDF249662
:101A24000895E1E0F991F03310F0FA3308F0EE276D
:101A34000895E1E0F991F03229F0F93010F0FE3028
:101A440008F0EE270895E1E0F991F05340F0FA3000
:101A540038F0FF75F750FA3010F0F03108F0EE2747
:101A64000895E991F991A991B991CD0105900D924B
:101A74000020E1F7FC010895A991B991EE27FF2711
:101A84006D91662311F03196FBCF0895AA27BB27E9
:101A9400E991F9910590002011F01196FBCFFD0119
:101AA4000895249722D2E0E0EA83EFE3EB831A93CC
:101AB4000A93EB85FC85EF3FAFEFFA0729F470D367
:101AC400E0E8F3E068D285C0EF3FAFE7FA0729F416
:101AD40067D3E1E8F3E05FD27CC0AC85AA2352F47B
:101AE400E985FA856B857C850E9407115ED362D3F4
:101AF400EDE2EC93A885A73010F0E6E0E8871885BE
:101B0400E12F1150E03021F05CD380D25FD3F8CFC5
:101B140062D30E94AD1149D310E0E0E0F0E060E848
:101B24007FE354D358D30E94901260F04AD35BD21F
:101B34004DD31F5F173228F033D3E5E8F3E02BD2FF
:101B440048C0F0CF103021F435D3E0E3EC931DC04E
:101B5400E12F1150E030C9F034D358D250D25DD2C5
:101B640035D339D30E944B120E943A110E2F22D33F
:101B74005FD2F0E026D30E94D0120E9473110E941B
:101B8400FD1132D351D011D3E3CFE885E030E9F031
:101B940011D3EEE2EC93E885E150E887EF5FA9F01A
:101BA40023D321D202D3E985FA856B857C850E94F3
:101BB4003A110E2FFFD23CD2F0E016D30E94D0127D
:101BC4000E94731131D0F1D2E6CFAE81BF81E0E043
:101BD400EC93198108812D960895FA93EA930C9455
:101BE400FB10E0E0E0936A05E0936B05E2BF089523
:101BF400FE01EC5DFD4F0190F081E02D0E94D012BA
:101C04000E9473110895DE01A25DBD4F0D901D90D9
:101C14008D919C91D0010895F6DFE0E0F0E068EC4E
:101C240072E40E944B1208950E949E130E94A61112
:101C34000895DE01AE5CBD4FED93FD936D937C93EF
:101C44000895A1E7BDE38AE09DE30895FE01EE5CFB
:101C5400FD4F0190119061917081F001F2DF0E94BB
:101C6400AD11DF01CB01EAE9F9E969E17EE30E9404
:101C74004B120895DE01AA5CBD4FED93FD936D9365
:101C84007C93A6E6B6E686E69EE30E94A611089536
:101C9400DE01AA5CBD4F0D901D908D919C91D001E9
:101CA400E0E0F0E06AE774E40E94FD110E943C1158
:101CB400DE01A65CBD4FED93FC930895E0E0DE01E8
:101CC400AE5BBD4FED93ED93ED93EC930895FE0160
:101CD400EA5DFD4F0190119061917081F001A0E0E7
:101CE400B0E080E691E40895DF01CB01E6EFF8E28D
:101CF40065E672E40E944B12DE01A65DBD4FED93D2
:101D0400FD936D937C930895AFE8B2EC85E79FE370
:101D14000895FE01E65DFD4F01901190619170817F
:101D2400F001F2DF0E94AD11DF01CB01E0E0F0E051
:101D340060E070E40E944B120895DE01AA5CBD4F7E
:101D4400ED93FD936D937C93AFE8B2EC85EF9EE346
:101D54000E94A6110895E0E0DE01A25CBD4FED9360
:101D6400ED93ED93EC930895E0E0F0E060E070E42F
:101D74000895E0E0E0930005E0930105E093020597
:101D8400E093030508950E947311ADECBCEC8CEC58
:101D94009EE30E94FD11DF01CB01E0E0F0E060E290
:101DA40073E40E944B120895DE01A95EBD4F0D90AD
:101DB4001D908D919C91D0010895FE01E95EFD4F27
:101DC4000190119061917081F0010895FE01EC5031
:101DD400FE4F0190119061917081F001DE01A850D5
:101DE400BE4F0D901D908D919C91D0010E94AD111C
:101DF4000895DE01AC50BE4F0D901D908D919C91C5
:101E0400D001FE01E850FE4F019011906191708164
:101E1400F0010E94A6110895ADECBCEC8CE89EE3A1
:101E24000E94FD110895DE01AA5FBD4F0D901D9023
:101E34008D919C91D0010895DF01CB0195DF0E9423
:101E44004B120895FE01EA5FFD4F019011906191DC
:101E54007081F0010E94941308950E94FD110E9464
:101E64003C1108950E949413FE01EA5EFD4F019017
:101E7400119061917081F0010895ED91FD91319679
:101E8400FE93EE9308956A937A93AA93BA93EA938E
:101E9400FA93EFB7EA9308950E947613EF5FFF4F2A
:101EA4006F4F7F4F0E9480130895A0916905B0E0A1
:101EB400AB5FBA4FECB1EC93E0916905EF5FE0934F
:101EC4006905E0E0E4BD0895F0E0E459FA4F1083B9
:101ED400E0918005EF5FE09380050895AA81BB81BE
:101EE400EE27A10FBE1FEC910895E0E0E883E9839B
:101EF4000895AE85BF850E9470130895AC85BD8595
:101F04000E9470130895EC83FD836E837F8308958C
:101F1400AC81BD818E819F810895E0E0F0E86BE3A0
:101F240075E49BCFE0E0F0E0ED93FC930895FA9321
:101F3400EA930E942606E1E0F0E04FCEEA93E8E758
:101F4400F0E0FA93EA93E1E0F0E0F1CF9CDFA0E067
:101F54000C99A1E0E0E00D99E1E0EA170895A2E808
:101F6400B5E00E9476133197604070400E94801360
:101F7400EF5FFF4F6F4F7F4F0895A6E8B5E00E94D3
:101F840076133197604070400E948013EF5FFF4FDB
:101F94006F4F7F4F0895FA93EA930C94330DB8DF93
:101FA400E0E0F0E060E271E40E94FD11ACCFEC816E
:101FB400FD816E817F81AC85BD858E859F850E9464
:101FC40090120895AC85BD858E859F850895EDECAE
:101FD400FCEC6CEC7DE30E94FD11EC87FD876E87C1
:101FE4007F873F5F0895E0E0F0E060E271E40E94E3
:101FF400FD110895EC87FD876E877F870895A0E023
:10200400B0E080E09FE30E94AD110895EDECFCEC9C
:102014006CEC7DE30E94FD1108950E9494130C94CE
:10202400690CA885B9851196A887B9871197089571
:10203400E02FE05DEC93E02F0895E885F985319673
:10204400E887F98708952A93EF81F885FA93EA934C
:10205400EB85FC8509950895FE01E65AFF4F019032
:10206400F081E02D08953497DE01A65ABF4FED9319
:10207400FC930895EF81F885FA93EA93EB85FC8548
:1020840009950895DE01A65ABF4F0D90BC91A02D6D
:102094000895EA87FB876C877D870895DDDFE3CFAA
:1020A400EA85FB856C857D850895EE87FF87FA9325
:1020B400EA930E943E0D1E2F0895E4DF14960E94B9
:1020C4006C130895E88BF98B6A8B7B8B08950B7FD7
:1020D400ED89EA93FE01E95AFF4F0190F081E02D6A
:1020E400FA93EA93FE01E55AFF4F0190F081E02D47
:1020F400099550300895E889F9896A897B89AA8508
:10210400BB858C859D850895DE011C960E94B012C6
:102114000E946C1308950E94B0120E946C130895DB
:102124003A930E941B0DE0300895FE013D96FA9308
:10213400EA93E889F989FA93EA93EC89FD89099588
:102144000895AE85BF85AC91A0300895EA89FB89D6
:102154003497EA8BFB8BAA89BB8914960D911C9149
:1021640008950E9485130895AD81BE818F8198855D
:102174000895ED83FE836F8378870895ED81FE8152
:102184006F8178850895F0DFE0E0F0E060E07FE3C0
:102194000895A981BA818B819C810E94FD110895C3
:1021A400EE81FF81FA93EA930895E987FA876B87B2
:1021B4007C870895AE81BF811196AE83BF8311974A
:1021C4000895AA81BB818C819D810895EA83FB8354
:1021D4006C837D830895EA81FB816C817D81A9856F
:1021E400BA858B859C850895A985BA858B859C8540
:1021F4000895E991F991309639F086E69EE00197C9
:10220400F1F7A8953197C9F7089530976040704069
:1022140009F070580895552342F4503811F4E0FF42
:1022240004C03196691F791F6BF050E8572711F4E9
:102234005F93CFC05F3F31F0660F000C57956795F1
:10224400752F08955F9300200AF0CFC0C8C050E8EE
:10225400192E1522880F991F9527550F879550E839
:10226400072E0522660F771F7527550F679508956A
:10227400689401C0E8945F93F2DF703818F07F3FF0
:1022840008F4A7C056E1571BAAF4519558300EF430
:10229400593030F0EFEFFFEF6FEF7FE777F91AC0B7
:1022A40077275523B9F0EE0FFF1F661F771F5A9546
:1022B400D1F710C07727583028F0EF2FF62F672F6B
:1022C4005850F9CF552331F076956795F795E795F2
:1022D4005A95D1F700200AF44ED15F91089568947D
:1022E40001C0E894309760407040B1F0002426F0BB
:1022F400772312F400943FD1172E7EE1112032F09F
:102304007A95EE0FFF1F661F111CF9CFEF2FF62FE2
:10231400612D5F938ADF5F9108954F93AF01FD01B3
:10232400DA01AB01BC01CA01402D012C142E4F91DE
:102334000895EA0FFB1F681F0895E095F0956095D6
:10234400EF5FFF4F6F4F08955F9381DF903871F116
:1023540050E8152604C05F937ADF903839F170385D
:1023640021F1572F591B2BF112F4D7DFFACF583133
:1023740018F0AA27BB278827583028F0AB2FB82F8E
:1023840088275850F9CF552329F08695B795A795F6
:102394005A95D9F7502D512572F0CBDF38F4679553
:1023A400F795E795739513F420C0B7DF3EDF5F918F
:1023B4000895D8F7FBCFEA1BFB0B680B51F010F420
:1023C4000094BBDF662392F3EE0FFF1F661F7A951E
:1023D400CBF7EE27FF27662777275F910895EFEF66
:1023E400FFEF6FE77FEF5F910895EFEFFFEF6FE788
:1023F4007FE75F9108955F932ADF703851F3903837
:1024040041F301240894791F23F41CF300203AF3C8
:10241400ECCF0F921F932F933F934F9311272227B3
:102424009927689FA0018F9F302D410D591F6B9FE5
:10243400300D411D591F8E9F27D0BF9F25D06A9F05
:1024440023D0BE9F1DD0AF9F1BD0AE9F110D291F5F
:10245400391F491F591FE32FF42F652F522F4F9116
:102464003F912F911F910F9066232AF0550FEE1F75
:10247400FF1F661F02C073954BF2CDDE5F91089576
:10248400100D211D391F02C0200D311D491F591F78
:1024940008955F93DCDE703821F411200AF49FCF95
:1024A400A4CF903809F495CF01240894970B1BF41A
:1024B400D4F30020F3CF792F1F932F933F934F939F
:1024C40011241127222733274427552790E2AE17DA
:1024D400BF078607410730F0AE1BBF0B860B410BCD
:1024E400089401C08894551F221F331F111CAA1F72
:1024F400BB1F881F441F9A9551F7F901612D4F9115
:102504003F912F911F91662332F0550FEE1FFF1F4D
:10251400661F7A9543F27FDE5F91089599239AF0BE
:10252400772342F0971748F029F4AE17BF078607C0
:1025340020F031F09894889408959894089408951C
:102544001894889408957723C2F7971798F3A9F7F6
:10255400EA17FB07680788F399F3ECCF0024AF0D63
:10256400B01D0895EA0FFB1F681F791F0895F195A8
:10257400E195F0400895F09560957095E195FF4FD1
:102584006F4F7F4F0895EF2FFF27E7FDFFEF08956B
:10259400FE2FFF0FFF0B6F2F7F2F08956F2F660FF6
:1025A400660B762F08958B2F880F880B982F08952C
:1025B4007A9F702D6B9F700DF89F700DE99F700DC1
:1025C4006A9F602D710DFB9F600D711DE89F600D6A
:1025D400711D8827FA9FF02D610D781FEB9FF00D78
:1025E400611D781FEA9FE02DF10D681F781F089583
:1025F4006E2F6A9FF0016B9FF00D089558D0D8DFBD
:102604000EF4B9DF0895002498E0AA0F001C0E1AF6
:1026140010F40E0E01C0A1609A95B9F7EA2FA02D0F
:10262400089539D0F0DF0EF4E19508953F934F9368
:102634005F93002411244427552730E2AA0FBB1FBF
:10264400881F991F001C111C441F551F0E1A1F0AB6
:10265400460B570B28F40E0E1F1E461F571F01C0B2
:10266400A1603A9559F7FD01BC01D001CA015F91FF
:102674004F913F910895E894A7FF02C0A1956894F3
:10268400E7FDE195C0DFEA2F0EF4E1950895CEDF72
:10269400FD01BC010895E894E7FF02C0E195689448
:1026A400A7FF04C0A19500F8039400FA0895E894E4
:1026B40077FF02C060DF689497FF0BC00024A095E9
:1026C400B095809590951196801D901D00F8039407
:1026D40000FA0895ED91FC9111970895ED91FD9103
:1026E4006D917C9113970895ED91FD916D917D917C
:1026F4000895ED93FD936D937C9308957E936E936B
:10270400FE93EE930895E881F9816A817B810895AF
:10271400A881B9818A819B810895E883F9836A83BA
:102724007B8308957A936A93FA93EA93089568945D
:1027340001C0E89401D0D6DD182E862F612D192E04
:10274400972F712D1B2EBF2FF12D1A2EAE2FE12D99
:102754000895309760407040089500240A160B06CF
:102764000806090608955A934A933A932A931A93AA
:102774000A9308955D814C813B812A8119810881E6
:102784000895AC0FBD1F05900D920197E1F70895D0
:00000001FF
