:0C0000000C94EB010C9400000C94000028
:10000C000C9400000C9400000C9496080C94A4081A
:10001C000C94B2080C94C7080C9473060C94000052
:10002C000C9400000C9400000C9490060C940000AE
:10003C000C9400000C947F060C9400000C94BA06EF
:10004C000C9400000C9400000C9400000C94000024
:10005C000C9400000C9400000C9400000C94000014
:10006C000C9400000C9400000C9400000C94DB0623
:10007C000C9400000C9400000C9400000C940000F4
:10008C000000000000000000000000000000000064
:10009C000000000000000000000000000000000054
:1000AC000000000000000000000000000000000044
:1002FC000000000000000000000000003C25642C01
:10030C0025642C25643E003C25643E00252E336676
:10031C002C20252E642C2025642C2025640A00001A
:10032C0000000000000000000000000000000000C1
:10033C0000000000000000000000000000000000B1
:10034C0000000000000000000000000000000000A1
:10035C000000000000000000000000000000000091
:10036C000000000000000000000000000000000081
:10037C000000000000000000000000000000000071
:10038C000000000000000000000000000000000061
:10039C000000000000000000000000000000000051
:1003AC000000000000000000000000000000000041
:1003BC002D4E414E000001002D4E414E00494E463F
:1003CC00000001008A05C2030000F894EE27ECBB84
:1003DC00F1E0F5BFE5BFE0936C00F8E1F1BDE1BDE4
:1003EC008DE0A2E0BB27ED938A95E9F780E090E1E0
:1003FC00A0E0B1E0ED930197E9F7EEECF3E0859125
:10040C009591009761F0A591B59105901590BF015C
:10041C00F00105900D920197E1F7FB01F0CF8BBF36
:10042C00EFEFEDBFE0E1EEBFC0E0D5E00C941E02B3
:10043C00EF97EF972697D2508CE792E0A0E0B0E0D0
:10044C00ECE8F0E00E94C71500E010E020E030E09E
:10045C0040E050E0E7E0F0E0FA93EA930E941207E4
:10046C00E7E0F0E0FA93EA930E942A070E94A206C2
:10047C000E94A8060E94AC060E948D087894B99A36
:10048C00BA9ABB9AE8E8F3E10E94810F0E94850FAB
:10049C00E0918105E03011F40C945303E0919A0043
:1004AC00EF7EE0939A00ECE6F5E0FA93EA93E8E04D
:1004BC00F3E0FA93EA93EDB7FEB731970E949815E3
:1004CC001F930F93EDB7FEB731970E9498153F938A
:1004DC002F93FE01EC57FD4F662777270E949A1544
:1004EC008CE00E949D0D60962F913F910F911F9172
:1004FC00ECE6F5E0FA93EA93E3E1F3E0FA93EA939E
:10050C00FE01E459FD4F662777270E949A1584E077
:10051C000E949D0D28960E948C0F3097B1F4E0E05C
:10052C00DE01A85CBD4FED93ED93ED93EC93DE01F2
:10053C00AC5CBD4FED93ED93ED93EC93DE01A05DC0
:10054C00BD4FED93ED93ED93EC93DE01A859BD4FA8
:10055C000D90BC91A02D0E94B51534F50E94930FFF
:10056C00DF01CB01E0E0F0E060E671E40E949E0F59
:10057C000E94A30F0E94B30F0E94941428F40E94AF
:10058C00B80F0E94CC0F02C00E94B80FDE01AC580D
:10059C00BD4FED93FD936D937C930E94DA0FE0E0D9
:1005AC00F0E060EC7FE32CC00E94930FA0E0B0E081
:1005BC0080E691E40E94B1130E94A30F0E940B13DA
:1005CC00DE01A659BD4FED93FD936D937C930E9474
:1005DC00B30F0E94941428F40E94B80F0E94CC0F01
:1005EC0002C00E94B80FDE01AC58BD4FED93FD93D5
:1005FC006D937C930E94DA0FE0E0F0E060EC7FEB0F
:10060C00DE01A058BD4FED93FD936D937C93E0E01C
:10061C00DE01AC5EBD4FED93ED93ED93EC93FE01DB
:10062C00E458FD4FFA93EA93FE01EE57FD4FFA930F
:10063C00EA93EDB7FEB73197FA93EA935F934F9332
:10064C00FE01E058FD4FFA93EA930E94BD074F91CB
:10065C005F915A934A93FE01E458FD4F0190F0814B
:10066C00E02DFA93EA930E943908E0E0DE01A45EE3
:10067C00BD4FED93ED93ED93EC930E94F80FECBD11
:10068C00E1E0DE01AE5EBD4FEC93E0E0E09381056E
:10069C00E0919A00E061E0939A00E0910005F091FE
:1006AC0001056091020570910305AFEFB0E080E0A9
:1006BC0090E00E940415DF01CB01ECB5F0E00E9444
:1006CC00D4140E94B8140E947713AEEDB8E38EE8F0
:1006DC009DE30E940114DE01A45EBD4FED93FD93DA
:1006EC006D937C93DE01A858BD4F0D90BC91A02D4D
:1006FC000E94D9140E94A1150E949414E8F4E0E021
:10070C00F0E0FA93EA93FA93EA930E9439080E9474
:10071C00F80FDE01A458BD4FED93ED93ED93EC93E0
:10072C00E0E0DE01A058BD4FED93ED93ED93EC931B
:10073C00DE01AE5EBD4FEC930E940210E1E00E9420
:10074C0005100E940F10FE01E35AFD4FFA93EA9335
:10075C000E945708DE01AA59BD4FED93FC93E2E0CD
:10076C000E9405100E940F10FE01E55AFD4FFA93EE
:10077C00EA930E9457080E94BD14DE01AC59BD4F8C
:10078C00ED93FC93FE01EA59FD4F0190F081E02DB1
:10079C000E941710DE01A05ABD4FED93FD936D938F
:1007AC007C93FE01EC59FD4F0190F081E02D0E94ED
:1007BC001710DE01A45ABD4FED93FD936D937C93FE
:1007CC00FE01E65AFD4F0190F081E02D0E941710BA
:1007DC00DE01AC5ABD4FED93FD936D937C93FE01FE
:1007EC00E85AFD4F0190F081E02D0E94BD140E944B
:1007FC001710DE01A05BBD4FED93FD936D937C93C1
:10080C00FE01E45AFD4F0190119061917081F0014D
:10081C00DE01A05ABD4F0D901D908D919C91D00181
:10082C000E942410DE01A45BBD4FED93FD936D93EC
:10083C007C93DE01A45ABD4F0D901D908D919C911F
:10084C00D001FE01E05AFD4F019011906191708131
:10085C00F0010E942F10DE01A85BBD4FED93FD93BC
:10086C006D937C93FE01E05BFD4F019011906191C3
:10087C007081F001DE01AC5ABD4F0D901D908D9131
:10088C009C91D0010E942410DE01A05CBD4FED9321
:10089C00FD936D937C93DE01A05BBD4F0D901D907D
:1008AC008D919C91D001FE01EC5AFD4F019011905D
:1008BC0061917081F0010E942F10DE01A45CBD4F8C
:1008CC00ED93FD936D937C93A0916A05B0916B05AC
:1008DC00EFEF0E94FE14DF01E2B70E943A10662788
:1008EC0077270E947713AEEAB2EA81E998E30E9477
:1008FC000114DE01AC5BBD4FED93FD936D937C93C6
:10090C000E94850FFE01E85BFD4F019011906191F3
:10091C007081F0010E943E100E9449100E94B11398
:10092C00DE01A05DBD4FED93FD936D937C930E9412
:10093C0052107F936F93FF93EF930E9465100E9468
:10094C00980EAF91BF918F919F910E940114DE017F
:10095C00A85CBD4F0D901D908D919C91D0010E9473
:10096C00B113DE01A85CBD4FED93FD936D937C93A9
:10097C000E9452107F936F93FF93EF930E94651028
:10098C000E94110EAF91BF918F919F910E94011403
:10099C00DE01AC5CBD4F0D901D908D919C91D001F2
:1009AC000E94B113DE01AC5CBD4FED93FD936D93D2
:1009BC007C930E9449100E947010DE01A25DBD4F15
:1009CC00ED93FC93FE01E45CFD4F0190119061915D
:1009DC007081F0010E943E100E9479100E94B113A8
:1009EC00DE01AE5DBD4FED93FD936D937C930E9444
:1009FC0082107F936F93FF93EF930E9495100E9448
:100A0C00980EAF91BF918F919F910E940114DE01BE
:100A1C00A65DBD4F0D901D908D919C91D0010E94B3
:100A2C00B113DE01A65DBD4FED93FD936D937C93E9
:100A3C000E9482107F936F93FF93EF930E94951007
:100A4C000E94110EAF91BF918F919F910E94011442
:100A5C00DE01AA5DBD4F0D901D908D919C91D00132
:100A6C000E94B113DE01AA5DBD4FED93FD936D9312
:100A7C007C930E9479100E947010DE01A05EBD4F25
:100A8C00ED93FC93E0918205F091830560918405D0
:100A9C00709185050E94A010DE01A850BE4FED9309
:100AAC00FD936D937C93E0918605F09187056091A1
:100ABC008805709189050E94A010DE01AC50BE4FD4
:100ACC00ED93FD936D937C93FE01EC5BFD4F0190D8
:100ADC00119061917081F0010E94B1100E94B113CC
:100AEC00DE01A85EBD4FED93FD936D937C930E9448
:100AFC00B110EDECFCEC6CE47DE30E94941409F075
:100B0C0010F40C9471060E94BA10DE01AC5EBD4F5D
:100B1C000D901D908D919C91D0010E94B113DE011E
:100B2C00AC5EBD4FED93FD936D937C93E0E0E09351
:100B3C008205E0938305E0938405E0938505E093BB
:100B4C008605E0938705E0938805E09389050E946C
:100B5C00C3100E94B1137F936F93FF93EF930E9486
:100B6C00BA10A0E0B0E080E090E40E940114AF91D4
:100B7C00BF918F919F910E944F14DE01A050BE4FE8
:100B8C00ED93FD936D937C930E94D4100E94AA1355
:100B9C007F936F93FF93EF930E94BA100E94E5101E
:100BAC00AF91BF918F919F910E944F14DE01A45081
:100BBC00BE4FED93FD936D937C930E94D4100E94D5
:100BCC002F100E94EC100E94B113DE01AA5FBD4FE2
:100BDC00ED93FD936D937C930E94C3100E9424109F
:100BEC007F936F93FF93EF930E94F5100E94980EE2
:100BFC00AF91BF918F919F910E940114DE01A25F72
:100C0C00BD4F0D901D908D919C91D0010E94B11300
:100C1C00DE01A25FBD4FED93FD936D937C930E941B
:100C2C00C3100E9424107F936F93FF93EF930E9445
:100C3C00F5100E94110EAF91BF918F919F910E9460
:100C4C000114DE01A65FBD4F0D901D908D919C91FE
:100C5C00D0010E94B113DE01A65FBD4FED93FD9351
:100C6C006D937C930E94EC100E947010DE01AC5FBF
:100C7C00BD4FED93FC93FE01FA93EA93E8E1F3E0A8
:100C8C00FA93EA930E94BA100E949A15FE01E85D4D
:100C9C00FD4F0190F081E02D0E940011FE01E05FFC
:100CAC00FD4F0190F081E02D0E9400110E948C0FED
:100CBC000E94001180E10E94070C6496FE01FA93D9
:100CCC00EA930E944807E0E0DE01A85EBD4FED9379
:100CDC00ED93ED93EC93DCCBFFCFEA93EFB7EA9374
:100CEC00E0910405EF5FE0930405E991EFBFE99112
:100CFC001895AA93BA93EA93FA93EFB7EA93AAE6F4
:100D0C00B5E00E940511E991EFBFF991E991B99114
:100D1C00A99118950E940B11A0E0B5E00E94141146
:100D2C00E0E0EDBDECBDE991EFBFF991E991B9912E
:100D3C00A991799169911895EDE0E5BDE8E2E3BDE3
:100D4C00E2E810C0E7E0E3BFE1E80CC0EDE1EEBD86
:100D5C00EFEFF0E0F9BDE8BDE0EBF4E0F7BDE6BD88
:100D6C00E7B7E860E7BF0895AA93BA93EA93EFB7A1
:100D7C00EA93E4B5E93120F4A0910405A03021F008
:100D8C00A0916905A03019F40E941D1108C0E0E083
:100D9C00E09369050E941D11E0E0E0930405E991E0
:100DAC00EFBFE991B991A9911895AA93EA93FA9397
:100DBC00EFB7EA931A9310E010919C001C3321F4C6
:100DCC00A0918105A03009F009C0C39B02C0C39853
:100DDC0001C0C39AE0E0E093800513C01E3321F4F8
:100DEC00A0918105A03009F008C0E09180050E9417
:100DFC002C11E1E0E093810508C0E0918105E03021
:100E0C0021F4E09180050E942C111991E991EFBF1A
:100E1C00F991E991A9911895E0E0E0939B00E8E93C
:100E2C00E0939A00E6E0E0939D00E0919D00EF7B5B
:100E3C00E0939D00E881F9810E94C914E093980029
:100E4C00E881E093990014C0E0E0EBB9E8E9EAB975
:100E5C00E6E0E0939500E0919500EF7BE093950040
:100E6C00E881F9810E94C914E0939000E881E9B906
:100E7C0022960895E0919B00E072E1F3E881E09303
:100E8C009C0023C01A930A9310E000E010E00E942B
:100E9C003611E03031F00E943611EA93EBDF1F5F20
:100EAC00F6CF00E0011750F4AA81BB811196AA83FA
:100EBC00BB831197E0E0EC930F5FF4CF19810881AD
:100ECC00EEC05D9BFECFE881ECB9219608950E949F
:100EDC00B9152FEF3FEFEE81FF813197EE83FF8342
:100EEC003196F9F0A885B985ED91A887B987F0E01E
:100EFC002E273F2700E010E00830E0E01E0784F4C6
:100F0C00F901E170F070AF0136952795042E052A92
:100F1C0021F0E1E0F0EA2E273F270F5F1F4FECCFC7
:100F2C00DACFF9010E94C0152A9608950E943D114E
:100F3C00E6E00E9445112830E0E03E072CF40E94C8
:100F4C0068112F5F3F4FF7CF0EC00E943D11E4E0B8
:100F5C000E9445112830E0E03E072CF40E946811F5
:100F6C002F5F3F4FF7CF0E94C215619608952897C7
:100F7C000E947011E0E0EA83EB83EC83ED83EE8357
:100F8C00EF830E947411772342F00E9479110E9422
:100F9C000B13AC85BD850E947F150E9474117F9345
:100FAC006F93FF93EF930E9479110E94E5100E94BA
:100FBC007E11AF91BF918F919F910E94B1130E94AE
:100FCC0087110E9474117F936F93FF93EF930E948C
:100FDC0079110E94E5100E947E11AF91BF918F9103
:100FEC009F910E949E0F0E9493150E948C110E944B
:100FFC009111AA85BB85ED93FC930E948E150E94DE
:10100C009111A885B985ED93FC93AA85BB850E94A7
:10101C007015EC32A1E0FA0734F4DF01E4EDFEEFD9
:10102C00EA17FB070CF014C0A885B9850E9470154F
:10103C00EC32A1E0FA0754F4A885B9850E9470152A
:10104C00DF01E4EDFEEFEA17FB070CF001C001C075
:10105C0008C0AA85BB850E949A11A885B9850E94F3
:10106C009A110C94E909E1E0EA93E9E7F0E0FA93CC
:10107C00EA93ED81FE810E949F11E2E0EA93E9E799
:10108C00F0E0FA93EA93EB81FC810E94BD140E947C
:10109C009F11E1E00E94A411E2E00E94A4112496A9
:1010AC0008950E94BB1510E020E030E0A0910605E9
:1010BC00A73049F1B0910A05A0E0E0910B050E9420
:1010CC003A109F01B0910805A0E0E09109050E943B
:1010DC003A10AC81BD81ED93FC9310E0EE811E17AC
:1010EC0050F4E12FF0E0AF81B885AE0FBF1FE0E008
:1010FC00EC931F5FF3CFEFEFFFEFE217F30711F461
:10110C0020E030E0F9010E94C21529960895E5E52A
:10111C00EABFE0EFE9BF1498159816981798089550
:10112C000E94AC1141F0A2E8B5E00E941411319775
:10113C006040704002C00E94B51137C00E94AC11D3
:10114C0019F00E94B51107C0A2E8B5E00E94141175
:10115C0031976040704029C00E940B11A0E00E999D
:10116C00A1E0E0E00F99E1E0EA1719F00E94C31149
:10117C0007C0A6E8B5E00E9414113197604070409A
:10118C0014C00E940B11A0E00F99A1E0E0E00E99B1
:10119C00E1E0EA1741F0A6E8B5E00E94141131979E
:1011AC006040704002C00E94C311E991EFBFF991F9
:1011BC00E991B991A9917991699118951A930A932A
:1011CC00AA81BB8112960E947015309729F1AA81D1
:1011DC00BB8114960E9470158F01309761F002301C
:1011EC00E0E01E07C0F0F80131978F01AA81BB81A6
:1011FC001496ED93FC93AA81BB8112960E94051163
:10120C003197AC81A083AA81BB810E947015FF230A
:10121C0012F00E94051106C0AA81BB81EFEFFFEF0F
:10122C00ED93FC931981088146C324970E94701199
:10123C00E0E8EA83EFE3EB830E94BB15EE85FF85C4
:10124C00EF3FAFEFFA0749F4E885F985FA93EA9393
:10125C00ECEBF3E00E94D111B4C0EF3FAFE7FA071B
:10126C0049F4E885F985FA93EA93EDEBF3E00E94F3
:10127C00D111A7C0AB85A73010F0E6E0EB871B853A
:10128C00E12F1150E03019F00E94D511F9CFEC8507
:10129C00FD856E857F850E94B11521F430E00E949A
:1012AC00D5112EC03B850E94DD1109F010F40C9471
:1012BC006A090E94D5110E94DD1128F00E94E811E4
:1012CC000E94ED11F8CF0DC00E94DD1140F40E9478
:1012DC00E8110E94F9110E9400123150F5CF0E94C2
:1012EC00D511EC85FD856E857F850E9405120E94C7
:1012FC0000120E94DD1120F00E94E8110E94ED11F5
:10130C0010E0EB85E11788F10E948C110E940C1201
:10131C000E9405120E9413120E948711EC81FD811C
:10132C006E817F810E94E8110E944F140E943E132F
:10133C000E2F0E9417120E941E12FF276627772776
:10134C000E9477130E948C110E9401140E94E811D4
:10135C000E949E0F0E940012E12F1F5FE03089F661
:10136C000E941712EEE2EC93CCCF0E94231231971D
:10137C00AA85A08330302CF43195A885B985EDE28F
:10138C0003C0A885B985EBE2EC930E9423120E945E
:10139C0023123197BF01A32FEAE00E941715E05DDD
:1013AC00DB01EC930E9423123197BF01A32FEAE0DB
:1013BC000E944115E05DDB01EC93A885B985E0E066
:1013CC00EC930E94C21560960895EF9761970E9466
:1013DC00B91510E0FE01E85AFF4F0190F081E02DA5
:1013EC00E887F987FE01EA5AFF4F0190F081E02D62
:1013FC00EE83FF83AE81BF810E949A11DE01A45A55
:10140C00BF4F0E9405113197E4912E2FE03011F45B
:10141C000C94FE0BE12FE03039F4253211F411E07D
:10142C0002C00E942912E3C1E130C1F4253219F443
:10143C000E942912DBC112E0E0E0ED8B00E02D32BE
:10144C0011F401E0D4C12B3219F4EBE2ED8BCFC1D6
:10145C00203219F4E0E2ED8BCAC102C0E23039F45B
:10146C0050E013E0203311F40068C1C102C0E33036
:10147C0091F4203310F02A3308F007C0AAE05A9FE9
:10148C00502DE22FE0535E0FB2C140E02E3211F42A
:10149C0014E0ADC10FC0E43099F4203310F02A33BE
:1014AC0008F008C00062AAE04A9F402DE22FE053EA
:1014BC004E0F9DC12C3619F4026015E098C104C082
:1014CC00E53011F00C94FD0BE22FE33659F40E9439
:1014DC0032120E9439120E943212A481AA930E94E5
:1014EC00401284C1E53411F0E53609F404C0E63647
:1014FC0011F00C94CB0AFE017696EE87FF870E94C2
:10150C0048120E9474150E944F120E945412AD850D
:10151C00AA2322F0AD89AB3249F017C00E945612B3
:10152C000E940B130E944F12EDE2ED8B07FF05C0DA
:10153C00ED89EA930E94401208C0EE85FF85319632
:10154C00EE87FF873197AD89A08305FF46E02636ED
:10155C0061F40E9456120E949A154A93EB89FC89F9
:10156C00FA93EA930E94E50E0BC00E9456120E9459
:10157C009A154A932A93EC89FD89FA93EA9355DEDE
:10158C00FE0176960E945B121EC0E33739F40E946E
:10159C0054120E9463120E945B120EC0E037C1F419
:1015AC000E9454120E946312EE87FF87FA93EA930B
:1015BC000E94DA0E1E2F08600F77403011F0411791
:1015CC0008F001C0142F40E0E0E0EC8B30E06EC07E
:1015DC00E43611F0E93611F4046002C0E537A1F4E9
:1015EC00EAE0EC8B01FF08C0E0E0FAEC6AE97BE38F
:1015FC000E9468121AE023C0E0E1F7E260E070E0BC
:10160C000E94681215E01BC0E83511F4086004C094
:10161C00E83711F00C94FC0BE0E1EC8B01FF08C0F7
:10162C00E0E0F0E060E070E10E94681218E007C0B2
:10163C00E0E0F0E160E070E00E94681214E04030FD
:10164C0011F00F7701C041E001FF08C00E94541255
:10165C000E94481214960E9474150FC002FF07C016
:10166C000E9454120E9463120E94D41406C00E945D
:10167C0054120E94631266277727EA87FB876C87D0
:10168C007D8702FF12C0AD85AA2342F40E94561238
:10169C000E94C1140E944F12EDE2ED8BED89E030F7
:1016AC0019F01F5F4F5F01C00B7F342F00FD14C07A
:1016BC00151710F4351708F00FC007FF08C002FF0C
:1016CC0004C00B7F2D89115001C020E301C020E222
:1016DC000E9429125150ECCF141790F4006102FFB4
:1016EC0006C00E946D1209F0515011504150E0E3B8
:1016FC00EA930E944012503009F051504150ECCF07
:10170C00312FEC89E030B9F43030A1F003FF06C082
:10171C00EE85FF852591EE87FF8705C0AE85BF85D9
:10172C002D91AE87BF870E942912503009F051507D
:10173C003150EACF51C00E9481120E941C152E2FED
:10174C002A3030F003FF02C0295C01C0295A01C0C5
:10175C00205D04FD21C0213360F4A889B9898A89F0
:10176C009B89A130E0E0BE07E0E08E07E0E09E0739
:10177C0009F40BC0431740F4531710F000FF01C0DD
:10178C0010C020E207FF08C020E3006102FF04C084
:10179C000E946D1209F051500E942912503009F02C
:1017AC00515031500E9481120E944D150E944F12CF
:1017BC00EC89A889B9898A899B89FF2766277727AD
:1017CC000E941C150E946812E889F9896A897B8934
:1017DC000E94B11509F0AFCF00FF08C0503031F0B6
:1017EC005150E0E2EA930E944012F8CF10E006CE8E
:1017FC00AE81BF810E9470150E94C015EF966F9646
:10180C000895FF92F82E26970E94BB150E948A120B
:10181C00309719F4EFEFFFEF23C0DE0116960E940C
:10182C00B4148D010E948A12EE83FF83E0E0E887F6
:10183C00E987DE011A960E949112FA93EA931A93A1
:10184C000A93E4EEF8E0FA93EA93FE013A96FA93DF
:10185C00EA93BBDD9F01AE81BF81E0E0EC93F9011F
:10186C000E94C2152A96FF9008951A93A981BA81F5
:10187C00E0E0EC93AB81BC81EC911E2FE03019F0D1
:10188C00E0E0EC9316C0A981BA8111960E94701504
:10189C00309771F0E981FA81A181B281EC911E2F10
:1018AC00E03029F0A981BA8111960E94051101C07E
:1018BC0010E0E12F18812596089528970E94B915FC
:1018CC00E0E0F0E0EA87FB87ED87EC89FD89319653
:1018DC00EC8BFD8B3197E4913E2FE03011F40C949E
:1018EC00970D0E94961291F00E949B123E2FE030B1
:1018FC0019F00E94961209F407C00E94A7121CF45A
:10190C00EFEFFFEF10C1F0CF3D870AC1353211F078
:10191C000C94840D50E0EC89FD893591EC8BFD8B9A
:10192C00303310F03A3308F007C0AAE05A9F502D1C
:10193C00E32FE0535E0FEFCF303009F4F2C00E947A
:10194C009B122E2FEA930E94AD0EE03039F00E94CC
:10195C00A7121CF4EFEFFFEFE6C0F1CF203009F433
:10196C00D7C02D87503009F45FEF40E0E32FE3360A
:10197C0069F40E94AC120E949B12D801EC930E9455
:10198C00A7121CF4EFEFFFEFCEC0B2C0E33711F596
:10199C000E94AC12E52F5150E030C1F00E949B1216
:1019AC003E2FE03019F00E94961239F00E94A712D7
:1019BC001CF4EFEFFFEFB7C009C01F930F930F5F3D
:1019CC001F4FE32FAF91BF91EC93E4CFD801E0E030
:1019DC00EC938EC0EC3631F441E0EC89FD89359105
:1019EC00EC8BFD8BE1E0EC87E32FE43611F0E9366C
:1019FC0019F4E0E0EC8702C0E53711F42AE008C0E6
:101A0C00E83711F420E104C0E53209F477C089C04D
:101A1C00E0E0EE83EF83E887E987E52F5150E03073
:101A2C0011F40C945E0D0E949B123E2FE13238F49F
:101A3C000E94A7121CF4EFEFFFEF75C017C0EC85E6
:101A4C00E03039F43D3219F4EFEFEC87E6CFE1E00A
:101A5C00EC87203131F43A930E94B70EE03031F02C
:101A6C0007C03A930E94A50EE03011F43D8720C0C8
:101A7C00313610F0375505C0313410F0375301C0F2
:101A8C003053E22FAE81BF8188859985FF27662769
:101A9C0077270E94DE14DF01CB01E32FFF27662797
:101AAC0077270E94B814EE83FF8368877987B5CFB8
:101ABC00EC85AE81BF81888599850E94CE140E94E9
:101ACC00DE14EE83FF8368877987403051F00E94E3
:101ADC00AC12EE81FF8168857985D8010E947F1553
:101AEC0007C00E94AC12EE81FF81D801ED93FC93EC
:101AFC00EA85FB853196EA87FB8712C00E949B1210
:101B0C00E31771F00E94A7121CF4EFEFFFEF0BC06C
:101B1C00EA85FB85309719F4EFEFFFEF04C001C0A5
:101B2C00D4CEEA85FB850E94C01566960895FF9277
:101B3C00F82E23971A930A93DE0117960E9491129E
:101B4C00309719F4EFEFFFEF1CC0DE0111960E94E5
:101B5C00B4148D01DE0117960E949112EB83FC8365
:101B6C00DE0115960E949112FA93EA931A930A9346
:101B7C00EBE3FCE0FA93EA93FE013896FA93EA93CE
:101B8C009CDE198108812596FF9008957B816A81DE
:101B9C00F981E88177FB770F67FD7160972F9E576E
:101BAC0081F078F0983190F4AA27BB278827089405
:101BBC008795B795A7959A95D1F7EA23FB236823C8
:101BCC0005C0E8947727EE27FF2766276F77769571
:101BDC0008F4606877F9A991B99189919991EA17FC
:101BEC00FB076807790797FB08950E94B7120E94BC
:101BFC009A150E94CC0D0E94931519F40E94B712ED
:101C0C009CC0E6F70E94B712A0E0B0E080E89FE32A
:101C1C000E94AA1392C024971A9310E00E94BA1241
:101C2C00E3E8F9EF62E27EE30E9401140E94BF1226
:101C3C000E94C4120E9413120E94BA120E949E0F9C
:101C4C000E94BF120E94C9120E94941409F010F451
:101C5C000C943B0E0E94C412A0E0B0E080E09FE325
:101C6C000E94AA130E94BF1211E00E94BA12E0E077
:101C7C00F0E060E87EE30E94941409F010F40C94F8
:101C8C004D0E0E94C9120E94AA130E94BF1210305E
:101C9C0031F00E94C4120E940B130E94BF120E94CA
:101CAC00C4120E94BA120E940114E983FA836B8356
:101CBC007C83A1EBB4EC86E292E40E940114DF0178
:101CCC00CB01EDE1F5EE6DE272E40E949E0F0E94F5
:101CDC00CF12ACE4B3E584E091E40E94B1130E940E
:101CEC00BA120E9401147F936F93FF93EF93E981D3
:101CFC00FA816B817C81A1E1BDEE8EED9FE30E94A8
:101D0C00B1130E94CF12AEE5BBE788EA9FE30E94B5
:101D1C00B113AF91BF918F919F910E944F14188175
:101D2C00299608950E948E15EBEDFFE069EC7FE398
:101D3C000E94AA130E949A156EDF24960895E1E082
:101D4C00F991F03310F0FA3308F0EE270895E1E042
:101D5C00F991F03229F0F93010F0FE3008F0EE274E
:101D6C000895E1E0F991F05340F0FA3038F0FF7546
:101D7C00F750FA3010F0F03108F0EE270895E991A1
:101D8C00F991A991B991CD0105900D920020E1F73F
:101D9C00FC010895A991B991EE27FF276D91662357
:101DAC0011F03196FBCF0895AA27BB27E991F99141
:101DBC000590002011F01196FBCFFD01089524979A
:101DCC0089D2E0E0EA83EFE3EB831A930A93EB8585
:101DDC00FC85EF3FAFEFFA0729F4E2D3E4ECF3E034
:101DEC00DAD285C0EF3FAFE7FA0729F4D9D3E5EC97
:101DFC00F3E0D1D27CC0AC85AA2352F4E985FA85F4
:101E0C006B857C850E940B13D0D3D4D3EDE2EC937D
:101E1C00A885A73010F0E6E0E8871885E12F11506F
:101E2C00E03021F0CED3F2D2D1D3F8CFD4D30E946C
:101E3C00B113BBD310E0E0E0F0E060E87FE3C6D381
:101E4C00CAD30E94941460F0BCD3CDD2BFD31F5F11
:101E5C00173228F0A5D3E9ECF3E09DD248C0F0CFBF
:101E6C00103021F4A7D3E0E3EC931DC0E12F115007
:101E7C00E030C9F0A6D3CAD2C2D2CFD2A7D3ABD34B
:101E8C000E944F140E943E130E2F94D3D1D2F0E037
:101E9C0098D30E94D4140E9477130E940114A4D3E7
:101EAC0047D083D3E3CFE885E030E9F083D3EEE28B
:101EBC00EC93E885E150E887EF5FA9F095D393D2D6
:101ECC0074D3E985FA856B857C850E943E130E2FB1
:101EDC0071D3AED2F0E088D30E94D4140E94771351
:101EEC0027D063D3E6CFAE81BF81E0E0EC931981BC
:101EFC0008812D960895FA93EA930C94FF12E0E072
:101F0C00E0936A05E0936B05E2BF0895FE01E85883
:101F1C00FD4F0190F081E02D0895FE01E859FD4F31
:101F2C000190F081E02D0E94D4140E947713089543
:101F3C000E94A4150E94AA130895DF01CB01E6EFBD
:101F4C00F8E265E672E40E944F14DE01A659BD4F1B
:101F5C00ED93FD936D937C930895A4EAB0E78DEF18
:101F6C009EE30895FE01E659FD4F01901190619199
:101F7C007081F001F2DF0E94B113DF01CB01E0E0D0
:101F8C00F0E060EC7FE30E944F140895DE01AC5842
:101F9C00BD4FED93FD936D937C93A3ECB5EF88EA65
:101FAC009EE30E94AA130895DE01AC58BD4F0D901C
:101FBC001D908D919C91D001E0E0F0E06AE774E413
:101FCC000E9401140E944013DE01A858BD4FED93EE
:101FDC00FC93E0E0DE01A458BD4FED93ED93ED933F
:101FEC00EC930895E0E0E0930005E0930105E093A5
:101FFC000205E09303050895E5E0F0E07CCFEA9359
:10200C00E2E0F0E0FA93EA93FA93EA930E94AB07CA
:10201C00F3CFE5E0F5E0FA93EA93E0916905EA93F2
:10202C0008950E94D4140E947713DF01CB01E0E0E5
:10203C00F0E86BE375E40E944F1408950E94B1130D
:10204C00DF01CB01E0E0F0E060E070E40E944F14AF
:10205C0008950E94AA13DF01CB01E7E1F9ED6EE8C8
:10206C007EE30E944F140895F0E0EA0FFB1F0895E1
:10207C00DE01AC5BBD4F0D901D908D919C91D001FC
:10208C000E9401140895DE01A05DBD4F0D901D90BE
:10209C008D919C91D0010895FE01EC5BFD4F019058
:1020AC00119061917081F001DE01A45BBD4F0D9028
:1020BC001D908D919C91D0010E9401140895FE01F8
:1020CC00E05DFD4F0190119061917081F0010E94D3
:1020DC009A150895E6EFF8E265E672E40E940114A1
:1020EC000E9440130895DE01AE5DBD4F0D901D9012
:1020FC008D919C91D0010895FE01EC5BFD4F0190F8
:10210C00119061917081F001DE01A05CBD4F0D90CA
:10211C001D908D919C91D0010E9401140895FE0197
:10212C00EE5DFD4F0190119061917081F0010E9464
:10213C009A1508950E947713ADECBCEC8CEC9EE3E1
:10214C000E940114DF01CB01E0E0F0E060E273E4F7
:10215C000E944F140895DE01A85EBD4F0D901D9096
:10216C008D919C91D0010895FE01E85EFD4F019088
:10217C00119061917081F0010895FE01EC50FE4FB9
:10218C000190119061917081F001DE01A850BE4F59
:10219C000D901D908D919C91D0010895DE01AC5055
:1021AC00BE4F0D901D908D919C91D001FE01E85079
:1021BC00FE4F0190119061917081F0010895A7E19B
:1021CC00B9ED8EE89EE30E9401140895DE01AA5F2A
:1021DC00BD4F0D901D908D919C91D0010895FE01E5
:1021EC00EA5FFD4F0190119061917081F0010E94A6
:1021FC009A1508950E94D4140E949A150895ED9191
:10220C00FD913196FE93EE9308956A937A93AA9377
:10221C00BA93EA93FA93EFB7EA9308950E947A156A
:10222C00EF5FFF4F6F4F7F4F0E9484150895A09171
:10223C006905B0E0AB5FBA4FECB1EC93E091690586
:10224C00EF5FE0936905E0E0E4BD0895F0E0E45948
:10225C00FA4F1083E0918005EF5FE09380050895BD
:10226C00AA81BB81EE27A10FBE1FEC910895289780
:10227C000E94BB1520E030E0E889EC830895ED83E3
:10228C00EE85FF850E94C914EE83EE85EF83EC8505
:10229C00FD850E94C914E887EC85E987E0E0EA87B0
:1022AC00EB87FE013496FA93EA93E6E0F0E0FA93BA
:1022BC00EA930E946D078F01F801EA871B8720E0E3
:1022CC0030E00895DE011496A20FB31FEC91EA934F
:1022DC000C946707E0E0E883E9830895AE85BF8539
:1022EC000E9474150895AC85BD850E9474150895DF
:1022FC00DF01CB01E0E0F0E060E070E40E944F14FD
:10230C000895EC83FD836E837F830895AC81BD813A
:10231C008E819F810895E0E0F0E86BE375E40E9404
:10232C0001140E9440130895E0E0F0E0ED93FC935B
:10233C000895FA93EA930E949C075ECEEA93E8E72D
:10234C00F0E0FA93EA93E1E0F0E0F3CF5EDFA0E097
:10235C000C99A1E0E0E00D99E1E0EA170895A2E8FC
:10236C00B5E00E947A153197604070400E94841548
:10237C00EF5FFF4F6F4F7F4F0895A6E8B5E00E94C7
:10238C007A153197604070400E948415EF5FFF4FC3
:10239C006F4F7F4F0895FA93EA930C94C50EB6DFF6
:1023AC00E0E0F0E060E271E40E940114AACFEC815D
:1023BC00FD816E817F81AC85BD858E859F850E9458
:1023CC0094140895AC85BD858E859F850895EDEC9C
:1023DC00FCEC6CEC7DE30E940114EC87FD876E87AE
:1023EC007F873F5F0895E0E0F0E060E271E40E94D7
:1023FC0001140895EC87FD876E877F870895A0E010
:10240C00B0E080E09FE30E94B1130895EDECFCEC8A
:10241C006CEC7DE30E94011408950E949A150C94B3
:10242C00FB0DA885B9851196A887B98711970895D2
:10243C00E02FE05DEC93E02F0895E885F985319667
:10244C00E887F98708952A93EF81F885FA93EA9340
:10245C00EB85FC8509950895FE01E65AFF4F019026
:10246C00F081E02D08953497DE01A65ABF4FED930D
:10247C00FC930895EF81F885FA93EA93EB85FC853C
:10248C0009950895DE01A65ABF4F0D90BC91A02D61
:10249C000895EA87FB876C877D870895DDDFE3CF9E
:1024AC00EA85FB856C857D850895EE87FF87FA9319
:1024BC00EA930E94D00E1E2F0895E4DF14960E941A
:1024CC0070150895E88BF98B6A8B7B8B08950B7FC5
:1024DC00ED89EA93FE01E95AFF4F0190F081E02D5E
:1024EC00FA93EA93FE01E55AFF4F0190F081E02D3B
:1024FC00099550300895E889F9896A897B89AA85FC
:10250C00BB858C859D850895DE011C960E94B414B4
:10251C000E94701508950E94B4140E9470150895BD
:10252C003A930E94AD0EE0300895FE013D96FA9369
:10253C00EA93E889F989FA93EA93EC89FD8909957C
:10254C000895AE85BF85AC91A0300895EA89FB89CA
:10255C003497EA8BFB8BAA89BB8914960D911C913D
:10256C0008950E9489150895AD81BE818F8198854B
:10257C000895ED83FE836F8378870895ED81FE8146
:10258C006F8178850895F0DFE0E0F0E060E07FE3B4
:10259C000895A981BA818B819C810E9401140895B0
:1025AC00EE81FF81FA93EA930895E987FA876B87A6
:1025BC007C870895AE81BF811196AE83BF8311973E
:1025CC000895AA81BB818C819D810895EA83FB8348
:1025DC006C837D830895EA81FB816C817D81A98563
:1025EC00BA858B859C850895A985BA858B859C8534
:1025FC000895E991F991309639F086E69EE00197BD
:10260C00F1F7A8953197C9F708953097604070405D
:10261C0009F070580895552342F4503811F4E0FF36
:10262C0004C03196691F791F6BF050E8572711F4DD
:10263C005F93CFC05F3F31F0660F000C57956795E5
:10264C00752F08955F9300200AF0CFC0C8C050E8E2
:10265C00192E1522880F991F9527550F879550E82D
:10266C00072E0522660F771F7527550F679508955E
:10267C00689401C0E8945F93F2DF703818F07F3FE4
:10268C0008F4A7C056E1571BAAF4519558300EF424
:10269C00593030F0EFEFFFEF6FEF7FE777F91AC0AB
:1026AC0077275523B9F0EE0FFF1F661F771F5A953A
:1026BC00D1F710C07727583028F0EF2FF62F672F5F
:1026CC005850F9CF552331F076956795F795E795E6
:1026DC005A95D1F700200AF44ED15F910895689471
:1026EC0001C0E894309760407040B1F0002426F0AF
:1026FC00772312F400943FD1172E7EE1112032F093
:10270C007A95EE0FFF1F661F111CF9CFEF2FF62FD6
:10271C00612D5F938ADF5F9108954F93AF01FD01A7
:10272C00DA01AB01BC01CA01402D012C142E4F91D2
:10273C000895EA0FFB1F681F0895E095F0956095CA
:10274C00EF5FFF4F6F4F08955F9381DF903871F10A
:10275C0050E8152604C05F937ADF903839F1703851
:10276C0021F1572F591B2BF112F4D7DFFACF583127
:10277C0018F0AA27BB278827583028F0AB2FB82F82
:10278C0088275850F9CF552329F08695B795A795EA
:10279C005A95D9F7502D512572F0CBDF38F4679547
:1027AC00F795E795739513F420C0B7DF3EDF5F9183
:1027BC000895D8F7FBCFEA1BFB0B680B51F010F414
:1027CC000094BBDF662392F3EE0FFF1F661F7A9512
:1027DC00CBF7EE27FF27662777275F910895EFEF5A
:1027EC00FFEF6FE77FEF5F910895EFEFFFEF6FE77C
:1027FC007FE75F9108955F932ADF703851F390382B
:10280C0041F301240894791F23F41CF300203AF3BC
:10281C00ECCF0F921F932F933F934F9311272227A7
:10282C009927689FA0018F9F302D410D591F6B9FD9
:10283C00300D411D591F8E9F27D0BF9F25D06A9FF9
:10284C0023D0BE9F1DD0AF9F1BD0AE9F110D291F53
:10285C00391F491F591FE32FF42F652F522F4F910A
:10286C003F912F911F910F9066232AF0550FEE1F69
:10287C00FF1F661F02C073954BF2CDDE5F9108956A
:10288C00100D211D391F02C0200D311D491F591F6C
:10289C0008955F93DCDE703821F411200AF49FCF89
:1028AC00A4CF903809F495CF01240894970B1BF40E
:1028BC00D4F30020F3CF792F1F932F933F934F9393
:1028CC0011241127222733274427552790E2AE17CE
:1028DC00BF078607410730F0AE1BBF0B860B410BC1
:1028EC00089401C08894551F221F331F111CAA1F66
:1028FC00BB1F881F441F9A9551F7F901612D4F9109
:10290C003F912F911F91662332F0550FEE1FFF1F41
:10291C00661F7A9543F27FDE5F91089599239AF0B2
:10292C00772342F0971748F029F4AE17BF078607B4
:10293C0020F031F098948894089598940894089510
:10294C001894889408957723C2F7971798F3A9F7EA
:10295C00EA17FB07680788F399F3ECCF0024AF0D57
:10296C00B01D0895EA0FFB1F681F791F0895F1959C
:10297C00E195F0400895F09560957095E195FF4FC5
:10298C006F4F7F4F0895EF2FFF27E7FDFFEF08955F
:10299C00FE2FFF0FFF0B6F2F7F2F08956F2F660FEA
:1029AC00660B762F08958B2F880F880B982F089520
:1029BC007A9F702D6B9F700DF89F700DE99F700DB5
:1029CC006A9F602D710DFB9F600D711DE89F600D5E
:1029DC00711D8827FA9FF02D610D781FEB9FF00D6C
:1029EC00611D781FEA9FE02DF10D681F781F089577
:1029FC006E2F6A9FF0016B9FF00D089558D0D8DFB1
:102A0C000EF4B9DF0895002498E0AA0F001C0E1AEA
:102A1C0010F40E0E01C0A1609A95B9F7EA2FA02D03
:102A2C00089539D0F0DF0EF4E19508953F934F935C
:102A3C005F93002411244427552730E2AA0FBB1FB3
:102A4C00881F991F001C111C441F551F0E1A1F0AAA
:102A5C00460B570B28F40E0E1F1E461F571F01C0A6
:102A6C00A1603A9559F7FD01BC01D001CA015F91F3
:102A7C004F913F910895E894A7FF02C0A1956894E7
:102A8C00E7FDE195C0DFEA2F0EF4E1950895CEDF66
:102A9C00FD01BC010895E894E7FF02C0E19568943C
:102AAC00A7FF04C0A19500F8039400FA0895E894D8
:102ABC0077FF02C060DF689497FF0BC00024A095DD
:102ACC00B095809590951196801D901D00F80394FB
:102ADC0000FA0895ED91FC9111970895ED91FD91F7
:102AEC006D917C9113970895ED91FD916D917D9170
:102AFC000895ED93FD936D937C9308957E936E935F
:102B0C00FE93EE930895E881F9816A817B810895A3
:102B1C00A881B9818A819B810895E883F9836A83AE
:102B2C007B83089560E070E07A936A93FA93EA935A
:102B3C000895689401C0E89401D0D4DD182E862F36
:102B4C00612D192E972F712D1B2EBF2FF12D1A2EA3
:102B5C00AE2FE12D08953097604070400895002409
:102B6C000A160B0608955A934A933A932A931A938A
:102B7C000A9308955D814C813B812A8119810881DA
:102B8C000895AC0FBD1F05900D920197E1F70895C4
:00000001FF
