:0C0000000C9462000C9400000C940000B2
:10000C000C9400000C9400000C9400000C94000064
:10001C000C9400000C9400000C9475010C940000DE
:10002C000C9400000C9400000C9400000C94000044
:10003C000C9479010C9400000C9400000C94380181
:10004C000C9400000C9400000C9400000C94000024
:10005C000C9400000C9400000C9400000C94000014
:10006C000C9400000C9400000C9400000C945301B0
:10007C000C9400000C9400000C9400000C940000F4
:10008C001027E80364000A000100001000011000B2
:10009C000100000000000000000000000000000053
:1000AC000000000000000000000025642C25640006
:1000BC0004000400B2000000F894EE27ECBBF1E061
:1000CC00F5BFE5BFE0936C00F8E1F1BDE1BD8DE05B
:1000DC00A2E0BB27ED938A95E9F780E090E1A0E0E0
:1000EC00B1E0ED930197E9F7ECEBF0E08591959198
:1000FC00009761F0A591B59105901590BF01F001A5
:10010C0005900D920197E1F7FB01F0CF8BBFEFEF5C
:10011C00EDBFE0E1EEBFC0E0D5E00C947F01E0E084
:10012C00E0939B00E8E9E0939A00E6E0E0939D0001
:10013C00E0919D00EF7BE0939D00E881F9810E94A6
:10014C001806E0939800E881E093990014C0E0E071
:10015C00EBB9E8E9EAB9E6E0E0939500E0919500A7
:10016C00EF7BE0939500E881F9810E941806E093FB
:10017C009000E881E9B922960895EDE0E5BDE8E24A
:10018C00E3BD08955D9BFECFE881ECB921960895FF
:10019C000E9439062FEF3FEFEE81FF813197EE83FE
:1001AC00FF833196F9F0A885B985ED91A887B987B9
:1001BC00F0E02E273F2700E010E00830E0E01E07BB
:1001CC0084F4F901E170F070AF0136952795042E97
:1001DC00052A21F0E1E0F0EA2E273F270F5F1F4FA1
:1001EC00ECCFDACFF9010E9440062A9608952897A1
:1001FC000E943B0620E030E0E889EC83E6E0ED83EA
:10020C00EE85FF850E941806EE83EE85EF83EC8564
:10021C00FD850E941806E887EC85E987E0E0EA870F
:10022C00EB87FE013496FA93EA93E6E0F0E0FA935A
:10023C00EA93AEDF8F01F801EA871B8720E030E0FC
:10024C002830E0E03E0754F4DE011496A20FB31FF1
:10025C00EC91EA9397DF2F5F3F4FF2CF0E9442065B
:10026C0061960895AA93BA93EA93EFB7EA93E4B52B
:10027C00E93118F4E0E0E51519F0E0E0E41509F4D3
:10028C0001C04424A42DB0E0A050BB4FECB1EC93C2
:10029C004394E0E0E4BD55241CC0AA93BA93EA93BE
:1002AC00EFB7EA93E2B7E93118F4E0E0E51519F09D
:1002BC00E0E0E61531F40E948C05E0919C00EC9393
:1002CC0006C066240E948C05ECB1EC936394E0E0CC
:1002DC00E2BFE991EFBFE991B991A9911895EA9321
:1002EC00EFB7539403C0EA93EFB77394EFBFE99160
:1002FC001895649784E1A0E0B0E0EEE9F0E00E948C
:10030C00470600E010E020E030E0E7E0F0E0FA9390
:10031C00EA9305DFE7E0F0E0FA93EA9318DF2DDFCC
:10032C007894B99AE8E8F3E10E949105E4E6F5E0E7
:10033C000E949505EDB7FEB731970E9432061F93C8
:10034C000F93EDB7FEB731970E9432063F932F9370
:10035C0088E00E942A052C962F913F910F911F91B6
:10036C00FE010E949505F8010E941D060E943406AC
:10037C00F9010E941D060E94340688E00E94990330
:10038C002C9600240016010621F000240216030608
:10039C0009F44BC000240016010624F400240216B4
:1003AC0003060CF004C0045D1E4F245D3E4F112368
:1003BC0022F40024021603060CF004C00C52114067
:1003CC00245D3E4F112312F433230AF004C00C5267
:1003DC0011402C52314000240016010614F4332332
:1003EC000AF004C0045D1E4F2C523140E1E0EA9348
:1003FC00E9E7F0E00E949C050E94A105E2E0EA9387
:10040C00E9E7F0E0FA93EA933A932A930E94A10564
:10041C000E94A605E1E0F0E0FA93EA930E94A105A0
:10042C000E94AD05E1E0F0E00CC00E94A605E2E000
:10043C00F0E0FA93EA930E94A1050E94AD05E2E078
:10044C00F0E0FA93EA930E94A10570CFFFCF1A93C4
:10045C000A93AA81BB8112960E942A06309729F131
:10046C00AA81BB8114960E942A068F01309761F0F5
:10047C000230E0E01E07C0F0F80131978F01AA812D
:10048C00BB811496ED93FC93AA81BB8112960E94BA
:10049C00B4053197AC81A083AA81BB810E942A0646
:1004AC00FF2312F00E94B40506C0AA81BB81EFEFB6
:1004BC00FFEFED93FC93198108818DC126970E9463
:1004CC00390610E0AC85BD85E0E0F0E0ED93FC93DF
:1004DC00EA89FB893196EA8BFB8B3197E4912E2FBD
:1004EC00E03011F40C949103E12FE03039F4253213
:1004FC0011F411E002C00E94BA050CC1E130A9F45C
:10050C00253219F40E94BA0504C112E040E000E063
:10051C002D3211F401E0FEC02B3211F44BE2FAC083
:10052C00203211F440E2F6C002C0E23039F450E05F
:10053C0013E0203311F40068EDC004C0E33011F077
:10054C000C949003203310F02A3308F007C0AAE073
:10055C005A9F502DE22FE0535E0FDCC0E22FE336A2
:10056C0049F40E94C305E889F989A481AA930E94E1
:10057C00C905CFC0E33741F40E94C3050E94D105E1
:10058C000E9477051E2F0AC0E03761F40E94C30554
:10059C000E94D1050E9481051E2F086002600F7712
:1005AC0030E035C0E43611F0E93611F4046002C0D5
:1005BC00E53731F4ECE8F0E0EE83FF8315E00DC095
:1005CC00E83511F4086004C0E83711F00C948F037F
:1005DC00E6E9F0E0EE83FF8314E002FF14C00E9412
:1005EC00C3050E94DB05AB85AA233AF4EA85FB859B
:1005FC000E941406EA87FB874DE2403011F01F5F22
:10060C0001C00B7F04C00E94C3050E94DB0500FDE6
:10061C0011C0151778F407FF08C002FF04C00B7F48
:10062C00242F115001C020E301C020E20E94BA0522
:10063C005150EFCF312F01FF17C03030A1F003FF25
:10064C0006C0EE81FF812591EE83FF8305C0AE814C
:10065C00BF812D91AE83BF830E94BA05503009F043
:10066C0051503150EACF4BC020E3EE81FF810E9404
:10067C002E06E887F987EE81FF813296EE83FF83A1
:10068C00E885F985AA85BB85AE17BF0750F02F5FAB
:10069C00A885B985EA85FB85EA1BFB0BEA87FB87F6
:1006AC00EFCF2A3328F003FF02C0295F01C0295D78
:1006BC0004FD1AC0213320F4A885B985119709F4DB
:1006CC0009C0531710F000FF01C013C020E207FF50
:1006DC000BC020E3006102FF07C00B7F4A930E940E
:1006EC00C905503009F051500E94BA05503009F03C
:1006FC0051503150A885B985129708F0B5CF00FF3D
:10070C0008C0503031F05150E0E2EA930E94C90524
:10071C00F8CF10E0DDCEAC85BD850E942A060E9484
:10072C00400664960895FF92F82E26970E943B0689
:10073C000E94E305309719F4EFEFFFEF21C0DE01C3
:10074C0016960E9410068D010E94E305EE83FF832E
:10075C00E0E0E887E987DE011A960E94EA050E942C
:10076C009C05EDE2F2E0FA93EA93FE013A96FA93D5
:10077C00EA93A4DE9F01AE81BF81E0E0EC93F90126
:10078C000E9442062A96FF9008951A93A981BA8175
:10079C00E0E0EC93AB81BC81EC911E2FE03019F0C2
:1007AC00E0E0EC9316C0A981BA8111960E942A064A
:1007BC00309771F0E981FA81A181B281EC911E2F01
:1007CC00E03029F0A981BA8111960E94B40501C0CC
:1007DC0010E0E12F18812596089525970E9439067F
:1007EC00E0E0F0E0E887F9874E2FE989FA89319645
:1007FC00E98BFA8B3197E4913E2FE03011F40C9495
:10080C0024050E94EF05C1F0EDB7FEB7FA93EA9309
:10081C004F930E94C9054F913E2FE03019F00E9472
:10082C00EF0509F407C00E94F4051CF4EFEFFFEF8D
:10083C0007C1EACF432F01C1353211F00C940B05DF
:10084C0050E0E989FA893591E98BFA8B303310F055
:10085C003A3308F007C0AAE05A9F502DE32FE0531B
:10086C005E0FEFCF303009F4E9C0EDB7FEB7FA9365
:10087C00EA934F930E94C9054F912E2FEA930E9441
:10088C005F05E03039F00E94F4051CF4EFEFFFEF48
:10089C00D7C0EBCF203009F4C8C0422F503009F438
:1008AC005FEFE32FE33699F40E94F905EDB7FEB73D
:1008BC00FA93EA934F930E94C9054F91D801EC9398
:1008CC000E94F4051CF4EFEFFFEFBAC098C0E337B9
:1008DC0041F50E94F905E52F5150E030F1F0EDB7EC
:1008EC00FEB7FA93EA934F930E94C9054F913E2F9E
:1008FC00E03019F00E94EF0539F00E94F4051CF469
:10090C00EFEFFFEF9DC009C01F930F930F5F1F4FB9
:10091C00E32FAF91BF91EC93DECFD801E0E0EC93E5
:10092C006EC0E1E0EA87E32FE43611F0E93619F402
:10093C00E0E0EA8702C0E53711F42AE008C0E837A6
:10094C0011F420E104C0E53209F45FC077C0E0E0A7
:10095C00EE83EF83E52F5150E03011F40C94F80442
:10096C00EDB7FEB7FA93EA934F930E94C9054F91E6
:10097C003E2FE13238F40E94F4051CF4EFEFFFEF48
:10098C005FC017C0EA85E03039F43D3219F4EFEF5F
:10099C00EA87E0CFE1E0EA87203131F43A930E9414
:1009AC006905E03031F007C03A930E945705E030FA
:1009BC0011F4432F17C0313610F0375505C03134C0
:1009CC0010F0375301C03053E22FAE81BF81F0E0FD
:1009DC000E942206DF01E32FF0E0EA0FFB1FEE83FB
:1009EC00FF83B8CF0E94F905EA85AE81BF81F0E0A4
:1009FC00E7FDFFEF0E942206D801ED93FC93E885FA
:100A0C00F9853196E887F98718C0EDB7FEB7FA93E8
:100A1C00EA934F930E94C9054F91E31771F00E941E
:100A2C00F4051CF4EFEFFFEF0BC0E885F985309768
:100A3C0019F4EFEFFFEF04C001C0D7CEE885F985BC
:100A4C000E94400663960895FF92F82E23971A93FE
:100A5C000A93DE0117960E94EA05309719F4EFEF1E
:100A6C00FFEF1AC0DE0111960E9410068D01DE0107
:100A7C0017960E94EA05EB83FC83DE0115960E9413
:100A8C00EA050E949C05EBECF3E0FA93EA93FE0175
:100A9C003896FA93EA93A1DE198108812596FF9086
:100AAC000895E1E0F991F03310F0FA3308F0EE27F5
:100ABC000895E1E0F991F03229F0F93010F0FE30B0
:100ACC0008F0EE270895E1E0F991F05340F0FA3088
:100ADC0038F0FF75F750FA3010F0F03108F0EE27CF
:100AEC000895A991B991EE27FF276D91662311F016
:100AFC003196FBCF0895AA27BB27E991F991059070
:100B0C00002011F01196FBCFFD010895A62DB0E049
:100B1C00AC59BA4F0895FA93EA930C940406FA93DD
:100B2C00EA93E6EBF0E0FA93EA930895FA93EA93EA
:100B3C001A930A9308950E94FD00E2E3F0E0EBCFD4
:100B4C00E1E0EA93E8E7F0E0FA93EA930895E2E053
:100B5C00EA93E8E7F0E0FA93EA930895ED91FD91BA
:100B6C003196FE93EE9308952A93ED85FE85FA93C4
:100B7C00EA93E989FA8909950895E889F9893497FE
:100B8C00E88BF98B0895ED85FE85FA93EA93E98954
:100B9C00FA8909950895A889B98914960E942A069C
:100BAC00EE83FF83FA93EA930895A889B989149682
:100BBC000E942A06EA87FB870895DE011C960E9494
:100BCC0010060E942A0608950E9410060E942A060A
:100BDC0008953A930E945F05E0300895AB85BC857B
:100BEC00AC91A0300895EF85F8893497EF87F88B96
:100BFC00AF85B88914960D911C910895E991F991DE
:100C0C00309639F086E69EE00197F1F7A89531977A
:100C1C00C9F708950024AF0DB01D0895F195E19525
:100C2C00F0400895EF2FFF27E7FDFFEF08956F2F9A
:100C3C00660F660B762F0895FA9FF02DEB9FF00D43
:100C4C00EA9FE02DF10D0895ED91FC911197089517
:100C5C000590F491E02D089560E070E07A936A932A
:100C6C00FA93EA9308955A934A933A932A931A93D0
:100C7C000A9308955D814C813B812A8119810881F9
:100C8C000895AC0FBD1F05900D928A95E1F708955C
:00000001FF
