:0A0000000C9463000C9400000C94B3
:10000A0000000C9400000C9400000C9400000C9466
:10001A0000000C9400000C9400000C942F010C9426
:10002A0000000C9400000C9400000C9400000C9446
:10003A0000000C9433010C9400000C9400000C9402
:10004A00F1000C9400000C9400000C9400000C9435
:10005A0000000C9400000C9400000C9400000C9416
:10006A0000000C9400000C9400000C9400000C9406
:10007A000D010C9400000C9400000C9400000C94E8
:10008A0000001027E80364000A00010000100001C4
:10009A001000010000000000000000000000000045
:1000AA000000000000000000000000003C25642C55
:1000BA0025643E0004000400B2000000F894EE2714
:1000CA00ECBBF1E0F5BFE5BFE0936C00F8E1F1BDF0
:1000DA00E1BD8DE0A2E0BB27ED938A95E9F780E0C8
:1000EA0090E1A0E0B1E0ED930197E9F7EEEBF0E0E3
:1000FA0085919591009761F0A591B591059015901C
:10010A00BF01F00105900D920197E1F7FB01F0CFD5
:10011A008BBFEFEFEDBFE0E1EEBFC0E0D5E00C949E
:10012A003901E0E0E0939B00E8E9E0939A00E6E019
:10013A00E0939D00E0919D00EF7BE0939D00E881B4
:10014A00F9810E946F05E0939800E881E093990095
:10015A0014C0E0E0EBB9E8E9EAB9E6E0E09395001B
:10016A00E0919500EF7BE0939500E881F9810E9488
:10017A006F05E0939000E881E9B922960895EDE0D1
:10018A00E5BDE8E2E3BD0895E0919B00E072E1F38A
:10019A00E881E0939C00219608951A9310E010E0FC
:1001AA00E981F0E03197A12FB0E0AE17BF073CF428
:1001BA000E94F304EC91EA93E7DF1F5FF1CF10E0AE
:1001CA00E9811E1730F40E94F304E0E0EC931F5F0C
:1001DA00F7CF188124960895EA93FA93EFB7EA9332
:1001EA001A9310E01CB11C3311F4442407C01E33C7
:1001FA0029F4E42D0E94FA04439403C0E42D0E94DA
:10020A00FA0443941991E991EFBFF991E99118958C
:10021A00AA93BA93EA93EFB7EA93E2B7E93118F4EB
:10022A00E0E0E51519F0E0E0E61531F40E94FF047C
:10023A00E0919C00EC9306C066240E94FF04ECB196
:10024A00EC936394E0E0E2BFE991EFBFE991B991E1
:10025A00A9911895EA93EFB7539403C0EA93EFB7BD
:10026A007394EFBFE9911895649784E1A0E0B0E038
:10027A00EEE9F0E00E949E0500E010E020E030E0A8
:10028A00E7E0F0E0FA93EA934CDFE7E0F0E0FA9374
:10029A00EA935FDF74DF7894B99AE8E8F3E1FA93B6
:1002AA00EA930E945B05E0E0F5E00E940405EDB7E1
:1002BA00FEB731970E9489051F930F93EDB7FEB7DA
:1002CA0031970E9489053F932F9388E00E948F04FB
:1002DA002C962F913F910F911F91FE010E940405C8
:1002EA00F8010E9474050E948B05F9010E947405A9
:1002FA000E948B0588E00E94FC022C96FE01FA936C
:10030A00EA934A924ADFE8ECF0E0FA93EA930E9411
:10031A005B05C9CFFFCF1A930A93AA81BB811296B4
:10032A000E948105309729F1AA81BB8114960E9407
:10033A0081058F01309761F00230E0E01E07C0F0BE
:10034A00F80131978F01AA81BB811496ED93FC9332
:10035A00AA81BB8112960E940B053197AC81A083BA
:10036A00AA81BB810E948105FF2312F00E940B051E
:10037A0006C0AA81BB81EFEFFFEFED93FC931981D1
:10038A0008818FC126970E94900510E0AC85BD8533
:10039A00E0E0F0E0ED93FC93EA89FB893196EA8B81
:1003AA00FB8B3197E4912E2FE03011F40C94F40278
:1003BA00E12FE03039F4253211F411E002C00E9435
:1003CA0011050CC1E130A9F4253219F40E94110576
:1003DA0004C112E040E000E02D3211F401E0FEC059
:1003EA002B3211F44BE2FAC0203211F440E2F6C08B
:1003FA0002C0E23039F450E013E0203311F400680F
:10040A00EDC004C0E33011F00C94F302203310F075
:10041A002A3308F007C0AAE05A9F502DE22FE05372
:10042A005E0FDCC0E22FE33649F40E941A05E88920
:10043A00F989A481AA930E942005CFC0E33741F429
:10044A000E941A050E9428050E94DE041E2F0AC077
:10045A00E03761F40E941A050E9428050E94E80408
:10046A001E2F086002600F7730E035C0E43611F0C5
:10047A00E93611F4046002C0E53731F4ECE8F0E043
:10048A00EE83FF8315E00DC0E83511F4086004C05F
:10049A00E83711F00C94F202E6E9F0E0EE83FF830C
:1004AA0014E002FF14C00E941A050E943205AB85AF
:1004BA00AA233AF4EA85FB850E946B05EA87FB8743
:1004CA004DE2403011F01F5F01C00B7F04C00E9453
:1004DA001A050E94320500FD11C0151778F407FFAE
:1004EA0008C002FF04C00B7F242F115001C020E373
:1004FA0001C020E20E9411055150EFCF312F01FFB8
:10050A0017C03030A1F003FF06C0EE81FF812591AC
:10051A00EE83FF8305C0AE81BF812D91AE83BF8379
:10052A000E941105503009F051503150EACF4BC0AA
:10053A0020E3EE81FF810E948505E887F987EE8135
:10054A00FF813296EE83FF83E885F985AA85BB850C
:10055A00AE17BF0750F02F5FA885B985EA85FB85DE
:10056A00EA1BFB0BEA87FB87EFCF2A3328F003FF4E
:10057A0002C0295F01C0295D04FD1AC0213320F49D
:10058A00A885B985119709F409C0531710F000FF1F
:10059A0001C013C020E207FF0BC020E3006102FF85
:1005AA0007C00B7F4A930E942005503009F0515032
:1005BA000E941105503009F051503150A885B98573
:1005CA00129708F0B5CF00FF08C0503031F05150F3
:1005DA00E0E2EA930E942005F8CF10E0DDCEAC8578
:1005EA00BD850E9481050E94970564960895FF9231
:1005FA00F82E26970E9492050E943A05309719F420
:10060A00EFEFFFEF23C0DE0116960E9467058D010A
:10061A000E943A05EE83FF83E0E0E887E987DE017E
:10062A001A960E944105FA93EA931A930A93E0E90B
:10063A00F1E0FA93EA93FE013A96FA93EA93A2DE7C
:10064A009F01AE81BF81E0E0EC93F9010E94990518
:10065A002A96FF9008951A93A981BA81E0E0EC9353
:10066A00AB81BC81EC911E2FE03019F0E0E0EC93F5
:10067A0016C0A981BA8111960E948105309771F03E
:10068A00E981FA81A181B281EC911E2FE03029F033
:10069A00A981BA8111960E940B0501C010E0E12FD1
:1006AA0018812596089525970E949005E0E0F0E0CC
:1006BA00E887F9874E2FE989FA893196E98BFA8B0F
:1006CA003197E4913E2FE03011F40C9489040E9492
:1006DA004605C1F0EDB7FEB7FA93EA934F930E942D
:1006EA0020054F913E2FE03019F00E94460509F48B
:1006FA0007C00E944B051CF4EFEFFFEF07C1EACFDA
:10070A00432F01C1353211F00C94700450E0E9898D
:10071A00FA893591E98BFA8B303310F03A3308F0C5
:10072A0007C0AAE05A9F502DE32FE0535E0FEFCF88
:10073A00303009F4E9C0EDB7FEB7FA93EA934F9364
:10074A000E9420054F912E2FEA930E94C604E030A2
:10075A0039F00E944B051CF4EFEFFFEFD7C0EBCF47
:10076A00203009F4C8C0422F503009F45FEFE32F5C
:10077A00E33699F40E945005EDB7FEB7FA93EA936F
:10078A004F930E9420054F91D801EC930E944B058C
:10079A001CF4EFEFFFEFBAC098C0E33741F50E94AF
:1007AA005005E52F5150E030F1F0EDB7FEB7FA935E
:1007BA00EA934F930E9420054F913E2FE03019F0A3
:1007CA000E94460539F00E944B051CF4EFEFFFEF3B
:1007DA009DC009C01F930F930F5F1F4FE32FAF9167
:1007EA00BF91EC93DECFD801E0E0EC936EC0E1E07C
:1007FA00EA87E32FE43611F0E93619F4E0E0EA87F4
:10080A0002C0E53711F42AE008C0E83711F420E104
:10081A0004C0E53209F45FC077C0E0E0EE83EF83FD
:10082A00E52F5150E03011F40C945D04EDB7FEB79A
:10083A00FA93EA934F930E9420054F913E2FE1329B
:10084A0038F40E944B051CF4EFEFFFEF5FC017C0AE
:10085A00EA85E03039F43D3219F4EFEFEA87E0CF68
:10086A00E1E0EA87203131F43A930E94D004E03083
:10087A0031F007C03A930E94BE04E03011F4432FCE
:10088A0017C0313610F0375505C0313410F03753E0
:10089A0001C03053E22FAE81BF81F0E00E9479059A
:1008AA00DF01E32FF0E0EA0FFB1FEE83FF83B8CFEF
:1008BA000E945005EA85AE81BF81F0E0E7FDFFEFB7
:1008CA000E947905D801ED93FC93E885F985319664
:1008DA00E887F98718C0EDB7FEB7FA93EA934F9302
:1008EA000E9420054F91E31771F00E944B051CF4FA
:1008FA00EFEFFFEF0BC0E885F985309719F4EFEFBA
:10090A00FFEF04C001C0D7CEE885F9850E9497059C
:10091A0063960895FF92F82E23971A930A93DE019D
:10092A0017960E944105309719F4EFEFFFEF1CC0AC
:10093A00DE0111960E9467058D01DE0117960E945D
:10094A004105EB83FC83DE0115960E944105FA936B
:10095A00EA931A930A93E0E3F3E0FA93EA93FE0127
:10096A003896FA93EA939FDE198108812596FF90BB
:10097A000895E1E0F991F03310F0FA3308F0EE2728
:10098A000895E1E0F991F03229F0F93010F0FE30E3
:10099A0008F0EE270895E1E0F991F05340F0FA30BB
:1009AA0038F0FF75F750FA3010F0F03108F0EE2702
:1009BA000895A991B991EE27FF276D91662311F049
:1009CA003196FBCF0895AA27BB27E991F9910590A3
:1009DA00002011F01196FBCFFD010895E12FF0E000
:1009EA00AA81BB81AE0FBF1F0895F0E0E050FB4F14
:1009FA0010830895A62DB0E0AC59BA4F0895FA9322
:100A0A00EA93E6EBF0E0FA93EA930895ED91FD910B
:100A1A003196FE93EE9308952A93ED85FE85FA9317
:100A2A00EA93E989FA8909950895E889F989349751
:100A3A00E88BF98B0895ED85FE85FA93EA93E989A7
:100A4A00FA8909950895A889B98914960E94810599
:100A5A00EE83FF83FA93EA930895A889B9891496D5
:100A6A000E948105EA87FB870895DE011C960E9491
:100A7A0067050E94810508950E9467050E94810505
:100A8A0008953A930E94C604E0300895AB85BC8568
:100A9A00AC91A0300895EF85F8893497EF87F88BE9
:100AAA00AF85B88914960D911C910895E991F99131
:100ABA00309639F086E69EE00197F1F7A8953197CE
:100ACA00C9F708950024AF0DB01D0895F195E19579
:100ADA00F0400895EF2FFF27E7FDFFEF08956F2FEE
:100AEA00660F660B762F0895FA9FF02DEB9FF00D97
:100AFA00EA9FE02DF10D0895ED91FC91119708956B
:100B0A000590F491E02D089560E070E07A936A937D
:100B1A00FA93EA9308955A934A933A932A931A9323
:100B2A000A9308955D814C813B812A81198108814C
:100B3A000895AC0FBD1F05900D928A95E1F70895AF
:00000001FF
