:040000000C948601D5
:100004000C9400000C9400000C9400000C9400006C
:100014000C9400000C9400000C9400000C9400005C
:100024000C9482030C9400000C9400000C940000C7
:100034000C948E030C9400000C9400000C94880320
:100044000C9400000C9441030C9400000C940000E8
:100054000C9400000C9400000C9400000C9400001C
:100064000C9400000C9400000C9400000C9400000C
:100074000C9400000C945C030C9400000C9400009D
:100084000C9400000C94000000000000000000002C
:10009400000000000000000000000000000000005C
:1000A400000000000000000000000000000000004C
:1000B400000000000000000000000000000000003C
:1000C400000000000000000000000000000000002C
:1002C4000000000000000000000000003C25642C39
:1002D40025642C25643E0025642C2025642C2025CF
:1002E400642C2025640A00002D4E414E00000100BC
:1002F4002D4E414E00494E4600000A000400C6023D
:1003040001007805F2020000F894EE27ECBBF1E05E
:10031400F5BFE5BFE0936C00F8E1F1BDE1BD8DE010
:10032400A2E0BB27ED938A95E9F780E090E1A0E095
:10033400B1E0ED930197E9F7EEEFF2E08591959145
:10034400009761F0A591B59105901590BF01F0015A
:1003540005900D920197E1F7FB01F0CF8BBFEFEF12
:10036400EDBFE0E1EEBFC0E0D5E00C949B03E0E01C
:10037400E0939B00E8E9E0939A00E6E0E0939D00B7
:10038400E0919D00EF7BE0939D00E881F9810E945C
:100394009910E0939800E881E093990014C0E0E09C
:1003A400EBB9E8E9EAB9E6E0E0939500E09195005D
:1003B400EF7BE0939500E881F9810E949910E09326
:1003C4009000E881E9B922960895EDE0E5BDE8E200
:1003D400E3BDE2E810C0E7E0E3BFE1E80CC0EDE113
:1003E400EEBDEFEFF0E0F9BDE8BDE0EBF4E0F7BD02
:1003F400E6BDE7B7E860E7BF0895E0919B00E072CF
:10040400E1F3E881E0939C0023C01A930A9310E07F
:1004140000E010E00E94910CE03031F00E94910C59
:10042400EA93EBDF1F5FF6CF00E0011750F4AA81D7
:10043400BB811196AA83BB831197E0E0EC930F5F15
:10044400F4CF19810881EAC05D9BFECFE881ECB945
:10045400219608950E9445112FEF3FEFEE81FF8111
:100464003197EE83FF833196F9F0A885B985ED9134
:10047400A887B987F0E02E273F2700E010E0083076
:10048400E0E01E0784F4F901E170F070AF013695E5
:100494002795042E052A21F0E1E0F0EA2E273F27D4
:1004A4000F5F1F4FECCFDACFF9010E944C112A964F
:1004B40008950E94980CE6E00E94A00C2830E0E029
:1004C4003E072CF40E94C30C2F5F3F4FF7CF0EC0A2
:1004D4000E94980CE4E00E94A00C2830E0E03E0763
:1004E4002CF40E94C30C2F5F3F4FF7CF0E944E1194
:1004F4006196089528970E94CB0CE0E0EA83EB8391
:10050400EC83ED83EE83EF830E94CF0C772342F0DC
:100514000E94D40C0E94E00EAC85BD850E9414118B
:100524000E94CF0C7F936F93FF93EF930E94D40CA0
:100534000E94D90CAF91BF918F919F910E94860F19
:100544000E94E80C0E94CF0C7F936F93FF93EF936C
:100554000E94D40C0E94D90CAF91BF918F919F91AE
:100564000E94ED0C0E9423110E94F20C0E94F70CD1
:10057400AA85BB85ED93FC930E94060D0E94F70C9F
:10058400A885B985ED93FC93AA85BB850E940A11C1
:10059400EC32A1E0FA0734F4DF01E4EDFEEFEA17F0
:1005A400FB070CF014C0A885B9850E940A11EC322F
:1005B400A1E0FA0754F4A885B9850E940A11DF0165
:1005C400E4EDFEEFEA17FB070CF001C001C008C020
:1005D400AA85BB850E94090DA885B9850E94090DCD
:1005E4000C940007E1E0EA93E9E7F0E0FA93EA9378
:1005F400ED81FE810E940E0DE2E0EA93E9E7F0E06E
:10060400FA93EA93EB81FC810E948D100E940E0DF7
:10061400E1E00E94180DE2E00E94180D249608956E
:100624000E94471110E020E030E0A0910105A730BE
:1006340011F1B0910505A0E0E09106050E94200D9E
:100644009F01B0910305A0E0E09104050E94200DF4
:10065400AC81BD81ED93FC9310E0EE811E1750F444
:10066400E12FF0E0AF81B885AE0FBF1FE0E0EC935F
:100674001F5FF3CFF9010E944E1129960895AA93A2
:10068400BA93EA93EFB7EA93E4B5E93118F4E0E0FA
:10069400E51519F0E0E0E41519F40E94240D04C0F6
:1006A40044240E94240D5524E991EFBFE991B991A6
:1006B400A99118950E942E0D1A9310E010919C0098
:1006C4001C3319F4E0E0E81509F007C0C39B02C02D
:1006D400C39801C0C39A99240EC01E3319F4E0E0F4
:1006E400E81509F006C0E92D0E94330DE1E08E2ED5
:1006F40005C0882019F4E92D0E94330D199114C006
:10070400EA93EFB75394EFBFE99118950E942E0D29
:10071400F30131963F0108C00E942E0DF601319677
:100724006F01E0E0EDBDECBDE991EFBFF991E99116
:100734001895EF972297D25089E392E0A0E0B0E0B9
:10074400ECE8F0E00E94531100E010E020E030E01B
:1007540040E050E0E7E0F0E0FA93EA9308DEE7E0F7
:10076400F0E0FA93EA931BDE30DE35DE38DE78946F
:10077400B99ABA9ABB9AE8E8F3E10E94390DC19894
:10078400C29A66247724E0E0E2BF882011F40C9436
:100794005E04C19AE0919A00EF7EE0939A00E4E649
:1007A400F5E0FA93EA93E0EDF2E0FA93EA93EDB719
:1007B400FEB731970E9428111F930F93EDB7FEB730
:1007C40031970E9428113F932F93FE01E35CFD4F64
:1007D400662777270E942A118CE00E94AD0A609652
:1007E4002F913F910F911F910E943D0D3097B1F4CD
:1007F400E0E0DE01AF5EBD4FED93ED93ED93EC933E
:10080400DE01A35FBD4FED93ED93ED93EC93DE0119
:10081400A75FBD4FED93ED93ED93EC93F8010E9428
:10082400440DDE01A75CBD4FED93FD936D937C9366
:10083400F9010E94440DDE01A35CBD4FED93FD93CD
:100844006D937C93FE01E75CFD4FFA93EA93FE01FE
:10085400E15CFD4FFA93EA93EDB7FEB73197FA9353
:10086400EA935F934F93FE01E35CFD4FFA93EA939F
:1008740041DE4F915F915A934A93FE01E75CFD4F2D
:100884000190F081E02DFA93EA93ACDEE0E0DE0122
:10089400A750BE4FED93ED93ED93EC93CC24DD2460
:1008A400ECBDE1E0DE01AC50BE4FEC938824E09156
:1008B4009A00E061E0939A00F601AFEFB0E00E9485
:1008C400AE10DF01ECB50E94200D662777270E9449
:1008D4004C0FAEEDB8E38EE89DE30E94D60FDE0127
:1008E400A750BE4FED93FD936D937C93DE01AF5CF7
:1008F400BD4F0D90BC91A02D0E94A9100E943111F2
:100904000E946910C0F4E0E0F0E0FA93EA93FA93ED
:10091400EA9368DECC24DD24E0E0DE01A75CBD4F71
:10092400ED93ED93ED93EC93DE01A35CBD4FED935A
:10093400ED93ED93EC930E94510DE1E00E94540D70
:10094400E0E0F5E0FA93EA934A92FE01EA5DFD4F96
:10095400FA93EA9365DEDE01A15DBD4FED93FC934E
:10096400E2E00E94540DE0E0F5E0FA93EA934A9243
:10097400FE01EC5DFD4FFA93EA9352DE0E948D1066
:10098400DE01A35DBD4FED93FC930E945E0D0E94BA
:10099400650DDE01A75DBD4FED93FD936D937C93D3
:1009A400FE01E35DFD4F0190F081E02D0E94650D95
:1009B400DE01AB5DBD4FED93FD936D937C93DE0142
:1009C400A75DBD4F0D901D908D919C91D0010E940B
:1009D400860FDF01CB01E0E0F0E060E070E40E940C
:1009E4002410DE01A35EBD4FED93FD936D937C93C4
:1009F400DE01AB5DBD4F0D901D908D919C91D0019A
:100A0400FE01E75DFD4F0190119061917081F0014D
:100A14000E947F0FDF01CB01EBE3FFED6FE87EE384
:100A24000E942410DE01A75EBD4FED93FD936D93EC
:100A34007C93F301AFEFB0E00E94AE10DF01E2B7A8
:100A44000E94200D662777270E944C0FAEEAB2EA77
:100A540081E998E30E94D60FDE01AB5EBD4FED93B2
:100A6400FD936D937C9366247724E0E0E2BFFE015E
:100A7400E75EFD4F0190119061917081F001DE01FC
:100A8400AB5EBD4F0D901D908D919C91D0010E9445
:100A9400D60F0E94720D0E94860FDE01A75FBD4F24
:100AA400ED93FD936D937C930E947B0D7F936F93E5
:100AB400FF93EF930E948E0D0E94A80BAF91BF91FC
:100AC4008F919F910E94D60FDE01AF5EBD4F0D90B6
:100AD4001D908D919C91D0010E94860FDE01AF5E26
:100AE400BD4FED93FD936D937C930E947B0D7F939B
:100AF4006F93FF93EF930E948E0D0E94210BAF9191
:100B0400BF918F919F910E94D60FDE01A35FBD4FCD
:100B14000D901D908D919C91D0010E94860FDE0155
:100B2400A35FBD4FED93FD936D937C930E94720D73
:100B3400E6EFF8E265E672E40E94D60F0E94150F14
:100B4400DE01A95FBD4FED93FC93FE01EB5EFD4F0B
:100B54000190119061917081F0010E94990D0E94A1
:100B6400860FDE01AB50BE4FED93FD936D937C93E6
:100B74000E94990DEAE0F7ED63E27CE30E946910BC
:100B840009F010F40C94F705FE01FA93EA93EBEDE7
:100B9400F2E0FA93EA93FE01ED5CFD4F0190F081DF
:100BA400E02D0E94A20DFE01EB5CFD4F0190F0814F
:100BB400E02D0E948D100E94A20D0E945E0D0E94E5
:100BC400A20D0E943D0D0E94A20D80E10E941E090B
:100BD4006496FE01FA93EA9318DCE0E0DE01AB5080
:100BE400BE4FED93ED93ED93EC93CFCDFFCF1A93DE
:100BF4000A93AA81BB8112960E940A11309729F1A7
:100C0400AA81BB8114960E940A118F01309761F06A
:100C14000230E0E01E07C0F0F80131978F01AA818D
:100C2400BB811496ED93FC93AA81BB8112960E941A
:100C3400A70D3197AC81A083AA81BB810E940A11C0
:100C4400FF2312F00E94A70D06C0AA81BB81EFEF1B
:100C5400FFEFED93FC931981088148C324970E9408
:100C6400CB0CE0E8EA83EFE3EB830E944711EE85C7
:100C7400FF85EF3FAFEFFA0749F4E885F985FA936A
:100C8400EA93ECEEF2E00E94AD0DB6C0EF3FAFE7A1
:100C9400FA0749F4E885F985FA93EA93EDEEF2E070
:100CA4000E94AD0DA9C0AB85A73010F0E6E0EB873C
:100CB4001B85E12F1150E03019F00E94B10DF9CFDE
:100CC400EC85FD856E857F850E94411121F430E01D
:100CD4000E94B10D2EC03B850E94BC0D09F010F49A
:100CE4000C947F060E94B10D0E94BC0D28F00E9456
:100CF400C40D0E94C90DF8CF0DC00E94BC0D40F474
:100D04000E94C40D0E94D50D0E94DC0D3150F5CF18
:100D14000E94B10DEC85FD856E857F850E94E10DF5
:100D24000E94DC0D0E94BC0D20F00E94C40D0E94A4
:100D3400C90D10E0EB85E11798F1AC81BD818E817E
:100D44009F810E94E80D0E94E10D0E94EF0D0E9418
:100D5400E80C0E94F20C0E94C40D0E9424100E9410
:100D6400130F0E2F0E94F30D0E94FA0DFF27662722
:100D740077270E944C0FAC81BD818E819F810E9498
:100D8400D60F0E94C40D0E94ED0C0E94DC0DE12FD1
:100D94001F5FE03079F60E94F30DEEE2EC93CACFC8
:100DA4000E94FF0D3197AA85A08330302CF4319531
:100DB400A885B985EDE203C0A885B985EBE2EC937B
:100DC4000E94FF0D0E94FF0D3197BF01A32FEAE09F
:100DD4000E94C410E05DDB01EC930E94FF0D31978B
:100DE400BF01A32FEAE00E94EE10E05DDB01EC936B
:100DF400A885B985E0E0EC930E944E1160960895B1
:100E0400EF9761970E94451110E0FE01E85AFF4FE9
:100E14000190F081E02DE887F987FE01EA5AFF4F3F
:100E24000190F081E02DEE83FF83AE81BF810E94AB
:100E3400090DDE01A45ABF4F0E94A70D3197E4911A
:100E44002E2FE03011F40C941509E12FE03039F421
:100E5400253211F411E002C00E94050EE3C1E13015
:100E6400C1F4253219F40E94050EDBC112E0E0E062
:100E7400ED8B00E02D3211F401E0D4C12B3219F4D2
:100E8400EBE2ED8BCFC1203219F4E0E2ED8BCAC165
:100E940002C0E23039F450E013E0203311F400686A
:100EA400C1C102C0E33091F4203310F02A3308F0BA
:100EB40007C0AAE05A9F502DE22FE0535E0FB2C143
:100EC40040E02E3211F414E0ADC10FC0E43099F4C7
:100ED400203310F02A3308F008C00062AAE04A9FC9
:100EE400402DE22FE0534E0F9DC12C3619F40260C1
:100EF40015E098C104C0E53011F00C941409E22FF8
:100F0400E33659F40E940E0E0E94150E0E940E0E36
:100F1400A481AA930E941C0E84C1E53411F0E53625
:100F240009F404C0E63611F00C94E207FE0176964B
:100F3400EE87FF870E94240E0E940E110E942B0E42
:100F44000E94300EAD85AA2322F0AD89AB3249F060
:100F540017C00E94320E0E94E00E0E942B0EEDE29A
:100F6400ED8B07FF05C0ED89EA930E941C0E08C0B3
:100F7400EE85FF853196EE87FF873197AD89A08393
:100F840005FF46E0263661F40E94320E0E942A11C3
:100F94004A93EB89FC89FA93EA930E94F50B0BC000
:100FA4000E94320E0E942A114A932A93EC89FD89E9
:100FB400FA93EA9353DEFE0176960E94370E1EC022
:100FC400E33739F40E94300E0E943F0E0E94370E20
:100FD4000EC0E037C1F40E94300E0E943F0EEE872F
:100FE400FF87FA93EA930E94EA0B1E2F08600F779B
:100FF400403011F0411708F001C0142F40E0E0E048
:10100400EC8B30E06EC0E43611F0E93611F4046084
:1010140002C0E537A1F4EAE0EC8B01FF08C0E0E090
:10102400FAEC6AE97BE30E94440E1AE023C0E0E193
:10103400F7E260E070E00E94440E15E01BC0E83562
:1010440011F4086004C0E83711F00C941309E0E1CE
:10105400EC8B01FF08C0E0E0F0E060E070E10E948A
:10106400440E18E007C0E0E0F0E160E070E00E94A8
:10107400440E14E0403011F00F7701C041E001FF4D
:1010840008C00E94300E0E94240E14960E940E1175
:101094000FC002FF07C00E94300E0E943F0E0E9444
:1010A400A41006C00E94300E0E943F0E66277727C8
:1010B400EA87FB876C877D8702FF12C0AD85AA2370
:1010C40042F40E94320E0E9491100E942B0EEDE217
:1010D400ED8BED89E03019F01F5F4F5F01C00B7F8E
:1010E400342F00FD14C0151710F4351708F00FC085
:1010F40007FF08C002FF04C00B7F2D89115001C0F7
:1011040020E301C020E20E94050E5150ECCF1417D9
:1011140090F4006102FF06C00E94490E09F051508C
:1011240011504150E0E3EA930E941C0E503009F044
:1011340051504150ECCF312FEC89E030B9F43030CC
:10114400A1F003FF06C0EE85FF852591EE87FF879A
:1011540005C0AE85BF852D91AE87BF870E94050E61
:10116400503009F051503150EACF51C00E945D0E09
:101174000E94C9102E2F2A3030F003FF02C0295CD0
:1011840001C0295A01C0205D04FD21C0213360F44F
:10119400A889B9898A899B89A130E0E0BE07E0E08B
:1011A4008E07E0E09E0709F40BC0431740F4531781
:1011B40010F000FF01C010C020E207FF08C020E3C8
:1011C400006102FF04C00E94490E09F051500E94C0
:1011D400050E503009F0515031500E945D0E0E94AE
:1011E400FA100E942B0EEC89A889B9898A899B89F7
:1011F400FF27662777270E94C9100E94440EE889BA
:10120400F9896A897B890E94411109F0AFCF00FFF7
:1012140008C0503031F05150E0E2EA930E941C0EB5
:10122400F8CF10E006CEAE81BF810E940A110E9461
:101234004C11EF966F960895FF92F82E26970E9410
:1012440047110E94660E309719F4EFEFFFEF23C0A9
:10125400DE0116960E9489108D010E94660EEE83AF
:10126400FF83E0E0E887E987DE011A960E946D0EAD
:10127400FA93EA931A930A93E9EFF5E0FA93EA935F
:10128400FE013A96FA93EA93BBDD9F01AE81BF81DA
:10129400E0E0EC93F9010E944E112A96FF90089524
:1012A4001A93A981BA81E0E0EC93AB81BC81EC9103
:1012B4001E2FE03019F0E0E0EC9316C0A981BA814A
:1012C40011960E940A11309771F0E981FA81A18187
:1012D400B281EC911E2FE03029F0A981BA811196D8
:1012E4000E94A70D01C010E0E12F188125960895F2
:1012F40025970E944511E0E0F0E0E887F9874E2F3A
:10130400E989FA893196E98BFA8B3197E4913E2F7A
:10131400E03011F40C94A70A0E94720EC1F0EDB7EC
:10132400FEB7FA93EA934F930E94770E4F913E2FA4
:10133400E03019F00E94720E09F407C00E947F0E7B
:101344001CF4EFEFFFEF03C1EACF432FFDC03532AA
:1013540011F00C948E0A50E0E989FA893591E98BF1
:10136400FA8B303310F03A3308F007C0AAE05A9FE2
:10137400502DE32FE0535E0FEFCF303009F4E5C07A
:10138400EDB7FEB7FA93EA934F930E94770E4F910D
:101394002E2FEA930E94BD0BE03039F00E947F0E9D
:1013A4001CF4EFEFFFEFD3C0EBCF203009F4C4C03F
:1013B400422F503009F45FEFE32FE33699F40E9493
:1013C400840EEDB7FEB7FA93EA934F930E94770E1B
:1013D4004F91D801EC930E947F0E1CF4EFEFFFEFC6
:1013E400B6C097C0E33741F50E94840EE52F5150F3
:1013F400E030F1F0EDB7FEB7FA93EA934F930E9411
:10140400770E4F913E2FE03019F00E94720E39F0A2
:101414000E947F0E1CF4EFEFFFEF99C009C01F93E9
:101424000F930F5F1F4FE32FAF91BF91EC93DECF6C
:10143400D801E0E0EC936DC0E1E0EA87E32FE43605
:1014440011F0E93619F4E0E0EA8702C0E53711F457
:101454002AE008C0E83711F420E104C0E53209F4B9
:101464005BC073C0E0E0EE83EF83E52F5150E030C2
:1014740011F40C947E0AEDB7FEB7FA93EA934F93F6
:101484000E94770E4F913E2FE13238F40E947F0E76
:101494001CF4EFEFFFEF5BC017C0EA85E03039F4CE
:1014A4003D3219F4EFEFEA87E0CFE1E0EA8720313B
:1014B40031F43A930E94C70BE03031F007C03A93FD
:1014C4000E94B50BE03011F4432F16C0313610F0F2
:1014D400375505C0313410F0375301C03053E22F73
:1014E400AE81BF81F0E00E94AE10DF01E32F0E94C5
:1014F400200DEE83FF83B9CF0E94840EEA85AE816E
:10150400BF81F0E0E7FDFFEF0E94AE10D801ED933C
:10151400FC930E94FF0D18C0EDB7FEB7FA93EA934F
:101524004F930E94770E4F91E31771F00E947F0E44
:101534001CF4EFEFFFEF0BC0E885F985309719F441
:10154400EFEFFFEF04C001C0DBCEE885F9850E9410
:101554004C1163960895FF92F82E23971A930A93D9
:10156400DE0117960E946D0E309719F4EFEFFFEF2E
:101574001CC0DE0111960E9489108D01DE011796B0
:101584000E946D0EEB83FC83DE0115960E946D0EA6
:10159400FA93EA931A930A93E2E5F9E0FA93EA9349
:1015A400FE013896FA93EA93A3DE19810881259601
:1015B400FF9008957B816A81F981E88177FB770F39
:1015C40067FD7160972F9E5781F078F0983190F401
:1015D400AA27BB27882708948795B795A7959A9536
:1015E400D1F7EA23FB23682305C0E8947727EE2785
:1015F400FF2766276F77769508F4606877F9A991D5
:10160400B99189919991EA17FB076807790797FBC4
:1016140008950E94060D0E942A110E94DC0A0E946D
:10162400231119F40E94060D9CC0E6F70E94060DD2
:10163400A0E0B0E080E89FE30E947F0F92C024976F
:101644001A9310E00E948F0EE3E8F9EF62E27EE362
:101654000E94D60F0E94940E0E94990E0E94EF0DD4
:101664000E948F0E0E94ED0C0E94940E0E949E0E0A
:101674000E94691009F010F40C944B0B0E94990E0F
:10168400A0E0B0E080E09FE30E947F0F0E94940EF0
:1016940011E00E948F0EE0E0F0E060E87EE30E943B
:1016A400691009F010F40C945D0B0E949E0E0E94C8
:1016B4007F0F0E94940E103031F00E94990E0E9408
:1016C400E00E0E94940E0E94990E0E948F0E0E94BA
:1016D400D60FE983FA836B837C83A1EBB4EC86E2B7
:1016E40092E40E94D60FDF01CB01EDE1F5EE6DE24D
:1016F40072E40E94ED0C0E94A40EACE4B3E584E015
:1017040091E40E94860F0E948F0E0E94D60F7F9351
:101714006F93FF93EF93E981FA816B817C81A1E15F
:10172400BDEE8EED9FE30E94860F0E94A40EAEE5EF
:10173400BBE788EA9FE30E94860FAF91BF918F9128
:101744009F910E9424101881299608950E941E11C9
:10175400EBEDFFE069EC7FE30E947F0F0E942A110A
:101764006EDF24960895E1E0F991F03310F0FA3336
:1017740008F0EE270895E1E0F991F03229F0F9300C
:1017840010F0FE3008F0EE270895E1E0F991F053EF
:1017940040F0FA3038F0FF75F750FA3010F0F031BD
:1017A40008F0EE270895E991F991A991B991CD0135
:1017B40005900D920020E1F7FC010895A991B991DB
:1017C400EE27FF276D91662311F03196FBCF089524
:1017D400AA27BB27E991F9910590002011F01196F1
:1017E400FBCFFD0108952497D4D0E0E0EA83EFE332
:1017F400EB831A930A93EB85FC85EF3FAFEFFA076F
:1018040029F4A7D2E4EFF2E0A6D185C0EF3FAFE719
:10181400FA0729F49ED2E5EFF2E09DD17CC0AC85B5
:10182400AA2352F4E985FA856B857C850E94E00E33
:1018340095D299D2EDE2EC93A885A73010F0E6E0BA
:10184400E8871885E12F1150E03021F093D2BED102
:1018540096D2F8CF99D20E94860F80D210E0E0E0B1
:10186400F0E060E87FE38BD28FD20E94691060F0D1
:1018740081D299D184D21F5F173228F06AD2E9EF5E
:10188400F2E069D148C0F0CF103021F46CD2E0E32B
:10189400EC931DC0E12F1150E030C9F06BD296D10A
:1018A4008ED19BD16CD270D20E9424100E94130F4F
:1018B4000E2F59D29DD1F0E05DD20E94A4100E9457
:1018C4004C0F0E94D60F69D286D048D2E3CFE88568
:1018D400E030E9F048D2EEE2EC93E885E150E887A5
:1018E400EF5FA9F05AD25FD139D2E985FA856B85C9
:1018F4007C850E94130F0E2F36D27AD1F0E04DD2A0
:101904000E94A4100E944C0F66D028D2E6CFAE816C
:10191400BF81E0E0EC93198108812D960895AA8196
:10192400BB81EE27A10FBE1FEC91089528970E945A
:10193400471120E030E0E889EC830895ED83EE85DB
:10194400FF850E949910EE83EE85EF83EC85FD857B
:101954000E949910E887EC85E987E0E0EA87EB8745
:10196400FE013496FA93EA93E6E0F0E0FA93EA9300
:101974000E942C028F01F801EA871B8720E030E0E7
:101984000895DE011496A20FB31FEC91EA930C9410
:101994002602E0E0E883E9830895AE85BF850E94CE
:1019A4000E110895AC85BD850E940E110895ABE318
:1019B400BFED8FE89EE30E94D60FDF01CB01E0E08C
:1019C400F0E060E070E40E9424100895EC83FD834D
:1019D4006E837F8308950E9434110E947F0F0895BF
:1019E400EC81FD816E817F810895AAEBB9EC88E1D9
:1019F40093E40E94D60FA0E0B0E080EA91E40E9454
:101A0400D60F0E94150F08950E9419110895E0E061
:101A1400F0E0ED93FC930895FA93EA930E945B023D
:101A2400E5E0F0E0FA93EA930C94D40EEA93E8E745
:101A3400F0E0FA93EA93E1E0F0E0EECFF0E0EA0FB1
:101A4400FB1F0895A42DB0E0A050BB4FECB1EC9364
:101A54004394E0E0E4BD0895EA93FA93EFB7EA9380
:101A64000895F0E0EC59FA4F108393940895FA9393
:101A7400EA930C94D40EFE01EF5CFD4F0190F081CB
:101A8400E02D08950E94A4100E944C0FDF01CB01A9
:101A9400E0E0F0E06AE774E40E9424100895E5E0D1
:101AA400F0E0E5CFEA93E2E0F0E0FA93EA93FA9308
:101AB400EA930E946A02F3CFFE01E15DFD4F0190BB
:101AC400F081E02D08950E94A4100E944C0FDF01C4
:101AD400CB01E9E2FCEF6EE375E40E942410089563
:101AE400DE01A75FBD4F0D901D908D919C91D0019B
:101AF4000895FE01EB5EFD4F01901190619170819C
:101B0400F001DE01A35EBD4F0D901D908D919C915F
:101B1400D0010E94D60F0895FE01E75FFD4F0190AA
:101B2400119061917081F0010E942A110895DE01E3
:101B3400AB50BE4F0D901D908D919C91D001089596
:101B44000E94A4100E942A110895ED91FD913196EE
:101B5400FE93EE930895FA93EA930C94D50BAC811B
:101B6400BD818E819F81E0E0F0E060E271E40E943B
:101B7400D60F2CCF35DFAC85BD858E859F850E9421
:101B840069100895AC85BD858E859F850895EDEC1B
:101B9400FCEC6CEC7DE30E94D60FEC87FD876E872E
:101BA4007F873F5F0895E0E0F0E060E271E40E9427
:101BB400D60F0895EC87FD876E877F870895A0E090
:101BC400B0E080E09FE30E94860F0895EDECFCEC0A
:101BD4006CEC7DE30E94D60F08950E942A110C94A8
:101BE4000B0BA885B9851196A887B9871197089515
:101BF400E02FE05DEC93E02F0895E885F9853196B8
:101C0400E887F98708952A93EF81F885FA93EA9390
:101C1400EB85FC8509950895FE01E65AFF4F019076
:101C2400F081E02D08953497DE01A65ABF4FED935D
:101C3400FC930895EF81F885FA93EA93EB85FC858C
:101C440009950895DE01A65ABF4F0D90BC91A02DB1
:101C54000895EA87FB876C877D870895DDDFE3CFEE
:101C6400EA85FB856C857D850895EE87FF87FA9369
:101C7400EA930E94E00B1E2F0895E4DF14960E945D
:101C84000A110895E88BF98B6A8B7B8B08950B7F7F
:101C9400ED89EA93FE01E95AFF4F0190F081E02DAE
:101CA400FA93EA93FE01E55AFF4F0190F081E02D8B
:101CB400099550300895E889F9896A897B89AA854C
:101CC400BB858C859D850895DE011C960E94891034
:101CD4000E940A1108950E9489100E940A11089511
:101CE4003A930E94BD0BE0300895ED85FE85FA938A
:101CF400EA93E989FA8909950895AB85BC85AC9185
:101D0400A0300895EF85F8893497EF87F88BAF8575
:101D1400B88914960D911C910895AD81BE818F816F
:101D240098850895ED83FE836F8378870895ED8108
:101D3400FE816F8178850895F0DFE0E0F0E060E0F7
:101D44007FE30895A981BA818B819C810E94D60F7B
:101D54000895EE81FF81FA93EA930895E987FA875B
:101D64006B877C870895AE81BF811196AE83BF8354
:101D740011970895AA81BB818C819D810895EA837E
:101D8400FB836C837D830895EA81FB816C817D8173
:101D9400A985BA858B859C850895A985BA858B8587
:101DA4009C850895E991F991309639F086E69EE094
:101DB4000197F1F7A8953197C9F7089530976040D6
:101DC400704009F070580895552342F4503811F4C6
:101DD400E0FF04C03196691F791F6BF050E8572764
:101DE40011F45F93CFC05F3F31F0660F000C57953D
:101DF4006795752F08955F9300200AF0CFC0C8C07F
:101E040050E8192E1522880F991F9527550F87958D
:101E140050E8072E0522660F771F7527550F679523
:101E24000895689401C0E8945F93F2DF703818F065
:101E34007F3F08F4A7C056E1571BAAF451955830C8
:101E44000EF4593030F0EFEFFFEF6FEF7FE777F9E3
:101E54001AC077275523B9F0EE0FFF1F661F771FAF
:101E64005A95D1F710C07727583028F0EF2FF62F66
:101E7400672F5850F9CF552331F076956795F7952C
:101E8400E7955A95D1F700200AF449D15F91089556
:101E9400689401C0E894309760407040B1F0002429
:101EA40026F0772312F400943AD1172E7EE1112004
:101EB40032F07A95EE0FFF1F661F111CF9CFEF2F3A
:101EC400F62F612D5F938ADF5F9108954F93AF01E1
:101ED400FD01DA01AB01BC01CA01402D012C142E15
:101EE4004F910895EA0FFB1F681F0895E095F09540
:101EF4006095EF5FFF4F6F4F08955F9381DF9038D8
:101F040071F150E8152604C05F937ADF903839F1F7
:101F1400703821F1572F591B2BF112F4D7DFFACF68
:101F2400583118F0AA27BB278827583028F0AB2F40
:101F3400B82F88275850F9CF552329F08695B7959F
:101F4400A7955A95D9F7502D512572F0CBDF38F467
:101F54006795F795E795739513F420C0B7DF3EDFD7
:101F64005F910895D8F7FBCFEA1BFB0B680B51F088
:101F740010F40094BBDF662392F3EE0FFF1F661F7D
:101F84007A95CBF7EE27FF27662777275F91089589
:101F9400EFEFFFEF6FE77FEF5F910895EFEFFFEF54
:101FA4006FE77FE75F9108955F932ADF703851F3FD
:101FB400903841F301240894791F23F41CF3002082
:101FC4003AF3ECCF0F921F932F933F934F93112724
:101FD40022279927689FA0018F9F302D410D591FFB
:101FE4006B9F300D411D591F8E9F27D0BF9F25D059
:101FF4006A9F23D0BE9F1DD0AF9F1BD0AE9F110DF3
:10200400291F391F491F591FE32FF42F652F522F02
:102014004F913F912F911F910F9066232AF0550FF6
:10202400EE1FFF1F661F02C073954BF2CDDE5F915A
:102034000895100D211D391F02C0200D311D491FA7
:10204400591F08955F93DCDE703821F411200AF4DF
:102054009FCFA4CF903809F495CF01240894970B0F
:102064001BF4D4F30020F3CF792F1F932F933F93C6
:102074004F9311241127222733274427552790E211
:10208400AE17BF078607410730F0AE1BBF0B860BA8
:10209400410B089401C08894551F221F331F111C43
:1020A400AA1FBB1F881F441F9A9551F7F901612D80
:1020B4004F913F912F911F91662332F0550FEE1FE0
:1020C400FF1F661F7A9543F27FDE5F91089599237F
:1020D4009AF0772342F0971748F029F4AE17BF0718
:1020E400860720F031F09894889408959894089481
:1020F40008951894889408957723C2F7971798F34E
:10210400A9F7EA17FB07680788F399F3ECCF0024D3
:10211400AF0DB01D0895F195E195F0400895F09547
:1021240060957095E195FF4F6F4F7F4F0895EF2FA6
:10213400FF27E7FDFFEF0895FE2FFF0FFF0B6F2F23
:102144007F2F08956F2F660F660B762F08958B2FC0
:10215400880F880B982F0895FA9FF02DEB9FF00DB0
:10216400EA9FE02DF10D0895002498E0AA0F001CC9
:102174000E1A10F40E0E01C0A1609A95B9F7EA2F59
:10218400A02D089539D0F0DF0EF4E19508953F9322
:102194004F935F93002411244427552730E2AA0F5C
:1021A400BB1F881F991F001C111C441F551F0E1AAA
:1021B4001F0A460B570B28F40E0E1F1E461F571FEF
:1021C40001C0A1603A9559F7FD01BC01D001CA01D3
:1021D4005F914F913F910895E894A7FF02C0A195A4
:1021E4006894E7FDE195C0DFEA2F0EF4E1950895C8
:1021F400CEDFFD01BC010895E894E7FF02C0E1953C
:102204006894A7FF04C0A19500F8039400FA089508
:10221400ED91FC9111970895ED91FD916D917C9153
:1022240013970895ED93FD936D937C930895E8813E
:10223400F9816A817B810895A881B9818A819B8112
:102244000895E883F9836A837B83089560E070E0EE
:102254007A936A93FA93EA930895689401C0E89490
:1022640001D019DE182E862F612D192E972F712D6E
:102274001B2EBF2FF12D1A2EAE2FE12D089530976E
:102284006040704008955A934A933A932A931A935C
:102294000A9308955D814C813B812A8119810881CB
:1022A4000895AC0FBD1F05900D920197E1F70895B5
:00000001FF
