:040000000C944B0011
:100004000C9400000C9400000C9400000C9400006C
:100014000C9400000C9400000C9400000C9400005C
:100024000C9400000C9400000C9400000C9400004C
:100034000C9400000C9400000C9400000C9400003C
:100044000C9400000C9444010C9400000C940000E7
:100054000C9400000C9400000C9400000C9400001C
:100064000C9400000C9400000C9400000C9400000C
:100074000C9400000C9447010C9400000C940000B4
:100084000C9400000C9400000000010005008C009A
:100094000000F894EE27ECBBF1E0F5BFE5BFE09378
:1000A4006C00F8E1F1BDE1BD8DE0A2E0BB27ED936A
:1000B4008A95E9F780E090E1A0E0B1E0ED93019743
:1000C400E9F7EEE8F0E085919591009761F0A5914C
:1000D400B59105901590BF01F00105900D9201971F
:1000E400E1F7FB01F0CF8BBFEFEFEDBFE0E1EEBF37
:1000F400C0E0D5E00C945201E0E0E0939B00E8E915
:10010400E0939A00E6E0E0939D00E0919D00EF7B90
:10011400E0939D00E881F9810E94A701E093980093
:10012400E881E093990014C0E0E0EBB9E8E9EAB9AA
:10013400E6E0E0939500E0919500EF7BE093950075
:10014400E881F9810E94A701E0939000E881E9B970
:1001540022960895E0919B00E072E1F3E881E09338
:100164009C0023C01A9310E010E0193058F4E12FDA
:10017400F0E0A981BA81AE0FBF1FEC91EA93EADFE8
:100184001F5FF3CF10E0151540F4E12FF0E0E050CD
:10019400FB4FA0E0A0831F5FF6CF55241881239660
:1001A40008955D9BFECFE881ECB9219608950E94E5
:1001B400AC012FEF3FEFEE81FF813197EE83FF8398
:1001C4003196F9F0A885B985ED91A887B987F0E053
:1001D4002E273F2700E010E00830E0E01E0784F4FB
:1001E400F901E170F070AF0136952795042E052AC8
:1001F40021F0E1E0F0EA2E273F270F5F1F4FECCFFD
:10020400DACFF9010E94B3012A96089528970E9433
:10021400AE0120E030E05524E889EC83E6E0ED838C
:10022400EE85FF850E94A701EE83EE85EF83EC85C2
:10023400FD850E94A701E887EC85E987E0E0EA876D
:10024400EB87FE013496FA93EA93E6E0F0E0FA9342
:10025400EA93ADDF8F01F801EA871B8720E030E0E5
:100264002830E0E03E0754F4DE011496A20FB31FD9
:10027400EC91EA9396DF2F5F3F4FF2CF0E94B501D6
:100284006196089530D0ECB103C02DD0E0919C006C
:10029400EC935394E991EFBFE991B991A991189521
:1002A400E7E0F0E0FA93EA9327DFE7E0F0E0FA937F
:1002B400EA933ADF7894E1E0EA93E9E7F0E0FA932D
:1002C400EA93E8EEF3E019D0E2E0EA93E9E7F0E03C
:1002D400FA93EA93E8E1FCEF10D0E1E022D0E2E007
:1002E40020D0E9CFFFCFAA93BA93EA93EFB7EA936A
:1002F400A52DB0E0A050BB4F0895FA93EA9386DF92
:10030400E4E6F0E0FA93EA930E949B01E0E0F5E072
:10031400FA93EA9327DFE4E6F0E0FA93EA930C9485
:100324009B01EA93E8E7F0E0FA93EA93E1E0F0E076
:10033400E4CFE991F991309639F086E69EE0019791
:10034400F1F7A8953197C9F70895EF2FFF27E7FD37
:10035400FFEF08955A934A933A932A931A930A9370
:1003640008955D814C813B812A811981088108951A
:00000001FF
