:0A0000000C9486010C9400000C948F
:10000A0000000C9400000C9400000C9400000C9466
:10001A0000000C9400000C9400000C947E030C94D5
:10002A0000000C9400000C9400000C948A030C94B9
:10003A0000000C9400000C9484030C9400000C94AF
:10004A003D030C9400000C9400000C9400000C94E6
:10005A0000000C9400000C9400000C9400000C9416
:10006A0000000C9400000C9400000C9400000C9406
:10007A0058030C9400000C9400000C9400000C949B
:10008A000000000000000000000000000000000066
:10009A000000000000000000000000000000000056
:1000AA000000000000000000000000000000000046
:1000BA000000000000000000000000000000000036
:1002CA000000000000003C25642C25642C25643EB7
:1002DA000025642C2025642C2025642C2025640A02
:1002EA0000002D4E414E000001002D4E414E0049A6
:1002FA004E4600000A000400C60201007805F20218
:10030A000000F894EE27ECBBF1E0F5BFE5BFE093FF
:10031A006C00F8E1F1BDE1BD8DE0A2E0BB27ED93F1
:10032A008A95E9F780E090E1A0E0B1E0ED930197CA
:10033A00E9F7EEEFF2E085919591009761F0A591CA
:10034A00B59105901590BF01F00105900D920197A6
:10035A00E1F7FB01F0CF8BBFEFEFEDBFE0E1EEBFBE
:10036A00C0E0D5E00C949703E0E0E0939B00E8E955
:10037A00E0939A00E6E0E0939D00E0919D00EF7B18
:10038A00E0939D00E881F9810E94AE10E093980005
:10039A00E881E093990014C0E0E0EBB9E8E9EAB932
:1003AA00E6E0E0939500E0919500EF7BE0939500FD
:1003BA00E881F9810E94AE10E0939000E881E9B9E2
:1003CA0022960895EDE0E5BDE8E2E3BDE2E810C05B
:1003DA00E7E0E3BFE1E80CC0EDE1EEBDEFEFF0E0EE
:1003EA00F9BDE8BDE0EBF4E0F7BDE6BDE7B7E860CC
:1003FA00E7BF0895E0919B00E072E1F3E881E093A2
:10040A009C0023C01A930A9310E000E010E00E94B7
:10041A009B0CE03031F00E949B0CEA93EBDF1F5FEC
:10042A00F6CF00E0011750F4AA81BB811196AA8386
:10043A00BB831197E0E0EC930F5FF4CF1981088139
:10044A00EAC05D9BFECFE881ECB9219608950E942F
:10045A0060112FEF3FEFEE81FF813197EE83FF832B
:10046A003196F9F0A885B985ED91A887B987F0E0AA
:10047A002E273F2700E010E00830E0E01E0784F452
:10048A00F901E170F070AF0136952795042E052A1F
:10049A0021F0E1E0F0EA2E273F270F5F1F4FECCF54
:1004AA00DACFF9010E9467112A9608950E94A20CD8
:1004BA00E6E00E94AA0C2830E0E03E072CF40E94F5
:1004CA00CD0C2F5F3F4FF7CF0EC00E94A20CE4E085
:1004DA000E94AA0C2830E0E03E072CF40E94CD0CC2
:1004EA002F5F3F4FF7CF0E946911619608952897B1
:1004FA000E94D50CE0E0EA83EB83EC83ED83EE8384
:10050A00EF830E94D90C772342F00E94DE0C0E94EE
:10051A00F50EAC85BD850E9429110E94D90C7F93E6
:10052A006F93FF93EF930E94DE0C0E94E30CAF914E
:10053A00BF918F919F910E949B0F0E94F20C0E9483
:10054A00D90C7F936F93FF93EF930E94DE0C0E9466
:10055A00E30CAF91BF918F919F910E94F70C0E947B
:10056A0038110E94FC0C0E94010DAA85BB85ED93EF
:10057A00FC930E94100D0E94010DA885B985ED9388
:10058A00FC93AA85BB850E941F11EC32A1E0FA07F1
:10059A0034F4DF01E4EDFEEFEA17FB070CF014C0B8
:1005AA00A885B9850E941F11EC32A1E0FA0754F41C
:1005BA00A885B9850E941F11DF01E4EDFEEFEA1755
:1005CA00FB070CF001C001C008C0AA85BB850E94C8
:1005DA00130DA885B9850E94130D0C940A07E1E052
:1005EA00EA93E9E7F0E0FA93EA93ED81FE810E944B
:1005FA00180DE2E0EA93E9E7F0E0FA93EA93EB8177
:10060A00FC810E94A2100E94180DE1E00E94220DB6
:10061A00E2E00E94220D249608950E94621110E0E1
:10062A0020E030E0B0910505A0E0E09106050E94C7
:10063A002A0D9F01B0910305A0E0E09104050E94F4
:10064A002A0DAC81BD81ED93FC9310E0EE811E175B
:10065A0050F4E12FF0E0AF81B885AE0FBF1FE0E0A4
:10066A00EC931F5FF3CFF9010E946911299608954F
:10067A00AA93BA93EA93EFB7EA93E4B5E93118F487
:10068A00E0E0E51519F0E0E0E41519F40E942E0DFA
:10069A0004C044240E942E0D5524E991EFBFE9912C
:1006AA00B991A99118950E94380D1A9310E01091EA
:1006BA009C001C3319F4E0E0E81509F007C0C39B5D
:1006CA0002C0C39801C0C39A99240EC01E3319F4FC
:1006DA00E0E0E81509F006C0E92D0E943D0DE1E0D1
:1006EA008E2E05C0882019F4E92D0E943D0D19911E
:1006FA0014C0EA93EFB75394EFBFE99118950E949B
:10070A00380DF30131963F0108C00E94380DF601F9
:10071A0031966F01E0E0EDBDECBDE991EFBFF991D3
:10072A00E9911895EF972397D2508AE392E0A0E0D7
:10073A00B0E0ECE8F0E00E946E1100E010E020E08A
:10074A0030E040E050E0E7E0F0E0FA93EA930CDEB4
:10075A00E7E0F0E0FA93EA931FDE34DE39DE3CDEAE
:10076A007894B99ABA9ABB9AE8E8F3E10E94430DE1
:10077A00C198C29A66247724E0E0E2BF882011F487
:10078A000C945504C19AE0919A00EF7EE0939A0086
:10079A00E4E6F5E0FA93EA93E0EDF2E0FA93EA93FD
:1007AA00EDB7FEB731970E943D111F930F93EDB736
:1007BA00FEB731970E943D113F932F93FE01E25CF1
:1007CA00FD4F662777270E943F118CE00E94B70AE7
:1007DA0060962F913F910F911F910E94470D30977C
:1007EA00B1F4E0E0DE01AE5EBD4FED93ED93ED9323
:1007FA00EC93DE01A25FBD4FED93ED93ED93EC9385
:10080A00DE01A65FBD4FED93ED93ED93EC93F801F6
:10081A000E944E0DDE01A65CBD4FED93FD936D93D4
:10082A007C93F9010E944E0DDE01A25CBD4FED934F
:10083A00FD936D937C93FE01E65CFD4FFA93EA9378
:10084A00FE01E05CFD4FFA93EA93EDB7FEB73197EC
:10085A00FA93EA935F934F93FE01E25CFD4FFA939A
:10086A00EA9345DE4F915F915A934A93FE01E65C03
:10087A00FD4F0190F081E02DFA93EA93B0DEE0E0BB
:10088A00DE01A850BE4FED93ED93ED93EC93CC248B
:10089A00DD24ECBD8824E0919A00E061E0939A009F
:1008AA00F601AFEFB0E00E94C310DF01ECB50E9481
:1008BA002A0D662777270E94610FAEEDB8E38EE80E
:1008CA009DE30E94EB0FDE01A850BE4FED93FD930E
:1008DA006D937C93DE01AE5CBD4F0D90BC91A02D53
:1008EA000E94BE100E9446110E947E10C0F4E0E0F1
:1008FA00F0E0FA93EA93FA93EA9371DECC24DD24CA
:10090A00E0E0DE01A65CBD4FED93ED93ED93EC9331
:10091A00DE01A25CBD4FED93ED93ED93EC93E1E024
:10092A000E945B0DE0E0F5E0FA93EA934A92FE0139
:10093A00E95DFD4FFA93EA9370DEDE01A05DBD4FDB
:10094A00ED93FC93E2E00E945B0DE0E0F5E0FA93A0
:10095A00EA934A92FE01EB5DFD4FFA93EA935DDE5C
:10096A000E94A210DE01A25DBD4FED93FC930E948E
:10097A00670D0E946E0DDE01A65DBD4FED93FD93DE
:10098A006D937C93FE01E25DFD4F0190F081E02DB5
:10099A000E946E0DDE01AA5DBD4FED93FD936D932E
:1009AA007C93DE01A65DBD4F0D901D908D919C91AB
:1009BA00D0010E949B0FDF01CB01E0E0F0E060E094
:1009CA0070E40E943910DE01A25EBD4FED93FD93E3
:1009DA006D937C93DE01AA5DBD4F0D901D908D91A4
:1009EA009C91D001FE01E65DFD4F0190119061914D
:1009FA007081F0010E94940FA0E0B0E080E090E4E2
:100A0A000E94EB0FDF01CB01EBE3FFED6FE87EE322
:100A1A000E943910DE01A65EBD4FED93FD936D93E2
:100A2A007C93F301AFEFB0E00E94C310DF01E2B79D
:100A3A000E942A0D662777270E94610FAEEAB2EA62
:100A4A0081E998E30E94EB0FDE01AA5EBD4FED93A8
:100A5A00FD936D937C9366247724E0E0E2BF0E94C5
:100A6A007B0D0E945A1161F4DE01A65EBD4F0D9006
:100A7A001D908D919C91D0010E945A1109F46EC06B
:100A8A000E94840D7F936F93FF93EF930E94900DC2
:100A9A000E94B20BAF91BF918F919F910E94EB0F71
:100AAA00DE01AE5EBD4F0D901D908D919C91D001DF
:100ABA000E949B0FDE01AE5EBD4FED93FD936D93D9
:100ACA007C930E94840D7F936F93FF93EF930E9410
:100ADA00900D0E942B0BAF91BF918F919F910E9415
:100AEA00EB0FDE01A25FBD4F0D901D908D919C9181
:100AFA00D0010E949B0FDE01A25FBD4FED93FD93D3
:100B0A006D937C93FE01E65EFD4F01901190619119
:100B1A007081F001DE01AA5EBD4F0D901D908D918E
:100B2A009C91D0010E94EB0F0E94A50D0E949B0F81
:100B3A00DE01A65FBD4FED93FD936D937C930E94FA
:100B4A00A50DE6EFF8E265E672E40E94EB0F0E945B
:100B5A002A0FDE01A85FBD4FED93FC93FE01EA5E0A
:100B6A00FD4F0190119061917081F0010E94AE0DCC
:100B7A000E949B0FDE01AC50BE4FED93FD936D9327
:100B8A007C930E94AE0DEDECFCEC6CE47DE30E94DC
:100B9A007E1009F010F40C940106FE01FA93EA9310
:100BAA00EBEDF2E0FA93EA93FE01EC5CFD4F019063
:100BBA00F081E02D0E94B70DFE01EA5CFD4F019025
:100BCA00F081E02D0E94B70D0E94670D0E94B70DBB
:100BDA000E94470D0E94B70D80E10E942809649681
:100BEA00FE01FA93EA930EDCE0E0DE01AC50BE4F60
:100BFA00ED93ED93ED93EC93C1CDFFCF1A930A9346
:100C0A00AA81BB8112960E941F11309729F1AA81ED
:100C1A00BB8114960E941F118F01309761F0023038
:100C2A00E0E01E07C0F0F80131978F01AA81BB816D
:100C3A001496ED93FC93AA81BB8112960E94BC0D77
:100C4A003197AC81A083AA81BB810E941F11FF2327
:100C5A0012F00E94BC0D06C0AA81BB81EFEFFFEF24
:100C6A00ED93FC931981088148C324970E94D50CFF
:100C7A00E0E8EA83EFE3EB830E946211EE85FF85E9
:100C8A00EF3FAFEFFA0749F4E885F985FA93EA935B
:100C9A00ECEEF2E00E94C20DB6C0EF3FAFE7FA07F2
:100CAA0049F4E885F985FA93EA93EDEEF2E00E94B9
:100CBA00C20DA9C0AB85A73010F0E6E0EB871B8513
:100CCA00E12F1150E03019F00E94C60DF9CFEC85E2
:100CDA00FD856E857F850E94561121F430E00E94C1
:100CEA00C60D2EC03B850E94D10D09F010F40C945C
:100CFA0089060E94C60D0E94D10D28F00E94D90DC6
:100D0A000E94DE0DF8CF0DC00E94D10D40F40E9462
:100D1A00D90D0E94EA0D0E94F10D3150F5CF0E94C3
:100D2A00C60DEC85FD856E857F850E94F60D0E94B5
:100D3A00F10D0E94D10D20F00E94D90D0E94DE0D06
:100D4A0010E0EB85E11798F1AC81BD818E819F811E
:100D5A000E94FD0D0E94F60D0E94040E0E94F20CE4
:100D6A000E94FC0C0E94D90D0E9439100E94280F83
:100D7A000E2F0E94080E0E940F0EFF276627772764
:100D8A000E94610FAC81BD818E819F810E94EB0F11
:100D9A000E94D90D0E94F70C0E94F10DE12F1F5FEE
:100DAA00E03079F60E94080EEEE2EC93CACF0E9478
:100DBA00140E3197AA85A08330302CF43195A8857A
:100DCA00B985EDE203C0A885B985EBE2EC930E94F0
:100DDA00140E0E94140E3197BF01A32FEAE00E945D
:100DEA00D910E05DDB01EC930E94140E3197BF012C
:100DFA00A32FEAE00E940311E05DDB01EC93A885D2
:100E0A00B985E0E0EC930E94691160960895EF9726
:100E1A0061970E94601110E0FE01E85AFF4F0190AD
:100E2A00F081E02DE887F987FE01EA5AFF4F019029
:100E3A00F081E02DEE83FF83AE81BF810E94130D06
:100E4A00DE01A45ABF4F0E94BC0D3197E4912E2FA8
:100E5A00E03011F40C941F09E12FE03039F4253207
:100E6A0011F411E002C00E941A0EE3C1E130C1F48C
:100E7A00253219F40E941A0EDBC112E0E0E0ED8B74
:100E8A0000E02D3211F401E0D4C12B3219F4EBE267
:100E9A00ED8BCFC1203219F4E0E2ED8BCAC102C05A
:100EAA00E23039F450E013E0203311F40068C1C194
:100EBA0002C0E33091F4203310F02A3308F007C05F
:100ECA00AAE05A9F502DE22FE0535E0FB2C140E0D4
:100EDA002E3211F414E0ADC10FC0E43099F420337E
:100EEA0010F02A3308F008C00062AAE04A9F402D99
:100EFA00E22FE0534E0F9DC12C3619F4026015E023
:100F0A0098C104C0E53011F00C941E09E22FE336B3
:100F1A0059F40E94230E0E942A0E0E94230EA481D5
:100F2A00AA930E94310E84C1E53411F0E53609F422
:100F3A0004C0E63611F00C94EC07FE017696EE87B3
:100F4A00FF870E94390E0E9423110E94400E0E94C0
:100F5A00450EAD85AA2322F0AD89AB3249F017C000
:100F6A000E94470E0E94F50E0E94400EEDE2ED8BA4
:100F7A0007FF05C0ED89EA930E94310E08C0EE858D
:100F8A00FF853196EE87FF873197AD89A08305FFEC
:100F9A0046E0263661F40E94470E0E943F114A93AA
:100FAA00EB89FC89FA93EA930E94FF0B0BC00E941B
:100FBA00470E0E943F114A932A93EC89FD89FA93BE
:100FCA00EA9353DEFE0176960E944C0E1EC0E3376A
:100FDA0039F40E94450E0E94540E0E944C0E0EC017
:100FEA00E037C1F40E94450E0E94540EEE87FF8737
:100FFA00FA93EA930E94F40B1E2F08600F77403091
:10100A0011F0411708F001C0142F40E0E0E0EC8B2A
:10101A0030E06EC0E43611F0E93611F4046002C023
:10102A00E537A1F4EAE0EC8B01FF08C0E0E0FAEC56
:10103A006AE97BE30E94590E1AE023C0E0E1F7E275
:10104A0060E070E00E94590E15E01BC0E83511F40B
:10105A00086004C0E83711F00C941D09E0E1EC8B3C
:10106A0001FF08C0E0E0F0E060E070E10E94590E84
:10107A0018E007C0E0E0F0E160E070E00E94590E7D
:10108A0014E0403011F00F7701C041E001FF08C0C1
:10109A000E94450E0E94390E14960E9423110FC019
:1010AA0002FF07C00E94450E0E94540E0E94B9100A
:1010BA0006C00E94450E0E94540E66277727EA87CB
:1010CA00FB876C877D8702FF12C0AD85AA2342F495
:1010DA000E94470E0E94A6100E94400EEDE2ED8B80
:1010EA00ED89E03019F01F5F4F5F01C00B7F342F8D
:1010FA0000FD14C0151710F4351708F00FC007FFCC
:10110A0008C002FF04C00B7F2D89115001C020E3E3
:10111A0001C020E20E941A0E5150ECCF141790F42D
:10112A00006102FF06C00E945E0E09F05150115084
:10113A004150E0E3EA930E94310E503009F05150D9
:10114A004150ECCF312FEC89E030B9F43030A1F0C6
:10115A0003FF06C0EE85FF852591EE87FF8705C050
:10116A00AE85BF852D91AE87BF870E941A0E50307B
:10117A0009F051503150EACF51C00E94720E0E94BC
:10118A00DE102E2F2A3030F003FF02C0295C01C086
:10119A00295A01C0205D04FD21C0213360F4A889C9
:1011AA00B9898A899B89A130E0E0BE07E0E08E0711
:1011BA00E0E09E0709F40BC0431740F4531710F000
:1011CA0000FF01C010C020E207FF08C020E3006151
:1011DA0002FF04C00E945E0E09F051500E941A0ECE
:1011EA00503009F0515031500E94720E0E940F1176
:1011FA000E94400EEC89A889B9898A899B89FF27B0
:10120A00662777270E94DE100E94590EE889F9891D
:10121A006A897B890E94561109F0AFCF00FF08C086
:10122A00503031F05150E0E2EA930E94310EF8CF8B
:10123A0010E006CEAE81BF810E941F110E94671185
:10124A00EF966F960895FF92F82E26970E946211E4
:10125A000E947B0E309719F4EFEFFFEF23C0DE01F7
:10126A0016960E949E108D010E947B0EEE83FF83CC
:10127A00E0E0E887E987DE011A960E94820EFA9377
:10128A00EA931A930A93E3E0F6E0FA93EA93FE01EB
:10129A003A96FA93EA93BBDD9F01AE81BF81E0E003
:1012AA00EC93F9010E9469112A96FF9008951A9306
:1012BA00A981BA81E0E0EC93AB81BC81EC911E2F4D
:1012CA00E03019F0E0E0EC9316C0A981BA811196DA
:1012DA000E941F11309771F0E981FA81A181B281D0
:1012EA00EC911E2FE03029F0A981BA8111960E9453
:1012FA00BC0D01C010E0E12F1881259608952597AD
:10130A000E946011E0E0F0E0E887F9874E2FE98952
:10131A00FA893196E98BFA8B3197E4913E2FE030C6
:10132A0011F40C94B10A0E94870EC1F0EDB7FEB712
:10133A00FA93EA934F930E948C0E4F913E2FE0301E
:10134A0019F00E94870E09F407C00E94940E1CF43B
:10135A00EFEFFFEF03C1EACF432FFDC0353211F0A3
:10136A000C94980A50E0E989FA893591E98BFA8B4D
:10137A00303310F03A3308F007C0AAE05A9F502DD4
:10138A00E32FE0535E0FEFCF303009F4E5C0EDB73D
:10139A00FEB7FA93EA934F930E948C0E4F912E2F29
:1013AA00EA930E94C70BE03039F00E94940E1CF4B5
:1013BA00EFEFFFEFD3C0EBCF203009F4C4C0422FC8
:1013CA00503009F45FEFE32FE33699F40E94990E47
:1013DA00EDB7FEB7FA93EA934F930E948C0E4F91A2
:1013EA00D801EC930E94940E1CF4EFEFFFEFB6C005
:1013FA0097C0E33741F50E94990EE52F5150E0302E
:10140A00F1F0EDB7FEB7FA93EA934F930E948C0E70
:10141A004F913E2FE03019F00E94870E39F00E945A
:10142A00940E1CF4EFEFFFEF99C009C01F930F93BE
:10143A000F5F1F4FE32FAF91BF91EC93DECFD8011F
:10144A00E0E0EC936DC0E1E0EA87E32FE43611F0C7
:10145A00E93619F4E0E0EA8702C0E53711F42AE038
:10146A0008C0E83711F420E104C0E53209F45BC092
:10147A0073C0E0E0EE83EF83E52F5150E03011F4C2
:10148A000C94880AEDB7FEB7FA93EA934F930E9439
:10149A008C0E4F913E2FE13238F40E94940E1CF4C8
:1014AA00EFEFFFEF5BC017C0EA85E03039F43D3259
:1014BA0019F4EFEFEA87E0CFE1E0EA87203131F46F
:1014CA003A930E94D10BE03031F007C03A930E9460
:1014DA00BF0BE03011F4432F16C0313610F03755E8
:1014EA0005C0313410F0375301C03053E22FAE81BA
:1014FA00BF81F0E00E94C310DF01E32F0E942A0D92
:10150A00EE83FF83B9CF0E94990EEA85AE81BF812F
:10151A00F0E0E7FDFFEF0E94C310D801ED93FC93C2
:10152A000E94140E18C0EDB7FEB7FA93EA934F93D0
:10153A000E948C0E4F91E31771F00E94940E1CF4D6
:10154A00EFEFFFEF0BC0E885F985309719F4EFEF5D
:10155A00FFEF04C001C0DBCEE885F9850E94671160
:10156A0063960895FF92F82E23971A930A93DE0141
:10157A0017960E94820E309719F4EFEFFFEF1CC006
:10158A00DE0111960E949E108D01DE0117960E94BF
:10159A00820EEB83FC83DE0115960E94820EFA937B
:1015AA00EA931A930A93ECE5F9E0FA93EA93FE01B7
:1015BA003896FA93EA93A3DE198108812596FF905B
:1015CA0008957B816A81F981E88177FB770F67FD4E
:1015DA007160972F9E5781F078F0983190F4AA277E
:1015EA00BB27882708948795B795A7959A95D1F729
:1015FA00EA23FB23682305C0E8947727EE27FF2711
:10160A0066276F77769508F4606877F9A991B9919A
:10161A0089919991EA17FB076807790797FB08955B
:10162A000E94100D0E943F110E94E60A0E94381182
:10163A0019F40E94100D9CC0E6F70E94100DA0E05C
:10164A00B0E080E89FE30E94940F92C024971A9317
:10165A0010E00E94A40EE3E8F9EF62E27EE30E9442
:10166A00EB0F0E94A90E0E94AE0E0E94040E0E9469
:10167A00A40E0E94F70C0E94A90E0E94B30E0E94AB
:10168A007E1009F010F40C94550B0E94AE0EA0E0E7
:10169A00B0E080E09FE30E94940F0E94A90E11E03F
:1016AA000E94A40EE0E0F0E060E87EE30E947E1073
:1016BA0009F010F40C94670B0E94B30E0E94940F69
:1016CA000E94A90E103031F00E94AE0E0E94F50E53
:1016DA000E94A90E0E94AE0E0E94A40E0E94EB0F59
:1016EA00E983FA836B837C83A1EBB4EC86E292E410
:1016FA000E94EB0FDF01CB01EDE1F5EE6DE272E442
:10170A000E94F70C0E94B90EACE4B3E584E091E4C0
:10171A000E949B0F0E94A40E0E94EB0F7F936F936F
:10172A00FF93EF93E981FA816B817C81A1E1BDEEA0
:10173A008EED9FE30E949B0F0E94B90EAEE5BBE7B8
:10174A0088EA9FE30E949B0FAF91BF918F919F916F
:10175A000E9439101881299608950E943311EBEDE1
:10176A00FFE069EC7FE30E94940F0E943F116EDF55
:10177A0024960895E1E0F991F03310F0FA3308F075
:10178A00EE270895E1E0F991F03229F0F93010F0EE
:10179A00FE3008F0EE270895E1E0F991F05340F0A9
:1017AA00FA3038F0FF75F750FA3010F0F03108F0DF
:1017BA00EE270895E991F991A991B991CD01059082
:1017CA000D920020E1F7FC010895A991B991EE2745
:1017DA00FF276D91662311F03196FBCF0895AA2752
:1017EA00BB27E991F9910590002011F01196FBCFE2
:1017FA00FD0108952497D4D0E0E0EA83EFE3EB8378
:10180A001A930A93EB85FC85EF3FAFEFFA0729F4A9
:10181A00B2D2E4EFF2E0B1D185C0EF3FAFE7FA0709
:10182A0029F4A9D2E5EFF2E0A8D17CC0AC85AA23BD
:10183A0052F4E985FA856B857C850E94F50EA0D263
:10184A00A4D2EDE2EC93A885A73010F0E6E0E88791
:10185A001885E12F1150E03021F09ED2C9D1A1D2D2
:10186A00F8CFA4D20E949B0F8BD210E0E0E0F0E008
:10187A0060E87FE396D29AD20E947E1060F08CD202
:10188A00A4D18FD21F5F173228F075D2E9EFF2E0A8
:10189A0074D148C0F0CF103021F477D2E0E3EC9352
:1018AA001DC0E12F1150E030C9F076D2A1D199D1F3
:1018BA00A6D177D27BD20E9439100E94280F0E2F10
:1018CA0064D2A8D1F0E068D20E94B9100E94610FD8
:1018DA000E94EB0F74D286D053D2E3CFE885E03072
:1018EA00E9F053D2EEE2EC93E885E150E887EF5F46
:1018FA00A9F065D26AD144D2E985FA856B857C85DF
:10190A000E94280F0E2F41D285D1F0E058D20E94B2
:10191A00B9100E94610F66D033D2E6CFAE81BF8183
:10192A00E0E0EC93198108812D960895AA81BB8184
:10193A00EE27A10FBE1FEC91089528970E9462110D
:10194A0020E030E0E889EC830895ED83EE85FF8599
:10195A000E94AE10EE83EE85EF83EC85FD850E9432
:10196A00AE10E887EC85E987E0E0EA87EB87FE01BD
:10197A003496FA93EA93E6E0F0E0FA93EA930E9447
:10198A002C028F01F801EA871B8720E030E00895D6
:10199A00DE011496A20FB31FEC91EA930C9426026F
:1019AA00E0E0E883E9830895AE85BF850E942311AC
:1019BA000895AC85BD850E9423110895ABE3BFED60
:1019CA008FE89EE30E94EB0FDF01CB01E0E0F0E03D
:1019DA0060E870E40E9439100895EC83FD836E83F9
:1019EA007F8308950E9449110E94940F0895EC8103
:1019FA00FD816E817F810895AAEBB9EC88E193E4B9
:101A0A000E94EB0FA0E0B0E080EA91E40E94EB0FA5
:101A1A000E942A0F08950E942E110895E0E0F0E036
:101A2A00ED93FC930895FA93EA930E945B02E5E032
:101A3A00F0E0FA93EA930C94E90EEA93E8E7F0E00F
:101A4A00FA93EA93E1E0F0E0EECFF0E0EA0FFB1F51
:101A5A000895A42DB0E0A050BB4FECB1EC93439491
:101A6A00E0E0E4BD0895EA93FA93EFB7EA930895A4
:101A7A00F0E0EC59FA4F108393940895FA93EA939D
:101A8A000C94E90EFE01EE5CFD4F0190F081E02D11
:101A9A0008950E94B9100E94610FDF01CB01E0E0B6
:101AAA00F0E06AE774E40E9439100895EA93E2E0EC
:101ABA00F0E0FA93EA93FA93EA930E946A02E5E065
:101ACA00F0E0DCCFFE01E05DFD4F0190F081E02DFA
:101ADA0008950E94B9100E94610FDF01CB01E9E26B
:101AEA00FCEF6EE375E40E9439100895DE01A25EF0
:101AFA00BD4F0D901D908D919C91D0010895FE01CE
:101B0A00EA5EFD4F0190119061917081F001EEDF64
:101B1A000E94EB0F0895FE01E65EFD4F01901190C1
:101B2A0061917081F001DE01AA5EBD4F0D901D909A
:101B3A008D919C91D0010E94EB0F0E943F11089554
:101B4A00DE01A65FBD4F0D901D908D919C91D00135
:101B5A000895DE01AC50BE4F0D901D908D919C9161
:101B6A00D00108950E94B9100E943F110895ED9185
:101B7A00FD913196FE93EE930895FA93EA930C94AD
:101B8A00DF0BAC81BD818E819F81E0E0F0E060E2F5
:101B9A0071E40E94EB0F21CF2ADFAC85BD858E85CB
:101BAA009F850E947E100895AC85BD858E859F8590
:101BBA000895EDECFCEC6CEC7DE30E94EB0FEC87F6
:101BCA00FD876E877F873F5F0895E0E0F0E060E27F
:101BDA0071E40E94EB0F0895EC87FD876E877F877B
:101BEA000895A0E0B0E080E09FE30E949B0F089573
:101BFA00EDECFCEC6CEC7DE30E94EB0F08950E9487
:101C0A003F110C94150BA885B9851196A887B98739
:101C1A0011970895E02FE05DEC93E02F0895E88591
:101C2A00F9853196E887F98708952A93EF81F8852F
:101C3A00FA93EA93EB85FC8509950895FE01E65A25
:101C4A00FF4F0190F081E02D08953497DE01A65AE6
:101C5A00BF4FED93FC930895EF81F885FA93EA93C9
:101C6A00EB85FC8509950895DE01A65ABF4F0D90B4
:101C7A00BC91A02D0895EA87FB876C877D8708951C
:101C8A00DDDFE3CFEA85FB856C857D850895EE87E8
:101C9A00FF87FA93EA930E94EA0B1E2F0895E4DF66
:101CAA0014960E941F110895E88BF98B6A8B7B8B1F
:101CBA0008950B7FED89EA93FE01E95AFF4F0190DF
:101CCA00F081E02DFA93EA93FE01E55AFF4F019065
:101CDA00F081E02D099550300895E889F9896A89DB
:101CEA007B89AA85BB858C859D850895DE011C9616
:101CFA000E949E100E941F1108950E949E100E9429
:101D0A001F1108953A930E94C70BE0300895ED859C
:101D1A00FE85FA93EA93E989FA8909950895AB85CC
:101D2A00BC85AC91A0300895EF85F8893497EF8788
:101D3A00F88BAF85B88914960D911C910895AD81E1
:101D4A00BE818F8198850895ED83FE836F8378879E
:101D5A000895ED81FE816F8178850895F0DFE0E0D6
:101D6A00F0E060E07FE30895A981BA818B819C81CC
:101D7A000E94EB0F0895EE81FF81FA93EA9308958A
:101D8A00E987FA876B877C870895AE81BF811196B0
:101D9A00AE83BF8311970895AA81BB818C819D81EF
:101DAA000895EA83FB836C837D830895EA81FB812E
:101DBA006C817D81A985BA858B859C850895A985C5
:101DCA00BA858B859C850895E991F991309639F009
:101DDA0086E69EE00197F1F7A8953197C9F708952D
:101DEA0030976040704009F070580895552342F4C6
:101DFA00503811F4E0FF04C03196691F791F6BF067
:101E0A0050E8572711F45F93CFC05F3F31F0660F58
:101E1A00000C57956795752F08955F9300200AF077
:101E2A00CFC0C8C050E8192E1522880F991F9527D0
:101E3A00550F879550E8072E0522660F771F7527DD
:101E4A00550F67950895689401C0E8945F93F2DF8F
:101E5A00703818F07F3F08F4A7C056E1571BAAF460
:101E6A00519558300EF4593030F0EFEFFFEF6FEF25
:101E7A007FE777F91AC077275523B9F0EE0FFF1FCE
:101E8A00661F771F5A95D1F710C07727583028F068
:101E9A00EF2FF62F672F5850F9CF552331F076954B
:101EAA006795F795E7955A95D1F700200AF449D135
:101EBA005F910895689401C0E8943097604070403B
:101ECA00B1F0002426F0772312F400943AD1172EA9
:101EDA007EE1112032F07A95EE0FFF1F661F111C6A
:101EEA00F9CFEF2FF62F612D5F938ADF5F91089567
:101EFA004F93AF01FD01DA01AB01BC01CA01402DCC
:101F0A00012C142E4F910895EA0FFB1F681F0895A4
:101F1A00E095F0956095EF5FFF4F6F4F08955F93DF
:101F2A0081DF903871F150E8152604C05F937ADF9B
:101F3A00903839F1703821F1572F591B2BF112F4CF
:101F4A00D7DFFACF583118F0AA27BB27882758308D
:101F5A0028F0AB2FB82F88275850F9CF552329F0EE
:101F6A008695B795A7955A95D9F7502D512572F0B0
:101F7A00CBDF38F46795F795E795739513F420C08E
:101F8A00B7DF3EDF5F910895D8F7FBCFEA1BFB0B63
:101F9A00680B51F010F40094BBDF662392F3EE0F46
:101FAA00FF1F661F7A95CBF7EE27FF27662777274D
:101FBA005F910895EFEFFFEF6FE77FEF5F9108956D
:101FCA00EFEFFFEF6FE77FE75F9108955F932ADFF7
:101FDA00703851F3903841F301240894791F23F49F
:101FEA001CF300203AF3ECCF0F921F932F933F93E9
:101FFA004F93112722279927689FA0018F9F302D81
:10200A00410D591F6B9F300D411D591F8E9F27D0BF
:10201A00BF9F25D06A9F23D0BE9F1DD0AF9F1BD0E4
:10202A00AE9F110D291F391F491F591FE32FF42F86
:10203A00652F522F4F913F912F911F910F90662339
:10204A002AF0550FEE1FFF1F661F02C073954BF251
:10205A00CDDE5F910895100D211D391F02C0200D9C
:10206A00311D491F591F08955F93DCDE703821F432
:10207A0011200AF49FCFA4CF903809F495CF0124F8
:10208A000894970B1BF4D4F30020F3CF792F1F93F6
:10209A002F933F934F931124112722273327442745
:1020AA00552790E2AE17BF078607410730F0AE1BEF
:1020BA00BF0B860B410B089401C08894551F221F41
:1020CA00331F111CAA1FBB1F881F441F9A9551F763
:1020DA00F901612D4F913F912F911F91662332F0A3
:1020EA00550FEE1FFF1F661F7A9543F27FDE5F9141
:1020FA00089599239AF0772342F0971748F029F424
:10210A00AE17BF07860720F031F098948894089597
:10211A009894089408951894889408957723C2F798
:10212A00971798F3A9F7EA17FB07680788F399F353
:10213A00ECCF0024AF0DB01D0895F195E195F04064
:10214A000895F09560957095E195FF4F6F4F7F4F19
:10215A000895EF2FFF27E7FDFFEF0895FE2FFF0FEA
:10216A00FF0B6F2F7F2F08956F2F660F660B762F49
:10217A0008958B2F880F880B982F0895FA9FF02DBA
:10218A00EB9FF00DEA9FE02DF10D0895002498E0F1
:10219A00AA0F001C0E1A10F40E0E01C0A1609A9527
:1021AA00B9F7EA2FA02D089539D0F0DF0EF4E195A2
:1021BA0008953F934F935F93002411244427552792
:1021CA0030E2AA0FBB1F881F991F001C111C441F55
:1021DA00551F0E1A1F0A460B570B28F40E0E1F1E08
:1021EA00461F571F01C0A1603A9559F7FD01BC016E
:1021FA00D001CA015F914F913F910895E894A7FFDA
:10220A0002C0A1956894E7FDE195C0DFEA2F0EF4BC
:10221A00E1950895CEDFFD01BC010895E894E7FF3A
:10222A0002C0E1956894A7FF04C0A19500F8039441
:10223A0000FA0895ED91FC9111970895ED91FD91A1
:10224A006D917C9113970895ED93FD936D937C9313
:10225A000895E881F9816A817B810895A881B9810D
:10226A008A819B810895E883F9836A837B83089531
:10227A0060E070E07A936A93FA93EA930895689417
:10228A0001C0E89401D019DE182E862F612D192E6F
:10229A00972F712D1B2EBF2FF12D1A2EAE2FE12D48
:1022AA000895309760407040089500240A160B067E
:1022BA000806090608955A934A933A932A931A9359
:1022CA000A9308955D814C813B812A811981088195
:1022DA000895AC0FBD1F05900D920197E1F708957F
:00000001FF
