:100000000C9463000C9400000C9400000C9400000D
:100010000C9400000C9400000C9400000C94000060
:100020000C9400000C9465010C9400000C940000EA
:100030000C9400000C9400000C9400000C946901D6
:100040000C9400000C9400000C9439010C940000F6
:100050000C9400000C9400000C9400000C94000020
:100060000C9400000C9400000C9400000C94000010
:100070000C9400000C9400000C944C010C940000B3
:100080000C9400000C9400000C9400001027E8036E
:1000900064000A00010000100001100001000000CF
:1000A0000000000000000000000000000000000050
:1000B0000000000000003C25642C25643E00040084
:1000C0000400B2000000F894EE27ECBBF1E0F5BFAD
:1000D000E5BFE0936C00F8E1F1BDE1BD8DE0A2E089
:1000E000BB27ED938A95E9F780E090E1A0E0B1E0CD
:1000F000ED930197E9F7EEEBF0E08591959100978C
:1001000061F0A591B59105901590BF01F0010590A2
:100110000D920197E1F7FB01F0CF8BBFEFEFEDBF41
:10012000E0E1EEBFC0E0D5E00C946F01E0E0E093C9
:100130009B00E8E9E0939A00E6E0E0939D00E091FF
:100140009D00EF7BE0939D00E881F9810E940B0404
:10015000E0939800E881E093990014C0E0E0EBB9E7
:10016000E8E9EAB9E6E0E0939500E0919500EF7BDD
:10017000E0939500E881F9810E940B04E0939000E0
:10018000E881E9B922960895EDE0E5BDE8E2E3BD36
:1001900008955D9BFECFE881ECB9219608950E94F9
:1001A00023042FEF3FEFEE81FF813197EE83FF8332
:1001B0003196F9F0A885B985ED91A887B987F0E067
:1001C0002E273F2700E010E00830E0E01E0784F40F
:1001D000F901E170F070AF0136952795042E052ADC
:1001E00021F0E1E0F0EA2E273F270F5F1F4FECCF11
:1001F000DACFF9010E942A042A96089528970E94CE
:10020000250420E030E0E889EC83E6E0ED83EE852C
:10021000FF850E940B04EE83EE85EF83EC85FD8560
:100220000E940B04E887EC85E987E0E0EA87EB872A
:10023000FE013496FA93EA93E6E0F0E0FA93EA934B
:10024000AEDF8F01F801EA871B8720E030E028301D
:10025000E0E03E0754F4DE011496A20FB31FEC91C8
:10026000EA9397DF2F5F3F4FF2CF0E942C046196F5
:1002700008950E94AE031CB11C3311F4442407C03E
:100280001E3329F4E42D0E94B503439403C0E42DEA
:100290000E94B503439413C00E94AE0310919C00CA
:1002A0001C3311F4662407C01E3329F4E62D0E9486
:1002B000BA03639403C0E62D0E94BA0363941991B4
:1002C000E991EFBFF991E9911895EA93EFB753944B
:1002D00003C0EA93EFB77394EFBFE9911895649761
:1002E00084E1A0E0B0E0EEE9F0E00E94310400E03B
:1002F00010E020E030E0E7E0F0E0FA93EA9316DF68
:10030000E7E0F0E0FA93EA9329DF3EDF7894E8E84B
:10031000F3E10E94BF03E4E6F5E0FA93EA93E6EB2B
:10032000F0E0FA93EA93EDB7FEB731970E941C0410
:100330001F930F93EDB7FEB731970E941C043F93B4
:100340002F9388E00E9461032C962F913F910F918B
:100350001F9100240016010621F000240216030656
:1003600009F430C000240016010624F4002402160B
:1003700003060CF004C0045D1E4F245D3E4F1123A4
:1003800022F40024021603060CF008C00C5211409F
:10039000F9010E940704E45DFE4F9F01112312F44E
:1003A00033230AF004C00C5211402C523140002477
:1003B0000016010614F433230AF004C0045D1E4F36
:1003C0002C523140E1E0EA93E9E7F0E0FA93EA9356
:1003D0001A930A930E94C303E2E0EA93E9E7F0E08C
:1003E000FA93EA93F9010E9407040E94C803E1E02E
:1003F0000E94CB03E2E00E94CB038DCFFFCF1A9384
:10040000A981BA81E0E0EC93AB81BC81EC911E2F15
:10041000E03019F0E0E0EC9319C0A981BA8111969F
:100420000E941804309789F0E981FA81A181B28194
:10043000EC911E2FE03041F0A981BA811196ED9127
:10044000FD913196FE93EE9301C010E0E12F1881EB
:100450002596089525970E942304E0E0F0E0E887C0
:10046000F9874E2FE989FA893196E98BFA8B319712
:10047000E4913E2FE03011F40C945B030E94D3030F
:10048000C1F0EDB7FEB7FA93EA934F930E94D803F9
:100490004F913E2FE03019F00E94D30309F407C0BA
:1004A0000E94E0031CF4EFEFFFEF07C1EACF432FF8
:1004B00001C1353211F00C94420350E0E989FA8908
:1004C0003591E98BFA8B303310F03A3308F007C0DE
:1004D000AAE05A9F502DE32FE0535E0FEFCF30304C
:1004E00009F4E9C0EDB7FEB7FA93EA934F930E947F
:1004F000D8034F912E2FEA930E949603E03039F0F3
:100500000E94E0031CF4EFEFFFEFD7C0EBCF2030E9
:1005100009F4C8C0422F503009F45FEFE32FE336EF
:1005200099F40E94E503EDB7FEB7FA93EA934F936F
:100530000E94D8034F91D801EC930E94E0031CF471
:10054000EFEFFFEFBAC098C0E33741F50E94E50333
:10055000E52F5150E030F1F0EDB7FEB7FA93EA9392
:100560004F930E94D8034F913E2FE03019F00E9424
:10057000D30339F00E94E0031CF4EFEFFFEF9DC0BE
:1005800009C01F930F930F5F1F4FE32FAF91BF91D0
:10059000EC93DECFD801E0E0EC936EC0E1E0EA87B7
:1005A000E32FE43611F0E93619F4E0E0EA8702C0FF
:1005B000E53711F42AE008C0E83711F420E104C05F
:1005C000E53209F45FC077C0E0E0EE83EF83E52F0A
:1005D0005150E03011F40C942F03EDB7FEB7FA93AD
:1005E000EA934F930E94D8034F913E2FE13238F4A3
:1005F0000E94E0031CF4EFEFFFEF5FC017C0EA8535
:10060000E03039F43D3219F4EFEFEA87E0CFE1E072
:10061000EA87203131F43A930E94A003E03031F0B0
:1006200007C03A930E948E03E03011F4432F17C0A5
:10063000313610F0375505C0313410F0375301C052
:100640003053E22FAE81BF81F0E00E941004DF0141
:10065000E32FF0E0EA0FFB1FEE83FF83B8CF0E9489
:10066000E503EA85AE81BF81F0E0E7FDFFEF0E9480
:100670001004D801ED93FC93E885F9853196E8875D
:10068000F98718C0EDB7FEB7FA93EA934F930E942B
:10069000D8034F91E31771F00E94E0031CF4EFEFD1
:1006A000FFEF0BC0E885F985309719F4EFEFFFEF06
:1006B00004C001C0D7CEE885F9850E942A0463965C
:1006C0000895FF92F82E23971A930A930E94F0033D
:1006D000309719F4EFEFFFEF1CC0DE0111960E9476
:1006E00003048D010E94F003EB83FC83DE01159669
:1006F0000E9403040E941804FA93EA931A930A933F
:10070000EFEFF1E0FA93EA93FE013896FA93EA9359
:10071000A1DE198108812596FF900895E1E0F99105
:10072000F03310F0FA3308F0EE270895E1E0F99184
:10073000F03229F0F93010F0FE3008F0EE2708957D
:10074000E1E0F991F05340F0FA3038F0FF75F750DE
:10075000FA3010F0F03108F0EE270895EA93FA939A
:10076000EFB7EA931A9310E00895F0E0E050FB4FE2
:1007700010830895F0E0EC59FA4F10830895FA932E
:10078000EA930C94F7030E94FE00E5E0F0E0F7CF57
:10079000FA93EA93F8CFEA93E8E7F0E0FA93EA9362
:1007A000E1E0F0E0F5CF3A930E949603E03008953F
:1007B000ED85FE85FA93EA93E989FA89099508950A
:1007C000AB85BC85AC91A0300895EF85F88934974E
:1007D000EF87F88BAF85B88914960D911C91089519
:1007E000DE0117960E9403040E9418040895E991FF
:1007F000F991309639F086E69EE00197F1F7A895D9
:100800003197C9F708950024AF0DB01D0895F195F3
:10081000E195F0400895EF2FFF27E7FDFFEF0895E2
:10082000FA9FF02DEB9FF00DEA9FE02DF10D08955A
:10083000ED91FC911197089560E070E07A936A93CE
:10084000FA93EA9308955A934A933A932A931A9300
:100850000A9308955D814C813B812A811981088129
:100860000895AC0FBD1F05900D928A95E1F708958C
:00000001FF
