:100000000C94E2010C9400000C9400000C9400008D
:100010000C9400000C94CB060C94D9060C94E706C3
:100020000C94FC060C94C8040C9400000C94000082
:100030000C9400000C94E5040C9400000C94000057
:100040000C94D4040C9400000C940F050C94000044
:100050000C9400000C9400000C9400000C94000020
:100060000C9400000C9400000C9400000C94000010
:100070000C9400000C9400000C9430050C940000CB
:100080000C9400000C9400000C9400000000000090
:100090000000000000000000000000000000000060
:1000A0000000000000000000000000000000000050
:1000B0000000000000000000000000000000000040
:1000C0000000000000000000000000000000000030
:1003000000003C25643E00252E33662C20252E332C
:10031000662C20252E33660A000000000000000035
:1003200000000000000000000000000000000000CD
:1003300000000000000000000000000000000000BD
:1003400000000000000000000000000000000000AD
:10035000000000000000000000000000000000009D
:10036000000000000000000000000000000000008D
:10037000000000000000000000000000000000007D
:10038000000000000000000000000000000000006D
:10039000000000000000000000000000000000005D
:1003A000000000000000000000002D4E414E000043
:1003B00001002D4E414E00494E46000001008A05C5
:1003C000B0030000F894EE27ECBBF1E0F5BFE5BF09
:1003D000E0936C00F8E1F1BDE1BD8DE0A2E0BB2748
:1003E000ED938A95E9F780E090E1A0E0B1E0ED932C
:1003F0000197E9F7ECEBF3E085919591009761F0B7
:10040000A591B59105901590BF01F00105900D9251
:100410000197E1F7FB01F0CF8BBFEFEFEDBFE0E11C
:10042000EEBFC0E0D5E00C941502EF97EF97D250E5
:1004300086E792E0A0E0B0E0ECE8F0E00E94111363
:1004400000E010E020E030E040E050E0E7E0F0E0E5
:10045000FA93EA930E946705E7E0F0E0FA93EA93E3
:100460000E947F05C4D2C9D2CCD20E94C206789421
:10047000B99ABA9ABB9AE8E8F3E10E94B40D0E94D7
:10048000B80DE0918105E03011F40C943003E09157
:100490009A00EF7EE0939A00ECE6F5E0FA93EA9397
:1004A000E2E0F3E0FA93EA93FE01E459FD4F662798
:1004B00077270E94E41284E00E94D20B2896FE0166
:1004C000EE58FD4F0190F081E02D3097B1F4E0E05F
:1004D000DE01A85CBD4FED93ED93ED93EC93DE014F
:1004E000AC5CBD4FED93ED93ED93EC93DE01A05D1D
:1004F000BD4FED93ED93ED93EC93DE01A859BD4F05
:100500000D90BC91A02D0E94FF1224F50E94BF0DFA
:10051000DF01CB01EFE8F2EC65E77DE30E94D20D4D
:100520000E94D70D0E94DF0D0E94E01128F40E9466
:10053000E40D0E94F80D02C00E94E40DDE01A259F4
:10054000BD4FED93FD936D937C930E94060E0E9428
:100550001C0E27C00E94BF0DAFE8B2EC85E79DE3FB
:100560000E94FD100E94D70D0E9457100E94D70DC7
:100570000E94DF0D0E94E01128F40E94E40D0E9409
:10058000F80D02C00E94E40DDE01A259BD4FED93AB
:10059000FD936D937C930E94060EE0E0F0E060E036
:1005A0007FEBDE01AA58BD4FED93FD936D937C93D5
:1005B000F9010E94210EDF01CB01E0E0F0E06AE7E3
:1005C00074E40E949B11DE01A658BD4FED93FD938C
:1005D0006D937C93E0E0DE01AC5EBD4FED93ED9357
:1005E000ED93EC93FE01EA58FD4FFA93EA93FE0176
:1005F000E458FD4FFA93EA93EDB7FEB73197FA93BB
:10060000EA935F934F93FE01E658FD4FFA93EA9306
:100610000E942C064F915F915A934A93FE01EA582B
:10062000FD4F0190F081E02DFA93EA930E94A40619
:10063000E0E0DE01A45EBD4FED93ED93ED93EC930E
:100640000E94260EECBDE1E0DE01AE5EBD4FEC93F4
:10065000E0E0E0938105E0919A00E061E0939A0088
:10066000E0910005F091010560910205709103058C
:10067000AFEFB0E080E090E00E945012DF01CB01CC
:10068000ECB5F0E00E9420120E9404120E94C310F8
:10069000AEEDB8E38EE89DE30E944D11DE01A45E4D
:1006A000BD4FED93FD936D937C93DE01AE58BD4F2E
:1006B0000D90BC91A02D0E9425120E94EB120E9469
:1006C000E011E8F4E0E0F0E0FA93EA93FA93EA93B9
:1006D0000E94A4060E94260EDE01AA58BD4FED938B
:1006E000ED93ED93EC93E0E0DE01A658BD4FED9362
:1006F000ED93ED93EC93DE01AE5EBD4FEC93A091D4
:100700006A05B0916B05EFEF0E944A12DF01E2B774
:10071000F0E0EA0FFB1F662777270E94C310AEEABE
:10072000B2EA81E998E30E944D11DE01AC5BBD4F56
:10073000ED93FD936D937C930E94B80DE09182053B
:10074000F091830560918405709185050E94300EBB
:10075000DE01A450BE4FED93FD936D937C93E09129
:100760008605F091870560918805709189050E9442
:10077000300EDE01A850BE4FED93FD936D937C9338
:10078000FE01EC5BFD4F0190119061917081F001D1
:100790000E94470E0E94FD10DE01A85EBD4FED9342
:1007A000FD936D937C930E94470EEAE0F7ED63E2C0
:1007B0007CE30E94E01109F010F40C94C6040E943E
:1007C000500EDE01AC5EBD4F0D901D908D919C9141
:1007D000D0010E94FD10DE01AC5EBD4FED93FD9394
:1007E0006D937C93E0E0E0938205E0938305E093D2
:1007F0008405E0938505E0938605E0938705E09303
:100800008805E09389050E94590E7F936F93FF93AB
:10081000EF930E94500EA0E0B0E080E090E40E94D0
:100820004D11AF91BF918F919F910E949B11DE015D
:10083000A050BE4FED93FD936D937C93DE01A850C5
:10084000BE4F0D901D908D919C91D001FE01E45002
:10085000FE4F0190119061917081F0010E94F6109D
:10086000DF01CB01E7E1F9ED6EE87EE30E949B1129
:100870000E946C0E0E94FD10DE01AA5FBD4FED9339
:10088000FD936D937C930E94590E0E94750E7F9389
:100890006F93FF93EF930E947E0E0E94D10CAF9155
:1008A000BF918F919F910E944D11DE01A25FBD4FBC
:1008B0000D901D908D919C91D0010E94FD10DE0144
:1008C000A25FBD4FED93FD936D937C930E94590EF3
:1008D0000E94750E7F936F93FF93EF930E947E0E9D
:1008E0000E94460CAF91BF918F919F910E944D1134
:1008F000DE01A65FBD4F0D901D908D919C91D001A2
:100900000E94FD10DE01A65FBD4FED93FD936D9338
:100910007C930E946C0EE6EFF8E265E672E40E94BA
:10092000890EDE01AC5FBD4FED93FC93FE01FA939F
:10093000EA93E7E0F3E0FA93EA930E94500E0E94F4
:10094000E412FE01EA5EFD4F019011906191708109
:10095000F0010E94E412FE01EA58FD4F019011904F
:1009600061917081F0010E94E4128CE00E943C0AC7
:100970006096FE01FA93EA930E949D05E0E0DE0195
:10098000A85EBD4FED93ED93ED93EC937ACDFFCF41
:10099000EA93EFB7EA93E0910405EF5FE093040573
:1009A000E991EFBFE9911895AA93BA93EA93FA9364
:1009B000EFB7EA93AAE6B5E00E948E0EE991EFBF89
:1009C000F991E991B991A99118950E94940EA0E02E
:1009D000B5E00E949D0EE0E0EDBDECBDE991EFBFFA
:1009E000F991E991B991A991799169911895EDE001
:1009F000E5BDE8E2E3BDE2E810C0E7E0E3BFE1E81F
:100A00000CC0EDE1EEBDEFEFF0E0F9BDE8BDE0EBCD
:100A1000F4E0F7BDE6BDE7B7E860E7BF0895AA9345
:100A2000BA93EA93EFB7EA93E4B5E93120F4A091E1
:100A30000405A03021F0A0916905A03019F40E94AE
:100A4000A60E08C0E0E0E09369050E94A60EE0E073
:100A5000E0930405E991EFBFE991B991A991189547
:100A6000AA93EA93FA93EFB7EA931A9310E01091DE
:100A70009C001C3321F4A0918105A03009F009C02D
:100A8000C39B02C0C39801C0C39AE0E0E093800515
:100A900013C01E3321F4A0918105A03009F008C0D5
:100AA000E09180050E94B50EE1E0E093810508C069
:100AB000E0918105E03021F4E09180050E94B50EBF
:100AC0001991E991EFBFF991E991A9911895E0E0A9
:100AD000E0939B00E8E9E0939A00E6E0E0939D0054
:100AE000E0919D00EF7BE0939D00E881F9810E94F9
:100AF0001512E0939800E881E093990014C0E0E0BB
:100B0000EBB9E8E9EAB9E6E0E0939500E0919500F9
:100B1000EF7BE0939500E881F9810E941512E09344
:100B20009000E881E9B922960895E0919B00E07277
:100B3000E1F3E881E0939C0023C01A930A9310E04C
:100B400000E010E00E94BF0EE03031F00E94BF0EC6
:100B5000EA93EBDF1F5FF6CF00E0011750F4AA81A4
:100B6000BB811196AA83BB831197E0E0EC930F5FE2
:100B7000F4CF1981088104C15D9BFECFE881ECB9F7
:100B8000219608950E9403132FEF3FEFEE81FF811E
:100B90003197EE83FF833196F9F0A885B985ED9101
:100BA000A887B987F0E02E273F2700E010E0083043
:100BB000E0E01E0784F4F901E170F070AF013695B2
:100BC0002795042E052A21F0E1E0F0EA2E273F27A1
:100BD0000F5F1F4FECCFDACFF9010E940A132A965C
:100BE000089528970E94051320E030E0E889EC83FF
:100BF000E6E0ED83EE85FF850E941512EE83EE851B
:100C0000EF83EC85FD850E941512E887EC85E98766
:100C1000E0E0EA87EB87FE013496FA93EA93E6E098
:100C2000F0E0FA93EA93AEDF8F01F801EA871B87C1
:100C300020E030E02830E0E03E0754F4DE01149676
:100C4000A20FB31FEC91EA9397DF2F5F3F4FF2CFD4
:100C50000E940C136196089528970E94C60EE0E04A
:100C6000EA83EB83EC83ED83EE83EF830E94CA0E6D
:100C7000772342F00E94CF0E0E945710AC85BD85AD
:100C80000E94CB120E94CA0E7F936F93FF93EF9343
:100C90000E94CF0E0E94D40EAF91BF918F919F9171
:100CA0000E94FD100E94DB0E0E94CA0E7F936F937C
:100CB000FF93EF930E94CF0E0E94D40EAF91BF918D
:100CC0008F919F910E94D20D0E94DF120E94E00E30
:100CD0000E94E50EAA85BB85ED93FC930E94DA1273
:100CE0000E94E50EA885B985ED93FC93AA85BB8586
:100CF0000E94BC12EC32A1E0FA0734F4DF01E4ED0B
:100D0000FEEFEA17FB070CF014C0A885B9850E9416
:100D1000BC12EC32A1E0FA0754F4A885B9850E9410
:100D2000BC12DF01E4EDFEEFEA17FB070CF001C097
:100D300001C008C0AA85BB850E94EA0EA885B985B6
:100D40000E94EA0E0C941E08E1E0EA93E9E7F0E065
:100D5000FA93EA93ED81FE810E94EF0EE2E0EA93BE
:100D6000E9E7F0E0FA93EA93EB81FC810E94091233
:100D70000E94EF0EE1E00E94F60EE2E00E94F60E05
:100D800024960895E5E5EABFE0EFE9BF14981598C9
:100D90001698179808950E94FE0E41F0A2E8B5E05B
:100DA0000E949D0E31976040704002C00E94070F64
:100DB00037C00E94FE0E19F00E94070F07C0A2E87C
:100DC000B5E00E949D0E31976040704029C00E949E
:100DD000940EA0E00E99A1E0E0E00F99E1E0EA179F
:100DE00019F00E94150F07C0A6E8B5E00E949D0EFD
:100DF00031976040704014C00E94940EA0E00F999B
:100E0000A1E0E0E00E99E1E0EA1741F0A6E8B5E0E4
:100E10000E949D0E31976040704002C00E94150FE5
:100E2000E991EFBFF991E991B991A991799169910E
:100E300018951A930A93AA81BB8112960E94BC123C
:100E4000309729F1AA81BB8114960E94BC128F01B0
:100E5000309761F00230E0E01E07C0F0F8013197F2
:100E60008F01AA81BB811496ED93FC93AA81BB816B
:100E700012960E948E0E3197AC81A083AA81BB810D
:100E80000E94BC12FF2312F00E948E0E06C0AA819F
:100E9000BB81EFEFFFEFED93FC931981088146C30F
:100EA00024970E94C60EE0E8EA83EFE3EB830E94FA
:100EB0000513EE85FF85EF3FAFEFFA0749F4E885AC
:100EC000F985FA93EA93EAEAF3E00E94230FB4C0AB
:100ED000EF3FAFE7FA0749F4E885F985FA93EA931B
:100EE000EBEAF3E00E94230FA7C0AB85A73010F018
:100EF000E6E0EB871B85E12F1150E03019F00E94EE
:100F0000270FF9CFEC85FD856E857F850E94FB124A
:100F100021F430E00E94270F2EC03B850E942F0F46
:100F200009F010F40C949F070E94270F0E942F0FC6
:100F300028F00E943A0F0E943F0FF8CF0DC00E9488
:100F40002F0F40F40E943A0F0E944B0F0E94520F45
:100F50003150F5CF0E94270FEC85FD856E857F858A
:100F60000E94570F0E94520F0E942F0F20F00E94E4
:100F70003A0F0E943F0F10E0EB85E11788F10E94C5
:100F8000E00E0E945E0F0E94570F0E94650F0E94A4
:100F9000DB0EEC81FD816E817F810E943A0F0E9401
:100FA0009B110E948A100E2F0E94690F0E94700FE1
:100FB000FF27662777270E94C3100E94E00E0E9439
:100FC0004D110E943A0F0E94D20D0E94520FE12F44
:100FD0001F5FE03089F60E94690FEEE2EC93CCCF00
:100FE0000E94750F3197AA85A08330302CF431957B
:100FF000A885B985EDE203C0A885B985EBE2EC933D
:101000000E94750F0E94750F3197BF01A32FEAE070
:101010000E946312E05DDB01EC930E94750F319733
:10102000BF01A32FEAE00E948D12E05DDB01EC938B
:10103000A885B985E0E0EC930E940C1360960895B2
:10104000EF9761970E94031310E0FE01E85AFF4FEB
:101050000190F081E02DE887F987FE01EA5AFF4F01
:101060000190F081E02DEE83FF83AE81BF810E946D
:10107000EA0EDE01A45ABF4F0E948E0E3197E49112
:101080002E2FE03011F40C94330AE12FE03039F4C4
:10109000253211F411E002C00E947B0FE3C1E13060
:1010A000C1F4253219F40E947B0FDBC112E0E0E0AD
:1010B000ED8B00E02D3211F401E0D4C12B3219F494
:1010C000EBE2ED8BCFC1203219F4E0E2ED8BCAC127
:1010D00002C0E23039F450E013E0203311F400682C
:1010E000C1C102C0E33091F4203310F02A3308F07C
:1010F00007C0AAE05A9F502DE22FE0535E0FB2C105
:1011000040E02E3211F414E0ADC10FC0E43099F488
:10111000203310F02A3308F008C00062AAE04A9F8A
:10112000402DE22FE0534E0F9DC12C3619F4026082
:1011300015E098C104C0E53011F00C94320AE22F9A
:10114000E33659F40E94840F0E948B0F0E94840F93
:10115000A481AA930E94920F84C1E53411F0E53670
:1011600009F404C0E63611F00C940009FE017696ED
:10117000EE87FF870E949A0F0E94C0120E94A10F63
:101180000E94A60FAD85AA2322F0AD89AB3249F0AB
:1011900017C00E94A80F0E9457100E94A10FEDE2F5
:1011A000ED8B07FF05C0ED89EA930E94920F08C0FE
:1011B000EE85FF853196EE87FF873197AD89A08355
:1011C00005FF46E0263661F40E94A80F0E94E41253
:1011D0004A93EB89FC89FA93EA930E941E0D0BC097
:1011E0000E94A80F0E94E4124A932A93EC89FD8979
:1011F000FA93EA9355DEFE0176960E94AD0F1EC06B
:10120000E33739F40E94A60F0E94B50F0E94AD0F7C
:101210000EC0E037C1F40E94A60F0E94B50FEE8702
:10122000FF87FA93EA930E94130D1E2F08600F7731
:10123000403011F0411708F001C0142F40E0E0E009
:10124000EC8B30E06EC0E43611F0E93611F4046046
:1012500002C0E537A1F4EAE0EC8B01FF08C0E0E052
:10126000FAEC6AE97BE30E94BA0F1AE023C0E0E1DE
:10127000F7E260E070E00E94BA0F15E01BC0E835AD
:1012800011F4086004C0E83711F00C94310AE0E171
:10129000EC8B01FF08C0E0E0F0E060E070E10E944C
:1012A000BA0F18E007C0E0E0F0E160E070E00E94F3
:1012B000BA0F14E0403011F00F7701C041E001FF98
:1012C00008C00E94A60F0E949A0F14960E94C01296
:1012D0000FC002FF07C00E94A60F0E94B50F0E9418
:1012E000201206C00E94A60F0E94B50F662777271E
:1012F000EA87FB876C877D8702FF12C0AD85AA2332
:1013000042F40E94A80F0E940D120E94A10FEDE26C
:10131000ED8BED89E03019F01F5F4F5F01C00B7F4F
:10132000342F00FD14C0151710F4351708F00FC046
:1013300007FF08C002FF04C00B7F2D89115001C0B8
:1013400020E301C020E20E947B0F5150ECCF141724
:1013500090F4006102FF06C00E94BF0F09F05150D7
:1013600011504150E0E3EA930E94920F503009F08F
:1013700051504150ECCF312FEC89E030B9F430308E
:10138000A1F003FF06C0EE85FF852591EE87FF875C
:1013900005C0AE85BF852D91AE87BF870E947B0FAC
:1013A000503009F051503150EACF51C00E94D30F54
:1013B0000E9468122E2F2A3030F003FF02C0295CF1
:1013C00001C0295A01C0205D04FD21C0213360F411
:1013D000A889B9898A899B89A130E0E0BE07E0E04D
:1013E0008E07E0E09E0709F40BC0431740F4531743
:1013F00010F000FF01C010C020E207FF08C020E38A
:10140000006102FF04C00E94BF0F09F051500E940A
:101410007B0F503009F0515031500E94D30F0E9481
:1014200099120E94A10FEC89A889B9898A899B89A0
:10143000FF27662777270E9468120E94BA0FE88963
:10144000F9896A897B890E94FB1209F0AFCF00FFFE
:1014500008C0503031F05150E0E2EA930E94920F00
:10146000F8CF10E006CEAE81BF810E94BC120E9470
:101470000A13EF966F960895FF92F82E26970E9412
:1014800005130E94DC0F309719F4EFEFFFEF23C034
:10149000DE0116960E9400128D010E94DC0FEE8381
:1014A000FF83E0E0E887E987DE011A960E94E30FF8
:1014B000FA93EA931A930A93E9E1F7E0FA93EA932D
:1014C000FE013A96FA93EA93BBDD9F01AE81BF819C
:1014D000E0E0EC93F9010E940C132A96FF90089526
:1014E0001A93A981BA81E0E0EC93AB81BC81EC91C5
:1014F0001E2FE03019F0E0E0EC9316C0A981BA810C
:1015000011960E94BC12309771F0E981FA81A18195
:10151000B281EC911E2FE03029F0A981BA81119699
:101520000E948E0E01C010E0E12F188125960895CB
:1015300028970E940313E0E0F0E0EA87FB87ED873D
:10154000EC89FD893196EC8BFD8B3197E4913E2F30
:10155000E03011F40C94CC0B0E94E80F91F00E9443
:10156000ED0F3E2FE03019F00E94E80F09F407C09C
:101570000E94F90F1CF4EFEFFFEF10C1F0CF3D8791
:101580000AC1353211F00C94B90B50E0EC89FD8999
:101590003591EC8BFD8B303310F03A3308F007C0F7
:1015A000AAE05A9F502DE32FE0535E0FEFCF30306B
:1015B00009F4F2C00E94ED0F2E2FEA930E94E60C70
:1015C000E03039F00E94F90F1CF4EFEFFFEFE6C0B6
:1015D000F1CF203009F4D7C02D87503009F45FEFE8
:1015E00040E0E32FE33669F40E94FE0F0E94ED0F06
:1015F000D801EC930E94F90F1CF4EFEFFFEFCEC07F
:10160000B2C0E33711F50E94FE0FE52F5150E030D4
:10161000C1F00E94ED0F3E2FE03019F00E94E80F5C
:1016200039F00E94F90F1CF4EFEFFFEFB7C009C0CB
:101630001F930F930F5F1F4FE32FAF91BF91EC9359
:10164000E4CFD801E0E0EC938EC0EC3631F441E019
:10165000EC89FD893591EC8BFD8BE1E0EC87E32F84
:10166000E43611F0E93619F4E0E0EC8702C0E53722
:1016700011F42AE008C0E83711F420E104C0E53293
:1016800009F477C089C0E0E0EE83EF83E887E9875B
:10169000E52F5150E03011F40C94930B0E94ED0FA4
:1016A0003E2FE13238F40E94F90F1CF4EFEFFFEF08
:1016B00075C017C0EC85E03039F43D3219F4EFEF16
:1016C000EC87E6CFE1E0EC87203131F43A930E94D9
:1016D000F00CE03031F007C03A930E94DE0CE030AD
:1016E00011F43D8720C0313610F0375505C0313434
:1016F00010F0375301C03053E22FAE81BF8188858F
:101700009985FF27662777270E942A12DF01CB01E0
:10171000E32FFF27662777270E940412EE83FF83BB
:1017200068877987B5CFEC85AE81BF81888599853B
:101730000E941A120E942A12EE83FF83688779871B
:10174000403051F00E94FE0FEE81FF81688579855F
:10175000D8010E94CB1207C00E94FE0FEE81FF81CC
:10176000D801ED93FC93EA85FB853196EA87FB87E8
:1017700012C00E94ED0FE31771F00E94F90F1CF4E4
:10178000EFEFFFEF0BC0EA85FB85309719F4EFEF21
:10179000FFEF04C001C0D4CEEA85FB850E940A1386
:1017A00066960895FF92F82E23971A930A93DE0106
:1017B00017960E94E30F309719F4EFEFFFEF1CC06C
:1017C000DE0111960E9400128D01DE0117960E9423
:1017D000E30FEB83FC83DE0115960E94E30FFA937F
:1017E000EA931A930A93E0E7FAE0FA93EA93FE0188
:1017F0003896FA93EA939CDE198108812596FF902A
:1018000008957B816A81F981E88177FB770F67FD15
:101810007160972F9E5781F078F0983190F4AA2745
:10182000BB27882708948795B795A7959A95D1F7F0
:10183000EA23FB23682305C0E8947727EE27FF27D8
:1018400066276F77769508F4606877F9A991B99162
:1018500089919991EA17FB076807790797FB089523
:101860000E9409100E94E4120E94010C0E94DF12E3
:1018700019F40E940910A0C0E6F70E940910A0E028
:10188000B0E080E89FE30E94F61096C024971A9378
:1018900010E00E940C10E3E8F9EF62E27EE30E94A0
:1018A0004D110E9411100E9416100E94650F0E9497
:1018B0000C100E94D20D0E9411100E940C100E9468
:1018C0001C0E0E94E01109F010F40C94720C0E949E
:1018D0001610A0E0B0E080E09FE30E94F6100E94A6
:1018E000111011E00E940C10E0E0F0E060E87EE3EF
:1018F0000E94E01109F010F40C94860C0E940C1068
:101900000E941C0E0E94F6100E941110103031F03F
:101910000E9416100E9457100E9411100E9416106B
:101920000E940C100E944D11E983FA836B837C8323
:10193000A1EBB4EC86E292E40E944D11DF01CB01F1
:10194000EDE1F5EE6DE272E40E94D20D0E941B10F3
:10195000ACE4B3E584E091E40E94FD100E940C1019
:101960000E944D117F936F93FF93EF93E981FA816A
:101970006B817C81A1E1BDEE8EED9FE30E94FD10A5
:101980000E941B10AEE5BBE788EA9FE30E94FD10B2
:10199000AF91BF918F919F910E949B1118812996C1
:1019A00008950E94DA12EBEDFFE069EC7FE30E94FC
:1019B000F6100E94E4126ADF24960895E1E0F9919E
:1019C000F03310F0FA3308F0EE270895E1E0F991D2
:1019D000F03229F0F93010F0FE3008F0EE270895CB
:1019E000E1E0F991F05340F0FA3038F0FF75F7502C
:1019F000FA3010F0F03108F0EE270895E991F991EE
:101A0000A991B991CD0105900D920020E1F7FC015B
:101A10000895A991B991EE27FF276D91662311F0E2
:101A20003196FBCF0895AA27BB27E991F99105903C
:101A3000002011F01196FBCFFD0108952497A6D147
:101A4000E0E0EA83EFE3EB831A930A93EB85FC85EE
:101A5000EF3FAFEFFA0729F4F5D2E2EBF3E0F3D171
:101A60007FC0EF3FAFE7FA0729F4ECD2E3EBF3E0F6
:101A7000EAD176C0AC85AA2352F4E985FA856B8554
:101A80007C850E945710E3D2E7D2EDE2EC93A88563
:101A9000A73010F0E6E0E8871885E12F1150E0301C
:101AA00021F0E1D20BD2E4D2F8CFE7D20E94FD10B0
:101AB000CED210E0E0E0F0E060E87FE3D9D2DDD202
:101AC0000E94E01160F0CFD2E6D1D2D21F5F173270
:101AD00028F0B8D2E7EBF3E0B6D142C0F0CF103037
:101AE00021F4BAD2E0E3EC931AC0E12F1150E030B8
:101AF000B1F0B9D2E3D1DBD1E8D1BAD2BED20E94E3
:101B00009B110E948A100E2FA7D2EAD1F0E0ABD22F
:101B100098D00E944D11BAD245D099D2E6CFE8852F
:101B2000E030D1F099D2EEE2EC93E885E150E8871D
:101B3000EF5F91F0ABD2AFD18AD2E985FA856B85A0
:101B40007C850E948A100E2F87D2CAD1F0E09ED2E7
:101B500078D028D07CD2E9CFAE81BF81E0E0EC9391
:101B6000198108812D960895FA93EA930C944B10ED
:101B7000E0E0E0936A05E0936B05E2BF0895FE01A3
:101B8000E859FD4F0190F081E02D0E9420120E9443
:101B9000C310DF01CB01E0E0F0E068EC72E40E94EA
:101BA0009B1108950E94EE120E94F6100895DE0126
:101BB000A659BD4FED93FD936D937C930895A0E0DE
:101BC000B0E080EC9EE30895FE01E659FD4F0190E0
:101BD000119061917081F001F2DF0E94FD10DF0130
:101BE000CB01E0E0F0E060E07FE30E949B1108950C
:101BF000DE01A259BD4FED93FD936D937C93A0E060
:101C0000B0E080E49FE30E94F6100895DE01A2593F
:101C1000BD4F0D901D908D919C91D001E0E0F0E0C2
:101C20006AE774E40E944D110E948C10DE01AE58E8
:101C3000BD4FED93FC930895E0E0F0E060E07FE3BA
:101C400008950E9420120E94C3100895E0E0E093DE
:101C50000005E0930105E0930205E0930305089574
:101C60000E94C310A0E0B0E080E09EE30E944D110E
:101C7000A8EDBFE089E490E40E944D11DF01CB01A3
:101C8000E0E0F0E060E273E40E949B110895DE0161
:101C9000A85EBD4F0D901D908D919C91D00108952F
:101CA000FE01E85EFD4F0190119061917081F0019D
:101CB0000895FE01E850FE4F0190119061917081EE
:101CC000F001DE01A450BE4F0D901D908D919C91AE
:101CD000D0010E94FD100895DE01AA5FBD4F0D9056
:101CE0001D908D919C91D0010895DF01CB01E0E022
:101CF000F0E060E070E40E949B110895FE01EA5F4D
:101D0000FD4F0190119061917081F0010E94E412E9
:101D100008950E944D110E948C100895ED91FD913F
:101D20003196FE93EE9308956A937A93AA93BA93A9
:101D3000EA93FA93EFB7EA9308950E94C612EF5F11
:101D4000FF4F6F4F7F4F0E94D0120895A0916905F9
:101D5000B0E0AB5FBA4FECB1EC93E0916905EF5F97
:101D6000E0936905E0E0E4BD0895F0E0E459FA4F3E
:101D70001083E0918005EF5FE09380050895AA81CC
:101D8000BB81EE27A10FBE1FEC910895E0E0E88330
:101D9000E9830895AE85BF850E94C0120895AC8581
:101DA000BD850E94C0120895A7E1B9ED8EE89EE3BB
:101DB0000E944D119ACFEC83FD836E837F8308953B
:101DC000AC81BD818E819F810895E9E6FCEF6EE3D1
:101DD00075E49FCFE0E0F0E0ED93FC930895FA9373
:101DE000EA930E94F105E5E0F0E0BECEEA93E8E771
:101DF000F0E0FA93EA93E1E0F0E0F1CF95DFA0E0C4
:101E00000C99A1E0E0E00D99E1E0EA170895A2E85D
:101E1000B5E00E94C6123197604070400E94D01217
:101E2000EF5FFF4F6F4F7F4F0895A6E8B5E00E9428
:101E3000C6123197604070400E94D012EF5FFF4F92
:101E40006F4F7F4F0895FA93EA930C94FE0CB8DF1E
:101E5000E0E0F0E060E271E40E944D11ACCFEC8173
:101E6000FD816E817F81AC85BD858E859F850E94B9
:101E7000E0110895AC85BD858E859F850895EDECB4
:101E8000FCEC6CEC7DE30E944D11EC87FD876E87C6
:101E90007F873F5F0895E0E0F0E060E271E40E9438
:101EA0004D110895EC87FD876E877F870895A0E028
:101EB000B0E080E09FE30E94FD100895EDECFCECA3
:101EC0006CEC7DE30E944D1108950E94E4120C9485
:101ED000300CA885B9851196A887B9871197089500
:101EE000E02FE05DEC93E02F0895E885F9853196C9
:101EF000E887F98708952A93EF81F885FA93EA93A2
:101F0000EB85FC8509950895FE01E65AFF4F019087
:101F1000F081E02D08953497DE01A65ABF4FED936E
:101F2000FC930895EF81F885FA93EA93EB85FC859D
:101F300009950895DE01A65ABF4F0D90BC91A02DC2
:101F40000895EA87FB876C877D870895DDDFE3CFFF
:101F5000EA85FB856C857D850895EE87FF87FA937A
:101F6000EA930E94090D1E2F0895E4DF14960E9443
:101F7000BC120895E88BF98B6A8B7B8B08950B7FDD
:101F8000ED89EA93FE01E95AFF4F0190F081E02DBF
:101F9000FA93EA93FE01E55AFF4F0190F081E02D9C
:101FA000099550300895E889F9896A897B89AA855D
:101FB000BB858C859D850895DE011C960E940012CC
:101FC0000E94BC1208950E9400120E94BC12089543
:101FD0003A930E94E60CE0300895FE013D96FA9394
:101FE000EA93E889F989FA93EA93EC89FD890995DE
:101FF0000895AE85BF85AC91A0300895EA89FB892C
:102000003497EA8BFB8BAA89BB8914960D911C919E
:1020100008950E94D5120895AD81BE818F81988563
:102020000895ED83FE836F8378870895ED81FE81A7
:102030006F8178850895A981BA818B819C810E94E6
:102040004D110895EE81FF81FA93EA930895E9878F
:10205000FA876B877C870895AE81BF811196AE8326
:10206000BF8311970895AA81BB818C819D810895BA
:10207000EA83FB836C837D830895EA81FB816C8115
:102080007D81A985BA858B859C850895A985BA85AA
:102090008B859C850895E991F991309639F086E613
:1020A0009EE00197F1F7A8953197C9F70895309709
:1020B0006040704009F070580895552342F450383C
:1020C00011F4E0FF04C03196691F791F6BF050E8EE
:1020D000572711F45F93CFC05F3F31F0660F000CBC
:1020E00057956795752F08955F9300200AF0CFC02C
:1020F000C8C050E8192E1522880F991F9527550F33
:10210000879550E8072E0522660F771F7527550F14
:1021100067950895689401C0E8945F93F2DF703882
:1021200018F07F3F08F4A7C056E1571BAAF4519559
:1021300058300EF4593030F0EFEFFFEF6FEF7FE7DC
:1021400077F91AC077275523B9F0EE0FFF1F661FE6
:10215000771F5A95D1F710C07727583028F0EF2F06
:10216000F62F672F5850F9CF552331F076956795A4
:10217000F795E7955A95D1F700200AF44ED15F9173
:102180000895689401C0E894309760407040B1F0C1
:10219000002426F0772312F400943FD1172E7EE11D
:1021A000112032F07A95EE0FFF1F661F111CF9CF38
:1021B000EF2FF62F612D5F938ADF5F9108954F9384
:1021C000AF01FD01DA01AB01BC01CA01402D012CB8
:1021D000142E4F910895EA0FFB1F681F0895E09594
:1021E000F0956095EF5FFF4F6F4F08955F9381DF2C
:1021F000903871F150E8152604C05F937ADF90386B
:1022000039F1703821F1572F591B2BF112F4D7DF18
:10221000FACF583118F0AA27BB278827583028F062
:10222000AB2FB82F88275850F9CF552329F0869522
:10223000B795A7955A95D9F7502D512572F0CBDF58
:1022400038F46795F795E795739513F420C0B7DFD9
:102250003EDF5F910895D8F7FBCFEA1BFB0B680BBD
:1022600051F010F40094BBDF662392F3EE0FFF1FD2
:10227000661F7A95CBF7EE27FF27662777275F91B2
:102280000895EFEFFFEF6FE77FEF5F910895EFEFB6
:10229000FFEF6FE77FE75F9108955F932ADF703864
:1022A00051F3903841F301240894791F23F41CF36F
:1022B00000203AF3ECCF0F921F932F933F934F934D
:1022C000112722279927689FA0018F9F302D410D4C
:1022D000591F6B9F300D411D591F8E9F27D0BF9FE7
:1022E00025D06A9F23D0BE9F1DD0AF9F1BD0AE9F2D
:1022F000110D291F391F491F591FE32FF42F652F77
:10230000522F4F913F912F911F910F9066232AF0EA
:10231000550FEE1FFF1F661F02C073954BF2CDDEF7
:102320005F910895100D211D391F02C0200D311D30
:10233000491F591F08955F93DCDE703821F4112086
:102340000AF49FCFA4CF903809F495CF01240894C4
:10235000970B1BF4D4F30020F3CF792F1F932F9307
:102360003F934F93112411272227332744275527C2
:1023700090E2AE17BF078607410730F0AE1BBF0BD8
:10238000860B410B089401C08894551F221F331FF0
:10239000111CAA1FBB1F881F441F9A9551F7F901F2
:1023A000612D4F913F912F911F91662332F0550F70
:1023B000EE1FFF1F661F7A9543F27FDE5F9108953F
:1023C00099239AF0772342F0971748F029F4AE1733
:1023D000BF07860720F031F0989488940895989468
:1023E000089408951894889408957723C2F797174E
:1023F00098F3A9F7EA17FB07680788F399F3ECCF7E
:102400000024AF0DB01D0895EA0FFB1F681F791F50
:102410000895F195E195F0400895F09560957095D7
:10242000E195FF4F6F4F7F4F0895EF2FFF27E7FD97
:10243000FFEF0895FE2FFF0FFF0B6F2F7F2F0895E3
:102440006F2F660F660B762F08958B2F880F880BE2
:10245000982F08957A9F702D6B9F700DF89F700DC7
:10246000E99F700D6A9F602D710DFB9F600D711DBE
:10247000E89F600D711D8827FA9FF02D610D781F70
:10248000EB9FF00D611D781FEA9FE02DF10D681F95
:10249000781F08956E2F6A9FF0016B9FF00D0895CD
:1024A00058D0D8DF0EF4B9DF0895002498E0AA0FC1
:1024B000001C0E1A10F40E0E01C0A1609A95B9F717
:1024C000EA2FA02D089539D0F0DF0EF4E19508959C
:1024D0003F934F935F93002411244427552730E204
:1024E000AA0FBB1F881F991F001C111C441F551FDA
:1024F0000E1A1F0A460B570B28F40E0E1F1E461FFE
:10250000571F01C0A1603A9559F7FD01BC01D001E8
:10251000CA015F914F913F910895E894A7FF02C0CF
:10252000A1956894E7FDE195C0DFEA2F0EF4E195EF
:102530000895CEDFFD01BC010895E894E7FF02C0D5
:10254000E1956894A7FF04C0A19500F8039400FAF0
:102550000895E89477FF02C060DF689497FF0BC08E
:102560000024A095B095809590951196801D901DA2
:1025700000F8039400FA0895ED91FC9111970895E5
:10258000ED91FD916D917C9113970895ED91FD91E1
:102590006D917D910895ED93FD936D937C930895D6
:1025A0007E936E93FE93EE930895E881F9816A819C
:1025B0007B810895A881B9818A819B810895E883F0
:1025C000F9836A837B8308957A936A93FA93EA93F3
:1025D0000895689401C0E89401D0D6DD182E862FA6
:1025E000612D192E972F712D1B2EBF2FF12D1A2E15
:1025F000AE2FE12D0895309760407040089500247B
:102600000A160B0608955A934A933A932A931A93FB
:102610000A9308955D814C813B812A81198108814B
:102620000895AC0FBD1F05900D920197E1F7089535
:00000001FF
