:0A0000000C948C000C9400000C948A
:10000A0000000C9400000C9400000C9400000C9466
:10001A0000000C9400000C9400000C94A0010C94B5
:10002A0000000C9400000C9400000C9400000C9446
:10003A0000000C94A4010C9400000C9400000C9491
:10004A0062010C9400000C9400000C9400000C94C3
:10005A0000000C9400000C9400000C9400000C9416
:10006A0000000C9400000C9400000C9400000C9406
:10007A0082010C9400000C9400000C9400000C9473
:10008A0000001027E80364000A00010000100001C4
:10009A001000010000000000000000000000000045
:1000AA000000000000000000000000000000000046
:1000BA000000000000000000000000000000000036
:1000CA000000000000000000000000000000000026
:1000DA000000000000000000000000000000000016
:1000EA000000000000000000000000000000000006
:1000FA0000000000000000000000000000003C2595
:10010A00642C25643E000600040002010000F894F5
:10011A00EE27ECBBF1E0F5BFE5BFE0936C00F8E138
:10012A00F1BDE1BD8DE0A2E0BB27ED938A95E9F729
:10013A0080E090E1A0E0B1E0ED930197E9F7E0E11A
:10014A00F1E085919591009761F0A591B59105909F
:10015A001590BF01F00105900D920197E1F7FB019F
:10016A00F0CF8BBFEFEFEDBFE0E1EEBFC0E0D5E02F
:10017A000C94AA01E0E0E0939B00E8E9E0939A007E
:10018A00E6E0E0939D00E0919D00EF7BE0939D0007
:10019A00E881F9810E94FF05E0939800E881E093E5
:1001AA00990014C0E0E0EBB9E8E9EAB9E6E0E093C7
:1001BA009500E0919500EF7BE0939500E881F98145
:1001CA000E94FF05E0939000E881E9B9229608951C
:1001DA00EDE0E5BDE8E2E3BD08955D9BFECFE88171
:1001EA00ECB9219608950E9420062FEF3FEFEE8189
:1001FA00FF813197EE83FF833196F9F0A885B9859F
:10020A00ED91A887B987F0E02E273F2700E010E09C
:10021A000830E0E01E0784F4F901E170F070AF01E4
:10022A0036952795042E052A21F0E1E0F0EA2E27DB
:10023A003F270F5F1F4FECCFDACFF9010E94270645
:10024A002A96089528970E94220620E030E0E8893D
:10025A00EC83E6E0ED83EE85FF850E94FF05EE83E1
:10026A00EE85EF83EC85FD850E94FF05E887EC8526
:10027A00E987E0E0EA87EB87FE013496FA93EA938E
:10028A00E6E0F0E0FA93EA93AEDF8F01F801EA873D
:10029A001B8720E030E02830E0E03E0754F4DE011E
:1002AA001496A20FB31FEC91EA9397DF2F5F3F4F8B
:1002BA00F2CF0E94290661960895AA93BA93EA9307
:1002CA00EFB7EA93E4B5E93118F4E0E0E51519F07F
:1002DA00E0E0E41509F401C04424A42DB0E0A050E4
:1002EA00BB4FECB1EC934394E0E0E4BD5524E991B3
:1002FA00EFBFE991B991A9911895EA93FA93EFB7EB
:10030A00EA931A9310E010919C001C3331F466248E
:10031A000E947405E1E09E2E08C01E3321F40E945B
:10032A007405992402C00E9474051991E991EFBFDE
:10033A00F991E9911895EA93EFB7539403C0EA93B8
:10034A00EFB77394EFBFE9911895EF97A59784E6F5
:10035A00A0E0B0E0EEE9F0E00E942E0600E010E036
:10036A0020E030E0E7E0F0E0FA93EA9303DFE7E029
:10037A00F0E0FA93EA9316DF2BDF7894E8E8F3E1EA
:10038A000E947B05992011F00C941302E4E6F5E033
:10039A000E947F05EDB7FEB731970E9419061F9399
:1003AA000F93EDB7FEB731970E9419063F932F932B
:1003BA0088E00E9412052C962F913F910F911F9170
:1003CA00FE010E947F05F8010E9404060E941B0696
:1003DA00F9010E9404060E941B0688E00E9481031C
:1003EA002C96E9E1F0E00E947B05E1E0EA93E9E777
:1003FA00F0E00E9486050E948B05E2E0EA93E9E7B5
:10040A00F0E0FA93EA93F9010E94FB050E94900535
:10041A00E1E00E949305E2E00E949305B3CFFFCF8B
:10042A001A930A93AA81BB8112960E9411063097E9
:10043A0029F1AA81BB8114960E9411068F01309777
:10044A0061F00230E0E01E07C0F0F80131978F0139
:10045A00AA81BB811496ED93FC93AA81BB81129663
:10046A000E949B053197AC81A083AA81BB810E941F
:10047A001106FF2312F00E949B0506C0AA81BB81C8
:10048A00EFEFFFEFED93FC93198108818DC1269759
:10049A000E94200610E0AC85BD85E0E0F0E0ED9317
:1004AA00FC93EA89FB893196EA8BFB8B3197E491BD
:1004BA002E2FE03011F40C947903E12FE03039F457
:1004CA00253211F411E002C00E94A1050CC1E130ED
:1004DA00A9F4253219F40E94A10504C112E040E0F2
:1004EA0000E02D3211F401E0FEC02B3211F44BE290
:1004FA00FAC0203211F440E2F6C002C0E23039F408
:10050A0050E013E0203311F40068EDC004C0E3307A
:10051A0011F00C947803203310F02A3308F007C046
:10052A00AAE05A9F502DE22FE0535E0FDCC0E22F63
:10053A00E33649F40E94AA05E889F989A481AA93B5
:10054A000E94B005CFC0E33741F40E94AA050E9479
:10055A00B8050E945F051E2F0AC0E03761F40E94A9
:10056A00AA050E94B8050E9469051E2F086002604C
:10057A000F7730E035C0E43611F0E93611F4046043
:10058A0002C0E53731F4ECE8F0E0EE83FF8315E0D2
:10059A000DC0E83511F4086004C0E83711F00C9476
:1005AA007703E6E9F0E0EE83FF8314E002FF14C06C
:1005BA000E94AA050E94C205AB85AA233AF4EA85DD
:1005CA00FB850E94FB05EA87FB874DE2403011F06C
:1005DA001F5F01C00B7F04C00E94AA050E94C205CA
:1005EA0000FD11C0151778F407FF08C002FF04C008
:1005FA000B7F242F115001C020E301C020E20E948A
:10060A00A1055150EFCF312F01FF17C03030A1F0B3
:10061A0003FF06C0EE81FF812591EE83FF8305C0AB
:10062A00AE81BF812D91AE83BF830E94A105503058
:10063A0009F051503150EACF4BC020E3EE81FF81DF
:10064A000E941506E887F987EE81FF813296EE83CC
:10065A00FF83E885F985AA85BB85AE17BF0750F0E9
:10066A002F5FA885B985EA85FB85EA1BFB0BEA871C
:10067A00FB87EFCF2A3328F003FF02C0295F01C0AE
:10068A00295D04FD1AC0213320F4A885B985119784
:10069A0009F409C0531710F000FF01C013C020E28B
:1006AA0007FF0BC020E3006102FF07C00B7F4A93DC
:1006BA000E94B005503009F051500E94A1055030F7
:1006CA0009F051503150A885B985129708F0B5CF75
:1006DA0000FF08C0503031F05150E0E2EA930E9426
:1006EA00B005F8CF10E0DDCEAC85BD850E941106BD
:1006FA000E94270664960895FF92F82E26970E9474
:10070A0022060E94CA05309719F4EFEFFFEF21C0C5
:10071A00DE0116960E94F7058D010E94CA05EE8336
:10072A00FF83E0E0E887E987DE011A960E94D10597
:10073A000E948605E5E1F2E0FA93EA93FE013A9611
:10074A00FA93EA93A4DE9F01AE81BF81E0E0EC93C5
:10075A00F9010E9429062A96FF9008951A93A98101
:10076A00BA81E0E0EC93AB81BC81EC911E2FE030C2
:10077A0019F0E0E0EC9316C0A981BA8111960E94A3
:10078A001106309771F0E981FA81A181B281EC9169
:10079A001E2FE03029F0A981BA8111960E949B058B
:1007AA0001C010E0E12F18812596089525970E942F
:1007BA002006E0E0F0E0E887F9874E2FE989FA8918
:1007CA003196E98BFA8B3197E4913E2FE03011F4A0
:1007DA000C940C050E94D605C1F0EDB7FEB7FA934A
:1007EA00EA934F930E94B0054F913E2FE03019F0E3
:1007FA000E94D60509F407C00E94DB051CF4EFEF3E
:10080A00FFEF07C1EACF432F01C1353211F00C9433
:10081A00F30450E0E989FA893591E98BFA8B303390
:10082A0010F03A3308F007C0AAE05A9F502DE32F80
:10083A00E0535E0FEFCF303009F4E9C0EDB7FEB7F1
:10084A00FA93EA934F930E94B0054F912E2FEA93A1
:10085A000E944705E03039F00E94DB051CF4EFEFF7
:10086A00FFEFD7C0EBCF203009F4C8C0422F503079
:10087A0009F45FEFE32FE33699F40E94E005EDB740
:10088A00FEB7FA93EA934F930E94B0054F91D801AD
:10089A00EC930E94DB051CF4EFEFFFEFBAC098C09F
:1008AA00E33741F50E94E005E52F5150E030F1F0C1
:1008BA00EDB7FEB7FA93EA934F930E94B0054F91B2
:1008CA003E2FE03019F00E94D60539F00E94DB0570
:1008DA001CF4EFEFFFEF9DC009C01F930F930F5F4A
:1008EA001F4FE32FAF91BF91EC93DECFD801E0E029
:1008FA00EC936EC0E1E0EA87E32FE43611F0E936C3
:10090A0019F4E0E0EA8702C0E53711F42AE008C0EA
:10091A00E83711F420E104C0E53209F45FC077C07A
:10092A00E0E0EE83EF83E52F5150E03011F40C94B0
:10093A00E004EDB7FEB7FA93EA934F930E94B0052D
:10094A004F913E2FE13238F40E94DB051CF4EFEFA1
:10095A00FFEF5FC017C0EA85E03039F43D3219F481
:10096A00EFEFEA87E0CFE1E0EA87203131F43A930A
:10097A000E945105E03031F007C03A930E943F05CA
:10098A00E03011F4432F17C0313610F0375505C047
:10099A00313410F0375301C03053E22FAE81BF819A
:1009AA00F0E00E940906DF01E32FF0E0EA0FFB1FE7
:1009BA00EE83FF83B8CF0E94E005EA85AE81BF814E
:1009CA00F0E0E7FDFFEF0E940906D801ED93FC93E2
:1009DA00E885F9853196E887F98718C0EDB7FEB73B
:1009EA00FA93EA934F930E94B0054F91E31771F07F
:1009FA000E94DB051CF4EFEFFFEF0BC0E885F985D9
:100A0A00309719F4EFEFFFEF04C001C0D7CEE885A5
:100A1A00F9850E94270663960895FF92F82E239778
:100A2A001A930A93DE0117960E94D105309719F49A
:100A3A00EFEFFFEF1AC0DE0111960E94F7058D0154
:100A4A00DE0117960E94D105EB83FC83DE01159621
:100A5A000E94D1050E948605E3EBF3E0FA93EA933C
:100A6A00FE013896FA93EA93A1DE19810881259648
:100A7A00FF900895E1E0F991F03310F0FA3308F0AD
:100A8A00EE270895E1E0F991F03229F0F93010F0FB
:100A9A00FE3008F0EE270895E1E0F991F05340F0B6
:100AAA00FA3038F0FF75F750FA3010F0F03108F0EC
:100ABA00EE270895A991B991EE27FF276D91662334
:100ACA0011F03196FBCF0895AA27BB27E991F99136
:100ADA000590002011F01196FBCFFD010895E62D37
:100AEA00F0E0EC59FA4F108363940895FA93EA936D
:100AFA000C94EB05FA93EA93E8E0F1E0FA93EA93AF
:100B0A000895FA93EA931A930A9308950E94270183
:100B1A00E5E0F0E0EBCFFA93EA93F8CFEA93E8E75F
:100B2A00F0E0FA93EA93E1E0F0E0F5CFED91FD9180
:100B3A003196FE93EE9308952A93ED85FE85FA93F6
:100B4A00EA93E989FA8909950895E889F989349730
:100B5A00E88BF98B0895ED85FE85FA93EA93E98986
:100B6A00FA8909950895A889B98914960E941106E7
:100B7A00EE83FF83FA93EA930895A889B9891496B4
:100B8A000E941106EA87FB870895DE011C960E94DF
:100B9A00F7050E94110608950E94F7050E941106A2
:100BAA0008953A930E944705E0300895AB85BC85C5
:100BBA00AC91A0300895EF85F8893497EF87F88BC8
:100BCA00AF85B88914960D911C910895E991F99110
:100BDA00309639F086E69EE00197F1F7A8953197AD
:100BEA00C9F708950024AF0DB01D0895F195E19558
:100BFA00F0400895EF2FFF27E7FDFFEF08956F2FCD
:100C0A00660F660B762F0895FA9FF02DEB9FF00D75
:100C1A00EA9FE02DF10D0895ED91FC911197089549
:100C2A000590F491E02D089560E070E07A936A935C
:100C3A00FA93EA9308955A934A933A932A931A9302
:100C4A000A9308955D814C813B812A81198108812B
:100C5A000895AC0FBD1F05900D928A95E1F708958E
:00000001FF
