:080000000C9481010C94000036
:100008000C9400000C9400000C9400000C94000068
:100018000C9400000C9400000C9400000C947D03D8
:100028000C9400000C9400000C9400000C948903BC
:100038000C9400000C9400000C9483030C940000B2
:100048000C943C030C9400000C9400000C940000E9
:100058000C9400000C9400000C9400000C94000018
:100068000C9400000C9400000C9400000C94000008
:100078000C9457030C9400000C9400000C9400009E
:100088000C940000000000000000000000000000C8
:100098000000000000000000000000000000000058
:1000A8000000000000000000000000000000000048
:1000B8000000000000000000000000000000000038
:1000C8000000000000000000000000000000000028
:1002C8000000000000000000252E33662C20252E9B
:1002D80033662C202534640A00002D4E414E000060
:1002E80001002D4E414E00494E4600000A00040010
:1002F800C60201007805E8020000F894EE27ECBB7E
:10030800F1E0F5BFE5BFE0936C00F8E1F1BDE1BDB8
:100318008DE0A2E0BB27ED938A95E9F780E090E1B4
:10032800A0E0B1E0ED930197E9F7E4EFF2E0859101
:100338009591009761F0A591B59105901590BF0131
:10034800F00105900D920197E1F7FB01F0CF8BBF0B
:10035800EFEFEDBFE0E1EEBFC0E0D5E00C9496030F
:10036800E0E0E0939B00E8E9E0939A00E6E0E093A0
:100378009D00E0919D00EF7BE0939D00E881F9816D
:100388000E94970EE0939800E881E093990014C0CA
:10039800E0E0EBB9E8E9EAB9E6E0E0939500E0913E
:1003A8009500EF7BE0939500E881F9810E94970E14
:1003B800E0939000E881E9B922960895EDE0E5BD63
:1003C800E8E2E3BDE2E810C0E7E0E3BFE1E80CC023
:1003D800EDE1EEBDEFEFF0E0F9BDE8BDE0EBF4E0F4
:1003E800F7BDE6BDE7B7E860E7BF0895E0919B0079
:1003F800E072E1F3E881E0939C0023C01A930A932A
:1004080010E000E010E00E94780AE03031F00E942D
:10041800780AEA93EBDF1F5FF6CF00E0011750F48C
:10042800AA81BB811196AA83BB831197E0E0EC9364
:100438000F5FF4CF19810881EAC05D9BFECFE88188
:10044800ECB9219608950E94370F2FEF3FEFEE8108
:10045800FF813197EE83FF833196F9F0A885B9853E
:10046800ED91A887B987F0E02E273F2700E010E03C
:100478000830E0E01E0784F4F901E170F070AF0184
:1004880036952795042E052A21F0E1E0F0EA2E277B
:100498003F270F5F1F4FECCFDACFF9010E943E0FC5
:1004A8002A9608950E947F0AE6E00E94870A28306B
:1004B800E0E03E072CF40E94AA0A2F5F3F4FF7CFD7
:1004C8000EC00E947F0AE4E00E94870A2830E0E01C
:1004D8003E072CF40E94AA0A2F5F3F4FF7CF0E94D5
:1004E800400F6196089528970E94B20AE0E0EA83D7
:1004F800EB83EC83ED83EE83EF830E94B60A7723C8
:1005080042F00E94BB0A0E94DE0CAC85BD850E94A9
:100518000D0F0E94B60A7F936F93FF93EF930E948B
:10052800BB0A0E94C00AAF91BF918F919F910E9410
:10053800840D0E94CF0A0E94B60A7F936F93FF939F
:10054800EF930E94BB0A0E94C00AAF91BF918F919E
:100558009F910E94D40A0E941C0F0E94D90A0E94EF
:10056800DE0AAA85BB85ED93FC930E94ED0A0E94E2
:10057800DE0AA885B985ED93FC93AA85BB850E9400
:10058800030FEC32A1E0FA0734F4DF01E4EDFEEFEB
:10059800EA17FB070CF014C0A885B9850E94030F61
:1005A800EC32A1E0FA0754F4A885B9850E94030F3C
:1005B800DF01E4EDFEEFEA17FB070CF001C001C014
:1005C80008C0AA85BB850E94F00AA885B9850E9443
:1005D800F00A0C948F06E1E0EA93E9E7F0E0FA9379
:1005E800EA93ED81FE810E94F50AE2E0EA93E9E7E9
:1005F800F0E0FA93EA93EB81FC810E948B0E0E9453
:10060800F50AE1E00E94FF0AE2E00E94FF0A249650
:1006180008950E94390F10E020E030E0A091010514
:10062800A73011F1B0910505A0E0E09106050E9400
:10063800070B9F01B0910305A0E0E09104050E941B
:10064800070BAC81BD81ED93FC9310E0EE811E1782
:1006580050F4E12FF0E0AF81B885AE0FBF1FE0E0A6
:10066800EC931F5FF3CFF9010E94400F299608957C
:10067800AA93BA93EA93EFB7EA93E4B5E93118F489
:10068800E0E0E51519F0E0E0E41519F40E940B0B21
:1006980004C044240E940B0B5524E991EFBFE99153
:1006A800B991A99118950E94150B1A9310E0109111
:1006B8009C001C3319F4E0E0E81509F007C0C39B5F
:1006C80002C0C39801C0C39A99240EC01E3319F4FE
:1006D800E0E0E81509F006C0E92D0E941A0BE1E0F8
:1006E8008E2E05C0882019F4E92D0E941A0B199145
:1006F80014C0EA93EFB75394EFBFE99118950E949D
:10070800150BF30131963F0108C00E94150BF60145
:1007180031966F01E0E0EDBDECBDE991EFBFF991D5
:10072800E9911895EF972297D25089E392E0A0E0DB
:10073800B0E0ECE8F0E00E94450F00E010E020E0B7
:1007480030E040E050E0E7E0F0E0FA93EA9308DEBA
:10075800E7E0F0E0FA93EA931BDE30DE35DE38DEC0
:100768007894B99ABA9ABB9AE8E8F3E10E94200B08
:10077800C198C29A66247724E0E0E2BFFE01EC50FB
:10078800FE4FE081E030F1F40E94240B0E94380B08
:100798000E94410B80F40E94480BEDB7FEB73197D9
:1007A800FA93EA935F934F930E94530B4F915F9193
:1007B8000E945A0B03C0E1E00E94630BFA93EA938C
:1007C8000ADF5DC0DE01AC50BE4FAC91A130A1F58F
:1007D800E0E0DE01A75CBD4FED93ED93ED93EC9364
:1007E800E3E3F3E363E37FEBDE01A35CBD4FED934B
:1007F800FD936D937C93DE01A95FBD4F0D90BC9175
:10080800A02DAA35E0E0BE0784F40E94480BEDB79E
:10081800FEB73197FA93EA935F934F930E94530B75
:100828004F915F910E945A0B03C0E2E00E94630B54
:10083800FA93EA93D0DE23C0DE01AC50BE4FAC91F0
:10084800A230E9F40E94240B0E946C0B0E94410B19
:1008580080F40E94480BEDB7FEB73197FA93EA93FC
:100868005F934F930E94530B4F915F910E945A0BD5
:1008780003C0E3E00E94630BFA93EA93ACDE0E94A4
:10088800750BE1E00E94780BE0E0F5E0FA93EA935B
:100898004A92FE01EA5DFD4FFA93EA93BADEDE0161
:1008A800A15DBD4FED93FC93E2E00E94780BE0E080
:1008B800F5E0FA93EA934A92FE01EC5DFD4FFA9354
:1008C800EA93A7DE0E948B0EDE01A35DBD4FED9378
:1008D800FC93FE01E15DFD4F0190F081E02D0E9447
:1008E800820BDE01A75DBD4FED93FD936D937C9365
:1008F800FE01E35DFD4F0190F081E02D0E94820B27
:10090800DE01AB5DBD4FED93FD936D937C93DE01EE
:10091800A75DBD4F0D901D908D919C91D0010E94B7
:10092800840DDF01CB01E0E0F0E060E070E40E94BC
:10093800220EDE01A35EBD4FED93FD936D937C9374
:10094800DE01AB5DBD4F0D901D908D919C91D00146
:10095800FE01E75DFD4F0190119061917081F001FA
:100968000E947D0DDF01CB01EBE3FFED6FE87EE335
:100978000E94220EDE01A75EBD4FED93FD936D939D
:100988007C93F301AFEFB0E00E94A70EDF01E2B75E
:100998000E94070B662777270E944A0DAEEAB2EA43
:1009A80081E998E30E94D40DDE01AB5EBD4FED9363
:1009B800FD936D937C9366247724E0E0E2BFFE010B
:1009C800E75EFD4F0190119061917081F001DE01A9
:1009D800AB5EBD4F0D901D908D919C91D0010E94F2
:1009E800D40D0E948F0B0E94840DDE01A75FBD4FBE
:1009F800ED93FD936D937C930E94980B7F936F9377
:100A0800FF93EF930E94AB0B0E94AF09AF91BF9188
:100A18008F919F910E94D40D0E94380B0E94840DE3
:100A2800DE01AF5EBD4FED93FD936D937C930E9405
:100A3800980B7F936F93FF93EF930E94AB0B0E94E9
:100A48002809AF91BF918F919F910E94D40D0E9468
:100A58006C0B0E94840DDE01A35FBD4FED93FD93E7
:100A68006D937C930E948F0BE6EFF8E265E672E4E3
:100A78000E94D40D0E94130DDE01A95FBD4FED93B6
:100A8800FC930E94B60B0E94BF0B0E94840DDE01EE
:100A9800AB50BE4FED93FD936D937C930E94BF0BBB
:100AA8000E94C80B0E94670E09F010F40C9485058B
:100AB800FE01FA93EA93E0EDF2E0FA93EA930E94DA
:100AC800B60B0E94210F0E94B60B0E94210FFE0157
:100AD800ED5EFD4F0190F081E02D0E94A20E0E9474
:100AE800210F8CE00E94AD086096FE01FA93EA930C
:100AF80085DCE0E0DE01AB50BE4FED93ED93ED9366
:100B0800EC933CCEFFCF1A930A93AA81BB8112962D
:100B18000E94030F309729F1AA81BB8114960E9485
:100B2800030F8F01309761F00230E0E01E07C0F03C
:100B3800F80131978F01AA81BB811496ED93FC933C
:100B4800AA81BB8112960E94CD0B3197AC81A083FC
:100B5800AA81BB810E94030FFF2312F00E94CD0BD4
:100B680006C0AA81BB81EFEFFFEFED93FC931981DB
:100B780008812596089524970E94B20AE0E8EA833E
:100B8800EFE3EB830E94390FEE85FF85EF3FAFEF70
:100B9800FA0749F4E885F985FA93EA93E2EEF2E078
:100BA8000E94D30BB6C0EF3FAFE7FA0749F4E885D8
:100BB800F985FA93EA93E3EEF2E00E94D30BA9C019
:100BC800AB85A73010F0E6E0EB871B85E12F1150CD
:100BD800E03019F00E94D70BF9CFEC85FD856E85C2
:100BE8007F850E94330F21F430E00E94D70B2EC07E
:100BF8003B850E94E20B09F010F40C940E060E944B
:100C0800D70B0E94E20B28F00E94EA0B0E94EF0B20
:100C1800F8CF0DC00E94E20B40F40E94EA0B0E943C
:100C2800F80B0E94FF0B3150F5CF0E94D70BEC85D3
:100C3800FD856E857F850E94040C0E94FF0B0E9433
:100C4800E20B20F00E94EA0B0E94EF0B10E0EB850C
:100C5800E11798F1AC81BD818E819F810E940B0CB8
:100C68000E94040C0E940F0C0E94CF0A0E94D90A0D
:100C78000E94EA0B0E94220E0E94110D0E2F0E9464
:100C8800130C0E941A0CFF27662777270E944A0D2B
:100C9800AC81BD818E819F810E94D40D0E94EA0B98
:100CA8000E94D40A0E94FF0BE12F1F5FE03079F603
:100CB8000E94130CEEE2EC93CACF0E941F0C3197EE
:100CC800AA85A08330302CF43195A885B985EDE24A
:100CD80003C0A885B985EBE2EC930E941F0C0E9423
:100CE8001F0C3197BF01A32FEAE00E94BD0EE05D03
:100CF800DB01EC930E941F0C3197BF01A32FEAE0A0
:100D08000E94E70EE05DDB01EC93A885B985E0E081
:100D1800EC930E94400F60960895EF9761970E94A8
:100D2800370F10E0FE01E85AFF4F0190F081E02DE7
:100D3800E887F987FE01EA5AFF4F0190F081E02D1C
:100D4800EE83FF83AE81BF810E94F00ADE01A45AC0
:100D5800BF4F0E94CD0B3197E4912E2FE03011F454
:100D68000C94A408E12FE03039F4253211F411E095
:100D780002C00E94250CE3C1E130C1F4253219F408
:100D88000E94250CDBC112E0E0E0ED8B00E02D3283
:100D980011F401E0D4C12B3219F4EBE2ED8BCFC191
:100DA800203219F4E0E2ED8BCAC102C0E23039F416
:100DB80050E013E0203311F40068C1C102C0E330F1
:100DC80091F4203310F02A3308F007C0AAE05A9FA4
:100DD800502DE22FE0535E0FB2C140E02E3211F4E5
:100DE80014E0ADC10FC0E43099F4203310F02A3379
:100DF80008F008C00062AAE04A9F402DE22FE053A5
:100E08004E0F9DC12C3619F4026015E098C104C03C
:100E1800E53011F00C94A308E22FE33659F40E9450
:100E28002E0C0E94350C0E942E0CA481AA930E94BD
:100E38003C0C84C1E53411F0E53609F404C0E6360B
:100E480011F00C947107FE017696EE87FF870E94D9
:100E5800440C0E94070F0E944B0C0E94500CAD8559
:100E6800AA2322F0AD89AB3249F017C00E94520C78
:100E78000E94DE0C0E944B0CEDE2ED8B07FF05C0D3
:100E8800ED89EA930E943C0C08C0EE85FF853196F7
:100E9800EE87FF873197AD89A08305FF46E02636A8
:100EA80061F40E94520C0E94210F4A93EB89FC893D
:100EB800FA93EA930E94DC090BC00E94520C0E942C
:100EC800210F4A932A93EC89FD89FA93EA9353DE1A
:100ED800FE0176960E94570C1EC0E33739F40E9433
:100EE800500C0E945F0C0E94570C0EC0E037C1F4F2
:100EF8000E94500C0E945F0CEE87FF87FA93EA93DA
:100F08000E94D1091E2F08600F77403011F0411759
:100F180008F001C0142F40E0E0E0EC8B30E06EC038
:100F2800E43611F0E93611F4046002C0E537A1F4A3
:100F3800EAE0EC8B01FF08C0E0E0FAEC6AE97BE349
:100F48000E94640C1AE023C0E0E1F7E260E070E080
:100F58000E94640C15E01BC0E83511F4086004C059
:100F6800E83711F00C94A208E0E1EC8B01FF08C00F
:100F7800E0E0F0E060E070E10E94640C18E007C077
:100F8800E0E0F0E160E070E00E94640C14E04030C2
:100F980011F00F7701C041E001FF08C00E94500C1A
:100FA8000E94440C14960E94070F0FC002FF07C04E
:100FB8000E94500C0E945F0C0E94A20E06C00E9464
:100FC800500C0E945F0C66277727EA87FB876C879F
:100FD8007D8702FF12C0AD85AA2342F40E94520CFD
:100FE8000E948F0E0E944B0CEDE2ED8BED89E030F4
:100FF80019F01F5F4F5F01C00B7F342F00FD14C035
:10100800151710F4351708F00FC007FF08C002FFC6
:1010180004C00B7F2D89115001C020E301C020E2DC
:101028000E94250C5150ECCF141790F4006102FF78
:1010380006C00E94690C09F0515011504150E0E37C
:10104800EA930E943C0C503009F051504150ECCFCB
:10105800312FEC89E030B9F43030A1F003FF06C03D
:10106800EE85FF852591EE87FF8705C0AE85BF8594
:101078002D91AE87BF870E94250C503009F0515042
:101088003150EACF51C00E947D0C0E94C20E2E2F13
:101098002A3030F003FF02C0295C01C0295A01C080
:1010A800205D04FD21C0213360F4A889B9898A89AB
:1010B8009B89A130E0E0BE07E0E08E07E0E09E07F4
:1010C80009F40BC0431740F4531710F000FF01C098
:1010D80010C020E207FF08C020E3006102FF04C03F
:1010E8000E94690C09F051500E94250C503009F0FB
:1010F800515031500E947D0C0E94F30E0E944B0CFF
:10110800EC89A889B9898A899B89FF276627772767
:101118000E94C20E0E94640CE889F9896A897B8959
:101128000E94330F09F0AFCF00FF08C0503031F0F4
:101138005150E0E2EA930E943C0CF8CF10E006CE52
:10114800AE81BF810E94030F0E943E0FEF966F96FB
:101158000895FF92F82E26970E94390F0E94860C58
:10116800309719F4EFEFFFEF25C0DE0116960E94C5
:10117800870E8D010E94860CEE83FF83E0E0E887EE
:10118800E987DE011A960E94870E0E94030FFA93E0
:10119800EA931A930A93E7E8F5E0FA93EA93FE01D3
:1011A8003A96FA93EA93B9DD9F01AE81BF81E0E0F8
:1011B800EC93F9010E94400F2A96FF9008957B81D5
:1011C8006A81F981E88177FB770F67FD7160972F56
:1011D8009E5781F078F0983190F4AA27BB2788278A
:1011E80008948795B795A7959A95D1F7EA23FB2395
:1011F800682305C0E8947727EE27FF2766276F77CF
:10120800769508F4606877F9A991B99189919991CF
:10121800EA17FB076807790797FB08950E94ED0A0C
:101228000E94210F0E94E3080E941C0F19F40E94DB
:10123800ED0A9CC0E6F70E94ED0AA0E0B0E080E865
:101248009FE30E947D0D92C024971A9310E00E949C
:101258008D0CE3E8F9EF62E27EE30E94D40D0E9470
:10126800920C0E94970C0E940F0C0E948D0C0E94F9
:10127800D40A0E94920C0E949C0C0E94670E09F0EE
:1012880010F40C9452090E94970CA0E0B0E080E0A2
:101298009FE30E947D0D0E94920C11E00E948D0C2C
:1012A800E0E0F0E060E87EE30E94670E09F010F4E9
:1012B8000C9464090E949C0C0E947D0D0E94920C63
:1012C800103031F00E94970C0E94DE0C0E94920CA4
:1012D8000E94970C0E948D0C0E94D40DE983FA831A
:1012E8006B837C83A1EBB4EC86E292E40E94D40D7C
:1012F800DF01CB01EDE1F5EE6DE272E40E94D40A64
:101308000E94A20CACE4B3E584E091E40E94840D51
:101318000E948D0C0E94D40D7F936F93FF93EF93DF
:10132800E981FA816B817C81A1E1BDEE8EED9FE3BD
:101338000E94840D0E94A20CAEE5BBE788EA9FE3F9
:101348000E94840DAF91BF918F919F910E94220EB0
:101358001881299608950E94170FEBEDFFE069ECBC
:101368007FE30E947D0D0E94210F6EDF2496089571
:10137800E991F991A991B991CD0105900D920020BB
:10138800E1F7FC010895A991B991EE27FF276D9126
:10139800662311F03196FBCF0895AA27BB27E99160
:1013A800F9910590002011F01196FBCFFD010895E9
:1013B8002497D4D0E0E0EA83EFE3EB831A930A930F
:1013C800EB85FC85EF3FAFEFFA0729F4BED2EAEED2
:1013D800F2E0E5D185C0EF3FAFE7FA0729F4B5D2CF
:1013E800EBEEF2E0DCD17CC0AC85AA2352F4E985AF
:1013F800FA856B857C850E94DE0CACD2B0D2EDE21A
:10140800EC93A885A73010F0E6E0E8871885E12F6F
:101418001150E03021F0AAD2FAD1ADD2F8CFB0D233
:101428000E94840D97D210E0E0E0F0E060E87FE3EE
:10143800A2D2A6D20E94670E60F098D2D5D19BD2D4
:101448001F5F173228F081D2EFEEF2E0A8D148C032
:10145800F0CF103021F483D2E0E3EC931DC0E12FEC
:101468001150E030C9F082D2D2D1CAD1D4D183D2BE
:1014780087D20E94220E0E94110D0E2F70D2D6D153
:10148800F0E074D20E94A20E0E944A0D0E94D40D70
:1014980080D286D05FD2E3CFE885E030E9F05FD232
:1014A800EEE2EC93E885E150E887EF5FA9F071D2AE
:1014B8009BD150D2E985FA856B857C850E94110DF8
:1014C8000E2F4DD2B3D1F0E064D20E94A20E0E943A
:1014D8004A0D66D03FD2E6CFAE81BF81E0E0EC9303
:1014E800198108812D960895AA81BB81EE27A10F45
:1014F800BE1FEC91089528970E94390F20E030E034
:10150800E889EC830895ED83EE85FF850E94970EA8
:10151800EE83EE85EF83EC85FD850E94970EE887C4
:10152800EC85E987E0E0EA87EB87FE013496FA93D9
:10153800EA93E6E0F0E0FA93EA930E9427028F012B
:10154800F801EA871B8720E030E00895DE01149651
:10155800A20FB31FEC91EA930C942102E0E0E88318
:10156800E9830895AE85BF850E94070F0895AC856D
:10157800BD850E94070F0895ABE3BFED8FE89EE39A
:101588000E94D40DDF01CB01E0E0F0E060E070E400
:101598000E94220E0895EC83FD836E837F83089555
:1015A8000E94260F0E947D0D0895EC81FD816E81B9
:1015B8007F810895AAEBB9EC88E193E40E94D40DE9
:1015C800A0E0B0E080EA91E40E94D40D0E94130DDF
:1015D80008950E94120F0895E0E0F0E0ED93FC9367
:1015E8000895FA93EA930E945602E5E0F0E0FA9330
:1015F800EA930C94D20CEA93E8E7F0E0FA93EA93C2
:10160800E1E0F0E0EECFF0E0EA0FFB1F0895A42D33
:10161800B0E0A050BB4FECB1EC934394E0E0E4BDE4
:101628000895EA93FA93EFB7EA930895F0E0EC5936
:10163800FA4F108393940895FA93EA930C94D20C7A
:10164800EAE9F9E969E17EE3DE01A75CBD4FED93C4
:10165800FD936D937C93E0E0DE01A35CBD4FED93B9
:10166800ED93ED93EC930895DE01AF5EBD4F0D90C1
:101678001D908D919C91D0010895E0E0F0E060E824
:101688007FE30E94670E0895FE01E75CFD4FFA9321
:10169800EA93FE01E15CFD4FFA93EA930895FE0197
:1016A800E35CFD4FFA93EA930C9477025A934A93BA
:1016B800FE01E75CFD4F0190F081E02D0895DE0109
:1016C800AC50BE4FEC93E0E0F0E0FA93EA93089553
:1016D800DE01A35FBD4F0D901D908D919C91D001AF
:1016E8000895E5E0F0E0A8CFEA93E2E0F0E0FA93AD
:1016F800EA93FA93EA930E946502F3CF0E94A20E3E
:101708000E944A0DDF01CB01E9E2FCEF6EE375E4CC
:101718000E94220E0895DE01A75FBD4F0D901D9017
:101728008D919C91D0010895FE01EB5EFD4F0190D3
:10173800119061917081F001DE01A35EBD4F0D90A3
:101748001D908D919C91D0010E94D40D0895FE01A9
:10175800E75FFD4F0190119061917081F0010E9447
:10176800210F0895FE01EB5EFD4F019011906191EC
:101778007081F0010895DE01AB50BE4F0D901D90B1
:101788008D919C91D0010895EDECFCEC6CEC7DE31F
:101798000895ED91FD913196FE93EE930895FA9395
:1017A800EA930C94BC09AC81BD818E819F81E0E0F5
:1017B800F0E060E271E40E94D40DEDCEF6DEAC8577
:1017C800BD858E859F850E94670E0895AC85BD8571
:1017D8008E859F850895D8DF0E94D40DEC87FD87FC
:1017E8006E877F873F5F0895E0E0F0E060E271E494
:1017F8000E94D40D0895EC87FD876E877F87089532
:10180800A0E0B0E080E09FE30E94840D0895BCDF73
:101818000E94D40D08950E94210F0C941209A885E6
:10182800B9851196A887B98711970895E02FE05DCB
:10183800EC93E02F0895E885F9853196E887F987D4
:1018480008952A93EF81F885FA93EA93EB85FC854E
:1018580009950895FE01E65AFF4F0190F081E02DA9
:1018680008953497DE01A65ABF4FED93FC9308956F
:10187800EF81F885FA93EA93EB85FC85099508953D
:10188800DE01A65ABF4F0D90BC91A02D0895EA879E
:10189800FB876C877D870895DDDFE3CFEA85FB85CD
:1018A8006C857D850895EE87FF87FA93EA930E94F9
:1018B800C7091E2F0895E4DF14960E94030F0895A8
:1018C800E88BF98B6A8B7B8B08950B7FED89EA9304
:1018D800FE01E95AFF4F0190F081E02DFA93EA9357
:1018E800FE01E55AFF4F0190F081E02D0995503037
:1018F8000895E889F9896A897B89AA85BB858C85D9
:101908009D850895DE011C960E94870E0E94030F94
:101918000895AD81BE818F8198850895ED83FE83FA
:101928006F8378870895ED81FE816F8178850895AA
:10193800F0DFE0E0F0E060E07FE30895A981BA819C
:101948008B819C810E94D40D0895EE81FF81FA93CA
:10195800EA930895E987FA876B877C870895AE81B3
:10196800BF811196AE83BF8311970895AA81BB8169
:101978008C819D810895EA83FB836C837D83089520
:10198800EA81FB816C817D81A985BA858B859C85DF
:101998000895A985BA858B859C850895E991F99163
:1019A800309639F086E69EE00197F1F7A8953197D1
:1019B800C9F7089530976040704009F0705808954D
:1019C800552342F4503811F4E0FF04C03196691FE2
:1019D800791F6BF050E8572711F45F93CFC05F3F32
:1019E80031F0660F000C57956795752F08955F9332
:1019F80000200AF0CFC0C8C050E8192E1522880F61
:101A0800991F9527550F879550E8072E0522660FD1
:101A1800771F7527550F67950895689401C0E89456
:101A28005F93F2DF703818F07F3F08F4A7C056E1E3
:101A3800571BAAF4519558300EF4593030F0EFEF97
:101A4800FFEF6FEF7FE777F91AC077275523B9F0D3
:101A5800EE0FFF1F661F771F5A95D1F710C0772723
:101A6800583028F0EF2FF62F672F5850F9CF55230D
:101A780031F076956795F795E7955A95D1F7002057
:101A88000AF449D15F910895689401C0E8943097A9
:101A980060407040B1F0002426F0772312F40094DF
:101AA8003AD1172E7EE1112032F07A95EE0FFF1F02
:101AB800661F111CF9CFEF2FF62F612D5F938ADF78
:101AC8005F9108954F93AF01FD01DA01AB01BC01AD
:101AD800CA01402D012C142E4F910895EA0FFB1FC7
:101AE800681F0895E095F0956095EF5FFF4F6F4F81
:101AF80008955F9381DF903871F150E8152604C08E
:101B08005F937ADF903839F1703821F1572F591BDC
:101B18002BF112F4D7DFFACF583118F0AA27BB27D8
:101B28008827583028F0AB2FB82F88275850F9CF7E
:101B3800552329F08695B795A7955A95D9F7502D2D
:101B4800512572F0CBDF38F46795F795E7957395D3
:101B580013F420C0B7DF3EDF5F910895D8F7FBCFBD
:101B6800EA1BFB0B680B51F010F40094BBDF6623F3
:101B780092F3EE0FFF1F661F7A95CBF7EE27FF272C
:101B8800662777275F910895EFEFFFEF6FE77FEF05
:101B98005F910895EFEFFFEF6FE77FE75F9108959B
:101BA8005F932ADF703851F3903841F30124089489
:101BB800791F23F41CF300203AF3ECCF0F921F9304
:101BC8002F933F934F93112722279927689FA001AE
:101BD8008F9F302D410D591F6B9F300D411D591F8F
:101BE8008E9F27D0BF9F25D06A9F23D0BE9F1DD030
:101BF800AF9F1BD0AE9F110D291F391F491F591FB9
:101C0800E32FF42F652F522F4F913F912F911F9162
:101C18000F9066232AF0550FEE1FFF1F661F02C0A4
:101C280073954BF2CDDE5F910895100D211D391F7C
:101C380002C0200D311D491F591F08955F93DCDE36
:101C4800703821F411200AF49FCFA4CF903809F4FA
:101C580095CF01240894970B1BF4D4F30020F3CFFD
:101C6800792F1F932F933F934F93112411272227E6
:101C780033274427552790E2AE17BF078607410749
:101C880030F0AE1BBF0B860B410B089401C0889443
:101C9800551F221F331F111CAA1FBB1F881F441F5B
:101CA8009A9551F7F901612D4F913F912F911F910D
:101CB800662332F0550FEE1FFF1F661F7A9543F219
:101CC8007FDE5F91089599239AF0772342F0971762
:101CD80048F029F4AE17BF07860720F031F0989432
:101CE8008894089598940894089518948894089569
:101CF8007723C2F7971798F3A9F7EA17FB0768073E
:101D080088F399F3ECCF0024AF0DB01D0895F19539
:101D1800E195F0400895F09560957095E195FF4F35
:101D28006F4F7F4F0895EF2FFF27E7FDFFEF0895CF
:101D3800FE2FFF0FFF0B6F2F7F2F08956F2F660F5A
:101D4800660B762F0895FA9FF02DEB9FF00DEA9F12
:101D5800E02DF10D0895002498E0AA0F001C0E1A3A
:101D680010F40E0E01C0A1609A95B9F7EA2FA02DC4
:101D7800089539D0F0DF0EF4E19508953F934F931D
:101D88005F93002411244427552730E2AA0FBB1F74
:101D9800881F991F001C111C441F551F0E1A1F0A6B
:101DA800460B570B28F40E0E1F1E461F571F01C067
:101DB800A1603A9559F7FD01BC01D001CA015F91B4
:101DC8004F913F910895E894A7FF02C0A1956894A8
:101DD800E7FDE195C0DFEA2F0EF4E1950895CEDF27
:101DE800FD01BC010895E894E7FF02C0E1956894FD
:101DF800A7FF04C0A19500F8039400FA0895ED9197
:101E0800FC9111970895ED91FD916D917C91139737
:101E18000895ED93FD936D937C930895E881F9817E
:101E28006A817B810895A881B9818A819B810895FF
:101E3800E883F9836A837B8308957A936A93FA9394
:101E4800EA930895182E862F612D192E972F712D3C
:101E58001B2EBF2FF12D1A2EAE2FE12D089530978E
:101E68006040704008955A934A933A932A931A937C
:101E78000A9308955D814C813B812A8119810881EB
:101E88000895AC0FBD1F05900D920197E1F70895D5
:00000001FF
