<<<<<<< HEAD
:0A0000000C94AC000C9400000C946A
:10000A0000000C9400000C9400000C9400000C9466
:10001A0000000C9400000C9400000C9452020C9402
:10002A0000000C9400000C9400000C9464020C94E0
:10003A0000000C9458020C9400000C9400000C94DC
:10004A001D020C9400000C9400000C9400000C9407
:10005A0000000C9400000C9400000C9400000C9416
:10006A0000000C9400000C9400000C9400000C9406
:10007A0038020C9400000C9400000C9400000C94BC
:10008A000000000000000000000000000000000066
:10009A00000000000000E0E2E4E6E8EAECEE00001E
:1000AA000000000000000000000000000000000046
:1000BA000000000000000000000000000000000036
:1000CA000000000000000000000000000000000026
:1000DA000000000000000000000000000000000016
:1000EA000000000000000000000000000000000006
:1000FA0000000000000000000000000000000000F6
:10010A0000000000000000000000000000000000E5
:10011A00000000000000000000003C25642C25645B
:10012A003E003C252E32662C252E66323E002D4E90
:10013A00414E000001002D4E414E00494E4600003E
:10014A00080004001C01010078053E010000F89433
:10015A00EE27ECBBF1E0F5BFE5BFE0936C00F8E1F8
:10016A00F1BDE1BD8DE0A2E0BB27ED938A95E9F7E9
:10017A0080E090E1A0E0B1E0ED930197E9F7EAE4CD
:10018A00F1E085919591009761F0A591B59105905F
:10019A001590BF01F00105900D920197E1F7FB015F
:1001AA00F0CF8BBFEFEFEDBFE0E1EEBFC0E0D5E0EF
:1001BA000C946902E0E0E0939B00E8E9E0939A007E
:1001CA00E6E0E0939D00E0919D00EF7BE0939D00C7
:1001DA00E881F9810E94830CE0939800E881E0931A
:1001EA00990014C0E0E0EBB9E8E9EAB9E6E0E09387
:1001FA009500E0919500EF7BE0939500E881F98105
:10020A000E94830CE0939000E881E9B92296089550
:10021A00EBE0E5BDE4E6E3BDE2E8E7BF0895E0917F
:10022A009B00E072E1F3E881E0939C001EC01A9300
:10023A0010E010E0E9811E1738F40E943509EC91AC
:10024A00EA93EDDF1F5FF6CF10E0E9811E1730F465
:10025A000E943509E0E0EC931F5FF7CF18812496DE
:10026A0008955D9BFECFE881ECB9219608950E941E
:10027A00200D2FEF3FEFEE81FF813197EE83FF8351
:10028A003196F9F0A885B985ED91A887B987F0E08C
:10029A002E273F2700E010E00830E0E01E0784F434
:1002AA00F901E170F070AF0136952795042E052A01
:1002BA0021F0E1E0F0EA2E273F270F5F1F4FECCF36
:1002CA00DACFF9010E94270D2A96089528970E94ED
:1002DA00220D20E030E0E889EC83E6E0ED83EE854C
:1002EA00FF850E94830CEE83EE85EF83EC85FD8506
:1002FA000E94830CE887EC85E987E0E0EA87EB87D0
:10030A00FE013496FA93EA93E6E0F0E0FA93EA9370
:10031A00AEDF8F01F801EA871B8720E030E0283042
:10032A00E0E03E0754F4DE011496A20FB31FEC91ED
:10033A00EA9397DF2F5F3F4FF2CF0E94290D619614
:10034A00089528970E943C09E0E0EA83EB83EC8356
:10035A00ED83EE83EF830E944009772342F00E94E7
:10036A0045090E94CA0AAC85BD850E94F90C0E9403
:10037A0040097F936F93FF93EF930E9445090E9470
:10038A004A09AF91BF918F919F910E94700B0E9471
:10039A0059090E9440097F936F93FF93EF930E943C
:1003AA0045090E944A09AF91BF918F919F910E947E
:1003BA005E090E94030D0E9463090E946809AA85CA
:1003CA00BB85ED93FC930E9477090E946809A88572
:1003DA00B985ED93FC93AA85BB850E94EF0CEC329C
:1003EA00A1E0FA0734F4DF01E4EDFEEFEA17FB07B8
:1003FA000CF014C0A885B9850E94EF0CEC32A1E07C
:10040A00FA0754F4A885B9850E94EF0CDF01E4EDE0
:10041A00FEEFEA17FB070CF001C001C008C0AA856D
:10042A00BB850E947A09A885B9850E947A0916C2F5
:10043A00AA93BA93EA93EFB7EA93E4B5EC3318F4C4
:10044A00E0E0E51519F0E0E0E41519F40E947F09EF
:10045A0004C044240E947F095524E991EFBFE99121
:10046A00B991A9911895EA93FA93EFB7EA931A9377
:10047A0010E010919C001C3331F499240E948909E0
:10048A00E1E0AE2E08C01E3321F40E948909AA2495
:10049A0002C00E94890919910DC0EA93EFB75394DB
:1004AA00EFBFE9911895EA93FA93EFB7EA93F3014C
:1004BA0031963F01E991EFBFF991E9911895EA93D5
:1004CA00E1E08E2EE9911895EF97EF976A9780E908
:1004DA00A0E0B0E0ECE8F0E00E942E0D00E010E0B1
:1004EA0020E030E040E050E0E7E0F0E0FA93EA9301
:1004FA0061DEE7E0F0E0FA93EA9374DE89DE78944D
:10050A00E8E8F3E10E949009AA2011F00C9428036C
:10051A00E0919A00EF7EE0939A00E4E6F5E0FA9320
:10052A00EA93E4E2F1E0FA93EA93EDB7FEB7319782
:10053A000E94080D1F930F93EDB7FEB731970E94E3
:10054A00080D3F932F9388E00E94E1072C962F9184
:10055A003F910F911F91E0919A00E061E0939A0018
:10056A00F8010E949409DE01A057BF4FED93FD9355
:10057A006D937C93F9010E949409DE01AC56BF4F3A
:10058A00ED93FD936D937C93FE01E057FF4FFA9331
:10059A00EA93FE01EA56FF4FFA93EA93EDB7FEB7E4
:1005AA003197FA93EA935F934F93FE01EC56FF4F0C
:1005BA00FA93EA93C6DE4F915F91FE017E96FA9313
:1005CA00EA93ECE2F1E0FA93EA93FE01EC56FF4F6C
:1005DA000190119061917081F0010E940A0DFE0153
:1005EA00E456FF4F0190119061917081F0010E94D1
:1005FA000A0D88E00E9451062C96FE017E96FA9317
:10060A00EA939A9214DEE1E0EA93E9E7F0E0FA93DA
:10061A00EA935A934A930E94A109E2E0EA93E9E72E
:10062A00F0E0FA93EA93FE01EF56FF4F0190F08152
:10063A00E02D0E94770C0E94A609E1E00E94A90918
:10064A00E2E00E94A90960CFFFCF1A930A93AA8118
:10065A00BB8112960E94EF0C309729F1AA81BB81C7
:10066A0014960E94EF0C8F01309761F00230E0E09F
:10067A001E07C0F0F80131978F01AA81BB81149639
:10068A00ED93FC93AA81BB8112960E94B10931971E
:10069A00AC81A083AA81BB810E94EF0CFF2312F0D8
:1006AA000E94B10906C0AA81BB81EFEFFFEFED936B
:1006BA00FC93198108814AC324970E943C09E0E807
:1006CA00EA83EFE3EB830E94220DEE85FF85EF3F7D
:1006DA00AFEFFA0749F4E885F985FA93EA93E8E374
:1006EA00F1E00E94B709B8C0EF3FAFE7FA0749F453
:1006FA00E885F985FA93EA93E9E3F1E00E94B709FC
:10070A00ABC0AB85A73010F0E6E0EB871B85E12F85
:10071A001150E03019F00E94BB09F9CFEC85FD8534
:10072A006E857F850E941C0D21F430E00E94BB0972
:10073A002EC03B850E94C60909F010F40C94B00340
:10074A000E94BB090E94C60928F00E94CE090E9495
:10075A00D309F8CF0DC00E94C60940F40E94CE0901
:10076A000E94DF090E94E6093150F5CF0E94BB09B9
:10077A00EC85FD856E857F850E94EB090E94E6095E
:10078A000E94C60920F00E94CE090E94D30910E0F7
:10079A00EB85E117A8F1AC81BD818E819F810E9412
:1007AA00F2090E94EB090E940A0D0E947F080E942A
:1007BA0059090E9463090E94CE090E940E0C0E94E8
:1007CA00FD0A0E2F0E94F9090E94000AFF276627D8
:1007DA0077270E94360BAC81BD818E819F810E9452
:1007EA00C00B0E94CE090E945E090E94E609E12F11
:1007FA001F5FE03069F60E94F909EEE2EC93C8CF78
:10080A000E94050A3197AA85A08330302CF43195CD
:10081A00A885B985EDE203C0A885B985EBE2EC931A
:10082A000E94050A0E94050A3197BF01A32FEAE038
:10083A000E94A90CE05DDB01EC930E94050A319746
:10084A00BF01A32FEAE00E94D30CE05DDB01EC9329
:10085A00A885B985E0E0EC930E94290D6096089579
:10086A00EF9761970E94200D10E0FE01E85AFF4FB2
:10087A000190F081E02DE887F987FE01EA5AFF4FDF
:10088A000190F081E02DEE83FF83AE81BF810E944B
:10089A007A09DE01A45ABF4F0E94B1093197E49147
:1008AA002E2FE03011F40C944806E12FE03039F491
:1008BA00253211F411E002C00E940B0AE3C1E130B3
:1008CA00C1F4253219F40E940B0ADBC112E0E0E000
:1008DA00ED8B00E02D3211F401E0D4C12B3219F472
:1008EA00EBE2ED8BCFC1203219F4E0E2ED8BCAC105
:1008FA0002C0E23039F450E013E0203311F400680A
:10090A00C1C102C0E33091F4203310F02A3308F059
:10091A0007C0AAE05A9F502DE22FE0535E0FB2C1E2
:10092A0040E02E3211F414E0ADC10FC0E43099F466
:10093A00203310F02A3308F008C00062AAE04A9F68
:10094A00402DE22FE0534E0F9DC12C3619F4026060
:10095A0015E098C104C0E53011F00C944706E22F67
:10096A00E33659F40E94140A0E941B0A0E94140AD0
:10097A00A481AA930E94220A84C1E53411F0E536C3
:10098A0009F404C0E63611F00C941505FE017696BA
:10099A00EE87FF870E942A0A0E94F30C0E94310AFE
:1009AA000E94360AAD85AA2322F0AD89AB3249F0FE
:1009BA0017C00E94380A0E94CA0A0E94310AEDE250
:1009CA00ED8B07FF05C0ED89EA930E94220A08C051
:1009DA00EE85FF853196EE87FF873197AD89A08333
:1009EA0005FF46E0263661F40E94380A0E940A0D85
:1009FA004A93EB89FC89FA93EA930E9496080BC002
:100A0A000E94380A0E940A0D4A932A93EC89FD89AA
:100A1A00FA93EA9351DEFE0176960E943D0A1EC0C1
:100A2A00E33739F40E94360A0E94450A0E943D0AB9
:100A3A000EC0E037C1F40E94360A0E94450AEE87CA
:100A4A00FF87FA93EA930E9445081E2F08600F77E2
:100A5A00403011F0411708F001C0142F40E0E0E0E7
:100A6A00EC8B30E06EC0E43611F0E93611F4046024
:100A7A0002C0E537A1F4EAE0EC8B01FF08C0E0E030
:100A8A00FAEC6AE97BE30E944A0A1AE023C0E0E131
:100A9A00F7E260E070E00E944A0A15E01BC0E83500
:100AAA0011F4086004C0E83711F00C944606E0E13E
:100ABA00EC8B01FF08C0E0E0F0E060E070E10E942A
:100ACA004A0A18E007C0E0E0F0E160E070E00E9446
:100ADA004A0A14E0403011F00F7701C041E001FFEB
:100AEA0008C00E94360A0E942A0A14960E94F30C31
:100AFA000FC002FF07C00E94360A0E94450A0E94E0
:100B0A008E0C06C00E94360A0E94450A662777277D
:100B1A00EA87FB876C877D8702FF12C0AD85AA230F
:100B2A0042F40E94380A0E947B0C0E94310AEDE2CC
:100B3A00ED8BED89E03019F01F5F4F5F01C00B7F2D
:100B4A00342F00FD14C0151710F4351708F00FC024
:100B5A0007FF08C002FF04C00B7F2D89115001C096
:100B6A0020E301C020E20E940B0A5150ECCF141777
:100B7A0090F4006102FF06C00E944F0A09F051502A
:100B8A0011504150E0E3EA930E94220A503009F0E2
:100B9A0051504150ECCF312FEC89E030B9F430306C
:100BAA00A1F003FF06C0EE85FF852591EE87FF873A
:100BBA0005C0AE85BF852D91AE87BF870E940B0AFF
:100BCA00503009F051503150EACF51C00E94630AA7
:100BDA000E94AE0C2E2F2A3030F003FF02C0295C8F
:100BEA0001C0295A01C0205D04FD21C0213360F4EF
:100BFA00A889B9898A899B89A130E0E0BE07E0E02B
:100C0A008E07E0E09E0709F40BC0431740F4531720
:100C1A0010F000FF01C010C020E207FF08C020E367
:100C2A00006102FF04C00E944F0A09F051500E945D
:100C3A000B0A503009F0515031500E94630A0E9449
:100C4A00DF0C0E94310AEC89A889B9898A899B89B3
:100C5A00FF27662777270E94AE0C0E944A0AE88976
:100C6A00F9896A897B890E941C0D09F0AFCF00FFC0
:100C7A0008C0503031F05150E0E2EA930E94220A53
:100C8A00F8CF10E006CEAE81BF810E94EF0C0E9421
:100C9A00270DEF966F960895FF92F82E26970E94D9
:100CAA00220D0E946C0A309719F4EFEFFFEF23C070
:100CBA00DE0116960E94730C8D010E946C0AEE8367
:100CCA00FF83E0E0E887E987DE011A960E94730A4B
:100CDA00FA93EA931A930A93EAE2F3E0FA93EA930D
:100CEA00FE013A96FA93EA93BBDD9F01AE81BF817A
:100CFA00E0E0EC93F9010E94290D2A96FF900895ED
:100D0A001A93A981BA81E0E0EC93AB81BC81EC91A2
:100D1A001E2FE03019F0E0E0EC9316C0A981BA81E9
:100D2A0011960E94EF0C309771F0E981FA81A18146
:100D3A00B281EC911E2FE03029F0A981BA81119677
:100D4A000E94B10901C010E0E12F1881259608958B
:100D5A0025970E94200DE0E0F0E0E887F9874E2F02
:100D6A00E989FA893196E98BFA8B3197E4913E2F1A
:100D7A00E03011F40C94DB070E94780AC1F0EDB759
:100D8A00FEB7FA93EA934F930E947D0A4F913E2F42
:100D9A00E03019F00E94780A09F407C00E94850A17
:100DAA001CF4EFEFFFEF04C1EACF432FFEC0353248
:100DBA0011F00C94C20750E0E989FA893591E98B60
:100DCA00FA8B303310F03A3308F007C0AAE05A9F82
:100DDA00502DE32FE0535E0FEFCF303009F4E6C019
:100DEA00EDB7FEB7FA93EA934F930E947D0A4F91AB
:100DFA002E2FEA930E941808E03039F00E94850AE3
:100E0A001CF4EFEFFFEFD4C0EBCF203009F4C5C0DC
:100E1A00422F503009F45FEFE32FE33699F40E9432
:100E2A008A0AEDB7FEB7FA93EA934F930E947D0AB6
:100E3A004F91D801EC930E94850A1CF4EFEFFFEF63
:100E4A00B7C098C0E33741F50E948A0AE52F51508E
:100E5A00E030F1F0EDB7FEB7FA93EA934F930E94B0
:100E6A007D0A4F913E2FE03019F00E94780A39F03E
:100E7A000E94850A1CF4EFEFFFEF9AC009C01F9386
:100E8A000F930F5F1F4FE32FAF91BF91EC93DECF0C
:100E9A00D801E0E0EC936EC0E1E0EA87E32FE436A4
:100EAA0011F0E93619F4E0E0EA8702C0E53711F4F7
:100EBA002AE008C0E83711F420E104C0E53209F459
:100ECA005CC074C0E0E0EE83EF83E52F5150E03060
:100EDA0011F40C94B207EDB7FEB7FA93EA934F9365
:100EEA000E947D0A4F913E2FE13238F40E94850A12
:100EFA001CF4EFEFFFEF5CC017C0EA85E03039F46D
:100F0A003D3219F4EFEFEA87E0CFE1E0EA872031DA
:100F1A0031F43A930E942208E03031F007C03A9344
:100F2A000E941008E03011F4432F17C0313610F038
:100F3A00375505C0313410F0375301C03053E22F12
:100F4A00AE81BF81F0E00E94930CDF01E32FF0E055
:100F5A00EA0FFB1FEE83FF83B8CF0E948A0AEA8555
:100F6A00AE81BF81F0E0E7FDFFEF0E94930CD8014C
:100F7A00ED93FC930E94050A18C0EDB7FEB7FA93E9
:100F8A00EA934F930E947D0A4F91E31771F00E94F2
:100F9A00850A1CF4EFEFFFEF0BC0E885F98530975F
:100FAA0019F4EFEFFFEF04C001C0DACEE885F98546
:100FBA000E94270D63960895FF92F82E23971A939D
:100FCA000A93DE0117960E94730A309719F4EFEF1D
:100FDA00FFEF1CC0DE0111960E94730C8D01DE0129
:100FEA0017960E94730AEB83FC83DE0115960E9412
:100FFA00730AFA93EA931A930A93E5E8F6E0FA93E6
:10100A00EA93FE013896FA93EA93A2DE19810881DF
:10101A002596FF900895E1E0F991F03310F0FA3344
:10102A0008F0EE270895E1E0F991F03229F0F9305D
:10103A0010F0FE3008F0EE270895E1E0F991F05340
:10104A0040F0FA3038F0FF75F750FA3010F0F0310E
:10105A0008F0EE270895E991F991A991B991CD0186
:10106A0005900D920020E1F7FC010895A991B9912C
:10107A00EE27FF276D91662311F03196FBCF089575
:10108A00AA27BB27E991F9910590002011F0119642
:10109A00FBCFFD0108957B816A81F981E88177FBA5
:1010AA00770F67FD7160972F9E5781F078F098311E
:1010BA0090F4AA27BB27882708948795B795A79500
:1010CA009A95D1F7EA23FB23682305C0E89477278A
:1010DA00EE27FF2766276F77769508F4606877F919
:1010EA00A991B99189919991EA17FB07680779073C
:1010FA0097FB08950E9477090E940A0D0E945008E2
:10110A000E94030D19F40E94770909C0E6F70E94AC
:10111A007709A0E0B0E080E89FE30E94690B24967B
:10112A0008952497A4D0E0E0EA83EFE3EB831A93CF
:10113A000A93EB85FC85EF3FAFEFFA0729F4F0D16C
:10114A00E0E4F1E00FD188C0EF3FAFE7FA0729F4F6
:10115A00E7D1E1E4F1E006D17FC0AC85AA2352F4DD
:10116A00E985FA856B857C850E94CA0ADED1E2D1BF
:10117A00EDE2EC93A885A73010F0E6E0E887188541
:10118A00E12F1150E03021F0DCD127D1DFD1F8CFA7
:10119A00E2D10E94700BC9D110E0E0E0F0E060E813
:1011AA007FE3D4D1D8D10E94530C60F0CAD102D1C6
:1011BA00CDD11F5F173228F0B3D1E5E4F1E0D2D0E8
:1011CA004BC0F0CF103021F4B5D1E0E3EC9320C04E
:1011DA00E12F1150E030E1F0B4D1FFD0F7D00E94F6
:1011EA000A0D0E947F08B2D1B6D10E940E0C0E944D
:1011FA00FD0A0E2F9FD1FFD0F0E0A3D10E948E0CE2
:10120A000E94360B0E94C00BAFD153D08ED1E0CFD3
:10121A00E885E030E9F08ED1EEE2EC93E885E15022
:10122A00E887EF5FA9F0A0D1C5D07FD1E985FA851B
:10123A006B857C850E94FD0A0E2F7CD1DCD0F0E004
:10124A0093D10E948E0C0E94360B33D06ED1E6CF1A
:10125A00AE81BF81E0E0EC93198108812D96089553
:10126A00E12FF0E0AA81BB81AE0FBF1F0895E0E035
:10127A00E883E9830895AE85BF850E94F30C08953B
:10128A00AC85BD850E94F30C0895A1EEBAE784E906
:10129A009EE30E94C00BDF01CB01E0E0F0E060E8D2
:1012AA0070E40E940E0C0895EC83FD836E837F83A5
:1012BA0008950E940F0D0E94690B0895EC81FD812B
:1012CA006E817F810895AAEBB9EC88E193E40E94CC
:1012DA00C00BA0E0B0E088EC91E40E94C00B0E9431
:1012EA00FF0A08950E94FE0C0895E0E0F0E0ED93F5
:1012FA00FC930895A42DB0E0A050BB4FECB1EC9341
:10130A004394E0E0E4BD0895E92DF0E0EC59FA4F8A
:10131A00108393940895FA93EA930C94BE0A0E9458
:10132A008E0C0E94360BDF01CB01E0E0F0E06AE7A9
:10133A0074E40E940E0C08950E946B01E3E0F0E051
:10134A00EACFFA93EA93F8CFEA93E8E7F0E0FA9360
:10135A00EA93E1E0F0E0F5CFED91FD913196FE934D
:10136A00EE930895FA93EA930C943008AC81BD8108
:10137A008E819F81E0E0F0E060E271E40E94C00BA0
:10138A0093CF9CDFAC85BD858E859F850E94530CCB
:10139A000895AC85BD858E859F850895EDECFCEC9E
:1013AA006CEC7DE30E94C00BEC87FD876E877F871C
:1013BA003F5F0895E0E0F0E060E271E40E94C00B54
:1013CA000895EC87FD876E877F870895A0E0B0E0D7
:1013DA0080E09FE30E94700B0895EDECFCEC6CEC4E
:1013EA007DE30E94C00B0895A885B9851196A88748
:1013FA00B98711970895E02FE05DEC93E02F0895E7
:10140A00E885F9853196E887F98708952A93EF8167
:10141A00F885FA93EA93EB85FC8509950895FE0110
:10142A00E65AFF4F0190F081E02D08953497DE01CE
:10143A00A65ABF4FED93FC930895EF81F885FA936E
:10144A00EA93EB85FC8509950895DE01A65ABF4FFC
:10145A000D90BC91A02D0895EA87FB876C877D8744
:10146A000895DDDFE3CFEA85FB856C857D850895E8
:10147A00EE87FF87FA93EA930E943B081E2F08958E
:10148A00E4DF14960E94EF0C0895E88BF98B6A8BBF
:10149A007B8B08950B7FED89EA93FE01E95AFF4F92
:1014AA000190F081E02DFA93EA93FE01E55AFF4F8D
:1014BA000190F081E02D099550300895E889F98965
:1014CA006A897B89AA85BB858C859D850895DE01FD
:1014DA001C960E94730C0E94EF0C08950E94730CD4
:1014EA000E94EF0C08953A930E941808E03008957C
:1014FA00ED85FE85FA93EA93E989FA8909950895B3
:10150A00AB85BC85AC91A0300895EF85F8893497F6
:10151A00EF87F88BAF85B88914960D911C910895C1
:10152A00EE81FF81FA93EA930895E987FA876B8738
:10153A007C870895AE81BF811196AE83BF831197D0
:10154A000895AA81BB818C819D810895EA83FB83DA
:10155A006C837D830895EA81FB816C817D81A985F5
:10156A00BA858B859C850895A985BA858B859C85C6
:10157A000895E991F991309639F086E69EE001974F
:10158A00F1F7A8953197C9F70895309760407040F0
:10159A0009F070580895552342F4503811F4E0FFC9
:1015AA0004C03196691F791F6BF050E8572711F470
:1015BA005F93CFC05F3F31F0660F000C5795679578
:1015CA00752F08955F9300200AF0CFC0C8C050E875
:1015DA00192E1522880F991F9527550F879550E8C0
:1015EA00072E0522660F771F7527550F67950895F1
:1015FA00689401C0E8945F93F2DF703818F07F3F77
:10160A0008F4A7C056E1571BAAF4519558300EF4B6
:10161A00593030F0EFEFFFEF6FEF7FE777F91AC03D
:10162A0077275523B9F0EE0FFF1F661F771F5A95CC
:10163A00D1F710C07727583028F0EF2FF62F672FF1
:10164A005850F9CF552331F076956795F795E79578
:10165A005A95D1F700200AF449D15F910895689408
:10166A0001C0E894309760407040B1F0002426F041
:10167A00772312F400943AD1172E7EE1112032F02A
:10168A007A95EE0FFF1F661F111CF9CFEF2FF62F69
:10169A00612D5F938ADF5F9108954F93AF01FD013A
:1016AA00DA01AB01BC01CA01402D012C142E4F9165
:1016BA000895EA0FFB1F681F0895E095F09560955D
:1016CA00EF5FFF4F6F4F08955F9381DF903871F19D
:1016DA0050E8152604C05F937ADF903839F17038E4
:1016EA0021F1572F591B2BF112F4D7DFFACF5831BA
:1016FA0018F0AA27BB278827583028F0AB2FB82F15
:10170A0088275850F9CF552329F08695B795A7957C
:10171A005A95D9F7502D512572F0CBDF38F46795D9
:10172A00F795E795739513F420C0B7DF3EDF5F9115
:10173A000895D8F7FBCFEA1BFB0B680B51F010F4A6
:10174A000094BBDF662392F3EE0FFF1F661F7A95A4
:10175A00CBF7EE27FF27662777275F910895EFEFEC
:10176A00FFEF6FE77FEF5F910895EFEFFFEF6FE70E
:10177A007FE75F9108955F932ADF703851F39038BD
:10178A0041F301240894791F23F41CF300203AF34F
:10179A00ECCF0F921F932F933F934F93112722273A
:1017AA009927689FA0018F9F302D410D591F6B9F6C
:1017BA00300D411D591F8E9F27D0BF9F25D06A9F8C
:1017CA0023D0BE9F1DD0AF9F1BD0AE9F110D291FE6
:1017DA00391F491F591FE32FF42F652F522F4F919D
:1017EA003F912F911F910F9066232AF0550FEE1FFC
:1017FA00FF1F661F02C073954BF2CDDE5F910895FD
:10180A00100D211D391F02C0200D311D491F591FFE
:10181A0008955F93DCDE703821F411200AF49FCF1B
:10182A00A4CF903809F495CF01240894970B1BF4A0
:10183A00D4F30020F3CF792F1F932F933F934F9325
:10184A0011241127222733274427552790E2AE1760
:10185A00BF078607410730F0AE1BBF0B860B410B53
:10186A00089401C08894551F221F331F111CAA1FF8
:10187A00BB1F881F441F9A9551F7F901612D4F919B
:10188A003F912F911F91662332F0550FEE1FFF1FD4
:10189A00661F7A9543F27FDE5F91089599239AF045
:1018AA00772342F0971748F029F4AE17BF07860747
:1018BA0020F031F0989488940895989408940895A3
:1018CA001894889408957723C2F7971798F3A9F77D
:1018DA00EA17FB07680788F399F3ECCF0024AF0DEA
:1018EA00B01D0895F195E195F0400895F095609541
:1018FA007095E195FF4F6F4F7F4F0895EF2FFF27A8
:10190A00E7FDFFEF0895FE2FFF0FFF0B6F2F7F2FCD
:10191A0008956F2F660F660B762F0895FA9FF02DA4
:10192A00EB9FF00DEA9FE02DF10D0895002498E059
:10193A00AA0F001C0E1A10F40E0E01C0A1609A958F
:10194A00B9F7EA2FA02D089539D0F0DF0EF4E1950A
:10195A0008953F934F935F930024112444275527FA
:10196A0030E2AA0FBB1F881F991F001C111C441FBD
:10197A00551F0E1A1F0A460B570B28F40E0E1F1E70
:10198A00461F571F01C0A1603A9559F7FD01BC01D6
:10199A00D001CA015F914F913F910895E894A7FF42
:1019AA0002C0A1956894E7FDE195C0DFEA2F0EF425
:1019BA00E1950895CEDFFD01BC010895E894E7FFA3
:1019CA0002C0E1956894A7FF04C0A19500F80394AA
:1019DA0000FA0895ED91FC9111970895ED91FD910A
:1019EA006D917C9113970895ED93FD936D937C937C
:1019FA000895E881F9816A817B810895E883F983F2
:101A0A006A837B83089560E070E07A936A93FA931D
:101A1A00EA930895182E862F612D192E972F712D6E
:101A2A001B2EBF2FF12D1A2EAE2FE12D08953097C0
:101A3A006040704008955A934A933A932A931A93AE
:101A4A000A9308955D814C813B812A81198108811D
:101A5A000895AC0FBD1F05900D928A95E1F7089580
=======
:0C0000000C9486010C9400000C9400008D
:10000C000C9400000C9400000C9400000C94000064
:10001C000C9400000C9400000C947E030C940000D3
:10002C000C9400000C9400000C948A030C940000B7
:10003C000C9400000C9484030C9400000C943D036D
:10004C000C9400000C9400000C9400000C94000024
:10005C000C9400000C9400000C9400000C94000014
:10006C000C9400000C9400000C9400000C945803A9
:10007C000C9400000C9400000C9400000C940000F4
:10008C000000000000000000000000000000000064
:10009C000000000000000000000000000000000054
:1000AC000000000000000000000000000000000044
:1002CC00000000003C25642C25642C25643E002590
:1002DC00662C2025662C2025662C2025660A00001D
:1002EC002D4E414E000001002D4E414E00494E4610
:1002FC0000000A000400C60201007805F2020000AA
:10030C00F894EE27ECBBF1E0F5BFE5BFE0936C0091
:10031C00F8E1F1BDE1BD8DE0A2E0BB27ED938A953C
:10032C00E9F780E090E1A0E0B1E0ED930197E9F707
:10033C00EEEFF2E085919591009761F0A591B59162
:10034C0005901590BF01F00105900D920197E1F712
:10035C00FB01F0CF8BBFEFEFEDBFE0E1EEBFC0E0F4
:10036C00D5E00C949703E0E0E0939B00E8E9E09380
:10037C009A00E6E0E0939D00E0919D00EF7BE09316
:10038C009D00E881F9810E94B710E0939800E88104
:10039C00E093990014C0E0E0EBB9E8E9EAB9E6E0D3
:1003AC00E0939500E0919500EF7BE0939500E88158
:1003BC00F9810E94B710E0939000E881E9B9229688
:1003CC000895EDE0E5BDE8E2E3BDE2E810C0E7E04A
:1003DC00E3BFE1E80CC0EDE1EEBDEFEFF0E0F9BDFD
:1003EC00E8BDE0EBF4E0F7BDE6BDE7B7E860E7BFDA
:1003FC000895E0919B00E072E1F3E881E0939C00AA
:10040C0023C01A930A9310E000E010E00E94AF0C96
:10041C00E03031F00E94AF0CEA93EBDF1F5FF6CFB8
:10042C0000E0011750F4AA81BB811196AA83BB830B
:10043C001197E0E0EC930F5FF4CF19810881EAC0CB
:10044C005D9BFECFE881ECB9219608950E9469115D
:10045C002FEF3FEFEE81FF813197EE83FF833196D3
:10046C00F9F0A885B985ED91A887B987F0E02E271A
:10047C003F2700E010E00830E0E01E0784F4F901AB
:10048C00E170F070AF0136952795042E052A21F006
:10049C00E1E0F0EA2E273F270F5F1F4FECCFDACFBA
:1004AC00F9010E9470112A9608950E94B60CE6E09C
:1004BC000E94BE0C2830E0E03E072CF40E94E10CB8
:1004CC002F5F3F4FF7CF0EC00E94B60CE4E00E94A6
:1004DC00BE0C2830E0E03E072CF40E94E10C2F5FAC
:1004EC003F4FF7CF0E9472116196089528970E9492
:1004FC00E90CE0E0EA83EB83EC83ED83EE83EF839E
:10050C000E94ED0C772342F00E94F20C0E94FE0E2A
:10051C00AC85BD850E9432110E94ED0C7F936F93C8
:10052C00FF93EF930E94F20C0E94F70CAF91BF91D6
:10053C008F919F910E94A40F0E94060D0E94ED0CBA
:10054C007F936F93FF93EF930E94F20C0E94F70C32
:10055C00AF91BF918F919F910E940B0D0E94411101
:10056C000E94100D0E94150DAA85BB85ED93FC937E
:10057C000E94240D0E94150DA885B985ED93FC935E
:10058C00AA85BB850E942811EC32A1E0FA0734F44D
:10059C00DF01E4EDFEEFEA17FB070CF014C0A885B1
:1005AC00B9850E942811EC32A1E0FA0754F4A88511
:1005BC00B9850E942811DF01E4EDFEEFEA17FB0775
:1005CC000CF001C001C008C0AA85BB850E94270D94
:1005DC00A885B9850E94270D0C941E07E1E0EA93CB
:1005EC00E9E7F0E0FA93EA93ED81FE810E942C0D8D
:1005FC00E2E0EA93E9E7F0E0FA93EA93EB81FC811D
:10060C000E94AB100E942C0DE1E00E94360DE2E03E
:10061C000E94360D249608950E946B1110E020E084
:10062C0030E0B0910505A0E0E09106050E943E0D7A
:10063C009F01B0910305A0E0E09104050E943E0DDE
:10064C00AC81BD81ED93FC9310E0EE811E1750F44C
:10065C00E12FF0E0AF81B885AE0FBF1FE0E0EC9367
:10066C001F5FF3CFF9010E94721129960895AA9386
:10067C00BA93EA93EFB7EA93E4B5E93118F4E0E002
:10068C00E51519F0E0E0E41519F40E94420D04C0E0
:10069C0044240E94420D5524E991EFBFE991B99190
:1006AC00A99118950E944C0D1A9310E010919C0082
:1006BC001C3319F4E0E0E81509F007C0C39B02C035
:1006CC00C39801C0C39A99240EC01E3319F4E0E0FC
:1006DC00E81509F006C0E92D0E94510DE1E08E2EBF
:1006EC0005C0882019F4E92D0E94510D199114C0F0
:1006FC00EA93EFB75394EFBFE99118950E944C0D14
:10070C00F30131963F0108C00E944C0DF601319661
:10071C006F01E0E0EDBDECBDE991EFBFF991E9911E
:10072C001895EF972397D2508AE392E0A0E0B0E0BF
:10073C00ECE8F0E00E94771100E010E020E030E0FF
:10074C0040E050E0E7E0F0E0FA93EA930CDEE7E0FB
:10075C00F0E0FA93EA931FDE34DE39DE3CDE789467
:10076C00B99ABA9ABB9AE8E8F3E10E94570DC1987E
:10077C00C29A66247724E0E0E2BF882011F40C943E
:10078C005904C19AE0919A00EF7EE0939A00E4E656
:10079C00F5E0FA93EA93E0EDF2E0FA93EA93EDB721
:1007AC00FEB731970E9446111F930F93EDB7FEB71A
:1007BC0031970E9446113F932F93FE01E25CFD4F4F
:1007CC00662777270E9448118CE00E94CB0A60961E
:1007DC002F913F910F911F91FE01EE5CFD4F019007
:1007EC00F081E02D3097B1F4E0E0DE01AE5EBD4F5C
:1007FC00ED93ED93ED93EC93DE01A25FBD4FED9382
:10080C00ED93ED93EC93DE01A65FBD4FED93ED936D
:10081C00ED93EC93F8010E945B0DDE01A65CBD4FDD
:10082C00ED93FD936D937C93F9010E945B0DDE01BA
:10083C00A25CBD4FED93FD936D937C93FE01E65C42
:10084C00FD4FFA93EA93FE01E05CFD4FFA93EA93B5
:10085C00EDB7FEB73197FA93EA935F934F93FE018E
:10086C00E25CFD4FFA93EA9341DE4F915F915A930C
:10087C004A93FE01E65CFD4F0190F081E02DFA9366
:10088C00EA93ACDEE0E0DE01A850BE4FED93ED93B1
:10089C00ED93EC93CC24DD24ECBD8824E0919A00FC
:1008AC00E061E0939A00F601AFEFB0E00E94CC104B
:1008BC00DF01ECB50E943E0D662777270E946A0F78
:1008CC00AEEDB8E38EE89DE30E94F40FDE01A85074
:1008DC00BE4FED93FD936D937C93DE01AE5CBD4FEB
:1008EC000D90BC91A02D0E94C7100E944F110E9428
:1008FC008710C0F4E0E0F0E0FA93EA93FA93EA93FD
:10090C006DDECC24DD24E0E0DE01A65CBD4FED9372
:10091C00ED93ED93EC93DE01A25CBD4FED93ED9363
:10092C00ED93EC93E1E00E94680DE0E0F5E0FA93C2
:10093C00EA934A92FE01E95DFD4FFA93EA936CDE6D
:10094C00DE01A05DBD4FED93FC93E5E0F0E00E946D
:10095C00570DE2E00E94680DE0E0F5E0FA93EA93AF
:10096C004A92FE01EB5DFD4FFA93EA9355DE0E942D
:10097C00AB10DE01A25DBD4FED93FC93E5E0F0E022
:10098C000E94570DFE01E05DFD4F0190F081E02DBE
:10099C000E94740DDE01A65DBD4FED93FD936D932A
:1009AC007C93FE01E25DFD4F0190F081E02D0E94F1
:1009BC00740DDE01AA5DBD4FED93FD936D937C9399
:1009CC000E94810DDE01A65DBD4F0D901D908D9195
:1009DC009C91D0010E94A40FDF01CB01E0E0F0E07C
:1009EC0060E070E40E944210DE01A25EBD4FED9308
:1009FC00FD936D937C93DE01AA5DBD4F0D901D9010
:100A0C008D919C91D001FE01E65DFD4F01901190FE
:100A1C0061917081F0010E949D0FDF01CB01EBE32E
:100A2C00FFED6FE87EE30E944210DE01A65EBD4F33
:100A3C00ED93FD936D937C93F301AFEFB0E00E94C7
:100A4C00CC10DF01E2B70E943E0D662777270E948B
:100A5C006A0FAEEAB2EA81E998E30E94F40FDE0174
:100A6C00AA5EBD4FED93FD936D937C936624772422
:100A7C00E0E0E2BF0E948A0D0E94631161F4DE0186
:100A8C00A65EBD4F0D901D908D919C91D0010E9442
:100A9C00631109F46EC00E94930D7F936F93FF93C3
:100AAC00EF930E949F0D0E94C60BAF91BF918F9147
:100ABC009F910E94F40FDE01AE5EBD4F0D901D9014
:100ACC008D919C91D0010E94A40FDE01AE5EBD4FB2
:100ADC00ED93FD936D937C930E94930D7F936F9395
:100AEC00FF93EF930E949F0D0E943F0BAF91BF911C
:100AFC008F919F910E94F40FDE01A25FBD4F0D906C
:100B0C001D908D919C91D0010E94A40FDE01A25FDB
:100B1C00BD4FED93FD936D937C93FE01E65EFD4F0F
:100B2C000190119061917081F001DE01AA5EBD4FC0
:100B3C000D901D908D919C91D0010E94F40F0E94FC
:100B4C00B40D0E94A40FDE01A65FBD4FED93FD9383
:100B5C006D937C930E94B40DE6EFF8E265E672E4C7
:100B6C000E94F40F0E94330FDE01A85FBD4FED937E
:100B7C00FC93FE01EA5EFD4F019011906191708132
:100B8C00F0010E94BD0D0E94A40FDE01AC50BE4FBF
:100B9C00ED93FD936D937C930E94BD0D0E94C60D49
:100BAC000E94871009F010F40C941506FE01FA93BC
:100BBC00EA93EBEDF2E0FA93EA93FE01EE5DFD4F62
:100BCC000190119061917081F0010E944811FE0119
:100BDC00EE5BFD4F0190119061917081F0010E94CC
:100BEC0048110E94810D0E944811FE01E25BFD4FED
:100BFC000190119061917081F0010E94481180E187
:100C0C000E943C096496FE01FA93EA93FADBE0E059
:100C1C00DE01AC50BE4FED93ED93ED93EC93ADCD67
:100C2C00FFCF1A930A93AA81BB8112960E942811B6
:100C3C00309729F1AA81BB8114960E9428118F014B
:100C4C00309761F00230E0E01E07C0F0F8013197F8
:100C5C008F01AA81BB811496ED93FC93AA81BB8171
:100C6C0012960E94CB0D3197AC81A083AA81BB81D7
:100C7C000E942811FF2312F00E94CB0D06C0AA81FE
:100C8C00BB81EFEFFFEFED93FC931981088148C313
:100C9C0024970E94E90CE0E8EA83EFE3EB830E94DF
:100CAC006B11EE85FF85EF3FAFEFFA0749F4E8854E
:100CBC00F985FA93EA93ECEEF2E00E94D10DB6C0FE
:100CCC00EF3FAFE7FA0749F4E885F985FA93EA9321
:100CDC00EDEEF2E00E94D10DA9C0AB85A73010F06B
:100CEC00E6E0EB871B85E12F1150E03019F00E94F4
:100CFC00D50DF9CFEC85FD856E857F850E945F1142
:100D0C0021F430E00E94D50D2EC03B850E94E00DF1
:100D1C0009F010F40C949D060E94D50D0E94E00D74
:100D2C0028F00E94E80D0E94ED0DF8CF0DC00E9436
:100D3C00E00D40F40E94E80D0E94F60D0E94FD0D9E
:100D4C003150F5CF0E94D50DEC85FD856E857F85E4
:100D5C000E94020E0E94FD0D0E94E00D20F00E94E8
:100D6C00E80D0E94ED0D10E0EB85E11798F1AC81D8
:100D7C00BD818E819F810E94090E0E94020E0E94ED
:100D8C000D0E0E94060D0E94100D0E94E80D0E948F
:100D9C0042100E94310F0E2F0E94110E0E94180E4D
:100DAC00FF27662777270E946A0FAC81BD818E8151
:100DBC009F810E94F40F0E94E80D0E940B0D0E946F
:100DCC00FD0DE12F1F5FE03079F60E94110EEEE26F
:100DDC00EC93CACF0E941D0E3197AA85A0833030A8
:100DEC002CF43195A885B985EDE203C0A885B985A9
:100DFC00EBE2EC930E941D0E0E941D0E3197BF0179
:100E0C00A32FEAE00E94E210E05DDB01EC930E946C
:100E1C001D0E3197BF01A32FEAE00E940C11E05D7B
:100E2C00DB01EC93A885B985E0E0EC930E9472118C
:100E3C0060960895EF9761970E94691110E0FE018A
:100E4C00E85AFF4F0190F081E02DE887F987FE0109
:100E5C00EA5AFF4F0190F081E02DEE83FF83AE81C3
:100E6C00BF810E94270DDE01A45ABF4F0E94CB0DFB
:100E7C003197E4912E2FE03011F40C943309E12FCB
:100E8C00E03039F4253211F411E002C00E94230E37
:100E9C00E3C1E130C1F4253219F40E94230EDBC109
:100EAC0012E0E0E0ED8B00E02D3211F401E0D4C152
:100EBC002B3219F4EBE2ED8BCFC1203219F4E0E2C6
:100ECC00ED8BCAC102C0E23039F450E013E020339C
:100EDC0011F40068C1C102C0E33091F4203310F06A
:100EEC002A3308F007C0AAE05A9F502DE22FE05396
:100EFC005E0FB2C140E02E3211F414E0ADC10FC050
:100F0C00E43099F4203310F02A3308F008C0006262
:100F1C00AAE04A9F402DE22FE0534E0F9DC12C3684
:100F2C0019F4026015E098C104C0E53011F00C947E
:100F3C003209E22FE33659F40E942C0E0E94330E34
:100F4C000E942C0EA481AA930E943A0E84C1E5340F
:100F5C0011F0E53609F404C0E63611F00C940008E3
:100F6C00FE017696EE87FF870E94420E0E942C119E
:100F7C000E94490E0E944E0EAD85AA2322F0AD8927
:100F8C00AB3249F017C00E94500E0E94FE0E0E9418
:100F9C00490EEDE2ED8B07FF05C0ED89EA930E9447
:100FAC003A0E08C0EE85FF853196EE87FF873197A4
:100FBC00AD89A08305FF46E0263661F40E94500EF1
:100FCC000E9448114A93EB89FC89FA93EA930E9498
:100FDC00130C0BC00E94500E0E9448114A932A9386
:100FEC00EC89FD89FA93EA9353DEFE0176960E9412
:100FFC00550E1EC0E33739F40E944E0E0E945D0E52
:10100C000E94550E0EC0E037C1F40E944E0E0E9495
:10101C005D0EEE87FF87FA93EA930E94080C1E2F51
:10102C0008600F77403011F0411708F001C0142F01
:10103C0040E0E0E0EC8B30E06EC0E43611F0E936D5
:10104C0011F4046002C0E537A1F4EAE0EC8B01FF77
:10105C0008C0E0E0FAEC6AE97BE30E94620E1AE059
:10106C0023C0E0E1F7E260E070E00E94620E15E060
:10107C001BC0E83511F4086004C0E83711F00C947B
:10108C003109E0E1EC8B01FF08C0E0E0F0E060E04A
:10109C0070E10E94620E18E007C0E0E0F0E160E051
:1010AC0070E00E94620E14E0403011F00F7701C026
:1010BC0041E001FF08C00E944E0E0E94420E1496A1
:1010CC000E942C110FC002FF07C00E944E0E0E94FE
:1010DC005D0E0E94C21006C00E944E0E0E945D0E54
:1010EC0066277727EA87FB876C877D8702FF12C00C
:1010FC00AD85AA2342F40E94500E0E94AF100E94AC
:10110C00490EEDE2ED8BED89E03019F01F5F4F5F7A
:10111C0001C00B7F342F00FD14C0151710F43517C8
:10112C0008F00FC007FF08C002FF04C00B7F2D8919
:10113C00115001C020E301C020E20E94230E515047
:10114C00ECCF141790F4006102FF06C00E94670EEA
:10115C0009F0515011504150E0E3EA930E943A0ECD
:10116C00503009F051504150ECCF312FEC89E03028
:10117C00B9F43030A1F003FF06C0EE85FF85259150
:10118C00EE87FF8705C0AE85BF852D91AE87BF87E3
:10119C000E94230E503009F051503150EACF51C00B
:1011AC000E947B0E0E94E7102E2F2A3030F003FF96
:1011BC0002C0295C01C0295A01C0205D04FD21C078
:1011CC00213360F4A889B9898A899B89A130E0E030
:1011DC00BE07E0E08E07E0E09E0709F40BC0431762
:1011EC0040F4531710F000FF01C010C020E207FFBD
:1011FC0008C020E3006102FF04C00E94670E09F0E2
:10120C0051500E94230E503009F0515031500E9421
:10121C007B0E0E9418110E94490EEC89A889B9898D
:10122C008A899B89FF27662777270E94E7100E94EF
:10123C00620EE889F9896A897B890E945F1109F03D
:10124C00AFCF00FF08C0503031F05150E0E2EA93CC
:10125C000E943A0EF8CF10E006CEAE81BF810E94FC
:10126C0028110E947011EF966F960895FF92F82E38
:10127C0026970E946B110E94840E309719F4EFEFA1
:10128C00FFEF23C0DE0116960E94A7108D010E946D
:10129C00840EEE83FF83E0E0E887E987DE011A968F
:1012AC000E948B0EFA93EA931A930A93E7E1F6E005
:1012BC00FA93EA93FE013A96FA93EA93BBDD9F0107
:1012CC00AE81BF81E0E0EC93F9010E9472112A9685
:1012DC00FF9008951A93A981BA81E0E0EC93AB8159
:1012EC00BC81EC911E2FE03019F0E0E0EC9316C0BD
:1012FC00A981BA8111960E942811309771F0E98169
:10130C00FA81A181B281EC911E2FE03029F0A981E4
:10131C00BA8111960E94CB0D01C010E0E12F18810B
:10132C002596089525970E946911E0E0F0E0E88782
:10133C00F9874E2FE989FA893196E98BFA8B319727
:10134C00E4913E2FE03011F40C94C50A0E94900EEB
:10135C00C1F0EDB7FEB7FA93EA934F930E94950E46
:10136C004F913E2FE03019F00E94900E09F407C007
:10137C000E949D0E1CF4EFEFFFEF03C1EACF432F49
:10138C00FDC0353211F00C94AC0A50E0E989FA89B1
:10139C003591E98BFA8B303310F03A3308F007C0F3
:1013AC00AAE05A9F502DE32FE0535E0FEFCF303061
:1013BC0009F4E5C0EDB7FEB7FA93EA934F930E9498
:1013CC00950E4F912E2FEA930E94DB0BE03039F0F3
:1013DC000E949D0E1CF4EFEFFFEFD3C0EBCF20303B
:1013EC0009F4C4C0422F503009F45FEFE32FE33609
:1013FC0099F40E94A20EEDB7FEB7FA93EA934F93BD
:10140C000E94950E4F91D801EC930E949D0E1CF4F6
:10141C00EFEFFFEFB6C097C0E33741F50E94A20E85
:10142C00E52F5150E030F1F0EDB7FEB7FA93EA93A7
:10143C004F930E94950E4F913E2FE03019F00E9471
:10144C00900E39F00E949D0E1CF4EFEFFFEF99C047
:10145C0009C01F930F930F5F1F4FE32FAF91BF91E5
:10146C00EC93DECFD801E0E0EC936DC0E1E0EA87CD
:10147C00E32FE43611F0E93619F4E0E0EA8702C014
:10148C00E53711F42AE008C0E83711F420E104C074
:10149C00E53209F45BC073C0E0E0EE83EF83E52F27
:1014AC005150E03011F40C949C0AEDB7FEB7FA934E
:1014BC00EA934F930E94950E4F913E2FE13238F4F0
:1014CC000E949D0E1CF4EFEFFFEF5BC017C0EA8586
:1014DC00E03039F43D3219F4EFEFEA87E0CFE1E088
:1014EC00EA87203131F43A930E94E50BE03031F079
:1014FC0007C03A930E94D30BE03011F4432F16C06F
:10150C00313610F0375505C0313410F0375301C067
:10151C003053E22FAE81BF81F0E00E94CC10DF018E
:10152C00E32F0E943E0DEE83FF83B9CF0E94A20EE3
:10153C00EA85AE81BF81F0E0E7FDFFEF0E94CC10A1
:10154C00D801ED93FC930E941D0E18C0EDB7FEB7A9
:10155C00FA93EA934F930E94950E4F91E31771F013
:10156C000E949D0E1CF4EFEFFFEF0BC0E885F98590
:10157C00309719F4EFEFFFEF04C001C0DBCEE88524
:10158C00F9850E94701163960895FF92F82E2397A7
:10159C001A930A93DE0117960E948B0E309719F45A
:1015AC00EFEFFFEF1CC0DE0111960E94A7108D011A
:1015BC00DE0117960E948B0EEB83FC83DE011596E1
:1015CC000E948B0EFA93EA931A930A93E0E7F9E0E0
:1015DC00FA93EA93FE013896FA93EA93A3DE198103
:1015EC0008812596FF9008957B816A81F981E881B5
:1015FC0077FB770F67FD7160972F9E5781F078F01E
:10160C00983190F4AA27BB27882708948795B7951B
:10161C00A7959A95D1F7EA23FB23682305C0E89494
:10162C007727EE27FF2766276F77769508F4606893
:10163C0077F9A991B99189919991EA17FB076807F4
:10164C00790797FB08950E94240D0E9448110E946F
:10165C00FA0A0E94411119F40E94240D9CC0E6F76D
:10166C000E94240DA0E0B0E080E89FE30E949D0F53
:10167C0092C024971A9310E00E94AD0EE3E8F9EFA4
:10168C0062E27EE30E94F40F0E94B20E0E94B70E3B
:10169C000E940D0E0E94AD0E0E940B0D0E94B20E08
:1016AC000E94BC0E0E94871009F010F40C94690B78
:1016BC000E94B70EA0E0B0E080E09FE30E949D0F77
:1016CC000E94B20E11E00E94AD0EE0E0F0E060E886
:1016DC007EE30E94871009F010F40C947B0B0E949F
:1016EC00BC0E0E949D0F0E94B20E103031F00E9471
:1016FC00B70E0E94FE0E0E94B20E0E94B70E0E9400
:10170C00AD0E0E94F40FE983FA836B837C83A1EB0B
:10171C00B4EC86E292E40E94F40FDF01CB01EDE120
:10172C00F5EE6DE272E40E940B0D0E94C20EACE469
:10173C00B3E584E091E40E94A40F0E94AD0E0E94D8
:10174C00F40F7F936F93FF93EF93E981FA816B8191
:10175C007C81A1E1BDEE8EED9FE30E94A40F0E945F
:10176C00C20EAEE5BBE788EA9FE30E94A40FAF91DF
:10177C00BF918F919F910E944210188129960895D4
:10178C000E943C11EBEDFFE069EC7FE30E949D0FA2
:10179C000E9448116EDF24960895E1E0F991F03330
:1017AC0010F0FA3308F0EE270895E1E0F991F032E9
:1017BC0029F0F93010F0FE3008F0EE270895E1E042
:1017CC00F991F05340F0FA3038F0FF75F750FA30D9
:1017DC0010F0F03108F0EE270895E991F991A991F4
:1017EC00B991CD0105900D920020E1F7FC0108950F
:1017FC00A991B991EE27FF276D91662311F03196CF
:10180C00FBCF0895AA27BB27E991F99105900020F9
:10181C0011F01196FBCFFD0108952497D4D0E0E090
:10182C00EA83EFE3EB831A930A93EB85FC85EF3F96
:10183C00AFEFFA0729F4A7D2E4EFF2E0ACD185C000
:10184C00EF3FAFE7FA0729F49ED2E5EFF2E0A3D120
:10185C007CC0AC85AA2352F4E985FA856B857C851E
:10186C000E94FE0E95D299D2EDE2EC93A885A7309A
:10187C0010F0E6E0E8871885E12F1150E03021F0F8
:10188C0093D2C1D196D2F8CF99D20E94A40F80D214
:10189C0010E0E0E0F0E060E87FE38BD28FD20E94B2
:1018AC00871060F081D29CD184D21F5F173228F050
:1018BC006AD2E9EFF2E06FD148C0F0CF103021F4DA
:1018CC006CD2E0E3EC931DC0E12F1150E030C9F075
:1018DC006BD299D191D19BD16CD270D20E94421013
:1018EC000E94310F0E2F59D29DD1F0E05DD20E9493
:1018FC00C2100E946A0F0E94F40F69D286D048D29F
:10190C00E3CFE885E030E9F048D2EEE2EC93E885ED
:10191C00E150E887EF5FA9F05AD262D139D2E9855C
:10192C00FA856B857C850E94310F0E2F36D27AD1C9
:10193C00F0E04DD20E94C2100E946A0F66D028D2ED
:10194C00E6CFAE81BF81E0E0EC93198108812D9642
:10195C000895AA81BB81EE27A10FBE1FEC910895BB
:10196C0028970E946B1120E030E0E889EC83089501
:10197C00ED83EE85FF850E94B710EE83EE85EF8335
:10198C00EC85FD850E94B710E887EC85E987E0E0DF
:10199C00EA87EB87FE013496FA93EA93E6E0F0E0EF
:1019AC00FA93EA930E942C028F01F801EA871B87B5
:1019BC0020E030E00895DE011496A20FB31FEC91E5
:1019CC00EA930C942602E0E0E883E9830895AE855F
:1019DC00BF850E942C110895AC85BD850E942C11E9
:1019EC000895ABE3BFED8FE89EE30E94F40FDF0197
:1019FC00CB01E0E0F0E060E070E40E94421008955A
:101A0C00EC83FD836E837F8308950E9452110E94A4
:101A1C009D0F0895EC81FD816E817F810895AAEB65
:101A2C00B9EC88E193E40E94F40FA0E0B0E080EA06
:101A3C0091E40E94F40F0E94330F08950E94371115
:101A4C000895E0E0F0E0ED93FC930895FA93EA93A7
:101A5C000E945B02E5E0F0E0FA93EA930C94F20E3C
:101A6C00EA93E8E7F0E0FA93EA93E1E0F0E0EECFF6
:101A7C00F0E0EA0FFB1F0895A42DB0E0A050BB4F7F
:101A8C00ECB1EC934394E0E0E4BD0895EA93FA934F
:101A9C00EFB7EA930895F0E0EC59FA4F1083939462
:101AAC000895FA93EA930C94F20E0E94C2100E94CD
:101ABC006A0FDF01CB01E0E0F0E06AE774E40E941A
:101ACC0042100895EA93E2E0F0E0FA93EA93FA9375
:101ADC00EA930E946A02E5E0F0E0E3CF0E94C210B4
:101AEC000E946A0FDF01CB01E9E2FCEF6EE375E4C3
:101AFC000E9442100895FE01EA5DFD4F0190119085
:101B0C0061917081F0010895DE01A25EBD4F0D90D0
:101B1C001D908D919C91D0010895FE01EA5EFD4FC0
:101B2C000190119061917081F001EEDF0E94F40F31
:101B3C000895FE01E65EFD4F019011906191708158
:101B4C00F001DE01AA5EBD4F0D901D908D919C9110
:101B5C00D0010E94F40F0E9448110895DE01A65F87
:101B6C00BD4F0D901D908D919C91D0010895DE017B
:101B7C00AC50BE4F0D901D908D919C91D00108954D
:101B8C00EDECFCEC6CEC7DE30895ED91FD91319660
:101B9C00FE93EE930895FA93EA930C94F30BAC81B5
:101BAC00BD818E819F81E0E0F0E060E271E40E94F3
:101BBC00F40F26CF2FDFAC85BD858E859F850E94C7
:101BCC0087100895AC85BD858E859F850895D8DFD7
:101BDC000E94F40FEC87FD876E877F873F5F089527
:101BEC00E0E0F0E060E271E40E94F40F0895EC870D
:101BFC00FD876E877F870895A0E0B0E080E09FE3CB
:101C0C000E94A40F0895BCDF0E94F40F08950E9457
:101C1C0048110C94290BA885B9851196A887B9870A
:101C2C0011970895E02FE05DEC93E02F0895E8857F
:101C3C00F9853196E887F98708952A93EF81F8851D
:101C4C00FA93EA93EB85FC8509950895FE01E65A13
:101C5C00FF4F0190F081E02D08953497DE01A65AD4
:101C6C00BF4FED93FC930895EF81F885FA93EA93B7
:101C7C00EB85FC8509950895DE01A65ABF4F0D90A2
:101C8C00BC91A02D0895EA87FB876C877D8708950A
:101C9C00DDDFE3CFEA85FB856C857D850895EE87D6
:101CAC00FF87FA93EA930E94FE0B1E2F0895E4DF40
:101CBC0014960E9428110895E88BF98B6A8B7B8B04
:101CCC0008950B7FED89EA93FE01E95AFF4F0190CD
:101CDC00F081E02DFA93EA93FE01E55AFF4F019053
:101CEC00F081E02D099550300895E889F9896A89C9
:101CFC007B89AA85BB858C859D850895DE011C9604
:101D0C000E94A7100E94281108950E94A7100E94FB
:101D1C00281108953A930E94DB0BE0300895ED856D
:101D2C00FE85FA93EA93E989FA8909950895AB85BA
:101D3C00BC85AC91A0300895EF85F8893497EF8776
:101D4C00F88BAF85B88914960D911C910895AD81CF
:101D5C00BE818F8198850895ED83FE836F8378878C
:101D6C000895ED81FE816F8178850895F0DFE0E0C4
:101D7C00F0E060E07FE30895A981BA818B819C81BA
:101D8C000E94F40F0895EE81FF81FA93EA9308956F
:101D9C00E987FA876B877C870895AE81BF8111969E
:101DAC00AE83BF8311970895AA81BB818C819D81DD
:101DBC000895EA83FB836C837D830895EA81FB811C
:101DCC006C817D81A985BA858B859C850895A985B3
:101DDC00BA858B859C850895E991F991309639F0F7
:101DEC0086E69EE00197F1F7A8953197C9F708951B
:101DFC0030976040704009F070580895552342F4B4
:101E0C00503811F4E0FF04C03196691F791F6BF054
:101E1C0050E8572711F45F93CFC05F3F31F0660F46
:101E2C00000C57956795752F08955F9300200AF065
:101E3C00CFC0C8C050E8192E1522880F991F9527BE
:101E4C00550F879550E8072E0522660F771F7527CB
:101E5C00550F67950895689401C0E8945F93F2DF7D
:101E6C00703818F07F3F08F4A7C056E1571BAAF44E
:101E7C00519558300EF4593030F0EFEFFFEF6FEF13
:101E8C007FE777F91AC077275523B9F0EE0FFF1FBC
:101E9C00661F771F5A95D1F710C07727583028F056
:101EAC00EF2FF62F672F5850F9CF552331F0769539
:101EBC006795F795E7955A95D1F700200AF449D123
:101ECC005F910895689401C0E89430976040704029
:101EDC00B1F0002426F0772312F400943AD1172E97
:101EEC007EE1112032F07A95EE0FFF1F661F111C58
:101EFC00F9CFEF2FF62F612D5F938ADF5F91089555
:101F0C004F93AF01FD01DA01AB01BC01CA01402DB9
:101F1C00012C142E4F910895EA0FFB1F681F089592
:101F2C00E095F0956095EF5FFF4F6F4F08955F93CD
:101F3C0081DF903871F150E8152604C05F937ADF89
:101F4C00903839F1703821F1572F591B2BF112F4BD
:101F5C00D7DFFACF583118F0AA27BB27882758307B
:101F6C0028F0AB2FB82F88275850F9CF552329F0DC
:101F7C008695B795A7955A95D9F7502D512572F09E
:101F8C00CBDF38F46795F795E795739513F420C07C
:101F9C00B7DF3EDF5F910895D8F7FBCFEA1BFB0B51
:101FAC00680B51F010F40094BBDF662392F3EE0F34
:101FBC00FF1F661F7A95CBF7EE27FF27662777273B
:101FCC005F910895EFEFFFEF6FE77FEF5F9108955B
:101FDC00EFEFFFEF6FE77FE75F9108955F932ADFE5
:101FEC00703851F3903841F301240894791F23F48D
:101FFC001CF300203AF3ECCF0F921F932F933F93D7
:10200C004F93112722279927689FA0018F9F302D6E
:10201C00410D591F6B9F300D411D591F8E9F27D0AD
:10202C00BF9F25D06A9F23D0BE9F1DD0AF9F1BD0D2
:10203C00AE9F110D291F391F491F591FE32FF42F74
:10204C00652F522F4F913F912F911F910F90662327
:10205C002AF0550FEE1FFF1F661F02C073954BF23F
:10206C00CDDE5F910895100D211D391F02C0200D8A
:10207C00311D491F591F08955F93DCDE703821F420
:10208C0011200AF49FCFA4CF903809F495CF0124E6
:10209C000894970B1BF4D4F30020F3CF792F1F93E4
:1020AC002F933F934F931124112722273327442733
:1020BC00552790E2AE17BF078607410730F0AE1BDD
:1020CC00BF0B860B410B089401C08894551F221F2F
:1020DC00331F111CAA1FBB1F881F441F9A9551F751
:1020EC00F901612D4F913F912F911F91662332F091
:1020FC00550FEE1FFF1F661F7A9543F27FDE5F912F
:10210C00089599239AF0772342F0971748F029F411
:10211C00AE17BF07860720F031F098948894089585
:10212C009894089408951894889408957723C2F786
:10213C00971798F3A9F7EA17FB07680788F399F341
:10214C00ECCF0024AF0DB01D0895F195E195F04052
:10215C000895F09560957095E195FF4F6F4F7F4F07
:10216C000895EF2FFF27E7FDFFEF0895FE2FFF0FD8
:10217C00FF0B6F2F7F2F08956F2F660F660B762F37
:10218C0008958B2F880F880B982F0895FA9FF02DA8
:10219C00EB9FF00DEA9FE02DF10D0895002498E0DF
:1021AC00AA0F001C0E1A10F40E0E01C0A1609A9515
:1021BC00B9F7EA2FA02D089539D0F0DF0EF4E19590
:1021CC0008953F934F935F93002411244427552780
:1021DC0030E2AA0FBB1F881F991F001C111C441F43
:1021EC00551F0E1A1F0A460B570B28F40E0E1F1EF6
:1021FC00461F571F01C0A1603A9559F7FD01BC015C
:10220C00D001CA015F914F913F910895E894A7FFC7
:10221C0002C0A1956894E7FDE195C0DFEA2F0EF4AA
:10222C00E1950895CEDFFD01BC010895E894E7FF28
:10223C0002C0E1956894A7FF04C0A19500F803942F
:10224C0000FA0895ED91FC9111970895ED91FD918F
:10225C006D917C9113970895ED93FD936D937C9301
:10226C000895E881F9816A817B810895A881B981FB
:10227C008A819B810895E883F9836A837B8308951F
:10228C0060E070E07A936A93FA93EA930895689405
:10229C0001C0E89401D019DE182E862F612D192E5D
:1022AC00972F712D1B2EBF2FF12D1A2EAE2FE12D36
:1022BC000895309760407040089500240A160B066C
:1022CC000806090608955A934A933A932A931A9347
:1022DC000A9308955D814C813B812A811981088183
:1022EC000895AC0FBD1F05900D920197E1F708956D
>>>>>>> test-testing
:00000001FF
