:080000000C94B7000C94000001
:100008000C9400000C9400000C9400000C94000068
:100018000C9400000C9400000C9400000C94AF02A7
:100028000C9400000C9400000C9400000C94BB028B
:100038000C9400000C9400000C94B5020C94000081
:100048000C946E020C9400000C9400000C940000B8
:100058000C9400000C9400000C9400000C94000018
:100068000C9400000C9400000C9400000C94000008
:100078000C9489020C9400000C9400000C9400006D
:100088000C940000000000000000000000000000C8
:100098000000000000000000000000000000000058
:1000A8000000000000000000000000000000000048
:1000B8000000000000000000000000000000000038
:1000C8000000000000000000000000000000000028
:1000D8000000000000000000000000000000000018
:1000E8000000000000000000000000000000000008
:1000F80000000000000000000000000000000000F8
:1001080000000000000000000000000000000000E7
:1001180000000000000000000000000000000000D7
:100128000000000000003C25642C25642C25643E5A
:100138000025662C2025662C2025662C2025662C7B
:100148002025660A00002D4E414E000001002D4E6C
:10015800414E00494E4600000A00040024010100F7
:10016800780554010000F894EE27ECBBF1E0F5BFE8
:10017800E5BFE0936C00F8E1F1BDE1BD8DE0A2E0E0
:10018800BB27ED938A95E9F780E090E1A0E0B1E024
:10019800ED930197E9F7E0E6F1E0859195910097F5
:1001A80061F0A591B59105901590BF01F0010590FA
:1001B8000D920197E1F7FB01F0CF8BBFEFEFEDBF99
:1001C800E0E1EEBFC0E0D5E00C94C802E0E0E093C7
:1001D8009B00E8E9E0939A00E6E0E0939D00E09157
:1001E8009D00EF7BE0939D00E881F9810E94A50FB7
:1001F800E0939800E881E093990014C0E0E0EBB93F
:10020800E8E9EAB9E6E0E0939500E0919500EF7B34
:10021800E0939500E881F9810E94A50FE093900092
:10022800E881E9B922960895EDE0E5BDE8E2E3BD8D
:10023800E2E810C0E7E0E3BFE1E80CC0EDE1EEBDA5
:10024800EFEFF0E0F9BDE8BDE0EBF4E0F7BDE6BDA7
:10025800E7B7E860E7BF0895E0919B00E072E1F33B
:10026800E881E0939C0023C01A930A9310E000E011
:1002780010E00E949F0BE03031F00E949F0BEA9340
:10028800EBDF1F5FF6CF00E0011750F4AA81BB81B6
:100298001196AA83BB831197E0E0EC930F5FF4CF2C
:1002A80019810881EAC05D9BFECFE881ECB92196EF
:1002B80008950E9457102FEF3FEFEE81FF8131978D
:1002C800EE83FF833196F9F0A885B985ED91A8876B
:1002D800B987F0E02E273F2700E010E00830E0E083
:1002E8001E0784F4F901E170F070AF013695279587
:1002F800042E052A21F0E1E0F0EA2E273F270F5FC0
:100308001F4FECCFDACFF9010E945E102A960895AC
:100318000E94A60BE6E00E94AE0B2830E0E03E0704
:100328002CF40E94D10B2F5F3F4FF7CF0EC00E94D5
:10033800A60BE4E00E94AE0B2830E0E03E072CF468
:100348000E94D10B2F5F3F4FF7CF0E94601061963C
:10035800089528970E94D90BE0E0EA83EB83EC83A9
:10036800ED83EE83EF830E94DD0B772342F00E943A
:10037800E20B0E94EC0DAC85BD850E9420100E9406
:10038800DD0B7F936F93FF93EF930E94E20B0E9424
:10039800E70BAF91BF918F919F910E94920E0E949F
:1003A800F60B0E94DD0B7F936F93FF93EF930E94F0
:1003B800E20B0E94E70BAF91BF918F919F910E9432
:1003C800FB0B0E942F100E94000C0E94050CAA85AE
:1003D800BB85ED93FC930E94140C0E94050CA88524
:1003E800B985ED93FC93AA85BB850E941610EC3263
:1003F800A1E0FA0734F4DF01E4EDFEEFEA17FB07AA
:100408000CF014C0A885B9850E941610EC32A1E042
:10041800FA0754F4A885B9850E941610DF01E4EDA7
:10042800FEEFEA17FB070CF001C001C008C0AA855F
:10043800BB850E94170CA885B9850E94170C0C94DF
:100448000E06E1E0EA93E9E7F0E0FA93EA93ED813A
:10045800FE810E941C0CE2E0EA93E9E7F0E0FA93DF
:10046800EA93EB81FC810E94990F0E941C0CE1E049
:100478000E94260CE2E00E94260C249608950E9411
:10048800591010E020E030E0B0910505A0E0E091BF
:1004980006050E942E0C9F01B0910305A0E0E09193
:1004A80004050E942E0CAC81BD81ED93FC9310E0F5
:1004B800EE811E1750F4E12FF0E0AF81B885AE0F42
:1004C800BF1FE0E0EC931F5FF3CFF9010E946010BB
:1004D80029960895AA93BA93EA93EFB7EA93E4B5F5
:1004E800E93118F4E0E0E51519F0E0E0E41519F455
:1004F8000E94320C04C044240E94320C5524E99115
:10050800EFBFE991B991A99118950E943C0C1A93F3
:1005180010E010919C001C3319F4E0E0E81509F094
:1005280007C0C39B02C0C39801C0C39A99240EC0D8
:100538001E3319F4E0E0E81509F006C0E92D0E9421
:10054800410CE1E08E2E05C0882019F4E92D0E94A7
:10055800410C199114C0EA93EFB75394EFBFE99196
:1005680018950E943C0CF30131963F0108C00E9487
:100578003C0CF60131966F01E0E0EDBDECBDE99170
:10058800EFBFF991E9911895EF97EF97A29788E94E
:10059800A0E0B0E0ECE8F0E00E94651000E010E0B8
:1005A80020E030E040E050E0E7E0F0E0FA93EA9342
:1005B8000DDEE7E0F0E0FA93EA9320DE35DE3ADE7E
:1005C8003DDE7894B99ABA9ABB9AE8E8F3E10E94BA
:1005D800470CC198C29A66247724E0E0E2BF8820DD
:1005E80011F40C946B03C19AE0919A00EF7EE093AA
:1005F8009A00E4E6F5E0FA93EA93EEE2F1E0FA9382
:10060800EA93EDB7FEB731970E9434101F930F930A
:10061800EDB7FEB731970E9434103F932F93FE0138
:10062800E456FF4F662777270E9436108CE00E9419
:10063800BB0960962F913F910F911F91F8010E947D
:100648004B0CDE01A856BF4FED93FD936D937C9341
:10065800F9010E944B0CDE01A456BF4FED93FD93A8
:100668006D937C93FE01E856FF4FFA93EA93FE01DF
:10067800E256FF4FFA93EA93EDB7FEB73197FA9334
:10068800EA935F934F93FE01E456FF4FFA93EA9380
:1006980060DE4F915F915A934A93FE01E856FF4FEF
:1006A8000190F081E02DFA93EA93CBDEE0E0DE01E1
:1006B800A859BF4FED93ED93ED93EC93CC24DD2433
:1006C800ECBD8824E0919A00E061E0939A00F6017D
:1006D800AFEFB0E00E94BA0FDF01ECB50E942E0C1C
:1006E800662777270E94580EAEEDB8E38EE89DE3A3
:1006F8000E94E20EDE01A859BF4FED93FD936D9362
:100708007C93DE01A057BF4F0D90BC91A02D0E9495
:10071800B50F0E943D100E94750FC0F4E0E0F0E0B4
:10072800FA93EA93FA93EA938CDECC24DD24E0E092
:10073800DE01A856BF4FED93ED93ED93EC93DE01E8
:10074800A456BF4FED93ED93ED93EC93E1E00E9437
:10075800580CE0E0F5E0FA93EA934A92FE01E75775
:10076800FF4F0E94640CDE01A457BF4FED93FD9329
:100778006D937C93E5E0F0E00E94470CE2E00E9474
:10078800580CE0E0F5E0FA93EA934A92FE01E95743
:10079800FF4F0E94640C0E94EC0DDE01A857BF4F6A
:1007A800ED93FD936D937C93E5E0F0E00E94470C98
:1007B800FE01E857FF4F0190119061917081F0019F
:1007C800DE01A457BF4F0D901D908D919C91D001D3
:1007D8000E94920EDF01CB01E0E0F0E060E070E4FF
:1007E8000E94300FDE01A058BF4FED93FD936D932B
:1007F8007C93DE01A857BF4F0D901D908D919C9161
:10080800D001FE01E457FF4F019011906191708172
:10081800F0010E948B0EA0E0B0E080E090E40E941E
:10082800E20EDF01CB01E1EEFAE764E97EE30E9424
:10083800300FDE01A458BF4FED93FD936D937C9369
:10084800F301AFEFB0E00E94BA0FDF01E2B70E94F8
:100858002E0C662777270E94580EA7E7B2EA81E98F
:1008680098E30E94E20EDE01A858BF4FED93FD9376
:100878006D937C930E94750CDE01A459BF4F0D90B7
:100888001D908D919C91D0010E94920EDE01A45979
:10089800BF4FED93FD936D937C9366247724E0E03E
:1008A800E2BF0E94880C0E94511061F4DE01A45836
:1008B800BF4F0D901D908D919C91D0010E945110B9
:1008C80009F446C00E94910C7F936F93FF93EF93B6
:1008D8000E94750C0E9436100E94B60AAF91BF9113
:1008E8008F919F910E94E20EDE01AC58BF4F0D9090
:1008F8001D908D919C91D0010E94920EDE01AC5802
:10090800BF4FED93FD936D937C930E94910C7F9361
:100918006F93FF93EF930E94750C0E9436100E940C
:100928002F0AAF91BF918F919F910E94E20EDE0135
:10093800A059BF4F0D901D908D919C91D0010E94A0
:10094800920EDE01A059BF4FED93FD936D937C93FA
:100958000E949D0C0E94A60C0E94920EDE01AC59CA
:10096800BF4FED93FD936D937C930E94A60CEDEC25
:10097800FCEC6CE47DE30E94750F09F010F40C9414
:10098800F604FE01FA93EA93E9E3F1E0FA93EA93B5
:100998000E94AF0C0E94AF0C0E94AF0CFE01E05702
:1009A800FF4F0190119061917081F0010E94361003
:1009B800FE01E455FF4F0190119061917081F001A3
:1009C8000E94361084E10E942C086896FE01FA9372
:1009D800EA934ADCE0E0DE01AC59BF4FED93ED93BA
:1009E800ED93EC93E0E0DE01A457BF4FED93ED9358
:1009F800ED93EC93DE01A857BF4FED93ED93ED9384
:100A0800EC93EDCDFFCF1A930A93AA81BB8112967E
:100A18000E941610309729F1AA81BB8114960E9472
:100A280016108F01309761F00230E0E01E07C0F029
:100A3800F80131978F01AA81BB811496ED93FC933D
:100A4800AA81BB8112960E94B30C3197AC81A08316
:100A5800AA81BB810E941610FF2312F00E94B30CDA
:100A680006C0AA81BB81EFEFFFEFED93FC931981DC
:100A7800088148C324970E94D90BE0E8EA83EFE392
:100A8800EB830E945910EE85FF85EF3FAFEFFA0721
:100A980049F4E885F985FA93EA93EEE4F1E00E94D7
:100AA800B90CB6C0EF3FAFE7FA0749F4E885F98516
:100AB800FA93EA93EFE4F1E00E94B90CA9C0AB8580
:100AC800A73010F0E6E0EB871B85E12F1150E030EE
:100AD80019F00E94BD0CF9CFEC85FD856E857F85E8
:100AE8000E944D1021F430E00E94BD0C2EC03B85C1
:100AF8000E94C80C09F010F40C948D050E94BD0CDE
:100B08000E94C80C28F00E94D00C0E94D50CF8CF87
:100B18000DC00E94C80C40F40E94D00C0E94E10C49
:100B28000E94E80C3150F5CF0E94BD0CEC85FD8584
:100B38006E857F850E94ED0C0E94E80C0E94C80C0F
:100B480020F00E94D00C0E94D50C10E0EB85E11734
:100B580098F1AC81BD818E819F810E94F40C0E9426
:100B6800ED0C0E94FB0C0E94F60B0E94000C0E94E8
:100B7800D00C0E94300F0E941F0E0E2F0E94FF0CF7
:100B88000E94060DFF27662777270E94580EAC8122
:100B9800BD818E819F810E94E20E0E94D00C0E942E
:100BA800FB0B0E94E80CE12F1F5FE03079F60E94F2
:100BB800FF0CEEE2EC93CACF0E940B0D3197AA8589
:100BC800A08330302CF43195A885B985EDE203C0B7
:100BD800A885B985EBE2EC930E940B0D0E940B0DE2
:100BE8003197BF01A32FEAE00E94D00FE05DDB013F
:100BF800EC930E940B0D3197BF01A32FEAE00E94EE
:100C0800FA0FE05DDB01EC93A885B985E0E0EC9391
:100C18000E94601060960895EF9761970E945710A0
:100C280010E0FE01E85AFF4F0190F081E02DE887BF
:100C3800F987FE01EA5AFF4F0190F081E02DEE831B
:100C4800FF83AE81BF810E94170CDE01A45ABF4FFB
:100C58000E94B30C3197E4912E2FE03011F40C94DC
:100C68002308E12FE03039F4253211F411E002C0F5
:100C78000E94110DE3C1E130C1F4253219F40E943C
:100C8800110DDBC112E0E0E0ED8B00E02D3211F434
:100C980001E0D4C12B3219F4EBE2ED8BCFC1203245
:100CA80019F4E0E2ED8BCAC102C0E23039F450E039
:100CB80013E0203311F40068C1C102C0E33091F49D
:100CC800203310F02A3308F007C0AAE05A9F502DAD
:100CD800E22FE0535E0FB2C140E02E3211F414E06F
:100CE800ADC10FC0E43099F4203310F02A3308F076
:100CF80008C00062AAE04A9F402DE22FE0534E0F41
:100D08009DC12C3619F4026015E098C104C0E53085
:100D180011F00C942208E22FE33659F40E941A0DC0
:100D28000E94210D0E941A0DA481AA930E94280DE9
:100D380084C1E53411F0E53609F404C0E63611F053
:100D48000C94F006FE017696EE87FF870E94300D20
:100D58000E941A100E94370D0E943C0DAD85AA23EF
:100D680022F0AD89AB3249F017C00E943E0D0E94B7
:100D7800EC0D0E94370DEDE2ED8B07FF05C0ED8904
:100D8800EA930E94280D08C0EE85FF853196EE870C
:100D9800FF873197AD89A08305FF46E0263661F4C9
:100DA8000E943E0D0E9436104A93EB89FC89FA9303
:100DB800EA930E94030B0BC00E943E0D0E9436105E
:100DC8004A932A93EC89FD89FA93EA9353DEFE014C
:100DD80076960E94430D1EC0E33739F40E943C0DFD
:100DE8000E944B0D0E94430D0EC0E037C1F40E94D3
:100DF8003C0D0E944B0DEE87FF87FA93EA930E9401
:100E0800F80A1E2F08600F77403011F0411708F0DC
:100E180001C0142F40E0E0E0EC8B30E06EC0E43617
:100E280011F0E93611F4046002C0E537A1F4EAE0F4
:100E3800EC8B01FF08C0E0E0FAEC6AE97BE30E9472
:100E4800500D1AE023C0E0E1F7E260E070E00E9494
:100E5800500D15E01BC0E83511F4086004C0E837F0
:100E680011F00C942108E0E1EC8B01FF08C0E0E0F0
:100E7800F0E060E070E10E94500D18E007C0E0E08B
:100E8800F0E160E070E00E94500D14E0403011F095
:100E98000F7701C041E001FF08C00E943C0D0E948D
:100EA800300D14960E941A100FC002FF07C00E944E
:100EB8003C0D0E944B0D0E94B00F06C00E943C0DD5
:100EC8000E944B0D66277727EA87FB876C877D870B
:100ED80002FF12C0AD85AA2342F40E943E0D0E9473
:100EE8009D0F0E94370DEDE2ED8BED89E03019F092
:100EF8001F5F4F5F01C00B7F342F00FD14C0151713
:100F080010F4351708F00FC007FF08C002FF04C02F
:100F18000B7F2D89115001C020E301C020E20E94FF
:100F2800110D5150ECCF141790F4006102FF06C068
:100F38000E94550D09F0515011504150E0E3EA93D9
:100F48000E94280D503009F051504150ECCF312FFC
:100F5800EC89E030B9F43030A1F003FF06C0EE852B
:100F6800FF852591EE87FF8705C0AE85BF852D914A
:100F7800AE87BF870E94110D503009F05150315093
:100F8800EACF51C00E94690D0E94D50F2E2F2A303A
:100F980030F003FF02C0295C01C0295A01C0205D5E
:100FA80004FD21C0213360F4A889B9898A899B8905
:100FB800A130E0E0BE07E0E08E07E0E09E0709F41C
:100FC8000BC0431740F4531710F000FF01C010C0C6
:100FD80020E207FF08C020E3006102FF04C00E946E
:100FE800550D09F051500E94110D503009F0515023
:100FF80031500E94690D0E9406100E94370DEC893D
:10100800A889B9898A899B89FF27662777270E943B
:10101800D50F0E94500DE889F9896A897B890E9459
:101028004D1009F0AFCF00FF08C0503031F05150DB
:10103800E0E2EA930E94280DF8CF10E006CEAE81D8
:10104800BF810E9416100E945E10EF966F96089559
:10105800FF92F82E26970E9459100E94720D309721
:1010680019F4EFEFFFEF23C0DE0116960E94950FEB
:101078008D010E94720DEE83FF83E0E0E887E98727
:10108800DE011A960E94790DFA93EA931A930A934D
:10109800E7E0F5E0FA93EA93FE013A96FA93EA93C9
:1010A800BBDD9F01AE81BF81E0E0EC93F9010E94B6
:1010B80060102A96FF9008951A93A981BA81E0E0FA
:1010C800EC93AB81BC81EC911E2FE03019F0E0E08D
:1010D800EC9316C0A981BA8111960E941610309718
:1010E80071F0E981FA81A181B281EC911E2FE03083
:1010F80029F0A981BA8111960E94B30C01C010E0B1
:10110800E12F18812596089525970E945710E0E051
:10111800F0E0E887F9874E2FE989FA893196E98B5B
:10112800FA8B3197E4913E2FE03011F40C94B50915
:101138000E947E0DC1F0EDB7FEB7FA93EA934F9384
:101148000E94830D4F913E2FE03019F00E947E0DD2
:1011580009F407C00E948B0D1CF4EFEFFFEF03C1E9
:10116800EACF432FFDC0353211F00C949C0950E0B2
:10117800E989FA893591E98BFA8B303310F03A33E3
:1011880008F007C0AAE05A9F502DE32FE0535E0FE6
:10119800EFCF303009F4E5C0EDB7FEB7FA93EA9324
:1011A8004F930E94830D4F912E2FEA930E94CB0AF2
:1011B800E03039F00E948B0D1CF4EFEFFFEFD3C045
:1011C800EBCF203009F4C4C0422F503009F45FEF50
:1011D800E32FE33699F40E94900DEDB7FEB7FA932A
:1011E800EA934F930E94830D4F91D801EC930E948C
:1011F8008B0D1CF4EFEFFFEFB6C097C0E33741F556
:101208000E94900DE52F5150E030F1F0EDB7FEB798
:10121800FA93EA934F930E94830D4F913E2FE0304B
:1012280019F00E947E0D39F00E948B0D1CF4EFEF2F
:10123800FFEF99C009C01F930F930F5F1F4FE32F54
:10124800AF91BF91EC93DECFD801E0E0EC936DC095
:10125800E1E0EA87E32FE43611F0E93619F4E0E03B
:10126800EA8702C0E53711F42AE008C0E83711F42C
:1012780020E104C0E53209F45BC073C0E0E0EE830E
:10128800EF83E52F5150E03011F40C948C09EDB741
:10129800FEB7FA93EA934F930E94830D4F913E2F26
:1012A800E13238F40E948B0D1CF4EFEFFFEF5BC0C6
:1012B80017C0EA85E03039F43D3219F4EFEFEA87D8
:1012C800E0CFE1E0EA87203131F43A930E94D50A71
:1012D800E03031F007C03A930E94C30AE03011F4BD
:1012E800432F16C0313610F0375505C0313410F091
:1012F800375301C03053E22FAE81BF81F0E00E9426
:10130800BA0FDF01E32F0E942E0CEE83FF83B9CFC3
:101318000E94900DEA85AE81BF81F0E0E7FDFFEF06
:101328000E94BA0FD801ED93FC930E940B0D18C0D0
:10133800EDB7FEB7FA93EA934F930E94830D4F914E
:10134800E31771F00E948B0D1CF4EFEFFFEF0BC059
:10135800E885F985309719F4EFEFFFEF04C001C075
:10136800DBCEE885F9850E945E1063960895FF92AA
:10137800F82E23971A930A93DE0117960E94790D87
:10138800309719F4EFEFFFEF1CC0DE0111960E94B1
:10139800950F8D01DE0117960E94790DEB83FC8372
:1013A800DE0115960E94790DFA93EA931A930A932F
:1013B800E0E6F8E0FA93EA93FE013896FA93EA93A6
:1013C800A3DE198108812596FF9008957B816A81A3
:1013D800F981E88177FB770F67FD7160972F9E573A
:1013E80081F078F0983190F4AA27BB2788270894D1
:1013F8008795B795A7959A95D1F7EA23FB23682394
:1014080005C0E8947727EE27FF2766276F7776953C
:1014180008F4606877F9A991B99189919991EA17C7
:10142800FB076807790797FB08950E94140C0E9430
:1014380036100E94EA090E942F1019F40E94140C19
:101448009CC0E6F70E94140CA0E0B0E080E89FE39F
:101458000E948B0E92C024971A9310E00E949B0D55
:10146800E3E8F9EF62E27EE30E94E20E0E94A00D3B
:101478000E94A50D0E94FB0C0E949B0D0E94FB0B75
:101488000E94A00D0E94AA0D0E94750F09F010F489
:101498000C94590A0E94A50DA0E0B0E080E09FE3FB
:1014A8000E948B0E0E94A00D11E00E949B0DE0E0AF
:1014B800F0E060E87EE30E94750F09F010F40C94E8
:1014C8006B0A0E94AA0D0E948B0E0E94A00D10307C
:1014D80031F00E94A50D0E94EC0D0E94A00D0E9403
:1014E800A50D0E949B0D0E94E20EE983FA836B838F
:1014F8007C83A1EBB4EC86E292E40E94E20EDF0169
:10150800CB01EDE1F5EE6DE272E40E94FB0B0E9467
:10151800B00DACE4B3E584E091E40E94920E0E9421
:101528009B0D0E94E20E7F936F93FF93EF93E981E7
:10153800FA816B817C81A1E1BDEE8EED9FE30E9473
:10154800920E0E94B00DAEE5BBE788EA9FE30E94C9
:10155800920EAF91BF918F919F910E94300F188189
:10156800299608950E942A10EBEDFFE069EC7FE3CD
:101578000E948B0E0E9436106EDF24960895E1E0DB
:10158800F991F03310F0FA3308F0EE270895E1E00E
:10159800F991F03229F0F93010F0FE3008F0EE271A
:1015A8000895E1E0F991F05340F0FA3038F0FF7512
:1015B800F750FA3010F0F03108F0EE270895E9916D
:1015C800F991A991B991CD0105900D920020E1F70B
:1015D800FC010895A991B991EE27FF276D91662323
:1015E80011F03196FBCF0895AA27BB27E991F9910D
:1015F8000590002011F01196FBCFFD010895249766
:10160800D4D0E0E0EA83EFE3EB831A930A93EB8507
:10161800FC85EF3FAFEFFA0729F4A5D2E6E5F1E044
:10162800A4D185C0EF3FAFE7FA0729F49CD2E7E5DC
:10163800F1E09BD17CC0AC85AA2352F4E985FA85F8
:101648006B857C850E94EC0D93D297D2EDE2EC93EA
:10165800A885A73010F0E6E0E8871885E12F11503B
:10166800E03021F091D2BCD194D2F8CF97D20E9429
:10167800920E7ED210E0E0E0F0E060E87FE389D2ED
:101688008DD20E94750F60F07FD297D182D21F5FF2
:10169800173228F068D2EBE5F1E067D148C0F0CF07
:1016A800103021F46AD2E0E3EC931DC0E12F115011
:1016B800E030C9F069D294D18CD199D16AD26ED276
:1016C8000E94300F0E941F0E0E2F57D29BD1F0E0C0
:1016D8005BD20E94B00F0E94580E0E94E20E67D2A1
:1016E80086D046D2E3CFE885E030E9F046D2EEE294
:1016F800EC93E885E150E887EF5FA9F058D25DD117
:1017080037D2E985FA856B857C850E941F0E0E2FDE
:1017180034D278D1F0E04BD20E94B00F0E94580E1C
:1017280066D026D2E6CFAE81BF81E0E0EC93198186
:1017380008812D960895AA81BB81EE27A10FBE1FAF
:10174800EC91089528970E94591020E030E0E8892C
:10175800EC830895ED83EE85FF850E94A50FEE8347
:10176800EE85EF83EC85FD850E94A50FE887EC8563
:10177800E987E0E0EA87EB87FE013496FA93EA937B
:10178800E6E0F0E0FA93EA930E945D018F01F80128
:10179800EA871B8720E030E00895DE011496A20F47
:1017A800B31FEC91EA930C945701E0E0E883E983D6
:1017B8000895AE85BF850E941A100895AC85BD8531
:1017C8000E941A100895A1EEBAE784E99EE30E94E8
:1017D800E20EDF01CB01E0E0F0E060E870E40E9497
:1017E800300F0895EC83FD836E837F8308950E94F4
:1017F80040100E948B0E0895EC81FD816E817F81DF
:101808000895AAEBB9EC88E193E40E94E20EA0E007
:10181800B0E080EA91E40E94E20E0E94210E089551
:101828000E9425100895E0E0F0E0ED93FC93089500
:10183800FA93EA930E948C01E5E0F0E0FA93EA93C8
:101848000C94E00DEA93E8E7F0E0FA93EA93E1E01C
:10185800F0E0EECFF0E0EA0FFB1F0895A42DB0E012
:10186800A050BB4FECB1EC934394E0E0E4BD089585
:10187800EA93FA93EFB7EA930895F0E0EC59FA4F38
:10188800108393940895FA93EA930C94E00D0E94C0
:10189800B00F0E94580EDF01CB01E0E0F0E06AE7EC
:1018A80074E40E94300F0895EA93E2E0F0E0FA93BE
:1018B800EA93FA93EA930E949B01E5E0F0E0E3CF14
:1018C800FA93EA930E9443020E94B00F0E94580EB6
:1018D800DF01CB01E9E2FCEF6EE375E40E94300F13
:1018E8000895FE01E458FF4F0190119061917081B5
:1018F800F001DE01A858BF4F0D901D908D919C916D
:10190800D0010E94E20E0895DE01A058BF4F0D904D
:101918001D908D919C91D0010895FE01E858FF4FCC
:101928000190119061917081F001EEDF0E94E20E4A
:101938000895FE01E858FF4F019011906191708160
:10194800F0010895DE01AC59BF4F0D901D908D91A7
:101958009C91D0010895EDDF0E9436100895ED9115
:10196800FD913196FE93EE930895FA93EA930C94C1
:10197800E30AAC81BD818E819F81E0E0F0E060E206
:1019880071E40E94E20E2ECF37DFAC85BD858E85CF
:101998009F850E94750F0895AC85BD858E859F85AE
:1019A8000895EDECFCEC6CEC7DE30E94E20EEC8714
:1019B800FD876E877F873F5F0895E0E0F0E060E293
:1019C80071E40E94E20E0895EC87FD876E877F8799
:1019D8000895A0E0B0E080E09FE30E94920E089591
:1019E800EDECFCEC6CEC7DE30E94E20E08950E94A5
:1019F80036100C94190AA885B9851196A887B98755
:101A080011970895E02FE05DEC93E02F0895E885A5
:101A1800F9853196E887F98708952A93EF81F88543
:101A2800FA93EA93EB85FC8509950895FE01E65A39
:101A3800FF4F0190F081E02D08953497DE01A65AFA
:101A4800BF4FED93FC930895EF81F885FA93EA93DD
:101A5800EB85FC8509950895DE01A65ABF4F0D90C8
:101A6800BC91A02D0895EA87FB876C877D87089530
:101A7800DDDFE3CFEA85FB856C857D850895EE87FC
:101A8800FF87FA93EA930E94EE0A1E2F0895E4DF77
:101A980014960E9416100895E88BF98B6A8B7B8B3D
:101AA80008950B7FED89EA93FE01E95AFF4F0190F3
:101AB800F081E02DFA93EA93FE01E55AFF4F019079
:101AC800F081E02D099550300895E889F9896A89EF
:101AD8007B89AA85BB858C859D850895DE011C962A
:101AE8000E94950F0E94161008950E94950F0E945B
:101AF800161008953A930E94CB0AE0300895ED85B8
:101B0800FE85FA93EA93E989FA8909950895AB85E0
:101B1800BC85AC91A0300895EF85F8893497EF879C
:101B2800F88BAF85B88914960D911C910895AD81F5
:101B3800BE818F8198850895ED83FE836F837887B2
:101B48000895ED81FE816F8178850895F0DFE0E0EA
:101B5800F0E060E07FE30895A981BA818B819C81E0
:101B68000E94E20E0895EE81FF81FA93EA930895A8
:101B7800E987FA876B877C870895AE81BF811196C4
:101B8800AE83BF8311970895AA81BB818C819D8103
:101B98000895EA83FB836C837D830895EA81FB8142
:101BA8006C817D81A985BA858B859C850895A985D9
:101BB800BA858B859C850895E991F991309639F01D
:101BC80086E69EE00197F1F7A8953197C9F7089541
:101BD80030976040704009F070580895552342F4DA
:101BE800503811F4E0FF04C03196691F791F6BF07B
:101BF80050E8572711F45F93CFC05F3F31F0660F6D
:101C0800000C57956795752F08955F9300200AF08B
:101C1800CFC0C8C050E8192E1522880F991F9527E4
:101C2800550F879550E8072E0522660F771F7527F1
:101C3800550F67950895689401C0E8945F93F2DFA3
:101C4800703818F07F3F08F4A7C056E1571BAAF474
:101C5800519558300EF4593030F0EFEFFFEF6FEF39
:101C68007FE777F91AC077275523B9F0EE0FFF1FE2
:101C7800661F771F5A95D1F710C07727583028F07C
:101C8800EF2FF62F672F5850F9CF552331F076955F
:101C98006795F795E7955A95D1F700200AF449D149
:101CA8005F910895689401C0E8943097604070404F
:101CB800B1F0002426F0772312F400943AD1172EBD
:101CC8007EE1112032F07A95EE0FFF1F661F111C7E
:101CD800F9CFEF2FF62F612D5F938ADF5F9108957B
:101CE8004F93AF01FD01DA01AB01BC01CA01402DE0
:101CF800012C142E4F910895EA0FFB1F681F0895B9
:101D0800E095F0956095EF5FFF4F6F4F08955F93F3
:101D180081DF903871F150E8152604C05F937ADFAF
:101D2800903839F1703821F1572F591B2BF112F4E3
:101D3800D7DFFACF583118F0AA27BB2788275830A1
:101D480028F0AB2FB82F88275850F9CF552329F002
:101D58008695B795A7955A95D9F7502D512572F0C4
:101D6800CBDF38F46795F795E795739513F420C0A2
:101D7800B7DF3EDF5F910895D8F7FBCFEA1BFB0B77
:101D8800680B51F010F40094BBDF662392F3EE0F5A
:101D9800FF1F661F7A95CBF7EE27FF276627772761
:101DA8005F910895EFEFFFEF6FE77FEF5F91089581
:101DB800EFEFFFEF6FE77FE75F9108955F932ADF0B
:101DC800703851F3903841F301240894791F23F4B3
:101DD8001CF300203AF3ECCF0F921F932F933F93FD
:101DE8004F93112722279927689FA0018F9F302D95
:101DF800410D591F6B9F300D411D591F8E9F27D0D4
:101E0800BF9F25D06A9F23D0BE9F1DD0AF9F1BD0F8
:101E1800AE9F110D291F391F491F591FE32FF42F9A
:101E2800652F522F4F913F912F911F910F9066234D
:101E38002AF0550FEE1FFF1F661F02C073954BF265
:101E4800CDDE5F910895100D211D391F02C0200DB0
:101E5800311D491F591F08955F93DCDE703821F446
:101E680011200AF49FCFA4CF903809F495CF01240C
:101E78000894970B1BF4D4F30020F3CF792F1F930A
:101E88002F933F934F931124112722273327442759
:101E9800552790E2AE17BF078607410730F0AE1B03
:101EA800BF0B860B410B089401C08894551F221F55
:101EB800331F111CAA1FBB1F881F441F9A9551F777
:101EC800F901612D4F913F912F911F91662332F0B7
:101ED800550FEE1FFF1F661F7A9543F27FDE5F9155
:101EE800089599239AF0772342F0971748F029F438
:101EF800AE17BF07860720F031F0989488940895AC
:101F08009894089408951894889408957723C2F7AC
:101F1800971798F3A9F7EA17FB07680788F399F367
:101F2800ECCF0024AF0DB01D0895F195E195F04078
:101F38000895F09560957095E195FF4F6F4F7F4F2D
:101F48000895EF2FFF27E7FDFFEF0895FE2FFF0FFE
:101F5800FF0B6F2F7F2F08956F2F660F660B762F5D
:101F680008958B2F880F880B982F0895FA9FF02DCE
:101F7800EB9FF00DEA9FE02DF10D0895002498E005
:101F8800AA0F001C0E1A10F40E0E01C0A1609A953B
:101F9800B9F7EA2FA02D089539D0F0DF0EF4E195B6
:101FA80008953F934F935F930024112444275527A6
:101FB80030E2AA0FBB1F881F991F001C111C441F69
:101FC800551F0E1A1F0A460B570B28F40E0E1F1E1C
:101FD800461F571F01C0A1603A9559F7FD01BC0182
:101FE800D001CA015F914F913F910895E894A7FFEE
:101FF80002C0A1956894E7FDE195C0DFEA2F0EF4D1
:10200800E1950895CEDFFD01BC010895E894E7FF4E
:1020180002C0E1956894A7FF04C0A19500F8039455
:1020280000FA0895ED91FC9111970895ED91FD91B5
:102038006D917C9113970895ED93FD936D937C9327
:102048000895E881F9816A817B810895A881B98121
:102058008A819B810895E883F9836A837B83089545
:1020680060E070E07A936A93FA93EA93089568942B
:1020780001C0E89401D019DE182E862F612D192E83
:10208800972F712D1B2EBF2FF12D1A2EAE2FE12D5C
:102098000895309760407040089500240A160B0692
:1020A8000806090608955A934A933A932A931A936D
:1020B8000A9308955D814C813B812A8119810881A9
:1020C8000895AC0FBD1F05900D928A95E1F708950C
:00000001FF
