:0E0000000C94A6000C9400000C9400000C94CC
:10000E0000000C9400000C9400000C9400000C9462
:10001E0000000C9400000C9437020C9400000C9419
:10002E0000000C9400000C9441020C9400000C94FF
:10003E003B020C9400000C9400000C94FE010C94F6
:10004E0000000C9400000C9400000C9400000C9422
:10005E0000000C9400000C9400000C9400000C9412
:10006E0000000C9400000C9400000C9419020C94E7
:10007E0000000C9400000C9400000C940000000092
:10008E000000000000000000000000000000000062
:10009E000000E0E2E4E6E8EAECEE0000000000001A
:1000AE000000000000000000000000000000000042
:1000BE000000000000000000000000000000000032
:1000CE000000000000000000000000000000000022
:1000DE000000000000000000000000000000000012
:1000EE000000000000000000000000000000000002
:1000FE0000000000000000000000000000000000F2
:10010E0000000000000000000000000000000000E1
:10011E000000000000003C25642C25643E002D4E9E
:10012E00414E000001002D4E414E00494E4600004A
:10013E00080004001C010100780532010000F8944B
:10014E00EE27ECBBF1E0F5BFE5BFE0936C00F8E104
:10015E00F1BDE1BD8DE0A2E0BB27ED938A95E9F7F5
:10016E0080E090E1A0E0B1E0ED930197E9F7EEE3D6
:10017E00F1E085919591009761F0A591B59105906B
:10018E001590BF01F00105900D920197E1F7FB016B
:10019E00F0CF8BBFEFEFEDBFE0E1EEBFC0E0D5E0FB
:1001AE000C944602E0E0E0939B00E8E9E0939A00AD
:1001BE00E6E0E0939D00E0919D00EF7BE0939D00D3
:1001CE00E881F9810E94BB06E0939800E881E093F4
:1001DE00990014C0E0E0EBB9E8E9EAB9E6E0E09393
:1001EE009500E0919500EF7BE0939500E881F98111
:1001FE000E94BB06E0939000E881E9B9229608952B
:10020E00EBE0E5BDE4E6E3BDE2E8E7BF08955D9B04
:10021E00FECFE881ECB9219608950E94FA062FEFE1
:10022E003FEFEE81FF813197EE83FF833196F9F038
:10023E00A885B985ED91A887B987F0E02E273F27CD
:10024E0000E010E00830E0E01E0784F4F901E170F0
:10025E00F070AF0136952795042E052A21F0E1E0C6
:10026E00F0EA2E273F270F5F1F4FECCFDACFF901B1
:10027E000E9401072A96089528970E94FC0620E006
:10028E0030E0E889EC83E6E0ED83EE85FF850E94A1
:10029E00BB06EE83EE85EF83EC85FD850E94BB06E3
:1002AE00E887EC85E987E0E0EA87EB87FE01349684
:1002BE00FA93EA93E6E0F0E0FA93EA93AEDF8F0169
:1002CE00F801EA871B8720E030E02830E0E03E07A7
:1002DE0054F4DE011496A20FB31FEC91EA9397DF4C
:1002EE002F5F3F4FF2CF0E94030761960895289724
:1002FE00E0E0E883E983EA83EB83EC83ED83EE832E
:10030E00EF830E949804772342F00E949D040E947E
:10031E002205AC85BD850E94D7060E9498047F9366
:10032E006F93FF93EF930E949D040E94A204AF91DE
:10033E00BF918F919F910E94C805EC83FD836E83C0
:10034E007F830E9498047F936F93FF93EF930E9495
:10035E009D040E94A204AF91BF918F919F910E9424
:10036E00ED060E94C1050E94E106EC81FD816E81C1
:10037E007F810E94B104AA85BB85ED93FC930E94F8
:10038E00DC060E94B104A885B985ED93FC93AA857D
:10039E00BB850E94CD06EC32A1E0FA0734F4DF01F2
:1003AE00E4EDFEEFEA17FB070CF014C0A885B98543
:1003BE000E94CD06EC32A1E0FA0754F4A885B98567
:1003CE000E94CD06DF01E4EDFEEFEA17FB070CF00D
:1003DE0001C001C00AC0AA85BB85E0E0F0E0ED9344
:1003EE00FC93A885B985ED93FC9360960895AA9326
:1003FE00BA93EA93EFB7EA93E4B5EC3318F4E0E07E
:10040E00E51519F0E0E0E41519F40E94C00404C0EB
:10041E0044240E94C0045524E991EFBFE991B9919B
:10042E00A9911895EA93FA93EFB7EA931A9310E00D
:10043E0010919C001C3331F466240E94CA04E1E042
:10044E00BE2E08C01E3321F40E94CA04BB2402C073
:10045E000E94CA041991E991EFBFF991E99118959B
:10046E00EA93EFB7539403C0EA93EFB77394EFBFD9
:10047E00E9911895EA93E1E09E2EE9911895EF9790
:10048E00EF976A9780E9A0E0B0E0ECE8F0E00E9418
:10049E00080700E010E020E030E040E050E0E7E048
:1004AE00F0E0FA93EA937EDEE7E0F0E0FA93EA9367
:1004BE0091DEA6DE7894B99ABA9AE4ECF9E00E943D
:1004CE00D1049924BB2011F00C94E702C29B02C008
:1004DE00C29801C0C29AE0919A00EF7EE0939A0012
:1004EE00E4E6F5E0FA93EA93E4E2F1E0FA93EA93B4
:1004FE00EDB7FEB731970E94E6061F930F93EDB747
:10050E00FEB731970E94E6063F932F9388E00E9434
:10051E004B042C962F913F910F911F91E0919A00D1
:10052E00E061E0939A00F8010E94D504DE01A05725
:10053E00BF4FED93FD936D937C93F9010E94D5040B
:10054E00DE01AC56BF4FED93FD936D937C93FE0190
:10055E00E057FF4FFA93EA93FE01EA56FF4FFA93E4
:10056E00EA93EDB7FEB73197FA93EA935F934F9301
:10057E00FE01EC56FF4FFA93EA93B9DE4F915F916D
:10058E00E1E0EA93E9E7F0E0FA93EA935A934A93AB
:10059E000E94E204E2E0EA93E9E7F0E0FA93EA93DC
:1005AE00FE01EF56FF4F0190F081E02D0E94AF0645
:1005BE000E94E704E1E00E94EA04E2E00E94EA04FD
:1005CE0081CFFFCF1A93A981BA81E0E0EC93AB8182
:1005DE00BC81EC911E2FE03019F0E0E0EC9319C0D5
:1005EE00A981BA8111960E94CD06309789F0E981D2
:1005FE00FA81A181B281EC911E2FE03041F0A981E8
:10060E00BA811196ED91FD913196FE93EE9301C054
:10061E0010E0E12F18812596089525970E94FA067D
:10062E00E0E0F0E0E887F9874E2FE989FA89319604
:10063E00E98BFA8B3197E4913E2FE03011F40C9454
:10064E0045040E94F204C1F0EDB7FEB7FA93EA93A7
:10065E004F930E94F7044F913E2FE03019F00E9405
:10066E00F20409F407C00E94FF041CF4EFEFFFEF41
:10067E0007C1EACF432F01C1353211F00C942C047F
:10068E0050E0E989FA893591E98BFA8B303310F015
:10069E003A3308F007C0AAE05A9F502DE32FE053DB
:1006AE005E0FEFCF303009F4E9C0EDB7FEB7FA9325
:1006BE00EA934F930E94F7044F912E2FEA930E94D4
:1006CE008004E03039F00E94FF041CF4EFEFFFEFDE
:1006DE00D7C0EBCF203009F4C8C0422F503009F4F8
:1006EE005FEFE32FE33699F40E940405EDB7FEB7F2
:1006FE00FA93EA934F930E94F7044F91D801EC932B
:10070E000E94FF041CF4EFEFFFEFBAC098C0E3376E
:10071E0041F50E940405E52F5150E030F1F0EDB7A0
:10072E00FEB7FA93EA934F930E94F7044F913E2F30
:10073E00E03019F00E94F20439F00E94FF041CF41C
:10074E00EFEFFFEF9DC009C01F930F930F5F1F4F79
:10075E00E32FAF91BF91EC93DECFD801E0E0EC93A5
:10076E006EC0E1E0EA87E32FE43611F0E93619F4C2
:10077E00E0E0EA8702C0E53711F42AE008C0E83766
:10078E0011F420E104C0E53209F45FC077C0E0E067
:10079E00EE83EF83E52F5150E03011F40C941904E1
:1007AE00EDB7FEB7FA93EA934F930E94F7044F9179
:1007BE003E2FE13238F40E94FF041CF4EFEFFFEFFE
:1007CE005FC017C0EA85E03039F43D3219F4EFEF1F
:1007DE00EA87E0CFE1E0EA87203131F43A930E94D4
:1007EE008A04E03031F007C03A930E947804E0307A
:1007FE0011F4432F17C0313610F0375505C0313480
:10080E0010F0375301C03053E22FAE81BF81F0E0BC
:10081E000E94C506DF01E32FF0E0EA0FFB1FEE8317
:10082E00FF83B8CF0E940405EA85AE81BF81F0E058
:10083E00E7FDFFEF0E94C506D801ED93FC93E88516
:10084E00F9853196E887F98718C0EDB7FEB7FA93A8
:10085E00EA934F930E94F7044F91E31771F00E94B1
:10086E00FF041CF4EFEFFFEF0BC0E885F98530971E
:10087E0019F4EFEFFFEF04C001C0D7CEE885F9857C
:10088E000E94010763960895FF92F82E23971A93FC
:10089E000A930E940F05309719F4EFEFFFEF1CC07B
:1008AE00DE0111960E94AB068D010E940F05EB83AF
:1008BE00FC83DE0115960E94AB060E94CD06FA93CC
:1008CE00EA931A930A93E9EEF2E0FA93EA93FE01A1
:1008DE003896FA93EA93A1DE198108812596FF9046
:1008EE000895E1E0F991F03310F0FA3308F0EE27B5
:1008FE000895E1E0F991F03229F0F93010F0FE3070
:10090E0008F0EE270895E1E0F991F05340F0FA3047
:10091E0038F0FF75F750FA3010F0F03108F0EE278E
:10092E000895AE85BF850E94D1060895AC85BD851C
:10093E000E94D1060895A1EEBAE784E99EE30E94D3
:10094E001806DF01CB01E0E0F0E060E870E40E9401
:10095E0066060895AAEBB9EC88E193E40E941806A6
:10096E00A0E0B0E088EC91E40E9418060E945705C2
:10097E000895A42DB0E0A050BB4FECB1EC9343947E
:10098E00E0E0E4BD0895E62DF0E0EC59FA4F108357
:10099E0063940895FA93EA930C9416050E94C00688
:1009AE000E948E05DF01CB01E0E0F0E06AE774E41F
:1009BE000E94660608950E944301E5E0F0E0EACF4A
:1009CE00FA93EA93F8CFEA93E8E7F0E0FA93EA9322
:1009DE00E1E0F0E0F5CF3A930E948004E030089514
:1009EE00ED85FE85FA93EA93E989FA8909950895CA
:1009FE00AB85BC85AC91A0300895EF85F88934970E
:100A0E00EF87F88BAF85B88914960D911C910895D8
:100A1E00DE0117960E94AB060E94CD060895E9915D
:100A2E00F991309639F086E69EE00197F1F7A89598
:100A3E003197C9F7089530976040704009F07058AB
:100A4E000895552342F4503811F4E0FF04C0319656
:100A5E00691F791F6BF050E8572711F45F93CFC0D1
:100A6E005F3F31F0660F000C57956795752F08950F
:100A7E005F9300200AF0CFC0C8C050E8192E15228F
:100A8E00880F991F9527550F879550E8072E052239
:100A9E00660F771F7527550F67950895689401C0E7
:100AAE00E8945F93F2DF703818F07F3F08F4A7C028
:100ABE0056E1571BAAF4519558300EF4593030F0C8
:100ACE00EFEFFFEF6FEF7FE777F91AC07727552328
:100ADE00B9F0EE0FFF1F661F771F5A95D1F710C0A2
:100AEE007727583028F0EF2FF62F672F5850F9CF71
:100AFE00552331F076956795F795E7955A95D1F789
:100B0E0000200AF429D15F910895689401C0E894F9
:100B1E00309760407040B1F0002426F0772312F435
:100B2E0000941AD1172E7EE1112032F07A95EE0F35
:100B3E00FF1F661F111CF9CFEF2FF62F612D5F934C
:100B4E008ADF5F9108954F93AF01FD01DA01AB018A
:100B5E00BC01CA01402D012C142E4F910895EA0FAD
:100B6E00FB1F681F0895E095F0956095EF5FFF4FAE
:100B7E006F4F08955F9381DF903871F150E815261D
:100B8E0004C05F937ADF903839F1703821F1572F16
:100B9E00591B2BF112F4D7DFFACF583118F0AA27D0
:100BAE00BB278827583028F0AB2FB82F88275850EE
:100BBE00F9CF552329F08695B795A7955A95D9F76C
:100BCE00502D512572F0CBDF38F46795F795E795E8
:100BDE00739513F420C0B7DF3EDF5F910895D8F709
:100BEE00FBCFEA1BFB0B680B51F010F40094BBDF3C
:100BFE00662392F3EE0FFF1F661F7A95CBF7EE2753
:100C0E00FF27662777275F910895EFEFFFEF6FE7D6
:100C1E007FEF5F910895EFEFFFEF6FE77FE75F9153
:100C2E0008955F932ADF703851F3903841F3012411
:100C3E000894791F23F41CF300203AF3ECCF0F92A3
:100C4E001F932F933F934F93112722279927689F26
:100C5E00A0018F9F302D410D591F6B9F300D411DEF
:100C6E00591F8E9F27D0BF9F25D06A9F23D0BE9F2E
:100C7E001DD0AF9F1BD0AE9F110D291F391F491FCD
:100C8E00591FE32FF42F652F522F4F913F912F9124
:100C9E001F910F9066232AF0550FEE1FFF1F661F40
:100CAE0002C073954BF2CDDE5F910895100D211D9C
:100CBE00391F02C0200D311D491F591F08955F9322
:100CCE00DCDE703821F411200AF49FCFA4CF9038C7
:100CDE0009F495CF01240894970B1BF4D4F300204C
:100CEE00F3CF792F1F932F933F934F9311241127F7
:100CFE00222733274427552790E2AE17BF078607D2
:100D0E00410730F0AE1BBF0B860B410B089401C0A0
:100D1E008894551F221F331F111CAA1FBB1F881F2B
:100D2E00441F9A9551F7F901612D4F913F912F91E3
:100D3E001F91662332F0550FEE1FFF1F661F7A9527
:100D4E0043F27FDE5F9108950024AF0DB01D08952C
:100D5E00F195E195F0400895F09560957095E195C7
:100D6E00FF4F6F4F7F4F0895EF2FFF27E7FDFFEFE8
:100D7E0008956F2F660F660B762F0895FA9FF02D4C
:100D8E00EB9FF00DEA9FE02DF10D0895ED91FC9192
:100D9E0011970895ED91FD916D917C9113970895A2
:100DAE00ED93FD936D937C930895E881F9816A81AB
:100DBE007B810895E883F9836A837B83089560E0DD
:100DCE0070E07A936A93FA93EA930895182E862F19
:100DDE00612D192E972F712D1B2EBF2FF12D1A2E2F
:100DEE00AE2FE12D08955A934A933A932A931A936C
:100DFE000A9308955D814C813B812A811981088176
:100E0E000895AC0FBD1F05900D928A95E1F70895D8
:00000001FF
