:0E0000000C9490000C9400000C9400000C94E2
:10000E0000000C9400000C9400000C9400000C9462
:10001E0000000C9400000C94A4010C9400000C94AD
:10002E0000000C9400000C9400000C9400000C9442
:10003E00A8010C9400000C9400000C9466010C9422
:10004E0000000C9400000C9400000C9400000C9422
:10005E0000000C9400000C9400000C9400000C9412
:10006E0000000C9400000C9400000C9486010C947B
:10007E0000000C9400000C9400000C94000010275B
:10008E00E80364000A0001000010000110000100E6
:10009E000000000000000000000000000000000052
:1000AE000000000000000000000000000000000042
:1000BE000000000000000000000000000000000032
:1000CE000000000000000000000000000000000022
:1000DE000000000000000000000000000000000012
:1000EE000000000000000000000000000000000002
:1000FE0000000000000000000000000000000000F2
:10010E0000003C25642C25643E00060004000A0114
:10011E000000F894EE27ECBBF1E0F5BFE5BFE093ED
:10012E006C00F8E1F1BDE1BD8DE0A2E0BB27ED93DF
:10013E008A95E9F780E090E1A0E0B1E0ED930197B8
:10014E00E9F7E8E1F1E085919591009761F0A591CD
:10015E00B59105901590BF01F00105900D92019794
:10016E00E1F7FB01F0CF8BBFEFEFEDBFE0E1EEBFAC
:10017E00C0E0D5E00C94AE01E0E0E0939B00E8E92E
:10018E00E0939A00E6E0E0939D00E0919D00EF7B06
:10019E00E0939D00E881F9810E946404E093980049
:1001AE00E881E093990014C0E0E0EBB9E8E9EAB920
:1001BE00E6E0E0939500E0919500EF7BE0939500EB
:1001CE00E881F9810E946404E0939000E881E9B926
:1001DE0022960895EDE0E5BDE8E2E3BD08955D9B4E
:1001EE00FECFE881ECB9219608950E947A042FEF94
:1001FE003FEFEE81FF813197EE83FF833196F9F069
:10020E00A885B985ED91A887B987F0E02E273F27FD
:10021E0000E010E00830E0E01E0784F4F901E17020
:10022E00F070AF0136952795042E052A21F0E1E0F6
:10023E00F0EA2E273F270F5F1F4FECCFDACFF901E1
:10024E000E9481042A96089528970E947C0420E03B
:10025E0030E0E889EC83E6E0ED83EE85FF850E94D1
:10026E006404EE83EE85EF83EC85FD850E946404C5
:10027E00E887EC85E987E0E0EA87EB87FE013496B4
:10028E00FA93EA93E6E0F0E0FA93EA93AEDF8F0199
:10029E00F801EA871B8720E030E02830E0E03E07D7
:1002AE0054F4DE011496A20FB31FEC91EA9397DF7C
:1002BE002F5F3F4FF2CF0E94830461960895AA9359
:1002CE00BA93EA93EFB7EA93E4B5E93118F4E0E0B4
:1002DE00E51519F0E0E0E41509F401C04424A42D5D
:1002EE00B0E0A050BB4FECB1EC934394E0E0E4BD22
:1002FE005524E991EFBFE991B991A9911895EA9327
:10030E00FA93EFB7EA931A9310E010919C001C3306
:10031E0031F466240E94B203E1E09E2E08C01E3323
:10032E0021F40E94B203992402C00E94B2031991D3
:10033E00E991EFBFF991E9911895EA93EFB75394CC
:10034E0003C0EA93EFB77394EFBFE9911895EF9757
:10035E00AD978CE6A0E0B0E0EEE9F0E00E948804F4
:10036E00E7E0F0E0FA93EA9307DFE7E0F0E0FA93D4
:10037E00EA931ADF2FDF7894E8E8F3E10E94B903DD
:10038E009920C1F5E4E6F5E0FA93EA93E0E1F1E0B5
:10039E00FA93EA930E94BD030E94BD0388E00E9477
:1003AE0065032C96E1E0EA93E9E7F0E0FA93EA932D
:1003BE00FE01E559FF4F0190119061917081F0019E
:1003CE000E94C503E2E0EA93E9E7F0E0FA93EA93CC
:1003DE00FE01E959FF4F0190119061917081F0017A
:1003EE000E940C040E94C503E1E00E94CE03E2E0ED
:1003FE000E94CE03C5CFFFCF1A93A981BA81E0E048
:10040E00EC93AB81BC81EC911E2FE03019F0E0E053
:10041E00EC9319C0A981BA8111960E94710430978C
:10042E0089F0E981FA81A181B281EC911E2FE03031
:10043E0041F0A981BA811196ED91FD913196FE930D
:10044E00EE9301C010E0E12F1881259608952597AF
:10045E000E947A04E0E0F0E0E887F9874E2FE98900
:10046E00FA893196E98BFA8B3197E4913E2FE03081
:10047E0011F40C945F030E94DC03C1F0EDB7FEB7DC
:10048E00FA93EA934F930E94E1034F913E2FE0308F
:10049E0019F00E94DC0309F407C00E94E9031CF462
:1004AE00EFEFFFEF07C1EACF432F01C1353211F055
:1004BE000C94460350E0E989FA893591E98BFA8B61
:1004CE00303310F03A3308F007C0AAE05A9F502D8F
:1004DE00E32FE0535E0FEFCF303009F4E9C0EDB7F4
:1004EE00FEB7FA93EA934F930E94E1034F912E2F9A
:1004FE00EA930E949A03E03039F00E94E9031CF45B
:10050E00EFEFFFEFD7C0EBCF203009F4C8C0422F7A
:10051E00503009F45FEFE32FE33699F40E94EE03B7
:10052E00EDB7FEB7FA93EA934F930E94E1034F9112
:10053E00D801EC930E94E9031CF4EFEFFFEFBAC071
:10054E0098C0E33741F50E94EE03E52F5150E0309D
:10055E00F1F0EDB7FEB7FA93EA934F930E94E103E1
:10056E004F913E2FE03019F00E94DC0339F00E94CB
:10057E00E9031CF4EFEFFFEF9DC009C01F930F932B
:10058E000F5F1F4FE32FAF91BF91EC93DECFD801DA
:10059E00E0E0EC936EC0E1E0EA87E32FE43611F081
:1005AE00E93619F4E0E0EA8702C0E53711F42AE0F3
:1005BE0008C0E83711F420E104C0E53209F45FC049
:1005CE0077C0E0E0EE83EF83E52F5150E03011F479
:1005DE000C943303EDB7FEB7FA93EA934F930E9450
:1005EE00E1034F913E2FE13238F40E94E9031CF4EF
:1005FE00EFEFFFEF5FC017C0EA85E03039F43D3210
:10060E0019F4EFEFEA87E0CFE1E0EA87203131F429
:10061E003A930E94A403E03031F007C03A930E944F
:10062E009203E03011F4432F17C0313610F03755D6
:10063E0005C0313410F0375301C03053E22FAE8174
:10064E00BF81F0E00E946904DF01E32FF0E0EA0FC2
:10065E00FB1FEE83FF83B8CF0E94EE03EA85AE81C7
:10066E00BF81F0E0E7FDFFEF0E946904D801ED9332
:10067E00FC93E885F9853196E887F98718C0EDB7C0
:10068E00FEB7FA93EA934F930E94E1034F91E3175B
:10069E0071F00E94E9031CF4EFEFFFEF0BC0E88549
:1006AE00F985309719F4EFEFFFEF04C001C0D7CEF4
:1006BE00E885F9850E94810463960895FF92F82ECD
:1006CE0023971A930A930E94F903309719F4EFEFC8
:1006DE00FFEF1CC0DE0111960E9458048D010E948E
:1006EE00F903EB83FC83DE0115960E9458040E94E9
:1006FE007104FA93EA931A930A93E3E0F2E0FA9301
:10070E00EA93FE013896FA93EA93A1DE19810881E5
:10071E002596FF900895E1E0F991F03310F0FA3349
:10072E0008F0EE270895E1E0F991F03229F0F93062
:10073E0010F0FE3008F0EE270895E1E0F991F05345
:10074E0040F0FA3038F0FF75F750FA3010F0F03113
:10075E0008F0EE270895E62DF0E0EC59FA4F1083DD
:10076E0063940895FA93EA930C940004FE01E459FD
:10077E00FF4F662777270E94750408950E941D0477
:10078E00FA93EA930E942B01E5E0F0E0EBCFEA93B7
:10079E00E8E7F0E0FA93EA93E1E0F0E0FA93EA9307
:1007AE000E942B01E5E0F0E0DDCF3A930E949A0320
:1007BE00E0300895ED85FE85FA93EA93E989FA898A
:1007CE0009950895AB85BC85AC91A0300895EF8551
:1007DE00F8893497EF87F88BAF85B88914960D9109
:1007EE001C910895DE0117960E9458040E94710410
:1007FE000895E991F991309639F086E69EE00197D9
:10080E00F1F7A8953197C9F7089530976040704079
:10081E0009F07058089550E8072E0522660F771FCD
:10082E007527550F67950895689401C0E8945F93F6
:10083E00F2DF703818F07F3F08F42DC056E1571BD9
:10084E00AAF4519558300EF4593030F0EFEFFFEF17
:10085E006FEF7FE777F91AC077275523B9F0EE0FC0
:10086E00FF1F661F771F5A95D1F710C07727583094
:10087E0028F0EF2FF62F672F5850F9CF552331F070
:10088E0076956795F795E7955A95D1F700200AF476
:10089E000CD05F910895EE27FF27662777275F918B
:1008AE0008950024AF0DB01D0895F09560957095D4
:1008BE00E195FF4F6F4F7F4F0895EF2FFF27E7FD15
:1008CE00FFEF0895FA9FF02DEB9FF00DEA9FE02DBC
:1008DE00F10D0895ED91FC91119708957A936A9315
:1008EE00FA93EA9308955A934A933A932A931A9352
:1008FE000A9308955D814C813B812A81198108817B
:10090E000895AC0FBD1F05900D928A95E1F70895DD
:00000001FF
